:100000000C94DF000C9407010C9407010C94070179
:100010000C9407010C9407010C9407010C94070140
:100020000C9407010C9407010C9407010C94280C04
:100030000C9407010C9407010C9407010C94070120
:100040000C94860B0C9407010C94F60B0C94D00BBB
:100050000C9407010C9407010C9407010C94070100
:100060000C94670A0C94070100407A10F35A00A020
:10007000724E18090010A5D4E80000E87648170071
:1000800000E40B54020000CA9A3B000000E1F505B1
:10009000000080969800000040420F000000A086FB
:1000A00001000000102700000000E803000000002D
:1000B0006400000000000A000000000001000000D1
:1000C00000002C76D888DC674F0823DFC1DFAE59EB
:1000D000E1B1B796E5E3E453C63AE651997696E87E
:1000E000E6C28426EB898C9B62ED407C6FFCEFBC02
:1000F0009C9F40F2BAA56FA5F490055A2AF75C932D
:100100006B6CF9676DC11BFCE0E40D47FEF520E662
:10011000B500D0ED902E0300943577050080841E45
:10012000080000204E0A000000C80C333333330FA0
:10013000986E12831141EF8D2114893BE65516CF3D
:10014000FEE6DB18D1844B381BF77C1D901DA4BB49
:10015000E424203284725E228100C9F124ECA1E5FE
:100160003D270000000023002600290000000000B9
:10017000240027002A0000000000250028002B0092
:10018000040404040404040402020202020203033D
:100190000303030301020408102040800102040845
:1001A00010200102040810200000000800020100D5
:1001B000000304070000000000000000E40C11240C
:1001C0001FBECFEFD8E0DEBFCDBF12E0A0E0B1E0B0
:1001D000E0E0F1E302C005900D92A838B107D9F72D
:1001E00024E0A8E8B2E001C01D92AF34B207E1F705
:1001F00010E0CFEDD0E004C02197FE010E94691508
:10020000CE3DD107C9F70E94880D0C947E180C943E
:100210000000E0913904EC3088F540913A0428E878
:1002200030E0241B310947FD3395220F331F220F85
:10023000331F8217930784F040913B0428E532E096
:10024000241B310947FD3395220F331F220F331F23
:10025000821793070CF49C0122503109220F331F9F
:100260004FB7F8948E2F90E0FC01EE0FFF1FE80FC0
:10027000F91FEC5EFB4F328321834FBF089520911D
:100280001F03260F3327331F21323105ECF4209151
:100290004503FC0190E080E0243069F082E008959D
:1002A000A0911F032191AC0143505D4FA40FB52FC6
:1002B000B11D2C930196861798F380911F03680F48
:1002C00060931F0380E0089581E0089508950895E4
:1002D0000895E091F4028091F302E81730F4F0E021
:1002E000ED52FD4F808190E008958FEF9FEF0895CC
:1002F0009091F4028091F3022FEF3FEF981748F4AA
:10030000E92FF0E0ED52FD4F208130E09F5F9093A8
:10031000F402C90108958091F3029091F402891BBF
:10032000990B0895CF92DF92EF92FF920F931F9354
:10033000CF93DF937C01CB018A012091D20222234B
:1003400089F0EB016B01C40ED51ECC15DD0569F0FB
:100350006991D701ED91FC910190F081E02DC701E9
:100360000995F3CF642F0E943F01C801DF91CF911F
:100370001F910F91FF90EF90DF90CF900895CF9352
:10038000DF931F92CDB7DEB769832091D20222237B
:10039000F9F02091F502203258F021E030E0FC0124
:1003A0003383228390E080E00F90DF91CF91089516
:1003B0008091F602E82FF0E0EE54FD4F9981908392
:1003C0008F5F8093F6028093F50281E090E0ECCF9E
:1003D00061E0CE0101960E943F01F7CF833081F0AA
:1003E00028F4813099F08230A9F008958730A9F07F
:1003F0008830C9F08430B1F4809180008F7D03C0D3
:10040000809180008F7780938000089584B58F77E6
:1004100084BD089584B58F7DFBCF8091B0008F7728
:100420008093B00008958091B0008F7DF9CF1F9325
:10043000CF93DF93282F30E0F901E855FE4F8491E8
:10044000F901EC56FE4FD491F901E058FE4FC491EA
:10045000CC23A9F0162F81110E94EE01EC2FF0E0C1
:10046000EE0FFF1FEA58FE4FA591B4918FB7F89495
:10047000EC91111108C0D095DE23DC938FBFDF9182
:10048000CF911F910895DE2BF8CF1092450381E0A4
:10049000809347031092460361E082E10E941702B5
:1004A00061E083E10E941702E9EBF0E080818E7F3A
:1004B000808380818D7F808388E48093B80085E489
:1004C0008093BC000895CF93DF9391E09093FC025A
:1004D0008823B9F0C091B800D091BA008091BC00D7
:1004E0008A7B8093BC0060E082E10E94170260E09A
:1004F00083E10E9417020E944502D093BA00C09384
:10050000B800DF91CF910895CF93DF9390E0FC0185
:10051000EC56FE4F249180589E4FFC018491882315
:10052000C9F090E0880F991FFC01E459FE4FA59196
:10053000B491FC01EA58FE4FC591D49161110DC0F0
:100540009FB7F8948C91209582238C9388812823DF
:1005500028839FBFDF91CF910895623051F49FB7F8
:10056000F8943C91822F809583238C93E8812E2BE5
:10057000EFCF8FB7F894EC912E2B2C938FBFEACF4F
:100580008E3008F08E508770806480937C0080915C
:100590007A00806480937A0080917A0086FDFCCF97
:1005A000809178009091790008953FB7F8948091F8
:1005B000AE029091AF02A091B002B091B10226B507
:1005C000A89B05C02F3F19F00196A11DB11D3FBF8B
:1005D000BA2FA92F982F8827BC01CD01620F711D5A
:1005E000811D911D42E0660F771F881F991F4A9554
:1005F000D1F708958F929F92AF92BF92CF92DF92E0
:10060000EF92FF924B015C010E94D5026B017C01CD
:100610000E94D5026C197D098E099F09683E7340BE
:1006200081059105A8F321E0821A9108A108B1087B
:1006300088EEC80E83E0D81EE11CF11C81149104E1
:10064000A104B10429F7FF90EF90DF90CF90BF9005
:10065000AF909F908F9008952FB7F8946091AA0261
:100660007091AB028091AC029091AD022FBF0895C2
:10067000AF92BF92CF92DF92EF92FF920F931F93B0
:10068000CF93DF936C017B018B01040F151FEB01EE
:100690005E01AE18BF08C017D10759F06991D601A5
:1006A000ED91FC910190F081E02DC6010995892B17
:1006B00079F7C501DF91CF911F910F91FF90EF90D6
:1006C000DF90CF90BF90AF900895FC01538D448D83
:1006D000252F30E0842F90E0821B930B541710F0ED
:1006E000CF96089501970895FC01918D828D9817FA
:1006F00061F0A28DAE0FBF2FB11D5D968C91928DD2
:100700009F5F9F73928F90E008958FEF9FEF089502
:10071000FC01918D828D981731F0828DE80FF11DCB
:10072000858D90E008958FEF9FEF0895FC01918DE6
:10073000228D892F90E0805C9F4F821B91098F73DF
:100740009927089587E793E00E94960321E0892B7B
:1007500009F420E0822F089580E090E0892B29F0B1
:100760000E94A20381110C9400000895FC01A48D45
:10077000A80FB92FB11DA35ABF4F2C91848D90E0C3
:1007800001968F739927848FA689B7892C93A089A6
:10079000B1898C91837080648C93938D848D981330
:1007A00006C00288F389E02D80818F7D80830895C3
:1007B000EF92FF920F931F93CF93DF93EC0181E0B1
:1007C000888F9B8D8C8D98131AC0E889F989808158
:1007D00085FF15C09FB7F894EE89FF896083E8898B
:1007E000F98980818370806480839FBF81E090E07D
:1007F000DF91CF911F910F91FF90EF900895F62E0A
:100800000B8D10E00F5F1F4F0F731127E02E8C8DA3
:100810008E110CC00FB607FCFACFE889F9898081E8
:1008200085FFF5CFCE010E94B603F1CFEB8DEC0F23
:10083000FD2FF11DE35AFF4FF0829FB7F8940B8F05
:10084000EA89FB8980818062CFCFCF93DF93EC016F
:10085000888D8823B9F0AA89BB89E889F9898C91A8
:1008600085FD03C0808186FD0DC00FB607FCF7CF64
:100870008C9185FFF2CF808185FFEDCFCE010E9464
:10088000B603E9CFDF91CF910895862F642F0C94A2
:100890008402CF93DF93FC01218930E0F901E85510
:1008A000FE4F8491F901EC56FE4FD491F901E058C6
:1008B000FE4FC491CC2379F081110E94EE01EC2F00
:1008C000F0E0EE0FFF1FEE59FE4FA591B491EC91B1
:1008D000ED2381E009F480E08170DF91CF910895EC
:1008E000CF92DF92EF92FF920F931F93CF93DF93FC
:1008F000FC01C48121E02093D202C09397021092A0
:10090000F6021092F5028485682B8BE693E00E9434
:10091000BF01D091F502D13208F092C00E94D502F9
:100920006B017C0180914503811165C082E0809359
:10093000450381E0809347038FEF80934403109237
:100940006903D0936803A2EBB2E0E8E4F3E080E04F
:10095000D81385C010926A0380916A03CC0FC82B0C
:10096000C0936A0380914603813009F07CC01092E5
:1009700046030E94D5026B017C0180916A0380933B
:10098000BB008091F8029091F902A091FA02B09117
:10099000FB02892B8A2B8B2B99F00E94D5020091A8
:1009A000F8021091F9022091FA023091FB026C19C1
:1009B0007D098E099F090617170728073907E0F1F7
:1009C0008091BC0083FDD9CF85EC8093BC000E9450
:1009D000D5026B017C0180914503823009F445C04A
:1009E000809144038F3F61F180914403803241F153
:1009F0008091440325C08091F8029091F902A09162
:100A0000FA02B091FB02892B8A2B8B2B09F48ACF37
:100A10000E94D5020091F8021091F9022091FA0289
:100A20003091FB026C197D098E099F090617170783
:100A30002807390708F076CF8091F7020E946302F9
:100A40001092F6021092F5021092D202DF91CF912D
:100A50001F910F91FF90EF90DF90CF9008959D919F
:100A600091938F5F75CF85EEB0CF8091F802909112
:100A7000F902A091FA02B091FB02892B8A2B8B2BF1
:100A800009F4A9CF0E94D5020091F8021091F90251
:100A90002091FA023091FB026C197D098E099F09A1
:100AA000061717072807390708F095CFC5CF08950F
:100AB00090E080E00895FB0101900020E9F7319774
:100AC000AF01461B570BDC01ED91FC910280F381D5
:100AD000E02D0994CF93DF93FC014481558160811F
:100AE000718187E793E00E943803EC016BE471E0C9
:100AF00087E793E00E945B058C0F9D1FDF91CF91EC
:100B000008958F929F92AF92BF920F931F93CF93AE
:100B1000DF93CDB7DEB7A1970FB6F894DEBF0FBE57
:100B2000CDBF19A2423008F44AE08E010F5D1F4F7D
:100B3000842E912CB12CA12CA50194010E94271583
:100B4000E62FB901CA01EA3004F5E05DD801EE9361
:100B50008D01232B242B252B79F790E080E0109733
:100B600029F0BD0187E793E00E945B05A1960FB6CF
:100B7000F894DEBF0FBECDBFDF91CF911F910F91D3
:100B8000BF90AF909F908F900895E95CDFCFCF9397
:100B9000DF93D0E0C0E0009731F0BC0187E793E03D
:100BA0000E945B05EC016BE471E087E793E00E9433
:100BB0005B058C0F9D1FDF91CF91089582309105C9
:100BC000F9F03CF4009769F00197B9F08EE991E0F3
:100BD0000AC083309105B9F00497C1F78EE891E01F
:100BE00002C08EE491E09093010180930001809116
:100BF0000001909101010C94C7058EE591E0F3CFBF
:100C00008EE691E0F0CF8EE791E0EDCF4F925F92CC
:100C10006F927F928F929F92AF92BF92CF92DF920C
:100C2000EF92FF920F931F93CF936B017C01742E71
:100C3000AC019B010E9482166EEA71E0811126C010
:100C400046015701E894B7F82FEF3FEF4FE75FE712
:100C5000C501B4010E94821681110CC02FEF3FEF35
:100C60004FE75FE7C501B4010E94CC1362EB71E06E
:100C7000181664F02FEF3FEF4FE75FE4C701B601AE
:100C80000E947D161816ACF466EB71E087E793E0DE
:100C9000CF911F910F91FF90EF90DF90CF90BF9079
:100CA000AF909F908F907F906F905F904F900C943B
:100CB0005B052FEF3FEF4FE75FECC701B6010E94E6
:100CC000CC1387FDE1CF20E030E0A901C701B601D8
:100CD0000E94CC1310E000E087FF0AC06DE287E7B6
:100CE00093E00E94D8038C01F7FAF094F7F8F0949F
:100CF000C0E060E070E080E09FE37C1641F020E01F
:100D000030E040E251E40E94DC15CF5FF6CFA7014E
:100D100096010E9470152B013C010E944E164B015A
:100D20005C014AE00E9481057C01E00EF11ECC23AB
:100D3000C1F1C501B4010E94D1139B01AC01C301F3
:100D4000B2010E946F154B015C016EE287E793E0F0
:100D50000E94D803E80EF91EC15018F120E030E0DF
:100D600040E251E4C501B4010E9432142B013C0160
:100D70000E944E164B01B12CA12C4AE0C501B401D2
:100D80000E948105E80EF91EC501B4010E94D1132D
:100D90009B01AC01C301B2010E946F154B015C01C4
:100DA000DBCFC701CF911F910F91FF90EF90DF90A4
:100DB000CF90BF90AF909F908F907F906F905F90FB
:100DC0004F9008950F931F93CF938C01C62F0E94CD
:100DD00070046C2F6460C8010E9470046C2F6B7FDC
:100DE000C8010E94700483EC90E00197F1F7CF9165
:100DF0001F910F9108950F931F93CF93DF938C0151
:100E0000D62FC42F607F642B0E94E20680E1D89F1A
:100E1000B00111246C2BC801DF91CF911F910F916C
:100E20000C94E20640E062E08EE394E00E94FB0650
:100E30008BE39FE10197F1F70895CF93DF93CDB74F
:100E4000DEB728970FB6F894DEBF0FBECDBF98E08F
:100E5000E8E0F1E0DE01119601900D929A95E1F73C
:100E600090914604981708F48FEF90E0880F991F2F
:100E700021E030E02C0F3D1F820F931FFC016081A9
:100E8000606840E08EE394E028960FB6F894DEBFE9
:100E90000FBECDBFDF91CF910C94FB0640E061E027
:100EA0008EE394E00E94FB068BE39FE10197F1F74C
:100EB00080914704882319F080E00C941D07089561
:100EC00041E00E94FB0681E090E00895CF92DF921E
:100ED000EF92FF92CF93DF932091A3023091A4026F
:100EE000232B81F484E090E09093A4028093A302EA
:100EF0008AEB91E0DF91CF91FF90EF90DF90CF9060
:100F00000C94C705EC0184E090E09093A4028093D8
:100F1000A3020E94DE050E942C03C090A502D0907F
:100F2000A602E090A702F090A8026C197D098E0934
:100F30009F094AE00E94810565EF71E087E793E031
:100F40000E945B05CC84DD840D2C000CEE08FF08AC
:100F50004AE0C701B601F7FE0DC06DE287E793E0F6
:100F60000E94D80366277727CB016C197D098E096B
:100F70009F094AE00E94810565EF71E087E793E0F1
:100F80000E945B05688179818A819B8142E00E9491
:100F9000060665EF71E087E793E00E945B056C81D0
:100FA0007D818E819F8142E00E94060665EF71E09F
:100FB00087E793E00E945B05688579858A859B8534
:100FC00042E00E9406066BE471E087E793E0DF9160
:100FD000CF91FF90EF90DF90CF900C945B0585ED63
:100FE0008093BC008091F8029091F902A091FA02DE
:100FF000B091FB020796A11DB11D23E0B695A79500
:10100000979587952A95D1F72091BC0024FD03C0C0
:101010001092450308954091F8025091F9026091B1
:10102000FA027091FB02452B462B472B69F3009780
:10103000A105B10541F02AE22A95F1F700C0019718
:10104000A109B109E1CF8091F7020C9463020E94DB
:1010500069180F931F93CF93DF93EC0188819981D7
:10106000009759F02A813B812617370730F081E03D
:10107000DF91CF911F910F9108958B016F5F7F4F8B
:101080000E94AC17009759F0998388831B830A83C9
:101090002C813D81232B59F7FC011082E8CF80E0A1
:1010A000E7CFCF93DF93EC0188819981009711F00E
:1010B0000E942317198218821D821C821B821A82A9
:1010C000DF91CF910895CF92DF92EF92FF920F932D
:1010D0001F93CF93DF93CDB7DEB728970FB6F89461
:1010E000DEBF0FBECDBF7C01CB014AE09E012F5F6A
:1010F0003F4F6901B9010E946011F6010190002083
:10110000E9F73197EC19FD09D9F0D70114960D9143
:101110001C910E0F1F1FB801C7010E9429088823C8
:10112000F9F0F7012081318184819581B601820F28
:10113000931F0E947718D70115961C930E9314974E
:10114000C70128960FB6F894DEBF0FBECDBFDF9162
:10115000CF911F910F91FF90EF90DF90CF90089566
:10116000C7010E945108ECCFEF92FF920F931F939B
:10117000CF93DF938C017B01FB0101900020E9F705
:101180003197E61BF70BD1F0DC011496CD91DC9181
:10119000CE0FDF1FBE010E9429088823B9F0F80195
:1011A0002081318184819581B701820F931F0E9434
:1011B0007718D8011596DC93CE931497C801DF9168
:1011C000CF911F910F91FF90EF900895C8010E9459
:1011D0005108F4CFEF92FF920F931F93CF93DF93B9
:1011E000EC017B018A01BA010E94290881110BC020
:1011F000CE010E945108CE01DF91CF911F910F9136
:10120000FF90EF9008951D830C83B7018881998129
:101210000E947718F0CFEF92FF920F931F93CF9316
:10122000DF93CDB7DEB762970FB6F894DEBF0FBE7F
:10123000CDBF8C01CB01F801118210821382128282
:10124000158214824AE09E012F5F3F4F7901B90158
:101250000E946011F70101900020E9F73197AF017A
:101260004E195F09B701C8010E94EA0862960FB6DD
:10127000F894DEBF0FBECDBFDF91CF911F910F91CC
:10128000FF90EF900895FB01DC0111961C921E92D5
:1012900013961C921E92129715961C921E921497EA
:1012A0008617970749F0608171816115710521F0FA
:1012B000448155810C94EA080895FC011182108242
:1012C0001382128215821482FB0101900020E9F73B
:1012D0003197AF01461B570B0C94EA08FC01808143
:1012E0009181009711F00C94231708952F923F924B
:1012F0004F925F926F927F928F929F92AF92BF9226
:10130000CF92DF92EF92FF920F931F93CF93DF93D1
:10131000CDB7DEB72D970FB6F894DEBF0FBECDBFA9
:101320005C016C01F12CE12C7724739482E0682E2F
:1013300046018A189B0800913C0410913D040E0D53
:101340001F1DD80118968C9118978B7F18968C9337
:101350001897ED91FC910190F081E02DC80109955D
:101360008D87F8018085869581702D84281609F473
:1013700068C00E942C03D80112966D937D938D93C3
:101380009C93159718968C911897862518968C9390
:10139000E0913C04F0913D04EE0DFF1D608562FB81
:1013A000112710F960FD10E0D6011D936D018085B5
:1013B00080FD26C082FF24C067EF71E0CE01019658
:1013C0000E945D09BE016F5F7F4FCE0107960E94AC
:1013D0004309B401CE0107960E9463086EEF71E0E5
:1013E0000E94B408612F70E00E9463080E946A05A1
:1013F000CE0107960E946E09CE0101960E946E09E9
:10140000B2E1EB0EF11CE6E3EE16F10409F090CF29
:101410002D960FB6F894DEBF0FBECDBFDF91CF91F2
:101420001F910F91FF90EF90DF90CF90BF90AF9002
:101430009F908F907F906F905F904F903F902F90F4
:1014400008950E942C03F801228133814481558143
:101450001B012C01221A330A440A550AB201A101C8
:1014600086819781B0E0A0E0481759076A077B079B
:1014700008F48ECF808581703D84381609F488CFBA
:101480000E942C03D80112966D937D938D939C93AB
:10149000159718968C9118978725846018968C93C9
:1014A0000E942C03F8012185328543855485621BF7
:1014B000730B840B950B658776878787908B0E94CB
:1014C0002C03F801618772878387948761CF1F920D
:1014D0000F920FB60F9211242F933F934F935F9368
:1014E0006F937F938F939F93AF93BF93EF93FF93EC
:1014F0008091B900887F803609F44AC0F0F58832BF
:1015000009F4A7C018F5803109F49BC0B8F488230A
:1015100009F4F9C0883009F494C0FF91EF91BF91AC
:10152000AF919F918F917F916F915F914F913F917B
:101530002F910F900FBE0F901F901895883109F4CE
:1015400088C0803251F78093440314C0803409F47A
:101550009DC040F48033B9F38833F9F68093440397
:1015600085ECB0C0803509F485C0883509F496C093
:10157000883499F60E94EF07D0CF883909F48CC0DF
:1015800038F5883729F050F4883611F0803729F67D
:1015900083E0809345031092430357C0883809F4D1
:1015A0007BC0803919F0803809F0B7CF80914303B0
:1015B000803208F071C0E091430381E08E0F809388
:1015C00043038091BB00F0E0ED5DFC4F80833DC0A4
:1015D000803B39F0E0F4803A09F479C0883A09F0A8
:1015E0009CCF84E0809345031092200310921F0348
:1015F000E0911D03F0911E03099580911F03811155
:101600000FC081E080931F031092FD0209C0803C4F
:1016100009F4A6CF883C09F4A3CF883B09F07DCF1D
:10162000E091200381E08E0F80932003F0E0E350EF
:10163000FD4F80818093BB009091200380911F0318
:1016400029C080916A038093BB0085EC8093BC0025
:1016500064CF9091690380916803981758F5E091E1
:10166000690381E08E0F80936903F0E0E85BFC4F33
:101670008081E9CFE091690381E08E0F8093690357
:101680008091BB00F0E0E85BFC4F808390916903A0
:10169000809168039817C8F285E8D8CFE091690374
:1016A00081E08E0F809369038091BB00F0E0E85BDE
:1016B000FC4F80838091470381115CCF81E0809350
:1016C000460384EA8093BC001092450326CF85EC44
:1016D0008093BC001092450380914303803230F424
:1016E000E0914303F0E0ED5DFC4F10826091430315
:1016F00070E0E0912103F091220383E293E00995E9
:10170000109243030ACF1092440334CF1F920F92DA
:101710000FB60F9211242F933F938F939F93AF9304
:10172000BF938091AA029091AB02A091AC02B091BC
:10173000AD023091A90223E0230F2D3758F5019611
:10174000A11DB11D2093A9028093AA029093AB0220
:10175000A093AC02B093AD028091AE029091AF0223
:10176000A091B002B091B1020196A11DB11D80936C
:10177000AE029093AF02A093B002B093B102BF91BA
:10178000AF919F918F913F912F910F900FBE0F902E
:101790001F90189526E8230F0296A11DB11DD2CFE8
:1017A0001F920F920FB60F9211242F933F934F93D6
:1017B0005F936F937F938F939F93AF93BF93EF93B9
:1017C000FF9387E793E00E94B603FF91EF91BF91EB
:1017D000AF919F918F917F916F915F914F913F91C9
:1017E0002F910F900FBE0F901F9018951F920F9280
:1017F0000FB60F9211242F938F939F93EF93FF9324
:10180000E0918703F09188038081E0918D03F0914E
:101810008E0382FD1BC09081809190038F5F8F7338
:1018200020919103821741F0E0919003F0E0E95894
:10183000FC4F958F80939003FF91EF919F918F9133
:101840002F910F900FBE0F901F9018958081F4CFAD
:101850001F920F920FB60F9211242F933F934F9325
:101860005F936F937F938F939F93AF93BF93CF9328
:10187000DF93EF93FF9380919602C0913804D0E0FC
:1018800087FF24C0109285001092840080919602F8
:101890008F5F8093960280919602082E000C990B20
:1018A0008C179D0724F4809196028C30C4F18091AE
:1018B000840090918500049680349C4908F47AC095
:1018C0008091840090918500049676C08091960264
:1018D000082E000C990B8C179D07C4F6E091960218
:1018E0008E2FEE0F990BFC01EE0FFF1FE80FF91F73
:1018F000EC5EFB4F808186FFC9CFE09196028E2F70
:10190000EE0F990BFC01EE0FFF1FE80FF91FEC5EC5
:10191000FB4F808160E08F730E941702B7CF209148
:10192000840030918500E09196028E2FEE0F990B86
:10193000FC01EE0FFF1FE80FF91FEC5EFB4F8181EA
:101940009281820F931F9093890080938800E09189
:1019500096028E2FEE0F990BFC01EE0FFF1FE80F82
:10196000F91FEC5EFB4F808186FF11C0E09196026B
:101970008E2FEE0F990BFC01EE0FFF1FE80FF91FE2
:10198000EC5EFB4F808161E08F730E941702FF9134
:10199000EF91DF91CF91BF91AF919F918F917F9107
:1019A0006F915F914F913F912F910F900FBE0F90CC
:1019B0001F90189580E49CE990938900809388009B
:1019C0008FEF80939602E3CF10926E0310926D0317
:1019D00088EE93E0A0E0B0E080936F0390937003F3
:1019E000A0937103B093720327E131E030936C034D
:1019F00020936B0310927A031092790380937B03F8
:101A000090937C03A0937D03B0937E0389E291E0E1
:101A1000909378038093770385EC90E09093840310
:101A20008093830384EC90E09093860380938503F6
:101A300080EC90E0909388038093870381EC90E0A2
:101A400090938A038093890382EC90E090938C03B7
:101A500080938B0386EC90E090938E0380938D03AC
:101A6000109290031092910310929203109293039C
:101A7000109241041092400483E491E090933F045B
:101A800080933E041092470487E28093420480E1F1
:101A90008093480482E08093490410924A0486E3CC
:101AA00090E00E948716FC019C012A5C3F4F6AE08F
:101AB00070E04BE351E01282138214821582778327
:101AC0006683108651834083118A72962E173F07D2
:101AD00091F790933D0480933C04809138048C30BE
:101AE00098F491E0980F909338048093390490E033
:101AF000FC01EE0FFF1FE80FF91FEC5EFB4F88EBB8
:101B00009BE09283818308958FEF80933904089539
:101B1000CF93DF93CDB7DEB72C970FB6F894DEBF27
:101B20000FBECDBF789484B5826084BD84B58160DA
:101B300084BD85B5826085BD85B5816085BD809198
:101B40006E00816080936E00109281008091810010
:101B50008260809381008091810081608093810008
:101B6000809180008160809380008091B1008460CA
:101B70008093B1008091B00081608093B00080912B
:101B80007A00846080937A0080917A0082608093EA
:101B90007A0080917A00816080937A0080917A0047
:101BA000806880937A001092C1001092A402109273
:101BB000A302E0918703F091880382E08083E091A3
:101BC0008303F09184031082E0918503F0918603F2
:101BD0008FEC808310928F03E0918B03F0918C0344
:101BE00086E08083E0918903F0918A03808180619F
:101BF0008083E0918903F0918A03808188608083EB
:101C0000E0918903F0918A03808180688083E0916C
:101C10008903F0918A0380818F7D808382E192E045
:101C20000E94C7051092F4021092F3021092F6027D
:101C30001092F5020E94450286E691E090931E0301
:101C400080931D0387E691E0909322038093210304
:101C50001092430480914904823018F098E09093E8
:101C600043048093460462E370E080E090E00E94C9
:101C7000FA0260914A048EE394E00E94700468EED8
:101C800073E080E090E00E94FA0260E38EE394E06B
:101C90000E94E2060BE416E4C8010197F1F760E345
:101CA0008EE394E00E94E206C8010197F1F760E339
:101CB0008EE394E00E94E20683E592E00197F1F75B
:101CC00060E28EE394E00E94E20660914304606269
:101CD00040E08EE394E00E94FB0684E0809344049D
:101CE00040E06CE08EE394E00E94FB060E944E0709
:101CF00082E08093450440E066E08EE394E00E9439
:101D0000FB060E94120788E080934A0460E08EE39D
:101D100094E00E9470048091A3029091A4020E941A
:101D2000DE0561E08DE00E94840261E083E00E94B4
:101D3000840260E08EE00E94840260E08FE00E94F6
:101D4000840262E084E00E94840262E087E00E94F4
:101D5000840262E088E00E94840210E1A12E11E07A
:101D6000B12ED12CC12C09E1602E712C00913C04C4
:101D700010913D040C0D1D1DD5015D905D01652D7B
:101D800070E0D801ED91FC910280F381E02D42E0FA
:101D900050E0C8010995F801518A10860190F08140
:101DA000E02D0190F081E02DC8010995882339F0DC
:101DB000D80118968C911897836018968C930E947E
:101DC0002C03F8016283738384839583E0913C0440
:101DD000F0913D04EC0DFD1D77826682F2E1CF0E9D
:101DE000D11C86E3C816D10409F688E892E00E9467
:101DF0006607809139048C3008F051C061E083E0BF
:101E00000E94840280913904282F30E0F901EE0FFE
:101E1000FF1FE20FF31FEC5EFB4F9081907C9360FD
:101E2000908310923A0410923B042CE0622F0E949F
:101E30004915829FB001112430E020E0AB01420F30
:101E4000531FFA01EE0FFF1FE40FF51FEC5EFB4F6F
:101E5000908196FD16C02F5F3F4F2C30310571F7F2
:101E600081110FC01092800082E080938100109257
:101E7000850010928400B19A80916F0082608093F7
:101E80006F00E09139048E2F90E0FC01EE0FFF1FF0
:101E9000E80FF91FEC5EFB4F80818064808388EE41
:101EA00093E00E94090168EE73E080E090E00E94F8
:101EB000FA0281E090E09093A4028093A3020E9432
:101EC000DE0561E070E0CE0107960E940B09BE01BD
:101ED000695F7F4FCE0101960E94430965E272E07F
:101EE000CE0101960E94B4080E946A05CE010196B7
:101EF0000E946E09CE0107960E946E090E944E074D
:101F00000E94120761E070E0CE0107960E940B0963
:101F1000BE01695F7F4FCE0101960E94430965E2D1
:101F200072E0CE0101960E94B408DC0114964D9136
:101F30005C9115976D917C918EE394E00E9438033B
:101F4000CE0101960E946E09CE0107960E946E098D
:101F500088E992E00E947609809198028823C1F373
:101F60001AE08FE00E94C002E80EF91E1150C9F776
:101F7000C7016AE070E00E9455157B0181E090E0A6
:101F80000E94551590E080E00E94D1132B013C0186
:101F900040929B0250929C0260929D0270929E021F
:101FA0000E944E070E94120702E312E026E042E080
:101FB000C301B2010E94421163E472E0CE010796B0
:101FC0000E945D09BE01695F7F4FCE0101960E94AC
:101FD0004309B801CE0101960E94B40861E572E0A0
:101FE0000E94B4080E946A05CE0101960E946E0903
:101FF000CE0107960E946E09B8018EE394E00E941C
:102000005B0560E572E08EE394E00E945B0581E091
:102010000E941D076AE070E0CE0107960E940B093E
:10202000BE01695F7F4FCE0101960E94430968E5BA
:1020300072E0CE0101960E94B4080E946A05CE01AA
:1020400001960E946E09CE0107960E946E096AE011
:1020500070E0CE0107960E940B09BE01695F7F4FB9
:10206000CE0101960E94430968E572E0CE01019617
:102070000E94B408FC0144815581608171818EE326
:1020800094E00E943803CE0101960E946E09CE01B1
:1020900007960E946E0988E992E00E947609809175
:1020A00098028823C1F31AE08EE00E94C002E80E75
:1020B000F91E1150C9F72AE030E0C701B9010E94AA
:1020C0005515C9010E94551590E080E00E94D1137A
:1020D0006B017C01C0929F02D092A002E092A1020B
:1020E000F092A2020E944E070E94120702E312E041
:1020F00026E042E0C701B6010E94421165E672E0A7
:10210000CE0107960E945D09BE01695F7F4FCE0137
:1021100001960E944309B801CE0101960E94B408BD
:1021200063E772E00E94B4080E946A05CE0101963E
:102130000E946E09CE0107960E946E09B8018EE3D7
:1021400094E00E945B0562E772E08EE394E00E94F7
:102150005B0581E00E941D076AE772E08EE394E070
:102160000E945B0588E992E00E94760980919902BD
:102170008823C1F30E944E070E94120782E0E82ED6
:10218000F12C93E0C92ED12C20E0A22E20E0B22E1B
:102190000E942C036093A5027093A6028093A7026D
:1021A0009093A80288E992E00E947609F092A40236
:1021B000E092A30282E090E00E94DE058EE00E94A1
:1021C000C0023C018FE00E94C0028C01B301770C79
:1021D000880B990B0E94D31320919F023091A0028B
:1021E0004091A1025091A2020E9432142B013C01A5
:1021F000409288025092890260928A0270928B0209
:10220000B801110F880B990B0E94D31320919B02E8
:1022100030919C0240919D0250919E020E94321486
:102220009B01AC0120938C0230938D0240938E026F
:1022300050938F02C301B2010E9432146093900246
:10224000709391028093920290939302D092A40291
:10225000C092A30283E090E00E94DE058CED95E041
:102260000E94090188E892E00E946607A114B10467
:1022700009F48ECF0E94A203882309F489CF0E941B
:10228000000086CFEF920F931F93CF93DF93E80167
:1022900034E047FD34E1042E000C550B57FF03C01A
:1022A000519541955109E32E022F242FAE010E9432
:1022B0008511CE01DF91CF911F910F91EF9008957D
:1022C000BB274A3031F4992322F4BDE290958195E1
:1022D0009F4F0C946C11BB27FB015527AA27880F31
:1022E000991FAA1FA41710F0A41B83955051B9F78A
:1022F000A05DAA3308F0A95DA193009779F7B11109
:10230000B1931192CB010C94BC13A9E0B0E0EBE8BF
:10231000F1E10C94F6146A01F22EB02E102FFBE3BB
:10232000AF2EA01608F41BE31F5F012F27E0AE01BC
:102330004F5F5F4F0E94E412BC018981982F997012
:10234000913009F43FC09BE2E1FC04C09E2D9170E6
:10235000E0FC3AC05E2D5071E82FE87083FF46C064
:1023600084E0911101C083E0EF2DE81B8F1508F088
:10237000E0E0D6018E2F20E2552351F1992329F078
:10238000D6019C93C60101966C0196012D5F3F4FCB
:10239000E2FE24C08EE4D6018C9391E411969C93C6
:1023A000119712968C93D9018E2F90E281111BC048
:1023B000E20FF32FF11D10828EEF9FEF2996ECE0D4
:1023C0000C9412159DE2C6CF90E2C4CF2D9381509C
:1023D0008111FCCFCE0ED11CE0E0D0CF8EE6D6012D
:1023E0008C9391E6DBCF9D938150E0CF482F4470D2
:1023F00082FF3DC084E0911101C083E08F1510F48D
:10240000EF2DE81BD6018E2F20E2552309F19923E9
:1024100029F0D6019C93C60101966C0196012D5FAF
:102420003F4FE2FE1BC089E4D6018C938EE41196E7
:102430008C93119786E412968C93D9018E2F90E29B
:10244000882309F4B5CF9D938150FACF2D93815005
:102450008111FCCFCE0ED11CE0E0D9CF89E6D601A8
:102460008C938EE611968C93119786E6E4CF9B01B0
:1024700077FF02C030E020E0A1E0B0E0911102C09F
:10248000B0E0A0E0F9013196AE0FBF1F8B2C912C6C
:10249000BB2009F461C05401EFEFAE1ABE0AAA0DC9
:1024A000BB1DFA161B0619F014F04F2D4A1B5111D3
:1024B00088C0E3FC59C07601A42FB0E2A1114FC03F
:1024C000C40ED11C992309F45BC040E0D6011196DB
:1024D000F60190836D01552309F448C0012F060FC2
:1024E0009A81582F507184FF03C0913309F4015031
:1024F00010160CF047C0093008F008E0EEE2FE2E9E
:102500005B01A01AB10885019194819491082F3F35
:10251000320729F4D601FC92F60131966F01621759
:10252000730794F1021713077CF5DB01A21BB30BB1
:10253000AA24A394B12CAC0EBD1EAA0DBB1D1196EE
:102540008C9121503109D601119628153905F4F0E6
:10255000F60180836D01DBCFB12CA12CA0CFF70158
:10256000B1937F01A150AACF9111B0CFD601942F82
:1025700050E302C05D9391509111FCCFC40ED11C69
:1025800040E0ACCF01E0BACF80E3DBCF6217730746
:1025900031F4963388F4953311F4552369F0F6013C
:1025A0008083FD01842F90E2811108C0A40FB11D2A
:1025B0001C9290E080E002CF81E3F1CF91938150B3
:1025C000F3CF911183CF8ACF283008F027E033274B
:1025D000DA01990F311D87FD916000966105710543
:1025E00039F432602E5F3D9330E32A95E1F7089588
:1025F0009F3F30F080387105610509F03C5F3C5F1A
:102600003D93913008F08068911DDF93CF931F9325
:102610000F93FF92EF92192F987F9695E92F969539
:102620009695E90FFF27EE53FF4F99273327EE24A6
:10263000FF24A701E70105900894079428F4360FBA
:10264000E71EF81E491F511D660F771F881F991F2F
:102650000694A1F70590079428F4E70EF81E491F89
:10266000561FC11D770F881F991F661F0694A1F77B
:102670000590079428F4F80E491F561FC71FD11D57
:10268000880F991F661F771F0694A1F7059007947E
:1026900020F4490F561FC71FD81F990F661F771FB9
:1026A000881F0694A9F784911095177041F0D6956C
:1026B000C79557954795F794E7941A95C1F7E8E6BB
:1026C000F0E068941590159135916591959105907C
:1026D0007FE27395E118F10A430B560BC90BD00941
:1026E000C0F7E10CF11E431F561FC91FD01D7EF419
:1026F000703311F48A95E6CFE894015030F0080F5A
:102700000AF40027021708F4202F2395022F7A33AA
:1027100028F079E37D932A95E9F710C07D932A95F7
:1027200089F6069497956795379517951794E1184C
:10273000F10A430B560BC90BD00998F023957E91F3
:1027400073957A3308F070E37C932013B8F77E9189
:1027500070617D9330F0839571E37D9370E32A95EA
:10276000E1F71124EF90FF900F911F91CF91DF912E
:10277000992787FD90950895DC01FC01672F7191E1
:102780007723E1F7329704C07C916D937083629157
:10279000AE17BF07C8F308950E940E1408F481E035
:1027A0000895E89409C097FB3EF490958095709544
:1027B00061957F4F8F4F9F4F9923A9F0F92F96E98D
:1027C000BB279395F695879577956795B795F11102
:1027D000F8CFFAF4BB0F11F460FF1BC06F5F7F4F9F
:1027E0008F4F9F4F16C0882311F096E911C07723B1
:1027F00021F09EE8872F762F05C0662371F096E8BA
:10280000862F70E060E02AF09A95660F771F881F88
:10281000DAF7880F9695879597F90895990F00082C
:10282000550FAA0BE0E8FEEF16161706E807F907A2
:10283000C0F012161306E407F50798F0621B730B3D
:10284000840B950B39F40A2661F0232B242B252BBE
:1028500021F408950A2609F4A140A6958FEF811D61
:10286000811D08950E9445140C94B6140E94A8146A
:1028700038F00E94AF1420F0952311F00C949F14AF
:102880000C94A51411240C94EA140E94C71470F33C
:10289000959FC1F3950F50E0551F629FF001729F05
:1028A000BB27F00DB11D639FAA27F00DB11DAA1F14
:1028B000649F6627B00DA11D661F829F2227B00D61
:1028C000A11D621F739FB00DA11D621F839FA00DEC
:1028D000611D221F749F3327A00D611D231F849F3C
:1028E000600D211D822F762F6A2F11249F57504093
:1028F0009AF0F1F088234AF0EE0FFF1FBB1F661F0E
:10290000771F881F91505040A9F79E3F510580F0D6
:102910000C949F140C94EA145F3FE4F3983ED4F3B4
:10292000869577956795B795F795E7959F5FC1F77A
:10293000FE2B880F911D9695879597F9089597F925
:102940009F6780E870E060E008959FEF80EC089555
:1029500000240A941616170618060906089500247E
:102960000A9412161306140605060895092E0394F8
:10297000000C11F4882352F0BB0F40F4BF2B11F46C
:1029800060FF04C06F5F7F4F8F4F9F4F089557FDCB
:102990009058440F551F59F05F3F71F04795880FCD
:1029A00097FB991F61F09F3F79F087950895121664
:1029B00013061406551FF2CF4695F1DF08C0161610
:1029C00017061806991FF1CF8695710561050894C1
:1029D0000895E894BB2766277727CB0197F90895D8
:1029E0002F923F924F925F926F927F928F929F921F
:1029F000AF92BF92CF92DF92EF92FF920F931F930D
:102A0000CF93DF93CDB7DEB7CA1BDB0B0FB6F894BD
:102A1000DEBF0FBECDBF09942A88398848885F84FD
:102A20006E847D848C849B84AA84B984C884DF806E
:102A3000EE80FD800C811B81AA81B981CE0FD11D52
:102A40000FB6F894DEBF0FBECDBFED010895A1E231
:102A50001A2EAA1BBB1BFD010DC0AA1FBB1FEE1F18
:102A6000FF1FA217B307E407F50720F0A21BB30B63
:102A7000E40BF50B661F771F881F991F1A9469F7DF
:102A800060957095809590959B01AC01BD01CF013B
:102A90000895991B79E004C0991F961708F0961BBA
:102AA000881F7A95C9F780950895AA1BBB1B51E131
:102AB00007C0AA1FBB1FA617B70710F0A61BB70BAE
:102AC000881F991F5A95A9F780959095BC01CD0153
:102AD0000895EE0FFF1F0590F491E02D09945058D2
:102AE000BB27AA270E9487150C94B6140E94A8142D
:102AF00038F00E94AF1420F039F49F3F19F426F407
:102B00000C94A5140EF4E095E7FB0C949F14E92FA8
:102B10000E94C71458F3BA17620773078407950712
:102B200020F079F4A6F50C94E9140EF4E0950B2E40
:102B3000BA2FA02D0B01B90190010C01CA01A0010F
:102B40001124FF27591B99F0593F50F4503E68F16A
:102B50001A16F040A22F232F342F4427585FF3CFAB
:102B6000469537952795A795F0405395C9F77EF47C
:102B70001F16BA0B620B730B840BBAF09150A1F0C5
:102B8000FF0FBB1F661F771F881FC2F70EC0BA0F4B
:102B9000621F731F841F48F4879577956795B795D3
:102BA000F7959E3F08F0B0CF9395880F08F09927CE
:102BB000EE0F9795879508950E94F0150C94B61422
:102BC0000E94AF1458F00E94A81440F029F45F3F0F
:102BD00029F00C949F1451110C94EA140C94A51430
:102BE0000E94C71468F39923B1F3552391F3951B01
:102BF000550BBB27AA2762177307840738F09F5F1E
:102C00005F4F220F331F441FAA1FA9F335D00E2E8A
:102C10003AF0E0E832D091505040E695001CCAF7F7
:102C20002BD0FE2F29D0660F771F881FBB1F2617BA
:102C300037074807AB07B0E809F0BB0B802DBF0191
:102C4000FF2793585F4F3AF09E3F510578F00C9460
:102C50009F140C94EA145F3FE4F3983ED4F38695F6
:102C600077956795B795F7959F5FC9F7880F911D81
:102C70009695879597F90895E1E0660F771F881F6D
:102C8000BB1F621773078407BA0720F0621B730B20
:102C9000840BBA0BEE1F88F7E09508950E94CF14BD
:102CA00088F09F5798F0B92F9927B751B0F0E1F00D
:102CB000660F771F881F991F1AF0BA95C9F714C0BD
:102CC000B13091F00E94E914B1E008950C94E91438
:102CD000672F782F8827B85F39F0B93FCCF38695F6
:102CE00077956795B395D9F73EF490958095709553
:102CF00061957F4F8F4F9F4F08950E940E1408F4E7
:102D00008FEF08950E940E14880B990B08950F936E
:102D10001F93CF93DF938230910510F482E090E00F
:102D2000E0914D04F0914E0430E020E0B0E0A0E0EE
:102D3000309799F42115310509F44AC0281B390B45
:102D400024303105D8F58A819B816115710589F19F
:102D5000FB0193838283FE0111C040815181028176
:102D6000138148175907E0F04817590799F410974D
:102D700061F012960C93129713961C933296CF0122
:102D8000DF91CF911F910F91089500934D041093FF
:102D90004E04F4CF2115310551F04217530738F096
:102DA000A901DB019A01BD01DF01F801C1CFEF01EB
:102DB000F9CF90934E0480934D04CDCFFE01E20FE6
:102DC000F31F819391932250310939832883D7CF00
:102DD00020914B0430914C04232B41F420910401A9
:102DE0003091050130934C0420934B042091020153
:102DF000309103012115310541F42DB73EB74091C3
:102E0000060150910701241B350BE0914B04F09112
:102E10004C04E217F307A0F42E1B3F0B28173907C9
:102E200078F0AC014E5F5F4F2417350748F04E0F26
:102E30005F1F50934C0440934B04819391939FCF19
:102E4000F0E0E0E09CCFCF93DF930097E9F0FC0146
:102E5000329713821282A0914D04B0914E04ED017D
:102E600030E020E01097A1F420813181820F931F80
:102E700020914B0430914C042817390709F061C0A8
:102E8000F0934C04E0934B04DF91CF910895EA0155
:102E9000CE17DF07E8F54A815B819E014115510598
:102EA000B1F7E901FB83EA8349915991C40FD51F1A
:102EB000EC17FD0761F4808191810296840F951FC4
:102EC000E90199838883828193819B838A83F0E0DF
:102ED000E0E012968D919C9113970097B9F52D9192
:102EE0003C911197CD010296820F931F20914B04C4
:102EF00030914C042817390739F6309751F5109264
:102F00004E0410924D04B0934C04A0934B04BCCFDC
:102F1000D383C28340815181840F951FC817D9077D
:102F200061F44E5F5F4F88819981480F591F51832B
:102F300040838A819B81938382832115310509F027
:102F4000B0CFF0934E04E0934D049ECFFD01DC0121
:102F5000C0CF13821282D7CFB0E0A0E0E2EBF7E15E
:102F60000C94F2148C01009751F4CB010E94871647
:102F70008C01C801CDB7DEB7E0E10C940E15FC0161
:102F8000E60FF71F9C0122503109E217F30708F4FE
:102F90009DC0D901CD91DC911197C617D70798F044
:102FA000C530D10530F3CE0104978617970708F393
:102FB000C61BD70B2297C193D1936D937C93CF01FE
:102FC0000E942317D6CF5B01AC1ABD0A4C018C0EB0
:102FD0009D1EA0914D04B0914E04512C412CF12C1A
:102FE000E12C109731F580914B0490914C04881599
:102FF000990509F05CC04616570608F058C0809144
:10300000020190910301009741F48DB79EB7409162
:10301000060150910701841B950BE817F90708F08A
:1030200055C0F0934C04E0934B04F9017183608325
:10303000A0CF8D919C91119712966C901297139638
:103040007C901397A815B90559F56C0142E0C40EA0
:10305000D11CCA14DB0420F1AC014A195B09DA0166
:103060001296159780F06282738251834083D90152
:103070006D937C93E114F10471F0D7011396FC93E6
:10308000EE93129776CF22968C0F9D1FF9019183B4
:103090008083F301EFCFF0934E04E0934D0469CFAA
:1030A0004816590608F42C017D01D3019ACFCB01B3
:1030B0000E9487167C01009749F0AE01B8010E947A
:1030C0006E18C8010E942317870153CF10E000E05B
:1030D00050CF81E090E0F8940C947E18FB01DC0165
:1030E00002C001900D9241505040D8F70895FB0165
:1030F000DC0101900D920020E1F70895F894FFCFD4
:10310000330200004F04800000004000140054000F
:1031100004070800000000BF019201580568018BF8
:10312000017801690100000000D803380365032518
:10313000049603740388030000000049044504005A
:1031400000000060073803580557050D0A00533A80
:103150002053657475702020202020202000533AD1
:103160002043616C6962726174696E672000533A32
:103170002052656164696E67202020202000533A48
:103180002054657374696E67202020202000533A14
:10319000204F757470757420202020202000533A31
:1031A000204572726F7220202020202020006E6146
:1031B0006E00696E66006F76660074696D65202822
:1031C0006D73292C20666F72636520284E292C2090
:1031D000766F6C74616765202856292C20637572A0
:1031E00072656E7420286D41292C20706F7765728E
:1031F00020285729002C006B6E6F703A2000206940
:103200006E67656472756B74092073746174653AD6
:10321000200050726F6772616D20737461727469FF
:103220006E672E2E00412061616E736C7569746546
:103230006E00202020202020202020202020202060
:103240002020004144435F415F537465703A200081
:1032500020412F5374657000562061616E736C7548
:103260006974656E004144435F565F537465703AFC
:10327000200020562F53746570004472756B206FC8
:08328000702047726F656E00BB
:00000001FF
