:100000000C9462000C948A000C948A000C948A0070
:100010000C948A000C948A000C948A000C948A0038
:100020000C948A000C948A000C948A000C946E073D
:100030000C948A000C948A000C948A000C948A0018
:100040000C94CC060C948A000C943C070C94160774
:100050000C948A000C948A000C948A000C948A00F8
:100060000C94AD050C948A000000000023002600CB
:10007000290000000000240027002A0000000000E2
:10008000250028002B0004040404040404040202D4
:100090000202020203030303030301020408102007
:1000A0004080010204081020010204081020000012
:1000B0000008000201000003040700000000000027
:1000C00000002A0811241FBECFEFD8E0DEBFCDBF4D
:1000D00011E0A0E0B1E0E6E2FCE102C005900D9283
:1000E000A43EB107D9F723E0A4EEB1E001C01D9210
:1000F000A139B207E1F710E0C2E6D0E004C02197D1
:10010000FE010E94140CC136D107C9F70E94CE0827
:100110000C94110E0C94000020916102260F3327DD
:10012000331F21323105ECF420918702FC0190E06D
:1001300080E0243069F082E00895A091610221916D
:10014000AC01415C5D4FA40FB52FB11D2C930196FE
:10015000861798F380916102680F6093610280E0D6
:10016000089581E00895089508950895E091360274
:1001700080913502E81730F4F0E0EB5EFD4F8081AE
:1001800090E008958FEF9FEF08959091360280914F
:1001900035022FEF3FEF981748F4E92FF0E0EB5EC0
:1001A000FD4F208130E09F5F90933602C901089592
:1001B0008091350290913602891B990B0895CF9258
:1001C000DF92EF92FF920F931F93CF93DF937C0107
:1001D000CB018A0120911402222389F0EB016B01EB
:1001E000C40ED51ECC15DD0569F06991D701ED91DE
:1001F000FC910190F081E02DC7010995F3CF642FA8
:100200000E948C00C801DF91CF911F910F91FF9048
:10021000EF90DF90CF900895CF93DF931F92CDB7EB
:10022000DEB76983209114022223F9F0209137026E
:10023000203258F021E030E0FC013383228390E04B
:1002400080E00F90DF91CF91089580913802E82FE0
:10025000F0E0EC50FE4F998190838F5F80933802DD
:100260008093370281E090E0ECCF61E0CE0101960F
:100270000E948C00F7CF833081F028F4813099F010
:100280008230A9F008958730A9F08830C9F0843011
:10029000B1F4809180008F7D03C0809180008F77C2
:1002A00080938000089584B58F7784BD089584B5C8
:1002B0008F7DFBCF8091B0008F778093B000089541
:1002C0008091B0008F7DF9CF1F93CF93DF93282FBC
:1002D00030E0F901E255FF4F8491F901E656FF4FF6
:1002E000D491F901EA57FF4FC491CC23A9F0162FFE
:1002F00081110E943B01EC2FF0E0EE0FFF1FE4584C
:10030000FF4FA591B4918FB7F894EC91111108C0EB
:10031000D095DE23DC938FBFDF91CF911F9108959D
:10032000DE2BF8CF1092870281E080938902109231
:10033000880261E082E10E94640161E083E10E9441
:100340006401E9EBF0E080818E7F808380818D7F86
:10035000808388E48093B80085E48093BC0008958E
:10036000CF93DF9391E090933E028823B9F0C09140
:10037000B800D091BA008091BC008A7B8093BC0009
:1003800060E082E10E94640160E083E10E94640118
:100390000E949201D093BA00C093B800DF91CF9130
:1003A0000895CF93DF9390E0FC01E656FF4F249130
:1003B0008A579F4FFC0184918823C9F090E0880FF1
:1003C000991FFC01EE58FF4FA591B491FC01E45830
:1003D000FF4FC591D49161110DC09FB7F8948C91D6
:1003E000209582238C938881282328839FBFDF91C7
:1003F000CF910895623051F49FB7F8943C91822FC9
:10040000809583238C93E8812E2BEFCF8FB7F894C0
:10041000EC912E2B2C938FBFEACF3FB7F8948091AD
:10042000F0019091F101A091F201B091F30126B594
:10043000A89B05C02F3F19F00196A11DB11D3FBF1C
:10044000BA2FA92F982F8827BC01CD01620F711DEB
:10045000811D911D42E0660F771F881F991F4A95E5
:10046000D1F708958F929F92AF92BF92CF92DF9271
:10047000EF92FF924B015C010E940D026B017C0127
:100480000E940D026C197D098E099F09683E734018
:1004900081059105A8F321E0821A9108A108B1080D
:1004A00088EEC80E83E0D81EE11CF11C8114910473
:1004B000A104B10429F7FF90EF90DF90CF90BF9097
:1004C000AF909F908F9008952FB7F8946091EC01B2
:1004D0007091ED018091EE019091EF012FBF089591
:1004E000AF92BF92CF92DF92EF92FF920F931F9342
:1004F000CF93DF936C017B018B01040F151FEB0180
:100500005E01AE18BF08C017D10759F06991D60136
:10051000ED91FC910190F081E02DC6010995892BA8
:1005200079F7C501DF91CF911F910F91FF90EF9067
:10053000DF90CF90BF90AF900895FC01538D448D14
:10054000252F30E0842F90E0821B930B541710F07E
:10055000CF96089501970895FC01918D828D98178B
:1005600061F0A28DAE0FBF2FB11D5D968C91928D63
:100570009F5F9F73928F90E008958FEF9FEF089594
:10058000FC01918D828D981731F0828DE80FF11D5D
:10059000858D90E008958FEF9FEF0895FC01918D78
:1005A000228D892F90E0805C9F4F821B91098F7371
:1005B0009927089589EB92E00E94CE0221E0892BD1
:1005C00009F420E0822F089580E090E0892B29F043
:1005D0000E94DA0281110C9400000895FC01A48DA0
:1005E000A80FB92FB11DA35ABF4F2C91848D90E055
:1005F00001968F739927848FA689B7892C93A08938
:10060000B1898C91837080648C93938D848D9813C1
:1006100006C00288F389E02D80818F7D8083089554
:10062000EF92FF920F931F93CF93DF93EC0181E042
:10063000888F9B8D8C8D98131AC0E889F9898081E9
:1006400085FF15C09FB7F894EE89FF896083E8891C
:10065000F98980818370806480839FBF81E090E00E
:10066000DF91CF911F910F91FF90EF900895F62E9B
:100670000B8D10E00F5F1F4F0F731127E02E8C8D35
:100680008E110CC00FB607FCFACFE889F98980817A
:1006900085FFF5CFCE010E94EE02F1CFEB8DEC0F7E
:1006A000FD2FF11DE35AFF4FF0829FB7F8940B8F97
:1006B000EA89FB8980818062CFCFCF93DF93EC0101
:1006C000888D8823B9F0AA89BB89E889F9898C913A
:1006D00085FD03C0808186FD0DC00FB607FCF7CFF6
:1006E0008C9185FFF2CF808185FFEDCFCE010E94F6
:1006F000EE02E9CFDF91CF910895862F642F0C94FD
:10070000D101CF93DF93FC01218930E0F901E2555B
:10071000FF4F8491F901E656FF4FD491F901EA5752
:10072000FF4FC491CC2379F081110E943B01EC2F43
:10073000F0E0EE0FFF1FE859FF4FA591B491EC9147
:10074000ED2381E009F480E08170DF91CF9108957D
:10075000CF92DF92EF92FF920F931F93CF93DF938D
:10076000FC01C48121E020931402C093E80110929F
:100770003802109237028485682B8DEA92E00E943D
:100780000C01D0913702D13208F092C00E940D02C4
:100790006B017C0180918702811165C082E08093AA
:1007A000870281E0809389028FEF80938602109206
:1007B000AB02D093AA02A4EFB1E0EAE8F2E080E055
:1007C000D81385C01092AC028091AC02CC0FC82B1C
:1007D000C093AC0280918802813009F07CC01092F5
:1007E00088020E940D026B017C018091AC02809313
:1007F000BB0080913A0290913B02A0913C02B091E3
:100800003D02892B8A2B8B2B99F00E940D020091BF
:100810003A0210913B0220913C0230913D026C194A
:100820007D098E099F090617170728073907E0F188
:100830008091BC0083FDD9CF85EC8093BC000E94E1
:100840000D026B017C0180918702823009F445C062
:10085000809186028F3F61F180918602803241F162
:100860008091860225C080913A0290913B02A0912E
:100870003C02B0913D02892B8A2B8B2B09F48ACF45
:100880000E940D0200913A0210913B0220913C021D
:1008900030913D026C197D098E099F0906171707D3
:1008A0002807390708F076CF809139020E94B001FD
:1008B000109238021092370210921402DF91CF91F9
:1008C0001F910F91FF90EF90DF90CF9008959D9131
:1008D00091938F5F75CF85EEB0CF80913A02909162
:1008E0003B02A0913C02B0913D02892B8A2B8B2BBD
:1008F00009F4A9CF0E940D0200913A0210913B0227
:1009000020913C0230913D026C197D098E099F09AE
:10091000061717072807390708F095CFC5CF0895A0
:1009200090E080E0089542E050E063E471E089EBFC
:1009300092E00C947002CF93DF93D0E0C0E0009778
:1009400071F0FC0101900020E9F73197AF01481BDD
:10095000590BBC0189EB92E00E947002EC010E94ED
:1009600093048C0F9D1FDF91CF91089585ED8093A7
:10097000BC0080913A0290913B02A0913C02B09160
:100980003D020796A11DB11D23E0B695A795979549
:1009900087952A95D1F72091BC0024FD03C01092C1
:1009A0008702089540913A0250913B0260913C02C7
:1009B00070913D02452B462B472B69F30097A1050B
:1009C000B10541F02AE22A95F1F700C00197A1098B
:1009D000B109E1CF809139020C94B001CF93DF933C
:1009E000EC0188819981009711F00E94B60C198260
:1009F00018821D821C821B821A82DF91CF9108957A
:100A00000F931F93CF938C01C62F0E94A8036C2FC6
:100A10006460C8010E94A8036C2F6B7FC8010E940C
:100A2000A80383EC90E00197F1F7CF911F910F910C
:100A300008950F931F93CF93DF938C01D62FC42F6C
:100A4000607F642B0E94000580E1D89FB0011124D3
:100A50006C2BC801DF91CF911F910F910C94000571
:100A600041E00E94190581E090E008950E94FC0D8C
:100A70000F931F93CF93DF93EC01888199810097A7
:100A800059F02A813B812617370730F081E0DF914A
:100A9000CF911F910F9108958B016F5F7F4F0E943F
:100AA0003F0D009759F0998388831B830A832C811B
:100AB0003D81232B59F7FC011082E8CF80E0E7CF7E
:100AC000CF92DF92EF92FF920F931F93CF93DF931A
:100AD000CDB7DEB728970FB6F894DEBF0FBECDBFF7
:100AE0007C01CB014AE09E012F5F3F4F6901B901B4
:100AF0000E94A80BF60101900020E9F73197EC194C
:100B0000FD09D9F0D70114960D911C910E0F1F1FEE
:100B1000B801C7010E943805882381F0F7012081C0
:100B2000318184819581B601820F931F0E940A0E44
:100B3000D70115961C930E93149781E028960FB653
:100B4000F894DEBF0FBECDBFDF91CF911F910F9103
:100B5000FF90EF90DF90CF9008951F920F920FB605
:100B60000F9211242F933F934F935F936F937F9333
:100B70008F939F93AF93BF93EF93FF938091B900AF
:100B8000887F803609F44AC0F0F5883209F4A7C09E
:100B900018F5803109F49BC0B8F4882309F4F9C032
:100BA000883009F494C0FF91EF91BF91AF919F916C
:100BB0008F917F916F915F914F913F912F910F9006
:100BC0000FBE0F901F901895883109F488C08032AD
:100BD00051F78093860214C0803409F49DC040F41C
:100BE0008033B9F38833F9F68093860285ECB0C080
:100BF000803509F485C0883509F496C0883499F6A3
:100C00000E94B604D0CF883909F48CC038F58837F3
:100C100029F050F4883611F0803729F683E080936C
:100C200087021092850257C0883809F47BC080394A
:100C300019F0803809F0B7CF80918502803208F032
:100C400071C0E091850281E08E0F809385028091D2
:100C5000BB00F0E0EB59FD4F80833DC0803B39F095
:100C6000E0F4803A09F479C0883A09F09CCF84E036
:100C7000809387021092620210926102E0915F02FB
:100C8000F091600209958091610281110FC081E0AD
:100C90008093610210923F0209C0803C09F4A6CF04
:100CA000883C09F4A3CF883B09F07DCFE091620234
:100CB00081E08E0F80936202F0E0E15CFD4F808165
:100CC0008093BB00909162028091610229C0809163
:100CD000AC028093BB0085EC8093BC0064CF909104
:100CE000AB028091AA02981758F5E091AB0281E01F
:100CF0008E0F8093AB02F0E0E657FD4F8081E9CF85
:100D0000E091AB0281E08E0F8093AB028091BB003B
:100D1000F0E0E657FD4F80839091AB028091AA02EC
:100D20009817C8F285E8D8CFE091AB0281E08E0F2A
:100D30008093AB028091BB00F0E0E657FD4F8083CB
:100D40008091890281115CCF81E08093880284EADE
:100D50008093BC001092870226CF85EC8093BC0064
:100D60001092870280918502803230F4E0918502F2
:100D7000F0E0EB59FD4F10826091850270E0E09148
:100D80006302F091640285E692E009951092850273
:100D90000ACF1092860234CF1F920F920FB60F9295
:100DA00011242F933F938F939F93AF93BF93809181
:100DB000EC019091ED01A091EE01B091EF01309125
:100DC000EB0123E0230F2D3758F50196A11DB11D2E
:100DD0002093EB018093EC019093ED01A093EE0141
:100DE000B093EF018091F0019091F101A091F20197
:100DF000B091F3010196A11DB11D8093F001909374
:100E0000F101A093F201B093F301BF91AF919F91D3
:100E10008F913F912F910F900FBE0F901F901895BB
:100E200026E8230F0296A11DB11DD2CF1F920F926B
:100E30000FB60F9211242F933F934F935F936F93AD
:100E40007F938F939F93AF93BF93EF93FF9389EB20
:100E500092E00E94EE02FF91EF91BF91AF919F91BE
:100E60008F917F916F915F914F913F912F910F9053
:100E70000FBE0F901F9018951F920F920FB60F92F2
:100E800011242F938F939F93EF93FF93E091C902C7
:100E9000F091CA028081E091CF02F091D00282FDF0
:100EA0001BC090818091D2028F5F8F732091D302FB
:100EB000821741F0E091D202F0E0E754FD4F958FA8
:100EC0008093D202FF91EF919F918F912F910F907C
:100ED0000FBE0F901F9018958081F4CF1F920F9234
:100EE0000FB60F9211242F933F934F935F936F93FD
:100EF0007F938F939F93AF93BF93CF93DF93EF93A2
:100F0000FF938091E701C0917A03D0E087FF24C06E
:100F100010928500109284008091E7018F5F80938A
:100F2000E7018091E701082E000C990B8C179D07B3
:100F300024F48091E7018C30C4F180918400909179
:100F40008500049680349C4908F47AC0809184001E
:100F500090918500049676C08091E701082E000CE0
:100F6000990B8C179D07C4F6E091E7018E2FEE0FC9
:100F7000990BFC01EE0FFF1FE80FF91FEA5AFC4F17
:100F8000808186FFC9CFE091E7018E2FEE0F990B8C
:100F9000FC01EE0FFF1FE80FF91FEA5AFC4F80819A
:100FA00060E08F730E946401B7CF2091840030917C
:100FB0008500E091E7018E2FEE0F990BFC01EE0FFB
:100FC000FF1FE80FF91FEA5AFC4F81819281820FBF
:100FD000931F9093890080938800E091E7018E2F02
:100FE000EE0F990BFC01EE0FFF1FE80FF91FEA5AF5
:100FF000FC4F808186FF11C0E091E7018E2FEE0F3C
:10100000990BFC01EE0FFF1FE80FF91FEA5AFC4F86
:10101000808161E08F730E946401FF91EF91DF9105
:10102000CF91BF91AF919F918F917F916F915F9180
:101030004F913F912F910F900FBE0F901F901895D9
:1010400080E49CE990938900809388008FEF8093DF
:10105000E701E3CF1092B0021092AF0288EE93E066
:10106000A0E0B0E08093B1029093B202A093B302EB
:10107000B093B4022FE031E03093AE022093AD0282
:101080001092BC021092BB028093BD029093BE02EC
:10109000A093BF02B093C00281E291E09093BA02A4
:1010A0008093B90285EC90E09093C6028093C502CC
:1010B00084EC90E09093C8028093C70280EC90E0AB
:1010C0009093CA028093C90281EC90E09093CC0285
:1010D0008093CB0282EC90E09093CE028093CD027D
:1010E00086EC90E09093D0028093CF021092D202CF
:1010F0001092D3021092D4021092D50286E390E0AF
:101100000E941A0CFC019C012A5C3F4F6AE070E0CF
:101110004FE351E012821382148215827783668333
:10112000108651834083118A72962E173F0791F7DC
:1011300090938C0380938B03109281031092800311
:1011400083E391E090937F0380937E031092870363
:1011500087E28093820380E18093880382E080931A
:10116000890310928A0380917A038C3098F491E07D
:10117000980F90937A0380937B0390E0FC01EE0F2D
:10118000FF1FE80FF91FEA5AFC4F88EB9BE09283A0
:10119000818308958FEF80937B030895CF93DF932E
:1011A000CDB7DEB72D970FB6F894DEBF0FBECDBF1B
:1011B000789484B5826084BD84B5816084BD85B532
:1011C000826085BD85B5816085BD80916E0081603E
:1011D00080936E00109281008091810082608093E4
:1011E00081008091810081608093810080918000E6
:1011F0008160809380008091B10084608093B10011
:101200008091B00081608093B00080917A0084600A
:1012100080937A0080917A00826080937A00809136
:101220007A00816080937A0080917A008068809350
:101230007A001092C1001092EA011092E901E09147
:10124000C902F091CA0282E08083E091C502F09168
:10125000C6021082E091C702F091C8028FEC808331
:101260001092D102E091CD02F091CE0286E080830F
:10127000E091CB02F091CC02808180618083E0918B
:10128000CB02F091CC02808188608083E091CB0218
:10129000F091CC02808180688083E091CB02F09154
:1012A000CC0280818F7D808386E491E00E949B0444
:1012B00010923602109235021092380210923702C4
:1012C0000E94920183EB90E09093600280935F0212
:1012D00084EB90E090936402809363021092830306
:1012E00080918903823018F098E090938303809373
:1012F000860362E370E080E090E00E943202609139
:101300008A038EE793E00E94A80368EE73E080E012
:1013100090E00E94320260E38EE793E00E940005B5
:101320000BE416E4C8010197F1F760E38EE793E060
:101330000E940005C8010197F1F760E38EE793E092
:101340000E94000583E592E00197F1F760E28EE7E5
:1013500093E00E94000560918303606240E08EE7A5
:1013600093E00E94190584E08093840340E06CE0E0
:101370008EE793E00E94190540E061E08EE793E07C
:101380000E9419058BE39FE10197F1F78091870394
:10139000882331F040E060E88EE793E00E94190571
:1013A00082E08093850340E066E08EE793E00E9450
:1013B000190540E062E08EE793E00E9419058BE397
:1013C0009FE10197F1F788E080938A0360E08EE760
:1013D00093E00E94A8038091E9019091EA01823094
:1013E000910509F447C144F4009779F0019709F495
:1013F0003EC189EA91E00BC08330910509F43DC1FB
:101400000497B9F789E991E002C089E591E09093EA
:1014100001018093000180910001909101010E94DF
:101420009B0461E08DE00E94D10162E084E00E94B3
:10143000D10162E087E00E94D10162E088E00E9471
:10144000D10138E0C32E31E0D32EF12CE12C49E15B
:10145000A42EB12C00918B0310918C030E0D1F1D37
:10146000D6019D906D01692D70E0D801ED91FC9140
:101470000280F381E02D42E050E0C8010995F801B7
:10148000918A10860190F081E02D0190F081E02D8D
:10149000C8010995882339F0D80118968C911897BE
:1014A000836018968C930E946402F80162837383B0
:1014B00084839583E0918B03F0918C03EE0DFF1DE7
:1014C000B782A682F2E1EF0EF11C86E3E816F10482
:1014D00009F62224239492E0392E20E0422E20E0C7
:1014E000522E0E94640284EE682E81E0782EF12C48
:1014F000E12CD301A45EB1404D0100918B0310910A
:101500008C030E0D1F1DF80180858B7F8087019055
:10151000F081E02D0190F081E02DC80109958D87C3
:10152000D80118968C9186958170AD84A81609F41F
:10153000A7C00E946402D80112966D937D938D938B
:101540009C93159718968C911897832518968C93D1
:10155000E0918B03F0918C03EE0DFF1D008500FDE3
:10156000D5C002FB002700F9D3010D933D01808512
:1015700080FD69C082FF67C010E018861F821A864E
:1015800019861C861B8667E070E0CE0107960E94D4
:1015900038058111BDC0CE0107960E94EE041A8263
:1015A00019821C821B821E821D82CF80D884C114A6
:1015B000D10469F0AB84BC84B501CE0101960E94D0
:1015C00038058111B0C0CE0101960E94EE04B4012D
:1015D000CE0101960E946005811104C0CE010196E2
:1015E0000E94EE04CD80DE80B2E1CB0ED11CB601AC
:1015F000CE0101960E94380581119DC0CE01019651
:101600000E94EE04B801CE0101960E94600581118E
:1016100004C0CE0101960E94EE044D815E81698175
:101620007A8189EB92E00E9470020E949304898182
:101630009A81009711F00E94B60C8F8198850097CF
:1016400011F00E94B60CE2E1EE0EF11CF6E3EF168B
:10165000F10409F04ECF4114510409F442CF0E9425
:10166000DA02882309F43DCF0E9400003ACF89E6D0
:1016700091E0CDCE89E791E0CACE89E891E0C7CE6E
:101680000E946402F80122813381448155815B010B
:101690006C01A21AB30AC40AD50AB601A501868153
:1016A0009781B0E0A0E0481759076A077B0708F464
:1016B0004FCF80858170BD84B81609F449CF0E9450
:1016C0006402D80112966D937D938D939C93159728
:1016D00018968C9118978225846018968C930E9496
:1016E0006402F8012185328543855485621B730BA2
:1016F000840B950B658776878787908B0E946402A1
:10170000F801618772878387948722CF00E02CCF0E
:1017100087E090E09C878B8769EB71E08F819885EB
:101720000E940A0E3CCFBE82AD82B60189819A81A9
:101730000E940A0E4CCF29813A818D819E8161ECF5
:1017400071E0820F931F0E940A0EDE82CD825ACF73
:10175000BB274A3031F4992322F4BDE2909581955C
:101760009F4F0C94B40BBB27FB015527AA27880F6A
:10177000991FAA1FA41710F0A41B83955051B9F705
:10178000A05DAA3308F0A95DA193009779F7B11184
:10179000B1931192CB010C94CD0BDC01FC01672FAE
:1017A00071917723E1F7329704C07C916D93708338
:1017B0006291AE17BF07C8F308952F923F924F92E0
:1017C0005F926F927F928F929F92AF92BF92CF92D1
:1017D000DF92EF92FF920F931F93CF93DF93CDB7DA
:1017E000DEB7CA1BDB0B0FB6F894DEBF0FBECDBF52
:1017F00009942A88398848885F846E847D848C8423
:101800009B84AA84B984C884DF80EE80FD800C812B
:101810001B81AA81B981CE0FD11D0FB6F894DEBF0E
:101820000FBECDBFED010895EE0FFF1F0590F4919F
:10183000E02D09940F931F93CF93DF93823091058E
:1018400010F482E090E0E0918F03F091900330E09B
:1018500020E0B0E0A0E0309799F42115310509F4BB
:101860004AC0281B390B24303105D8F58A819B8169
:101870006115710589F1FB0193838283FE0111C01B
:10188000408151810281138148175907E0F04817C0
:10189000590799F4109761F012960C9312971396CA
:1018A0001C933296CF01DF91CF911F910F91089534
:1018B00000938F0310939003F4CF2115310551F05D
:1018C0004217530738F0A901DB019A01BD01DF017E
:1018D000F801C1CFEF01F9CF9093900380938F036C
:1018E000CDCFFE01E20FF31F819391932250310976
:1018F00039832883D7CF20918D0330918E03232BFA
:1019000041F4209104013091050130938E0320931E
:101910008D0320910201309103012115310541F41D
:101920002DB73EB74091060150910701241B350B9E
:10193000E0918D03F0918E03E217F307A0F42E1BC4
:101940003F0B2817390778F0AC014E5F5F4F241723
:10195000350748F04E0F5F1F50938E0340938D0361
:10196000819391939FCFF0E0E0E09CCFCF93DF9302
:101970000097E9F0FC01329713821282A0918F0345
:10198000B0919003ED0130E020E01097A1F42081A8
:101990003181820F931F20918D0330918E03281780
:1019A000390709F061C0F0938E03E0938D03DF9156
:1019B000CF910895EA01CE17DF07E8F54A815B81F0
:1019C0009E0141155105B1F7E901FB83EA83499175
:1019D0005991C40FD51FEC17FD0761F480819181E7
:1019E0000296840F951FE9019983888382819381F0
:1019F0009B838A83F0E0E0E012968D919C9113978F
:101A00000097B9F52D913C911197CD010296820F67
:101A1000931F20918D0330918E032817390739F6D3
:101A2000309751F51092900310928F03B0938E036C
:101A3000A0938D03BCCFD383C28340815181840F97
:101A4000951FC817D90761F44E5F5F4F8881998150
:101A5000480F591F518340838A819B8193838283DE
:101A60002115310509F0B0CFF0939003E0938F0377
:101A70009ECFFD01DC01C0CF13821282D7CFB0E030
:101A8000A0E0E5E4FDE00C94DF0B8C01009751F43D
:101A9000CB010E941A0C8C01C801CDB7DEB7E0E182
:101AA0000C94FB0BFC01E60FF71F9C01225031093F
:101AB000E217F30708F49DC0D901CD91DC9111978D
:101AC000C617D70798F0C530D10530F3CE0104977B
:101AD0008617970708F3C61BD70B2297C193D1939C
:101AE0006D937C93CF010E94B60CD6CF5B01AC1AEC
:101AF000BD0A4C018C0E9D1EA0918F03B0919003E6
:101B0000512C412CF12CE12C109731F580918D0353
:101B100090918E038815990509F05CC0461657060A
:101B200008F058C08091020190910301009741F4A0
:101B30008DB79EB74091060150910701841B950B0C
:101B4000E817F90708F055C0F0938E03E0938D0372
:101B5000F90171836083A0CF8D919C9111971296AA
:101B60006C90129713967C901397A815B90559F5A8
:101B70006C0142E0C40ED11CCA14DB0420F1AC019C
:101B80004A195B09DA011296159780F06282738216
:101B900051834083D9016D937C93E114F10471F07A
:101BA000D7011396FC93EE93129776CF22968C0F63
:101BB0009D1FF90191838083F301EFCFF093900390
:101BC000E0938F0369CF4816590608F42C017D0174
:101BD000D3019ACFCB010E941A0C7C01009749F0E7
:101BE000AE01B8010E94010EC8010E94B60C870127
:101BF00053CF10E000E050CF81E090E0F8940C94D7
:101C0000110EFB01DC0102C001900D9241505040C9
:101C1000D8F70895FB01DC0101900D920020E1F757
:061C20000895F894FFCFC7
:101C2600D401000091038000040708000000000CA6
:101C360001DF009004B500D800C500B60000000022
:101C460000100370029D025D03CE02AC02C00200CA
:101C56000000003005700290048F0400000000812F
:101C6600037D030D0A0050726F6772616D207374F5
:101C7600617274696E672E2E00533A20536574752F
:101C8600702020202020202000533A2043616C69D8
:101C960062726174696E672000533A20526561640E
:101CA600696E67202020202000533A205465737403
:101CB600696E67202020202000533A204F757470EB
:101CC600757420202020202000533A204572726F20
:101CD600722020202020202000627574746F6E5BB5
:101CE600005D207072657373656409207374617496
:101CF600653A20002020202020202020202020209F
:041D06002020200079
:00000001FF
