:100000000C945D000C9485000C9485000C94850084
:100010000C9485000C9485000C9485000C9485004C
:100020000C9485000C9485000C9485000C9460035E
:100030000C9485000C9485000C9485000C9485002C
:100040000C94BE020C9485000C942E030C940803AF
:100050000C9485000C9485000C9485000C9485000C
:100060000C9485000C9485000000000024002700FB
:100070002A0000000000250028002B0004040404CE
:100080000404040402020202020203030303030342
:10009000010204081020408001020408102001021F
:1000A00004081020000000080002010000030407FB
:1000B00000000000000000001C0411241FBECFEF50
:1000C000D8E0DEBFCDBF11E0A0E0B1E0EEEAF1E1A3
:1000D00002C005900D92A232B107D9F721E0A2E249
:1000E000B1E001C01D92A13FB207E1F710E0CDE5FC
:1000F000D0E004C02197FE010E949306CC35D107C1
:10010000C9F70E9479040C94D5080C940000E09182
:10011000EE01EC3088F54091EF0128E830E0241B37
:10012000310947FD3395220F331F220F331F8217EA
:10013000930784F04091F00128E532E0241B310957
:1001400047FD3395220F331F220F331F821793076A
:100150000CF49C0122503109220F331F4FB7F89441
:100160008E2F90E0FC01EE0FFF1FE80FF91FE75301
:10017000FE4F328321834FBF089590E0FC01EC5580
:10018000FF4F2491FC01E057FF4F3491FC01E458EC
:10019000FF4FE491EE23C9F0222339F0233001F11F
:1001A000A8F4213019F1223029F1F0E0EE0FFF1F01
:1001B000EE58FF4FA591B4918FB7F894EC9161116F
:1001C00026C030953E233C938FBF08952730A9F079
:1001D0002830C9F0243049F7809180008F7D03C01A
:1001E000809180008F7780938000DFCF84B58F77F8
:1001F00084BDDBCF84B58F7DFBCF8091B0008F773E
:100200008093B000D2CF8091B0008F7DF9CF3E2B8C
:10021000DACF3FB7F8948091280190912901A091FD
:100220002A01B0912B0126B5A89B05C02F3F19F0DC
:100230000196A11DB11D3FBFBA2FA92F982F882766
:10024000BC01CD01620F711D811D911D42E0660F41
:10025000771F881F991F4A95D1F708958F929F9213
:10026000AF92BF92CF92DF92EF92FF924B015C016F
:100270000E9409016B017C010E9409016C197D0932
:100280008E099F09683E734081059105A8F321E01E
:10029000821A9108A108B10888EEC80E83E0D81E22
:1002A000E11CF11C81149104A104B10429F7FF9011
:1002B000EF90DF90CF90BF90AF909F908F90089578
:1002C000AF92BF92CF92DF92EF92FF920F931F9364
:1002D000CF93DF936C017B018B01040F151FEB01A2
:1002E0005E01AE18BF08C017D10759F06991D60159
:1002F000ED91FC910190F081E02DC6010995892BCB
:1003000079F7C501DF91CF911F910F91FF90EF9089
:10031000DF90CF90BF90AF900895FC01538D448D36
:10032000252F30E0842F90E0821B930B541710F0A0
:10033000CF96089501970895FC01918D828D9817AD
:1003400061F0A28DAE0FBF2FB11D5D968C91928D85
:100350009F5F9F73928F90E008958FEF9FEF0895B6
:10036000FC01918D828D981731F0828DE80FF11D7F
:10037000858D90E008958FEF9FEF0895FC01918D9A
:10038000228D892F90E0805C9F4F821B91098F7393
:10039000992708958CE291E00E94BE0121E0892B0B
:1003A00009F420E0822F089580E090E0892B29F065
:1003B0000E94CA0181110C9400000895FC01A48DD3
:1003C000A80FB92FB11DA35ABF4F2C91848D90E077
:1003D00001968F739927848FA689B7892C93A0895A
:1003E000B1898C91837080648C93938D848D9813E4
:1003F00006C00288F389E02D80818F7D8083089577
:10040000EF92FF920F931F93CF93DF93EC0181E064
:10041000888F9B8D8C8D98131AC0E889F98980810B
:1004200085FF15C09FB7F894EE89FF896083E8893E
:10043000F98980818370806480839FBF81E090E030
:10044000DF91CF911F910F91FF90EF900895F62EBD
:100450000B8D10E00F5F1F4F0F731127E02E8C8D57
:100460008E110CC00FB607FCFACFE889F98980819C
:1004700085FFF5CFCE010E94DE01F1CFEB8DEC0FB1
:10048000FD2FF11DE35AFF4FF0829FB7F8940B8FB9
:10049000EA89FB8980818062CFCFCF93DF93EC0123
:1004A000888D8823B9F0AA89BB89E889F9898C915C
:1004B00085FD03C0808186FD0DC00FB607FCF7CF18
:1004C0008C9185FFF2CF808185FFEDCFCE010E9418
:1004D000DE01E9CFDF91CF910895FC01019000206A
:1004E000E9F73197AF01481B590BBC018CE291E051
:1004F0000C9460018F929F92AF92BF920F931F93C3
:10050000CF93DF93CDB7DEB7A1970FB6F894DEBFD8
:100510000FBECDBF19A2423008F44AE08E010F5D34
:100520001F4F842E912CB12CA12CA50194010E9467
:100530006506E62FB901CA01EA30F4F4E05DD8019E
:10054000EE938D01232B242B252B79F790E080E06F
:10055000109719F0CD010E946D02A1960FB6F89484
:10056000DEBF0FBECDBFDF91CF911F910F91BF9026
:10057000AF909F908F900895E95CE1CF1F920F920A
:100580000FB60F9211242F933F938F939F93AF93A6
:10059000BF938091240190912501A0912601B091F3
:1005A00027013091230123E0230F2D3758F50196C1
:1005B000A11DB11D20932301809324019093250157
:1005C000A0932601B09327018091280190912901E1
:1005D000A0912A01B0912B010196A11DB11D80931C
:1005E000280190932901A0932A01B0932B01BF9178
:1005F000AF919F918F913F912F910F900FBE0F90D0
:100600001F90189526E8230F0296A11DB11DD2CF89
:100610001F920F920FB60F9211242F933F934F9377
:100620005F936F937F938F939F93AF93BF93EF935A
:10063000FF938CE291E00E94DE01FF91EF91BF9168
:10064000AF919F918F917F916F915F914F913F916A
:100650002F910F900FBE0F901F9018951F920F9221
:100660000FB60F9211242F938F939F93EF93FF93C5
:10067000E0913C01F0913D018081E0914201F091D7
:10068000430182FD1BC09081809145018F5F8F7374
:1006900020914601821741F0E0914501F0E0E45DD0
:1006A000FE4F958F80934501FF91EF919F918F9120
:1006B0002F910F900FBE0F901F9018958081F4CF4F
:1006C0001F920F920FB60F9211242F933F934F93C7
:1006D0005F936F937F938F939F93AF93BF93CF93CA
:1006E000DF93EF93FF9380912201C091ED01D0E061
:1006F00087FF24C01092850010928400809122010F
:100700008F5F8093220180912201082E000C990BAB
:100710008C179D0724F4809122018C30C4F18091C4
:10072000840090918500049680349C4908F47AC036
:100730008091840090918500049676C0809122017A
:10074000082E000C990B8C179D07C4F6E09122012E
:100750008E2FEE0F990BFC01EE0FFF1FE80FF91F14
:10076000E753FE4F808186FFC9CFE09122018E2F93
:10077000EE0F990BFC01EE0FFF1FE80FF91FE75377
:10078000FE4F808160E08F730E94BD00B7CF209143
:10079000840030918500E09122018E2FEE0F990B9D
:1007A000FC01EE0FFF1FE80FF91FE753FE4F818199
:1007B0009281820F931F9093890080938800E0912B
:1007C00022018E2FEE0F990BFC01EE0FFF1FE80F99
:1007D000F91FE753FE4F808186FF11C0E09122018F
:1007E0008E2FEE0F990BFC01EE0FFF1FE80FF91F84
:1007F000E753FE4F808161E08F730E94BD00FF913F
:10080000EF91DF91CF91BF91AF919F918F917F91A8
:100810006F915F914F913F912F910F900FBE0F906D
:100820001F90189580E49CE990938900809388003C
:100830008FEF80932201E3CF10922F0110922E01AF
:1008400088EE93E0A0E0B0E0809330019093310116
:10085000A0933201B093330184E091E090932D0195
:1008600080932C0185EC90E09093390180933801BE
:1008700084EC90E090933B0180933A0180EC90E00F
:1008800090933D0180933C0181EC90E090933F0177
:1008900080933E0182EC90E090934101809340016F
:1008A00086EC90E0909343018093420110924501C1
:1008B0001092460110924701109248018091ED017B
:1008C0008C3098F491E0980F9093ED018093EE01B5
:1008D00090E0FC01EE0FFF1FE80FF91FE753FE4FFA
:1008E00088EB9BE09283818308958FEF8093EE01E4
:1008F0000895789484B5826084BD84B5816084BD98
:1009000085B5826085BD85B5816085BD80916E00AD
:10091000816080936E0010928100809181008260DE
:10092000809381008091810081608093810080911B
:1009300080008160809380008091B100846080930A
:10094000B1008091B00081608093B00080917A0006
:10095000846080937A0080917A00826080937A002C
:1009600080917A00816080937A0080917A0080681B
:1009700080937A001092C100E0913C01F0913D011A
:1009800082E08083E0913801F09139011082E0919A
:100990003A01F0913B018FEC808310924401E09189
:1009A0004001F091410186E08083E0913E01F091A9
:1009B0003F01808180618083E0913E01F0913F01A1
:1009C000808188608083E0913E01F0913F018081C9
:1009D00080688083E0913E01F0913F0180818F7DAE
:1009E00080838091EE018C3008F068C0E9E9F0E086
:1009F0002491E5E8F0E08491882399F090E0880F55
:100A0000991FFC01E859FF4FA591B491FC01EE58E4
:100A1000FF4F859194918FB7F894EC91E22BEC9372
:100A20008FBF8091EE01282F30E0F901EE0FFF1FFC
:100A3000E20FF31FE753FE4F9081907C9960908303
:100A40001092EF011092F0012CE0622F0E948706B5
:100A5000829FB001112430E020E0AB01420F531F10
:100A6000FA01EE0FFF1FE40FF51FE753FE4F9081D1
:100A700096FD16C02F5F3F4F2C30310571F7811165
:100A80000FC01092800082E0809381001092850058
:100A900010928400B19A80916F00826080936F0001
:100AA000E091EE018E2F90E0FC01EE0FFF1FE80FAA
:100AB000F91FE753FE4F80818064808388EE93E0C6
:100AC0000E94870068EE73E080E090E00E942E01B3
:100AD00080E4382E00E010E030927C0080917A00B3
:100AE000806480937A0080917A0086FDFCCF6091CB
:100AF000780070917900072E000C880B990B0E94EA
:100B0000AE0720E030E040EA50E40E94630820E0B5
:100B100030EC4FE754E40E940B076B017C012B0182
:100B20003C01AC019B010E94D0088823D1F182E1F5
:100B300091E00E946D028EE191E00E946D0264EFEF
:100B400071E080E090E00E942E01C8EED3E0CE017B
:100B50000E94870062E370E080E090E00E942E0136
:100B60002A96CA3D87E0D80791F7C0EDD7E0CE01BD
:100B70000E94870062E370E080E090E00E942E0116
:100B80002A97CE3D83E0D80791F70115110509F4A6
:100B9000A3CF0E94CA01882309F49ECF0E940000BF
:100BA0009BCF46015701E894B7F82FEF3FEF4FE78F
:100BB0005FE7C501B4010E94D00881110DC02FEF7D
:100BC0003FEF4FE75FE7C501B4010E940607181623
:100BD0001CF486E191E0ADCF2FEF3FEF4FE75FE4EC
:100BE000C701B6010E945E0818161CF48AE191E064
:100BF000A0CF2FEF3FEF4FE75FECC701B6010E9498
:100C0000060787FDF3CF20E030E0A901C701B60158
:100C10000E94060787FF0BC06DE28CE291E00E9404
:100C200000022601370177FA709477F870942AE071
:100C300037ED43EA5BE3C301B2010E949A062B0140
:100C40003C010E947D076B017C010E94AC079B0167
:100C5000AC01C301B2010E9499062B013C014AE09C
:100C6000C701B6010E947A026EE28CE291E00E9416
:100C7000000220E030E040E251E4C301B2010E94F2
:100C800063082B013C010E947D076B01F12CE12CD4
:100C90004AE0C701B6010E947A02C701B6010E946C
:100CA000AC079B01AC01C301B2010E94990620E090
:100CB00030E040E251E40E9463080E947D0790E02A
:100CC00080E04AE00E947A0236CFA1E21A2EAA1BE7
:100CD000BB1BFD010DC0AA1FBB1FEE1FFF1FA217EC
:100CE000B307E407F50720F0A21BB30BE40BF50BE9
:100CF000661F771F881F991F1A9469F76095709572
:100D0000809590959B01AC01BD01CF010895991B81
:100D100079E004C0991F961708F0961B881F7A95F2
:100D2000C9F780950895EE0FFF1F0590F491E02D0F
:100D300009945058BB27AA270E94B1060C94240896
:100D40000E94160838F00E941D0820F039F49F3FD9
:100D500019F426F40C9413080EF4E095E7FB0C94B8
:100D60000D08E92F0E94350858F3BA176207730778
:100D70008407950720F079F4A6F50C9457080EF433
:100D8000E0950B2EBA2FA02D0B01B90190010C019B
:100D9000CA01A0011124FF27591B99F0593F50F4B3
:100DA000503E68F11A16F040A22F232F342F44270B
:100DB000585FF3CF469537952795A795F040539503
:100DC000C9F77EF41F16BA0B620B730B840BBAF0D3
:100DD0009150A1F0FF0FBB1F661F771F881FC2F73E
:100DE0000EC0BA0F621F731F841F48F48795779552
:100DF0006795B795F7959E3F08F0B0CF9395880F0C
:100E000008F09927EE0F9795879508950E94E907B6
:100E100008F481E008950E941F070C9424080E94A2
:100E20001D0858F00E94160840F029F45F3F29F091
:100E30000C940D0851110C9458080C9413080E943E
:100E4000350868F39923B1F3552391F3951B550B9E
:100E5000BB27AA2762177307840738F09F5F5F4F8D
:100E6000220F331F441FAA1FA9F335D00E2E3AF0CC
:100E7000E0E832D091505040E695001CCAF72BD0E4
:100E8000FE2F29D0660F771F881FBB1F2617370735
:100E90004807AB07B0E809F0BB0B802DBF01FF2767
:100EA00093585F4F3AF09E3F510578F00C940D082F
:100EB0000C9458085F3FE4F3983ED4F386957795F9
:100EC0006795B795F7959F5FC9F7880F911D969520
:100ED000879597F90895E1E0660F771F881FBB1F7C
:100EE000621773078407BA0720F0621B730B840B29
:100EF000BA0BEE1F88F7E09508950E943D0888F030
:100F00009F5798F0B92F9927B751B0F0E1F0660FCD
:100F1000771F881F991F1AF0BA95C9F714C0B1300E
:100F200091F00E945708B1E008950C945708672F7C
:100F3000782F8827B85F39F0B93FCCF3869577953D
:100F40006795B395D9F73EF4909580957095619526
:100F50007F4F8F4F9F4F0895E89409C097FB3EF451
:100F600090958095709561957F4F8F4F9F4F9923F6
:100F7000A9F0F92F96E9BB279395F6958795779574
:100F80006795B795F111F8CFFAF4BB0F11F460FF34
:100F90001BC06F5F7F4F8F4F9F4F16C0882311F08C
:100FA00096E911C0772321F09EE8872F762F05C0A0
:100FB000662371F096E8862F70E060E02AF09A953B
:100FC000660F771F881FDAF7880F9695879597F930
:100FD0000895990F0008550FAA0BE0E8FEEF1616CA
:100FE0001706E807F907C0F012161306E407F5071D
:100FF00098F0621B730B840B950B39F40A2661F091
:10100000232B242B252B21F408950A2609F4A14033
:10101000A6958FEF811D811D089597F99F6780E840
:1010200070E060E008959FEF80EC089500240A943A
:101030001616170618060906089500240A941216B3
:101040001306140605060895092E0394000C11F4E6
:10105000882352F0BB0F40F4BF2B11F460FF04C093
:101060006F5F7F4F8F4F9F4F089557FD9058440FEC
:10107000551F59F05F3F71F04795880F97FB991FF7
:1010800061F09F3F79F087950895121613061406B4
:10109000551FF2CF4695F1DF08C016161706180641
:1010A000991FF1CF86957105610508940895E8941C
:1010B000BB2766277727CB0197F908950E94E90798
:1010C00008F48FEF08950E9476080C9424080E947B
:1010D000160838F00E941D0820F0952311F00C949A
:1010E0000D080C94130811240C9458080E9435081C
:1010F00070F3959FC1F3950F50E0551F629FF0016B
:10110000729FBB27F00DB11D639FAA27F00DB11D83
:10111000AA1F649F6627B00DA11D661F829F22270C
:10112000B00DA11D621F739FB00DA11D621F839F93
:10113000A00D611D221F749F3327A00D611D231F69
:10114000849F600D211D822F762F6A2F11249F57B7
:1011500050409AF0F1F088234AF0EE0FFF1FBB1FBA
:10116000661F771F881F91505040A9F79E3F510579
:1011700080F00C940D080C9458085F3FE4F3983EFF
:10118000D4F3869577956795B795F795E7959F5F23
:10119000C1F7FE2B880F911D9695879597F90895B5
:0E11A0000E94E907880B990B0895F894FFCF81
:1011AE0000000000000260018D014D02BE019C0195
:1011BE00B0016E616E00696E66006F7666000D0A94
:0211CE0000001F
:00000001FF
