:100000000C94DF000C9407010C9407010C94070179
:100010000C9407010C9407010C9407010C94070140
:100020000C9407010C9407010C9407010C94F70B36
:100030000C9407010C9407010C9407010C94070120
:100040000C94550B0C9407010C94C50B0C949F0B4E
:100050000C9407010C9407010C9407010C94070100
:100060000C94360A0C94070100407A10F35A00A051
:10007000724E18090010A5D4E80000E87648170071
:1000800000E40B54020000CA9A3B000000E1F505B1
:10009000000080969800000040420F000000A086FB
:1000A00001000000102700000000E803000000002D
:1000B0006400000000000A000000000001000000D1
:1000C00000002C76D888DC674F0823DFC1DFAE59EB
:1000D000E1B1B796E5E3E453C63AE651997696E87E
:1000E000E6C28426EB898C9B62ED407C6FFCEFBC02
:1000F0009C9F40F2BAA56FA5F490055A2AF75C932D
:100100006B6CF9676DC11BFCE0E40D47FEF520E662
:10011000B500D0ED902E0300943577050080841E45
:10012000080000204E0A000000C80C333333330FA0
:10013000986E12831141EF8D2114893BE65516CF3D
:10014000FEE6DB18D1844B381BF77C1D901DA4BB49
:10015000E424203284725E228100C9F124ECA1E5FE
:100160003D270000000023002600290000000000B9
:10017000240027002A0000000000250028002B0092
:10018000040404040404040402020202020203033D
:100190000303030301020408102040800102040845
:1001A00010200102040810200000000800020100D5
:1001B000000304070000000000000000B30C11243D
:1001C0001FBECFEFD8E0DEBFCDBF12E0A0E0B1E0B0
:1001D000EAEAFFE202C005900D92AC30B107D9F710
:1001E00023E0ACE0B2E001C01D92A33DB207E1F70D
:1001F00010E0CFEDD0E004C02197FE010E94BE14B4
:10020000CE3DD107C9F70E94570D0C94D3170C941B
:100210000000E091BD03EC3088F54091BE0328E872
:1002200030E0241B310947FD3395220F331F220F85
:10023000331F8217930784F04091BF0328E532E013
:10024000241B310947FD3395220F331F220F331F23
:10025000821793070CF49C0122503109220F331F9F
:100260004FB7F8948E2F90E0FC01EE0FFF1FE80FC0
:10027000F91FE856FC4F328321834FBF0895209128
:10028000A302260F3327331F21323105ECF42091CE
:10029000C902FC0190E080E0243069F082E008951A
:1002A000A091A3022191AC014F575D4FA40FB52F30
:1002B000B11D2C930196861798F38091A302680FC5
:1002C0006093A30280E0089581E008950895089561
:1002D0000895E091780280917702E81730F4F0E019
:1002E000E95AFD4F808190E008958FEF9FEF0895C8
:1002F00090917802809177022FEF3FEF981748F4A2
:10030000E92FF0E0E95AFD4F208130E09F5F9093A4
:100310007802C90108958091770290917802891B33
:10032000990B0895CF92DF92EF92FF920F931F9354
:10033000CF93DF937C01CB018A01209156022223C7
:1003400089F0EB016B01C40ED51ECC15DD0569F0FB
:100350006991D701ED91FC910190F081E02DC701E9
:100360000995F3CF642F0E943F01C801DF91CF911F
:100370001F910F91FF90EF90DF90CF900895CF9352
:10038000DF931F92CDB7DEB76983209156022223F7
:10039000F9F020917902203258F021E030E0FC01A0
:1003A0003383228390E080E00F90DF91CF91089516
:1003B00080917A02E82FF0E0EA5CFD4F998190830A
:1003C0008F5F80937A028093790281E090E0ECCF96
:1003D00061E0CE0101960E943F01F7CF833081F0AA
:1003E00028F4813099F08230A9F008958730A9F07F
:1003F0008830C9F08430B1F4809180008F7D03C0D3
:10040000809180008F7780938000089584B58F77E6
:1004100084BD089584B58F7DFBCF8091B0008F7728
:100420008093B00008958091B0008F7DF9CF1F9325
:10043000CF93DF93282F30E0F901E855FE4F8491E8
:10044000F901EC56FE4FD491F901E058FE4FC491EA
:10045000CC23A9F0162F81110E94EE01EC2FF0E0C1
:10046000EE0FFF1FEA58FE4FA591B4918FB7F89495
:10047000EC91111108C0D095DE23DC938FBFDF9182
:10048000CF911F910895DE2BF8CF1092C90281E021
:100490008093CB021092CA0261E082E10E941702AF
:1004A00061E083E10E941702E9EBF0E080818E7F3A
:1004B000808380818D7F808388E48093B80085E489
:1004C0008093BC000895CF93DF9391E090938002D6
:1004D0008823B9F0C091B800D091BA008091BC00D7
:1004E0008A7B8093BC0060E082E10E94170260E09A
:1004F00083E10E9417020E944502D093BA00C09384
:10050000B800DF91CF910895CF93DF9390E0FC0185
:10051000EC56FE4F249180589E4FFC018491882315
:10052000C9F090E0880F991FFC01E459FE4FA59196
:10053000B491FC01EA58FE4FC591D49161110DC0F0
:100540009FB7F8948C91209582238C9388812823DF
:1005500028839FBFDF91CF910895623051F49FB7F8
:10056000F8943C91822F809583238C93E8812E2BE5
:10057000EFCF8FB7F894EC912E2B2C938FBFEACF4F
:100580008E3008F08E508770806480937C0080915C
:100590007A00806480937A0080917A0086FDFCCF97
:1005A000809178009091790008953FB7F8948091F8
:1005B000320290913302A0913402B091350226B5F7
:1005C000A89B05C02F3F19F00196A11DB11D3FBF8B
:1005D000BA2FA92F982F8827BC01CD01620F711D5A
:1005E000811D911D42E0660F771F881F991F4A9554
:1005F000D1F708958F929F92AF92BF92CF92DF92E0
:10060000EF92FF924B015C010E94D5026B017C01CD
:100610000E94D5026C197D098E099F09683E7340BE
:1006200081059105A8F321E0821A9108A108B1087B
:1006300088EEC80E83E0D81EE11CF11C81149104E1
:10064000A104B10429F7FF90EF90DF90CF90BF9005
:10065000AF909F908F9008952FB7F89460912E02DD
:1006600070912F0280913002909131022FBF089536
:10067000AF92BF92CF92DF92EF92FF920F931F93B0
:10068000CF93DF936C017B018B01040F151FEB01EE
:100690005E01AE18BF08C017D10759F06991D601A5
:1006A000ED91FC910190F081E02DC6010995892B17
:1006B00079F7C501DF91CF911F910F91FF90EF90D6
:1006C000DF90CF90BF90AF900895FC01538D448D83
:1006D000252F30E0842F90E0821B930B541710F0ED
:1006E000CF96089501970895FC01918D828D9817FA
:1006F00061F0A28DAE0FBF2FB11D5D968C91928DD2
:100700009F5F9F73928F90E008958FEF9FEF089502
:10071000FC01918D828D981731F0828DE80FF11DCB
:10072000858D90E008958FEF9FEF0895FC01918DE6
:10073000228D892F90E0805C9F4F821B91098F73DF
:10074000992708958BEF92E00E94960321E0892B70
:1007500009F420E0822F089580E090E0892B29F0B1
:100760000E94A20381110C9400000895FC01A48D45
:10077000A80FB92FB11DA35ABF4F2C91848D90E0C3
:1007800001968F739927848FA689B7892C93A089A6
:10079000B1898C91837080648C93938D848D981330
:1007A00006C00288F389E02D80818F7D80830895C3
:1007B000EF92FF920F931F93CF93DF93EC0181E0B1
:1007C000888F9B8D8C8D98131AC0E889F989808158
:1007D00085FF15C09FB7F894EE89FF896083E8898B
:1007E000F98980818370806480839FBF81E090E07D
:1007F000DF91CF911F910F91FF90EF900895F62E0A
:100800000B8D10E00F5F1F4F0F731127E02E8C8DA3
:100810008E110CC00FB607FCFACFE889F9898081E8
:1008200085FFF5CFCE010E94B603F1CFEB8DEC0F23
:10083000FD2FF11DE35AFF4FF0829FB7F8940B8F05
:10084000EA89FB8980818062CFCFCF93DF93EC016F
:10085000888D8823B9F0AA89BB89E889F9898C91A8
:1008600085FD03C0808186FD0DC00FB607FCF7CF64
:100870008C9185FFF2CF808185FFEDCFCE010E9464
:10088000B603E9CFDF91CF910895862F642F0C94A2
:100890008402CF93DF93FC01218930E0F901E85510
:1008A000FE4F8491F901EC56FE4FD491F901E058C6
:1008B000FE4FC491CC2379F081110E94EE01EC2F00
:1008C000F0E0EE0FFF1FEE59FE4FA591B491EC91B1
:1008D000ED2381E009F480E08170DF91CF910895EC
:1008E000CF92DF92EF92FF920F931F93CF93DF93FC
:1008F000FC01C48121E020935602C0931B02109298
:100900007A02109279028485682B8FEE92E00E9421
:10091000BF01D0917902D13208F092C00E94D50275
:100920006B017C018091C902811165C082E08093D6
:10093000C90281E08093CB028FEF8093C8021092AE
:10094000ED02D093EC02A6E3B2E0ECECF2E080E042
:10095000D81385C01092EE028091EE02CC0FC82B06
:10096000C093EE028091CA02813009F07CC01092DF
:10097000CA020E94D5026B017C018091EE02809335
:10098000BB0080917C0290917D02A0917E02B0918B
:100990007F02892B8A2B8B2B99F00E94D502009124
:1009A0007C0210917D0220917E0230917F026C19B1
:1009B0007D098E099F090617170728073907E0F1F7
:1009C0008091BC0083FDD9CF85EC8093BC000E9450
:1009D000D5026B017C018091C902823009F445C0C7
:1009E0008091C8028F3F61F18091C802803241F14D
:1009F0008091C80225C080917C0290917D02A091D7
:100A00007E02B0917F02892B8A2B8B2B09F48ACF2F
:100A10000E94D50200917C0210917D0220917E02FD
:100A200030917F026C197D098E099F0906171707FF
:100A30002807390708F076CF80917B020E94630275
:100A400010927A021092790210925602DF91CF91A1
:100A50001F910F91FF90EF90DF90CF9008959D919F
:100A600091938F5F75CF85EEB0CF80917C0290918E
:100A70007D02A0917E02B0917F02892B8A2B8B2B65
:100A800009F4A9CF0E94D50200917C0210917D0249
:100A900020917E0230917F026C197D098E099F0999
:100AA000061717072807390708F095CFC5CF08950F
:100AB00090E080E008950F931F93CF938C01C62F91
:100AC0000E9470046C2F6460C8010E9470046C2F37
:100AD0006B7FC8010E94700483EC90E00197F1F7EE
:100AE000CF911F910F9108950F931F93CF93DF9391
:100AF0008C01D62FC42F607F642B0E945B0580E1A0
:100B0000D89FB00111246C2BC801DF91CF911F91A8
:100B10000F910C945B0540E062E082EC93E00E9450
:100B200074058BE39FE10197F1F70895CF93DF936D
:100B3000CDB7DEB728970FB6F894DEBF0FBECDBF96
:100B400098E0E6E0F1E0DE01119601900D929A95B1
:100B5000E1F79091CA03981708F48FEF90E0880F9F
:100B6000991F21E030E02C0F3D1F820F931FFC01E5
:100B70006081606840E082EC93E028960FB6F894BC
:100B8000DEBF0FBECDBFDF91CF910C94740540E066
:100B900061E082EC93E00E9474058BE39FE1019792
:100BA000F1F78091CB03882319F080E00C9496052F
:100BB000089541E00E94740581E090E00895FB01F2
:100BC00001900020E9F73197AF01461B570BDC017C
:100BD000ED91FC910280F381E02D09948F929F9218
:100BE000AF92BF920F931F93CF93DF93CDB7DEB732
:100BF000A1970FB6F894DEBF0FBECDBF19A2423049
:100C000008F44AE08E010F5D1F4F842E912CB12C09
:100C1000A12CA50194010E947C14E62FB901CA0100
:100C2000EA3004F5E05DD801EE938D01232B242BEF
:100C3000252B79F790E080E0109729F0BD018BEF2C
:100C400092E00E94DF05A1960FB6F894DEBF0FBEBA
:100C5000CDBFDF91CF911F910F91BF90AF909F902B
:100C60008F900895E95CDFCF4F925F926F927F92F1
:100C70008F929F92AF92BF92CF92DF92EF92FF92AC
:100C80000F931F93CF936B017C01742EAC019B01DA
:100C90000E94D71569E471E0811126C04601570111
:100CA000E894B7F82FEF3FEF4FE75FE7C501B401D6
:100CB0000E94D71581110CC02FEF3FEF4FE75FE780
:100CC000C501B4010E9421136DE471E0181664F0AF
:100CD0002FEF3FEF4FE75FE4C701B6010E94D21547
:100CE0001816ACF461E571E08BEF92E0CF911F91A3
:100CF0000F91FF90EF90DF90CF90BF90AF909F90BB
:100D00008F907F906F905F904F900C94DF052FEF46
:100D10003FEF4FE75FECC701B6010E94211387FD4B
:100D2000E1CF20E030E0A901C701B6010E94211304
:100D300010E000E087FF0AC06DE28BEF92E00E94B6
:100D4000D8038C01F7FAF094F7F8F094C0E060E073
:100D500070E080E09FE37C1641F020E030E040E26C
:100D600051E40E943115CF5FF6CFA70196010E9492
:100D7000C5142B013C010E94A3154B015C014AE004
:100D80000E94EE057C01E00EF11ECC23C1F1C501ED
:100D9000B4010E9426139B01AC01C301B2010E9461
:100DA000C4144B015C016EE28BEF92E00E94D80309
:100DB000E80EF91EC15018F120E030E040E251E4A5
:100DC000C501B4010E9487132B013C010E94A315A9
:100DD0004B01B12CA12C4AE0C501B4010E94EE05E3
:100DE000E80EF91EC501B4010E9426139B01AC0157
:100DF000C301B2010E94C4144B015C01DBCFC701E7
:100E0000CF911F910F91FF90EF90DF90CF90BF9007
:100E1000AF909F908F907F906F905F904F900895CC
:100E2000CF93DF93FC0144815581608171818BEF09
:100E300092E00E943803EC0165E571E08BEF92E0EF
:100E40000E94DF058C0F9D1FDF91CF910895CF93F6
:100E5000DF93BC018BEF92E00E94DF05EC0165E5BA
:100E600071E08BEF92E00E94DF058C0F9D1FDF91F8
:100E7000CF910895CF92DF92EF92FF92CF93DF93BD
:100E80002091270230912802232B81F484E090E006
:100E9000909328028093270288E591E0DF91CF911B
:100EA000FF90EF90DF90CF900C942707EC0184E047
:100EB00090E090932802809327020E942C03C09018
:100EC0002902D0902A02E0902B02F0902C026C199B
:100ED0007D098E099F094AE00E94EE0563E971E0F1
:100EE0008BEF92E00E94DF05CC84DD840D2C000C9A
:100EF000EE08FF084AE0C701B601F7FE0DC06DE23B
:100F00008BEF92E00E94D80366277727CB016C19FC
:100F10007D098E099F094AE00E94EE0563E971E0B0
:100F20008BEF92E00E94DF05688179818A819B8145
:100F300042E00E94340663E971E08BEF92E00E9488
:100F4000DF056C817D818E819F8142E00E943406A5
:100F500063E971E08BEF92E00E94DF056885798597
:100F60008A859B8542E00E94340665E571E08BEF3F
:100F700092E0DF91CF91FF90EF90DF90CF900C94B3
:100F8000DF0585ED8093BC0080917C0290917D020D
:100F9000A0917E02B0917F020796A11DB11D23E0B2
:100FA000B695A795979587952A95D1F72091BC007E
:100FB00024FD03C01092C902089540917C02509113
:100FC0007D0260917E0270917F02452B462B472B5C
:100FD00069F30097A105B10541F02AE22A95F1F7DE
:100FE00000C00197A109B109E1CF80917B020C9467
:100FF00063020E94BE170F931F93CF93DF93EC0100
:1010000088819981009759F02A813B8126173707FB
:1010100030F081E0DF91CF911F910F9108958B0106
:101020006F5F7F4F0E940117009759F09983888363
:101030001B830A832C813D81232B59F7FC011082ED
:10104000E8CF80E0E7CFCF93DF93EC0188819981EF
:10105000009711F00E947816198218821D821C8256
:101060001B821A82DF91CF910895CF92DF92EF9287
:10107000FF920F931F93CF93DF93CDB7DEB72897DF
:101080000FB6F894DEBF0FBECDBF7C01CB014AE0A6
:101090009E012F5F3F4F6901B9010E94B510F60113
:1010A00001900020E9F73197EC19FD09D9F0D7013B
:1010B00014960D911C910E0F1F1FB801C7010E94BD
:1010C000FB078823F9F0F701208131818481958124
:1010D000B601820F931F0E94CC17D70115961C935F
:1010E0000E931497C70128960FB6F894DEBF0FBE73
:1010F000CDBFDF91CF911F910F91FF90EF90DF90C7
:10110000CF900895C7010E942308ECCFEF92FF9281
:101110000F931F93CF93DF938C017B01FB01019011
:101120000020E9F73197E61BF70BD1F0DC011496AC
:10113000CD91DC91CE0FDF1FBE010E94FB078823FB
:10114000B9F0F8012081318184819581B701820F46
:10115000931F0E94CC17D8011596DC93CE93149759
:10116000C801DF91CF911F910F91FF90EF900895EB
:10117000C8010E942308F4CFEF92FF920F931F93B0
:10118000CF93DF93EC017B018A01BA010E94FB0738
:1011900081110BC0CE010E942308CE01DF91CF91B7
:1011A0001F910F91FF90EF9008951D830C83B7015D
:1011B000888199810E94CC17F0CFEF92FF920F9314
:1011C0001F93CF93DF93CDB7DEB762970FB6F89436
:1011D000DEBF0FBECDBF8C01CB01F80111821082A2
:1011E00013821282158214824AE09E012F5F3F4FC4
:1011F0007901B9010E94B510F70101900020E9F7CB
:101200003197AF014E195F09B701C8010E94BC08B0
:1012100062960FB6F894DEBF0FBECDBFDF91CF91BF
:101220001F910F91FF90EF900895FB01DC01119643
:101230001C921E9213961C921E92129715961C9247
:101240001E9214978617970749F060817181611586
:10125000710521F0448155810C94BC080895FC016E
:1012600080819181009711F00C94781608952F9247
:101270003F924F925F926F927F928F929F92AF9226
:10128000BF92CF92DF92EF92FF920F931F93CF9373
:10129000DF93CDB7DEB72D970FB6F894DEBF0FBE44
:1012A000CDBF5C0182E090E09093280280932702FA
:1012B0006501F12CE12C7724739482E0682E4601BD
:1012C0008A189B080091C0031091C1030E0D1F1DC9
:1012D000D80118968C9118978B7F18968C93189735
:1012E000ED91FC910190F081E02DC80109958D8769
:1012F000F8018085869581702D84281609F470C0C8
:101300000E942C03D80112966D937D938D939C932C
:10131000159718968C911897862518968C93E091BE
:10132000C003F091C103EE0DFF1D608562FB112724
:1013300010F960FD10E0D6011D936D01808580FDE0
:101340002EC082FF2CC01A8219821C821B821E8230
:101350001D8246E050E065E971E0CE0101960E94F1
:10136000BC08BE016F5F7F4FCE0107960E94150932
:10137000B401CE0107960E9435086CE971E00E9425
:101380008608612F70E00E9435080E941007CE0188
:1013900007960E942F09CE0101960E942F09B2E103
:1013A000EB0EF11CE6E3EE16F10409F088CF2D9662
:1013B0000FB6F894DEBF0FBECDBFDF91CF911F9166
:1013C0000F91FF90EF90DF90CF90BF90AF909F90E4
:1013D0008F907F906F905F904F903F902F900895E7
:1013E0000E942C03F80122813381448155811B0125
:1013F0002C01221A330A440A550AB201A10186813E
:101400009781B0E0A0E0481759076A077B0708F406
:1014100086CF808581703D84381609F480CF0E9484
:101420002C03D80112966D937D938D939C93159701
:1014300018968C9118978725846018968C930E9433
:101440002C03F8012185328543855485621B730B7B
:10145000840B950B658776878787908B0E942C037A
:10146000F801618772878387948759CF1F920F9203
:101470000FB60F9211242F933F934F935F936F9367
:101480007F938F939F93AF93BF93EF93FF9380913D
:10149000B900887F803609F44AC0F0F5883209F433
:1014A000A7C018F5803109F49BC0B8F4882309F46B
:1014B000F9C0883009F494C0FF91EF91BF91AF91CA
:1014C0009F918F917F916F915F914F913F912F915C
:1014D0000F900FBE0F901F901895883109F488C0A7
:1014E000803251F78093C80214C0803409F49DC043
:1014F00040F48033B9F38833F9F68093C80285EC61
:10150000B0C0803509F485C0883509F496C08834A8
:1015100099F60E94C107D0CF883909F48CC038F5FC
:10152000883729F050F4883611F0803729F683E0A7
:101530008093C9021092C70257C0883809F47BC053
:10154000803919F0803809F0B7CF8091C702803216
:1015500008F071C0E091C70281E08E0F8093C7024E
:101560008091BB00F0E0E955FD4F80833DC0803B9A
:1015700039F0E0F4803A09F479C0883A09F09CCF58
:1015800084E08093C9021092A4021092A302E09119
:10159000A102F091A20209958091A30281110FC0CE
:1015A00081E08093A3021092810209C0803C09F47B
:1015B000A6CF883C09F4A3CF883B09F07DCFE0910A
:1015C000A40281E08E0F8093A402F0E0EF57FD4F5C
:1015D00080818093BB009091A4028091A30229C0D6
:1015E0008091EE028093BB0085EC8093BC0064CFB9
:1015F0009091ED028091EC02981758F5E091ED0280
:1016000081E08E0F8093ED02F0E0E453FD4F808186
:10161000E9CFE091ED0281E08E0F8093ED028091A1
:10162000BB00F0E0E453FD4F80839091ED02809188
:10163000EC029817C8F285E8D8CFE091ED0281E07E
:101640008E0F8093ED028091BB00F0E0E453FD4FDC
:1016500080838091CB0281115CCF81E08093CA02AC
:1016600084EA8093BC001092C90226CF85EC809357
:10167000BC001092C9028091C702803230F4E09120
:10168000C702F0E0E955FD4F10826091C70270E09B
:10169000E091A502F091A60287EA92E009951092E6
:1016A000C7020ACF1092C80234CF1F920F920FB612
:1016B0000F9211242F933F938F939F93AF93BF93D8
:1016C00080912E0290912F02A0913002B0913102B0
:1016D00030912D0223E0230F2D3758F50196A11DDF
:1016E000B11D20932D0280932E0290932F02A09380
:1016F0003002B09331028091320290913302A09176
:101700003402B09135020196A11DB11D80933202C1
:1017100090933302A0933402B0933502BF91AF91FE
:101720009F918F913F912F910F900FBE0F901F901F
:10173000189526E8230F0296A11DB11DD2CF1F9246
:101740000F920FB60F9211242F933F934F935F93F5
:101750006F937F938F939F93AF93BF93EF93FF9379
:101760008BEF92E00E94B603FF91EF91BF91AF9192
:101770009F918F917F916F915F914F913F912F91A9
:101780000F900FBE0F901F9018951F920F920FB6DB
:101790000F9211242F938F939F93EF93FF93E091D8
:1017A0000B03F0910C038081E0911103F09112037F
:1017B00082FD1BC09081809114038F5F8F732091F5
:1017C0001503821741F0E0911403F0E0E550FD4F5E
:1017D000958F80931403FF91EF919F918F912F919B
:1017E0000F900FBE0F901F9018958081F4CF1F921D
:1017F0000F920FB60F9211242F933F934F935F9345
:101800006F937F938F939F93AF93BF93CF93DF9308
:10181000EF93FF9380911A02C091BC03D0E087FF41
:1018200024C0109285001092840080911A028F5F6C
:1018300080931A0280911A02082E000C990B8C17C3
:101840009D0724F480911A028C30C4F180918400A9
:1018500090918500049680349C4908F47AC0809168
:10186000840090918500049676C080911A02082E1B
:10187000000C990B8C179D07C4F6E0911A028E2F6D
:10188000EE0F990BFC01EE0FFF1FE80FF91FE85652
:10189000FC4F808186FFC9CFE0911A028E2FEE0F98
:1018A000990BFC01EE0FFF1FE80FF91FE856FC4FE4
:1018B000808160E08F730E941702B7CF209184006F
:1018C00030918500E0911A028E2FEE0F990BFC01EA
:1018D000EE0FFF1FE80FF91FE856FC4F8181928140
:1018E000820F931F9093890080938800E0911A02E1
:1018F0008E2FEE0F990BFC01EE0FFF1FE80FF91F63
:10190000E856FC4F808186FF11C0E0911A028E2FAD
:10191000EE0F990BFC01EE0FFF1FE80FF91FE856C1
:10192000FC4F808161E08F730E941702FF91EF915D
:10193000DF91CF91BF91AF919F918F917F916F91E7
:101940005F914F913F912F910F900FBE0F901F907D
:10195000189580E49CE990938900809388008FEF2C
:1019600080931A02E3CF1092F2021092F10288EEF5
:1019700093E0A0E0B0E08093F3029093F402A09390
:10198000F502B093F60225E131E03093F0022093A6
:10199000EF021092FE021092FD028093FF029093DC
:1019A0000003A0930103B093020387E291E09093B8
:1019B000FC028093FB0285EC90E0909308038093F7
:1019C000070384EC90E090930A038093090380EC72
:1019D00090E090930C0380930B0381EC90E0909344
:1019E0000E0380930D0382EC90E09093100380939C
:1019F0000F0386EC90E090931203809311031092F2
:101A000014031092150310921603109217031092EC
:101A1000C5031092C40381E491E09093C3038093C3
:101A2000C2031092CB0387E28093C60380E18093C8
:101A3000CC0382E08093CD031092CE0386E390E046
:101A40000E94DC15FC019C012A5C3F4F6AE070E0BB
:101A500049E351E0128213821482158277836683F0
:101A6000108651834083118A72962E173F0791F793
:101A70009093C1038093C0038091BC038C3098F491
:101A800091E0980F9093BC038093BD0390E0FC011C
:101A9000EE0FFF1FE80FF91FE856FC4F88EB9BE0A5
:101AA0009283818308958FEF8093BD030895CF9330
:101AB000DF93CDB7DEB72C970FB6F894DEBF0FBE1D
:101AC000CDBF789484B5826084BD84B5816084BDC7
:101AD00085B5826085BD85B5816085BD80916E00CC
:101AE000816080936E0010928100809181008260FD
:101AF000809381008091810081608093810080913A
:101B000080008160809380008091B1008460809328
:101B1000B1008091B00081608093B00080917A0024
:101B2000846080937A0080917A00826080937A004A
:101B300080917A00816080937A0080917A00806839
:101B400080937A001092C10010922802109227020E
:101B5000E0910B03F0910C0382E08083E091070396
:101B6000F09108031082E0910903F0910A038FECD1
:101B7000808310921303E0910F03F091100386E02D
:101B80008083E0910D03F0910E038081806180835A
:101B9000E0910D03F0910E03808188608083E091D5
:101BA0000D03F0910E03808180688083E0910D0326
:101BB000F0910E0380818F7D808380EB91E00E9405
:101BC0002707109278021092770210927A021092F0
:101BD00079020E94450286E691E09093A2028093EA
:101BE000A10287E691E09093A6028093A50210924D
:101BF000C7038091CD03823018F098E09093C7031B
:101C00008093CA0362E370E080E090E00E94FA02F1
:101C10006091CE0382EC93E00E94700468EE73E062
:101C200080E090E00E94FA0260E382EC93E00E9480
:101C30005B050BE416E4C8010197F1F760E382EC61
:101C400093E00E945B05C8010197F1F760E382EC25
:101C500093E00E945B0583E592E00197F1F760E273
:101C600082EC93E00E945B056091C703606240E0F4
:101C700082EC93E00E94740584E08093C80340E006
:101C80006CE082EC93E00E9474050E94C70582E03C
:101C90008093C90340E066E082EC93E00E94740503
:101CA0000E948B0588E08093CE0360E082EC93E095
:101CB0000E94700461E08DE00E94840261E083E094
:101CC0000E94840260E08EE00E94840260E08FE067
:101CD0000E94840262E084E00E94840262E087E065
:101CE0000E94840262E088E00E9484021EE0A12E2D
:101CF00011E0B12ED12CC12C09E1802E912C009144
:101D0000C0031091C1030C0D1D1DD5017D905D0117
:101D1000672D70E0D801ED91FC910280F381E02DF8
:101D200042E050E0C8010995F801718A10860190DF
:101D3000F081E02D0190F081E02DC8010995882304
:101D400039F0D80118968C911897836018968C9367
:101D50000E942C03F8016283738384839583E0914E
:101D6000C003F091C103EC0DFD1D97828682F2E164
:101D7000CF0ED11C86E3C816D10409F68CE092E0A0
:101D80000E943A078091BD038C3008F051C061E099
:101D900083E00E9484028091BD03282F30E0F90186
:101DA000EE0FFF1FE20FF31FE856FC4F9081907C6F
:101DB000936090831092BE031092BF032CE0622FB9
:101DC0000E949E14829FB001112430E020E0AB01FC
:101DD000420F531FFA01EE0FFF1FE40FF51FE856E5
:101DE000FC4F908196FD16C02F5F3F4F2C30310580
:101DF00071F781110FC01092800082E08093810002
:101E00001092850010928400B19A80916F008260D8
:101E100080936F00E091BD038E2F90E0FC01EE0FE8
:101E2000FF1FE80FF91FE856FC4F80818064808314
:101E300088EE93E00E94090168EE73E080E090E094
:101E40000E94FA0261E070E0CE0107960E94DD0870
:101E5000BE01695F7F4FCE0101960E94150963ECB8
:101E600071E0CE0101960E9486080E941007CE0103
:101E700001960E942F09CE0107960E942F090E9409
:101E8000C7050E948B0561E070E0CE0107960E94B5
:101E9000DD08BE01695F7F4FCE0101960E941509E2
:101EA00063EC71E0CE0101960E948608DC01149675
:101EB0004D915C9115976D917C9182EC93E00E941D
:101EC0003803CE0101960E942F09CE0107960E9489
:101ED0002F098CE192E00E94370980911C0288232F
:101EE000C1F31AE08FE00E94C002E80EF91E115003
:101EF000C9F7C7016AE070E00E94AA147B0181E083
:101F000090E00E94AA1490E080E00E9426134B010A
:101F10005C0180921F0290922002A0922102B09256
:101F200022020E94C7050E948B0500ED11E026E009
:101F300042E0C501B4010E949710B80182EC93E021
:101F40000E94DF0561EE71E082EC93E00E94DF0504
:101F500081E00E9496056AE070E0CE0107960E943B
:101F6000DD08BE01695F7F4FCE0101960E94150911
:101F700069EE71E0CE0101960E948608FC01448161
:101F800055816081718182EC93E00E943803CE011B
:101F900001960E942F09CE0107960E942F098CE11D
:101FA00092E00E94370980911C028823C1F31AE055
:101FB0008EE00E94C002E80EF91E1150C9F72AE017
:101FC00030E0C701B9010E94AA14C9010E94AA14F5
:101FD00090E080E00E9426136B017C01C0922302F6
:101FE000D0922402E0922502F09226020E94C705B8
:101FF0000E948B0500ED11E026E042E0C701B6012A
:102000000E949710B80182EC93E00E94DF0566EF12
:1020100071E082EC93E00E94DF0581E00E9496056A
:102020006EEF71E082EC93E00E94DF058CE192E0BC
:102030000E94370980911D028823C1F30E94C705C1
:102040000E948B0583E0E82EF12C90E0C92E90E0F1
:10205000D92E0E942C036093290270932A02809348
:102060002B0290932C028CE192E00E9437098EE0C3
:102070000E94C0025C018FE00E94C0028C01B50189
:10208000BB0C880B990B0E942813209123023091DE
:10209000240240912502509126020E9487134B0191
:1020A0005C0180920C0290920D02A0920E02B092FE
:1020B0000F02B801110F880B990B0E942813209171
:1020C0001F023091200240912102509122020E9471
:1020D00087139B01AC0120931002309311024093AF
:1020E000120250931302C501B4010E94871360933A
:1020F0001402709315028093160290931702F092C7
:102100002802E09227028CED95E00E9409018CE004
:1021100092E00E943A07C114D10409F49ACF0E94B8
:10212000A203882309F495CF0E94000092CFEF927A
:102130000F931F93CF93DF93E80134E047FD34E121
:10214000042E000C550B57FF03C0519541955109C2
:10215000E32E022F242FAE010E94DA10CE01DF9170
:10216000CF911F910F91EF900895BB274A3031F422
:10217000992322F4BDE2909581959F4F0C94C11054
:10218000BB27FB015527AA27880F991FAA1FA41751
:1021900010F0A41B83955051B9F7A05DAA3308F045
:1021A000A95DA193009779F7B111B1931192CB0179
:1021B0000C941113A9E0B0E0E0EEF0E10C944B14A4
:1021C0006A01F22EB02E102FFBE3AF2EA01608F4FA
:1021D0001BE31F5F012F27E0AE014F5F5F4F0E949F
:1021E0003912BC018981982F9970913009F43FC050
:1021F0009BE2E1FC04C09E2D9170E0FC3AC05E2D94
:102200005071E82FE87083FF46C084E0911101C04F
:1022100083E0EF2DE81B8F1508F0E0E0D6018E2F4C
:1022200020E2552351F1992329F0D6019C93C60150
:1022300001966C0196012D5F3F4FE2FE24C08EE4B3
:10224000D6018C9391E411969C93119712968C93DE
:10225000D9018E2F90E281111BC0E20FF32FF11DE7
:1022600010828EEF9FEF2996ECE00C9467149DE2AC
:10227000C6CF90E2C4CF2D9381508111FCCFCE0EFA
:10228000D11CE0E0D0CF8EE6D6018C9391E6DBCF77
:102290009D938150E0CF482F447082FF3DC084E081
:1022A000911101C083E08F1510F4EF2DE81BD601CA
:1022B0008E2F20E2552309F1992329F0D6019C9312
:1022C000C60101966C0196012D5F3F4FE2FE1BC0D7
:1022D00089E4D6018C938EE411968C93119786E451
:1022E00012968C93D9018E2F90E2882309F4B5CFF2
:1022F0009D938150FACF2D9381508111FCCFCE0E4A
:10230000D11CE0E0D9CF89E6D6018C938EE61196F8
:102310008C93119786E6E4CF9B0177FF02C030E0F3
:1023200020E0A1E0B0E0911102C0B0E0A0E0F9012E
:102330003196AE0FBF1F8B2C912CBB2009F461C0CE
:102340005401EFEFAE1ABE0AAA0DBB1DFA161B060A
:1023500019F014F04F2D4A1B511188C0E3FC59C0ED
:102360007601A42FB0E2A1114FC0C40ED11C992355
:1023700009F45BC040E0D6011196F60190836D012F
:10238000552309F448C0012F060F9A81582F507128
:1023900084FF03C0913309F4015010160CF047C0BC
:1023A000093008F008E0EEE2FE2E5B01A01AB10849
:1023B00085019194819491082F3F320729F4D60129
:1023C000FC92F60131966F016217730794F10217C0
:1023D00013077CF5DB01A21BB30BAA24A394B12C39
:1023E000AC0EBD1EAA0DBB1D11968C91215031095A
:1023F000D601119628153905F4F0F60180836D0198
:10240000DBCFB12CA12CA0CFF701B1937F01A1505C
:10241000AACF9111B0CFD601942F50E302C05D93A3
:1024200091509111FCCFC40ED11C40E0ACCF01E023
:10243000BACF80E3DBCF6217730731F4963388F4A9
:10244000953311F4552369F0F6018083FD01842F43
:1024500090E2811108C0A40FB11D1C9290E080E0B1
:1024600002CF81E3F1CF91938150F3CF911183CFCC
:102470008ACF283008F027E03327DA01990F311D81
:1024800087FD916000966105710539F432602E5F19
:102490003D9330E32A95E1F708959F3F30F080386F
:1024A0007105610509F03C5F3C5F3D93913008F098
:1024B0008068911DDF93CF931F930F93FF92EF924C
:1024C000192F987F9695E92F96959695E90FFF27F6
:1024D000EE53FF4F99273327EE24FF24A701E7018E
:1024E00005900894079428F4360FE71EF81E491F3C
:1024F000511D660F771F881F991F0694A1F705903D
:10250000079428F4E70EF81E491F561FC11D770FC8
:10251000881F991F661F0694A1F70590079428F459
:10252000F80E491F561FC71FD11D880F991F661F20
:10253000771F0694A1F70590079420F4490F561FC2
:10254000C71FD81F990F661F771F881F0694A9F70A
:1025500084911095177041F0D695C795579547957A
:10256000F794E7941A95C1F7E8E6F0E068941590BF
:10257000159135916591959105907FE27395E118DC
:10258000F10A430B560BC90BD009C0F7E10CF11E41
:10259000431F561FC91FD01D7EF4703311F48A9556
:1025A000E6CFE894015030F0080F0AF40027021734
:1025B00008F4202F2395022F7A3328F079E37D93B6
:1025C0002A95E9F710C07D932A9589F60694979588
:1025D0006795379517951794E118F10A430B560B39
:1025E000C90BD00998F023957E9173957A3308F042
:1025F00070E37C932013B8F77E9170617D9330F087
:10260000839571E37D9370E32A95E1F71124EF90B0
:10261000FF900F911F91CF91DF91992787FD9095A2
:102620000895DC01FC01672F71917723E1F7329760
:1026300004C07C916D9370836291AE17BF07C8F39D
:1026400008950E94631308F481E00895E89409C096
:1026500097FB3EF490958095709561957F4F8F4FD5
:102660009F4F9923A9F0F92F96E9BB279395F695EB
:10267000879577956795B795F111F8CFFAF4BB0F69
:1026800011F460FF1BC06F5F7F4F8F4F9F4F16C0CD
:10269000882311F096E911C0772321F09EE8872F57
:1026A000762F05C0662371F096E8862F70E060E013
:1026B0002AF09A95660F771F881FDAF7880F96958C
:1026C000879597F90895990F0008550FAA0BE0E830
:1026D000FEEF16161706E807F907C0F012161306E4
:1026E000E407F50798F0621B730B840B950B39F424
:1026F0000A2661F0232B242B252B21F408950A268A
:1027000009F4A140A6958FEF811D811D08950E94B7
:102710009A130C940B140E94FD1338F00E940414B9
:1027200020F0952311F00C94F4130C94FA13112457
:102730000C943F140E941C1470F3959FC1F3950FE5
:1027400050E0551F629FF001729FBB27F00DB11D35
:10275000639FAA27F00DB11DAA1F649F6627B00DC5
:10276000A11D661F829F2227B00DA11D621F739FAE
:10277000B00DA11D621F839FA00D611D221F749FBC
:102780003327A00D611D231F849F600D211D822F03
:10279000762F6A2F11249F5750409AF0F1F088232A
:1027A0004AF0EE0FFF1FBB1F661F771F881F915057
:1027B0005040A9F79E3F510580F00C94F4130C94FF
:1027C0003F145F3FE4F3983ED4F386957795679581
:1027D000B795F795E7959F5FC1F7FE2B880F911D81
:1027E0009695879597F9089597F99F6780E870E027
:1027F00060E008959FEF80EC089500240A94161677
:10280000170618060906089500240A9412161306DE
:10281000140605060895092E0394000C11F488236C
:1028200052F0BB0F40F4BF2B11F460FF04C06F5F88
:102830007F4F8F4F9F4F089557FD9058440F551F5E
:1028400059F05F3F71F04795880F97FB991F61F032
:102850009F3F79F087950895121613061406551FA9
:10286000F2CF4695F1DF08C0161617061806991F15
:10287000F1CF86957105610508940895E894BB270A
:1028800066277727CB0197F908952F923F924F92B1
:102890005F926F927F928F929F92AF92BF92CF92F0
:1028A000DF92EF92FF920F931F93CF93DF93CDB7F9
:1028B000DEB7CA1BDB0B0FB6F894DEBF0FBECDBF71
:1028C00009942A88398848885F846E847D848C8442
:1028D0009B84AA84B984C884DF80EE80FD800C814B
:1028E0001B81AA81B981CE0FD11D0FB6F894DEBF2E
:1028F0000FBECDBFED010895A1E21A2EAA1BBB1B8E
:10290000FD010DC0AA1FBB1FEE1FFF1FA217B307BB
:10291000E407F50720F0A21BB30BE40BF50B661FD1
:10292000771F881F991F1A9469F760957095809595
:1029300090959B01AC01BD01CF010895991B79E0F1
:1029400004C0991F961708F0961B881F7A95C9F73F
:1029500080950895AA1BBB1B51E107C0AA1FBB1F8E
:10296000A617B70710F0A61BB70B881F991F5A951B
:10297000A9F780959095BC01CD010895EE0FFF1F3A
:102980000590F491E02D09945058BB27AA270E9486
:10299000DC140C940B140E94FD1338F00E940414F4
:1029A00020F039F49F3F19F426F40C94FA130EF436
:1029B000E095E7FB0C94F413E92F0E941C1458F3E4
:1029C000BA17620773078407950720F079F4A6F514
:1029D0000C943E140EF4E0950B2EBA2FA02D0B0193
:1029E000B90190010C01CA01A0011124FF27591B54
:1029F00099F0593F50F4503E68F11A16F040A22F5A
:102A0000232F342F4427585FF3CF469537952795CA
:102A1000A795F0405395C9F77EF41F16BA0B620BC9
:102A2000730B840BBAF09150A1F0FF0FBB1F661F10
:102A3000771F881FC2F70EC0BA0F621F731F841F53
:102A400048F4879577956795B795F7959E3F08F079
:102A5000B0CF9395880F08F09927EE0F979587953B
:102A600008950E9445150C940B140E94041458F00C
:102A70000E94FD1340F029F45F3F29F00C94F413F9
:102A800051110C943F140C94FA130E941C1468F317
:102A90009923B1F3552391F3951B550BBB27AA2717
:102AA00062177307840738F09F5F5F4F220F331F51
:102AB000441FAA1FA9F335D00E2E3AF0E0E832D019
:102AC00091505040E695001CCAF72BD0FE2F29D01C
:102AD000660F771F881FBB1F261737074807AB07EE
:102AE000B0E809F0BB0B802DBF01FF2793585F4F63
:102AF0003AF09E3F510578F00C94F4130C943F1477
:102B00005F3FE4F3983ED4F3869577956795B79544
:102B1000F7959F5FC9F7880F911D9695879597F94F
:102B20000895E1E0660F771F881FBB1F62177307C8
:102B30008407BA0720F0621B730B840BBA0BEE1FDD
:102B400088F7E09508950E94241488F09F5798F024
:102B5000B92F9927B751B0F0E1F0660F771F881FA2
:102B6000991F1AF0BA95C9F714C0B13091F00E94BC
:102B70003E14B1E008950C943E14672F782F8827F7
:102B8000B85F39F0B93FCCF3869577956795B395E3
:102B9000D9F73EF490958095709561957F4F8F4F52
:102BA0009F4F08950E94631308F48FEF08950E94C9
:102BB0006313880B990B08950F931F93CF93DF93A3
:102BC0008230910510F482E090E0E091D103F09121
:102BD000D20330E020E0B0E0A0E0309799F4211576
:102BE000310509F44AC0281B390B24303105D8F5CA
:102BF0008A819B816115710589F1FB019383828331
:102C0000FE0111C04081518102811381481759078B
:102C1000E0F04817590799F4109761F012960C9359
:102C2000129713961C933296CF01DF91CF911F918B
:102C30000F9108950093D1031093D203F4CF21157F
:102C4000310551F04217530738F0A901DB019A0111
:102C5000BD01DF01F801C1CFEF01F9CF9093D2039D
:102C60008093D103CDCFFE01E20FF31F81939193A7
:102C70002250310939832883D7CF2091CF03309157
:102C8000D003232B41F420910201309103013093B2
:102C9000D0032093CF032091000130910101211531
:102CA000310541F42DB73EB7409104015091050123
:102CB000241B350BE091CF03F091D003E217F3070B
:102CC000A0F42E1B3F0B2817390778F0AC014E5F9C
:102CD0005F4F2417350748F04E0F5F1F5093D00306
:102CE0004093CF03819391939FCFF0E0E0E09CCF9E
:102CF000CF93DF930097E9F0FC01329713821282A1
:102D0000A091D103B091D203ED0130E020E0109703
:102D1000A1F420813181820F931F2091CF03309144
:102D2000D0032817390709F061C0F093D003E0936E
:102D3000CF03DF91CF910895EA01CE17DF07E8F5C1
:102D40004A815B819E0141155105B1F7E901FB8381
:102D5000EA8349915991C40FD51FEC17FD0761F41F
:102D6000808191810296840F951FE9019983888360
:102D7000828193819B838A83F0E0E0E012968D91BB
:102D80009C9113970097B9F52D913C911197CD0126
:102D90000296820F931F2091CF033091D003281702
:102DA000390739F6309751F51092D2031092D103BA
:102DB000B093D003A093CF03BCCFD383C283408111
:102DC0005181840F951FC817D90761F44E5F5F4F7B
:102DD00088819981480F591F518340838A819B8143
:102DE000938382832115310509F0B0CFF093D2038C
:102DF000E093D1039ECFFD01DC01C0CF138212828C
:102E0000D7CFB0E0A0E0E7E0F7E10C9447148C01E5
:102E1000009751F4CB010E94DC158C01C801CDB79D
:102E2000DEB7E0E10C946314FC01E60FF71F9C0190
:102E300022503109E217F30708F49DC0D901CD9162
:102E4000DC911197C617D70798F0C530D10530F33C
:102E5000CE0104978617970708F3C61BD70B229756
:102E6000C193D1936D937C93CF010E947816D6CFF6
:102E70005B01AC1ABD0A4C018C0E9D1EA091D103C2
:102E8000B091D203512C412CF12CE12C109731F54B
:102E90008091CF039091D0038815990509F05CC00B
:102EA0004616570608F058C0809100019091010124
:102EB000009741F48DB79EB74091040150910501F0
:102EC000841B950BE817F90708F055C0F093D00361
:102ED000E093CF03F90171836083A0CF8D919C9122
:102EE000119712966C90129713967C901397A815D1
:102EF000B90559F56C0142E0C40ED11CCA14DB04BB
:102F000020F1AC014A195B09DA011296159780F09D
:102F10006282738251834083D9016D937C93E11463
:102F2000F10471F0D7011396FC93EE93129776CFCC
:102F300022968C0F9D1FF90191838083F301EFCFBF
:102F4000F093D203E093D10369CF4816590608F4F1
:102F50002C017D01D3019ACFCB010E94DC157C01AD
:102F6000009749F0AE01B8010E94C317C8010E9442
:102F70007816870153CF10E000E050CF81E090E059
:102F8000F8940C94D317FB01DC0102C001900D9260
:102F900041505040D8F70895FB01DC0101900D929B
:0A2FA0000020E1F70895F894FFCF38
:102FAA000000D3038000000040001400540004070E
:102FBA000800000000BF019201580568018B0178E2
:102FCA0001690100000000D803380365032504964F
:102FDA00037403880300000000490445040000004C
:102FEA0000D9053803580557056E616E00696E668B
:102FFA00006F7666000D0A0074696D6520286D738E
:10300A00292C20666F72636520284E292C20766F42
:10301A006C74616765202856292C20637572726565
:10302A006E7420286D41292C20706F7765722028D4
:10303A005729002C006B6E6F703A200020696E676A
:10304A00656472756B74092073746174653A200043
:10305A0050726F6772616D207374617274696E6702
:10306A002E2E00412061616E736C756974656E0065
:10307A002020202020202020202020202020202046
:10308A000020412F5374657000562061616E736C85
:10309A00756974656E0020562F537465700044720A
:0C30AA00756B206F702047726F656E0020
:00000001FF
