:100000000C9462000C948A000C948A000C948A0070
:100010000C948A000C948A000C948A000C948A0038
:100020000C948A000C948A000C948A000C94DC07CF
:100030000C948A000C948A000C948A000C948A0018
:100040000C943A070C948A000C94AA070C94840729
:100050000C948A000C948A000C948A000C948A00F8
:100060000C941B060C948A0000000000230026005C
:10007000290000000000240027002A0000000000E2
:10008000250028002B0004040404040404040202D4
:100090000202020203030303030301020408102007
:1000A0004080010204081020010204081020000012
:1000B0000008000201000003040700000000000027
:1000C0000000980811241FBECFEFD8E0DEBFCDBFDF
:1000D00012E0A0E0B1E0E4E4FDE102C005900D9281
:1000E000A230B107D9F723E0A2E0B2E001C01D922F
:1000F000AF3AB207E1F710E0C2E6D0E004C02197C2
:10010000FE010E94A30CC136D107C9F70E943C0929
:100110000C94A00E0C94000020917F02260F332730
:10012000331F21323105ECF42091A502FC0190E04F
:1001300080E0243069F082E00895A0917F0221914F
:10014000AC01435A5D4FA40FB52FB11D2C930196FE
:10015000861798F380917F02680F60937F0280E09A
:10016000089581E00895089508950895E091540256
:1001700080915302E81730F4F0E0ED5CFD4F808190
:1001800090E008958FEF9FEF089590915402809131
:1001900053022FEF3FEF981748F4E92FF0E0ED5CA2
:1001A000FD4F208130E09F5F90935402C901089574
:1001B0008091530290915402891B990B0895CF921C
:1001C000DF92EF92FF920F931F93CF93DF937C0107
:1001D000CB018A0120913202222389F0EB016B01CD
:1001E000C40ED51ECC15DD0569F06991D701ED91DE
:1001F000FC910190F081E02DC7010995F3CF642FA8
:100200000E948C00C801DF91CF911F910F91FF9048
:10021000EF90DF90CF900895CF93DF931F92CDB7EB
:10022000DEB76983209132022223F9F02091550232
:10023000203258F021E030E0FC013383228390E04B
:1002400080E00F90DF91CF91089580915602E82FC2
:10025000F0E0EE5EFD4F998190838F5F80935602B0
:100260008093550281E090E0ECCF61E0CE010196F1
:100270000E948C00F7CF833081F028F4813099F010
:100280008230A9F008958730A9F08830C9F0843011
:10029000B1F4809180008F7D03C0809180008F77C2
:1002A00080938000089584B58F7784BD089584B5C8
:1002B0008F7DFBCF8091B0008F778093B000089541
:1002C0008091B0008F7DF9CF1F93CF93DF93282FBC
:1002D00030E0F901E255FF4F8491F901E656FF4FF6
:1002E000D491F901EA57FF4FC491CC23A9F0162FFE
:1002F00081110E943B01EC2FF0E0EE0FFF1FE4584C
:10030000FF4FA591B4918FB7F894EC91111108C0EB
:10031000D095DE23DC938FBFDF91CF911F9108959D
:10032000DE2BF8CF1092A50281E08093A7021092F5
:10033000A60261E082E10E94640161E083E10E9423
:100340006401E9EBF0E080818E7F808380818D7F86
:10035000808388E48093B80085E48093BC0008958E
:10036000CF93DF9391E090935C028823B9F0C09122
:10037000B800D091BA008091BC008A7B8093BC0009
:1003800060E082E10E94640160E083E10E94640118
:100390000E949201D093BA00C093B800DF91CF9130
:1003A0000895CF93DF9390E0FC01E656FF4F249130
:1003B0008A579F4FFC0184918823C9F090E0880FF1
:1003C000991FFC01EE58FF4FA591B491FC01E45830
:1003D000FF4FC591D49161110DC09FB7F8948C91D6
:1003E000209582238C938881282328839FBFDF91C7
:1003F000CF910895623051F49FB7F8943C91822FC9
:10040000809583238C93E8812E2BEFCF8FB7F894C0
:10041000EC912E2B2C938FBFEACF3FB7F8948091AD
:100420000E0290910F02A0911002B091110226B518
:10043000A89B05C02F3F19F00196A11DB11D3FBF1C
:10044000BA2FA92F982F8827BC01CD01620F711DEB
:10045000811D911D42E0660F771F881F991F4A95E5
:10046000D1F708958F929F92AF92BF92CF92DF9271
:10047000EF92FF924B015C010E940D026B017C0127
:100480000E940D026C197D098E099F09683E734018
:1004900081059105A8F321E0821A9108A108B1080D
:1004A00088EEC80E83E0D81EE11CF11C8114910473
:1004B000A104B10429F7FF90EF90DF90CF90BF9097
:1004C000AF909F908F9008952FB7F89460910A0293
:1004D00070910B0280910C0290910D022FBF089534
:1004E000AF92BF92CF92DF92EF92FF920F931F9342
:1004F000CF93DF936C017B018B01040F151FEB0180
:100500005E01AE18BF08C017D10759F06991D60136
:10051000ED91FC910190F081E02DC6010995892BA8
:1005200079F7C501DF91CF911F910F91FF90EF9067
:10053000DF90CF90BF90AF900895FC01538D448D14
:10054000252F30E0842F90E0821B930B541710F07E
:10055000CF96089501970895FC01918D828D98178B
:1005600061F0A28DAE0FBF2FB11D5D968C91928D63
:100570009F5F9F73928F90E008958FEF9FEF089594
:10058000FC01918D828D981731F0828DE80FF11D5D
:10059000858D90E008958FEF9FEF0895FC01918D78
:1005A000228D892F90E0805C9F4F821B91098F7371
:1005B0009927089587ED92E00E94CE0221E0892BD1
:1005C00009F420E0822F089580E090E0892B29F043
:1005D0000E94DA0281110C9400000895FC01A48DA0
:1005E000A80FB92FB11DA35ABF4F2C91848D90E055
:1005F00001968F739927848FA689B7892C93A08938
:10060000B1898C91837080648C93938D848D9813C1
:1006100006C00288F389E02D80818F7D8083089554
:10062000EF92FF920F931F93CF93DF93EC0181E042
:10063000888F9B8D8C8D98131AC0E889F9898081E9
:1006400085FF15C09FB7F894EE89FF896083E8891C
:10065000F98980818370806480839FBF81E090E00E
:10066000DF91CF911F910F91FF90EF900895F62E9B
:100670000B8D10E00F5F1F4F0F731127E02E8C8D35
:100680008E110CC00FB607FCFACFE889F98980817A
:1006900085FFF5CFCE010E94EE02F1CFEB8DEC0F7E
:1006A000FD2FF11DE35AFF4FF0829FB7F8940B8F97
:1006B000EA89FB8980818062CFCFCF93DF93EC0101
:1006C000888D8823B9F0AA89BB89E889F9898C913A
:1006D00085FD03C0808186FD0DC00FB607FCF7CFF6
:1006E0008C9185FFF2CF808185FFEDCFCE010E94F6
:1006F000EE02E9CFDF91CF910895862F642F0C94FD
:10070000D101CF93DF93FC01218930E0F901E2555B
:10071000FF4F8491F901E656FF4FD491F901EA5752
:10072000FF4FC491CC2379F081110E943B01EC2F43
:10073000F0E0EE0FFF1FE859FF4FA591B491EC9147
:10074000ED2381E009F480E08170DF91CF9108957D
:10075000CF92DF92EF92FF920F931F93CF93DF938D
:10076000FC01C48121E020933202C0930602109262
:100770005602109255028485682B8BEC92E00E9401
:100780000C01D0915502D13208F092C00E940D02A6
:100790006B017C018091A502811165C082E080938C
:1007A000A50281E08093A7028FEF8093A4021092AC
:1007B000C902D093C802A2E1B2E0E8EAF2E080E028
:1007C000D81385C01092CA028091CA02CC0FC82BE0
:1007D000C093CA028091A602813009F07CC01092B9
:1007E000A6020E940D026B017C018091CA028093D7
:1007F000BB008091580290915902A0915A02B09189
:100800005B02892B8A2B8B2B99F00E940D020091A1
:1008100058021091590220915A0230915B026C19D2
:100820007D098E099F090617170728073907E0F188
:100830008091BC0083FDD9CF85EC8093BC000E94E1
:100840000D026B017C018091A502823009F445C044
:100850008091A4028F3F61F18091A402803241F126
:100860008091A40225C08091580290915902A091D4
:100870005A02B0915B02892B8A2B8B2B09F48ACF09
:100880000E940D02009158021091590220915A02C3
:1008900030915B026C197D098E099F0906171707B5
:1008A0002807390708F076CF809157020E94B001DF
:1008B000109256021092550210923202DF91CF919F
:1008C0001F910F91FF90EF90DF90CF9008959D9131
:1008D00091938F5F75CF85EEB0CF80915802909144
:1008E0005902A0915A02B0915B02892B8A2B8B2B63
:1008F00009F4A9CF0E940D020091580210915902EB
:1009000020915A0230915B026C197D098E099F0972
:10091000061717072807390708F095CFC5CF0895A0
:1009200090E080E008950F931F93CF938C01C62F22
:100930000E94A8036C2F6460C8010E94A8036C2F5A
:100940006B7FC8010E94A80383EC90E00197F1F748
:10095000CF911F910F9108950F931F93CF93DF9322
:100960008C01D62FC42F607F642B0E94930480E1FA
:10097000D89FB00111246C2BC801DF91CF911F913A
:100980000F910C94930440E061E08CE993E00E94A5
:10099000AC048BE39FE10197F1F78091A5038823D5
:1009A00031F040E060E88CE993E00C94AC040895E9
:1009B00041E00E94AC0481E090E0089585ED8093D1
:1009C000BC008091580290915902A0915A02B091B6
:1009D0005B020796A11DB11D23E0B695A7959795DB
:1009E00087952A95D1F72091BC0024FD03C0109271
:1009F000A5020895409158025091590260915A02FF
:100A000070915B02452B462B472B69F30097A1059C
:100A1000B10541F02AE22A95F1F700C00197A1093A
:100A2000B109E1CF809157020C94B001FB01019014
:100A30000020E9F73197AF01461B570BDC01ED9120
:100A4000FC910280F381E02D0994CF93DF93FC01A8
:100A5000448155816081718187ED92E00E9470022E
:100A6000EC0163E471E087ED92E00E9416058C0FC3
:100A70009D1FDF91CF910895CF93DF93CDB7DEB760
:100A8000A1970FB6F894DEBF0FBECDBF19A2805D4F
:100A900088A3BE01605E7F4F8CE993E00E9416053B
:100AA000A1960FB6F894DEBF0FBECDBFDF91CF91F8
:100AB0000895CF93DF93EC0188819981009711F01D
:100AC0000E94450D198218821D821C821B821A8287
:100AD000DF91CF910895FC0180819181009711F001
:100AE0000C94450D08950E948B0E0F931F93CF9386
:100AF000DF93EC0188819981009759F02A813B812D
:100B00002617370730F081E0DF91CF911F910F91C9
:100B100008958B016F5F7F4F0E94CE0D009759F0B3
:100B2000998388831B830A832C813D81232B59F76A
:100B3000FC011082E8CF80E0E7CFEF92FF920F93A5
:100B40001F93CF93DF9341155105B1F07B01EC0169
:100B50000C811D81040F151FB8010E9475058823A3
:100B600061F0288139818C819D81B701820F931FAB
:100B70000E94990E1D830C8381E0DF91CF911F911C
:100B80000F91FF90EF900895EF92FF920F931F93B4
:100B9000CF93DF93CDB7DEB728970FB6F894DEBFBB
:100BA0000FBECDBF7C01CB014AE08E010F5F1F4F0E
:100BB000B8010E94370CF80101900020E9F7319745
:100BC000AF01401B510BB801C7010E949D05811167
:100BD00003C0C7010E945905C70128960FB6F894B3
:100BE000DEBF0FBECDBFDF91CF911F910F91FF9060
:100BF000EF900895EF92FF920F931F93CF93DF939F
:100C0000EC017B018A01BA010E94750581110BC0BC
:100C1000CE010E945905CE01DF91CF911F910F9116
:100C2000FF90EF9008951D830C83B701888199810F
:100C30000E94990EF0CF1F920F920FB60F921124BF
:100C40002F933F934F935F936F937F938F939F93D4
:100C5000AF93BF93EF93FF938091B900887F803665
:100C600009F44AC0F0F5883209F4A7C018F58031BC
:100C700009F49BC0B8F4882309F4F9C0883009F45A
:100C800094C0FF91EF91BF91AF919F918F917F9110
:100C90006F915F914F913F912F910F900FBE0F90E9
:100CA0001F901895883109F488C0803251F78093DD
:100CB000A40214C0803409F49DC040F48033B9F319
:100CC0008833F9F68093A40285ECB0C0803509F42E
:100CD00085C0883509F496C0883499F60E94DE04F0
:100CE000D0CF883909F48CC038F5883729F050F412
:100CF000883611F0803729F683E08093A5021092A0
:100D0000A30257C0883809F47BC0803919F08038B5
:100D100009F0B7CF8091A302803208F071C0E09152
:100D2000A30281E08E0F8093A3028091BB00F0E0CC
:100D3000ED57FD4F80833DC0803B39F0E0F4803AB1
:100D400009F479C0883A09F09CCF84E08093A50229
:100D50001092800210927F02E0917D02F0917E025B
:100D6000099580917F0281110FC081E080937F02FD
:100D700010925D0209C0803C09F4A6CF883C09F4BA
:100D8000A3CF883B09F07DCFE091800281E08E0FF8
:100D900080938002F0E0E35AFD4F80818093BB0096
:100DA0009091800280917F0229C08091CA02809335
:100DB000BB0085EC8093BC0064CF9091C902809108
:100DC000C802981758F5E091C90281E08E0F809310
:100DD000C902F0E0E855FD4F8081E9CFE091C902FA
:100DE00081E08E0F8093C9028091BB00F0E0E8554E
:100DF000FD4F80839091C9028091C8029817C8F274
:100E000085E8D8CFE091C90281E08E0F8093C902B6
:100E10008091BB00F0E0E855FD4F80838091A702F0
:100E200081115CCF81E08093A60284EA8093BC00AC
:100E30001092A50226CF85EC8093BC001092A502EB
:100E40008091A302803230F4E091A302F0E0ED57EC
:100E5000FD4F10826091A30270E0E0918102F09159
:100E6000820283E892E009951092A3020ACF1092C1
:100E7000A40234CF1F920F920FB60F9211242F931A
:100E80003F938F939F93AF93BF9380910A0290916A
:100E90000B02A0910C02B0910D023091090223E0E7
:100EA000230F2D3758F50196A11DB11D209309027E
:100EB00080930A0290930B02A0930C02B0930D0250
:100EC00080910E0290910F02A0911002B091110238
:100ED0000196A11DB11D80930E0290930F02A09365
:100EE0001002B0931102BF91AF919F918F913F91EA
:100EF0002F910F900FBE0F901F90189526E8230F8B
:100F00000296A11DB11DD2CF1F920F920FB60F9264
:100F100011242F933F934F935F936F937F938F93FE
:100F20009F93AF93BF93EF93FF9387ED92E00E945F
:100F3000EE02FF91EF91BF91AF919F918F917F91C1
:100F40006F915F914F913F912F910F900FBE0F9036
:100F50001F9018951F920F920FB60F9211242F9386
:100F60008F939F93EF93FF93E091E702F091E80254
:100F70008081E091ED02F091EE0282FD1BC0908134
:100F80008091F0028F5F8F732091F102821741F000
:100F9000E091F002F0E0E952FD4F958F8093F0026E
:100FA000FF91EF919F918F912F910F900FBE0F9016
:100FB0001F9018958081F4CF1F920F920FB60F9259
:100FC00011242F933F934F935F936F937F938F934E
:100FD0009F93AF93BF93CF93DF93EF93FF93809152
:100FE0000502C0919803D0E087FF24C010928500CD
:100FF00010928400809105028F5F8093050280919A
:101000000502082E000C990B8C179D0724F4809183
:1010100005028C30C4F18091840090918500049683
:1010200080349C4908F47AC08091840090918500B6
:10103000049676C080910502082E000C990B8C173F
:101040009D07C4F6E09105028E2FEE0F990BFC016F
:10105000EE0FFF1FE80FF91FEC58FC4F808186FF51
:10106000C9CFE09105028E2FEE0F990BFC01EE0F18
:10107000FF1FE80FF91FEC58FC4F808160E08F7371
:101080000E946401B7CF2091840030918500E091E7
:1010900005028E2FEE0F990BFC01EE0FFF1FE80FDC
:1010A000F91FEC58FC4F81819281820F931F90931E
:1010B000890080938800E09105028E2FEE0F990B36
:1010C000FC01EE0FFF1FE80FF91FEC58FC4F808169
:1010D00086FF11C0E09105028E2FEE0F990BFC01E7
:1010E000EE0FFF1FE80FF91FEC58FC4F808161E005
:1010F0008F730E946401FF91EF91DF91CF91BF91B7
:10110000AF919F918F917F916F915F914F913F919F
:101110002F910F900FBE0F901F90189580E49CE9BF
:1011200090938900809388008FEF80930502E3CF2E
:101130001092CE021092CD0288EE93E0A0E0B0E0D3
:101140008093CF029093D002A093D102B093D202A9
:101150002FE031E03093CC022093CB021092DA02E0
:101160001092D9028093DB029093DC02A093DD02FF
:10117000B093DE0281E291E09093D8028093D7028F
:1011800085EC90E09093E4028093E30284EC90E09D
:101190009093E6028093E50280EC90E09093E80261
:1011A0008093E70281EC90E09093EA028093E90259
:1011B00082EC90E09093EC028093EB0286EC90E05E
:1011C0009093EE028093ED021092F0021092F102E1
:1011D0001092F2021092F30286E390E00E94A90CB2
:1011E000FC019C012A5C3F4F6AE070E04FE351E054
:1011F000128213821482158277836683108651834C
:101200004083118A72962E173F0791F79093AA0395
:101210008093A90310929F0310929E0383E391E0B1
:1012200090939D0380939C031092A50387E2809383
:10123000A00380E18093A60382E08093A70310922D
:10124000A803809198038C3098F491E0980F9093C4
:1012500098038093990390E0FC01EE0FFF1FE80FC5
:10126000F91FEC58FC4F88EB9BE092838183089533
:101270008FEF809399030895CF93DF93CDB7DEB7B7
:1012800060970FB6F894DEBF0FBECDBF789484B5DB
:10129000826084BD84B5816084BD85B5826085BD72
:1012A00085B5816085BD80916E00816080936E0000
:1012B00010928100809181008260809381008091F2
:1012C00081008160809381008091800081608093A3
:1012D00080008091B10084608093B1008091B00063
:1012E00081608093B00080917A00846080937A005E
:1012F00080917A00826080937A0080917A00816088
:1013000080937A0080917A00806880937A001092AE
:10131000C1001092080210920702E091E702F091DA
:10132000E80282E08083E091E302F091E40210821F
:10133000E091E502F091E6028FEC80831092EF02DB
:10134000E091EB02F091EC0286E08083E091E9020B
:10135000F091EA02808180618083E091E902F0915E
:10136000EA02808188608083E091E902F091EA02DC
:10137000808180688083E091E902F091EA028081B7
:101380008F7D808366E471E087ED92E00E94160510
:1013900063E471E087ED92E00E941605109254021A
:1013A0001092530210925602109255020E9492011E
:1013B00083EB90E090937E0280937D0284EB90E03B
:1013C00090938202809381021092A1038091A703DF
:1013D000823018F098E09093A1038093A40362E315
:1013E00070E080E090E00E9432026091A8038CE9F6
:1013F00093E00E94A80368EE73E080E090E00E9412
:10140000320260E38CE993E00E9493040BE416E45B
:10141000C8010197F1F760E38CE993E00E9493041F
:10142000C8010197F1F760E38CE993E00E9493040F
:1014300083E592E00197F1F760E28CE993E00E9486
:1014400093046091A103606240E08CE993E00E9404
:10145000AC0484E08093A20340E06CE08CE993E06C
:101460000E94AC040E94C30482E08093A30340E086
:1014700066E08CE993E00E94AC0440E062E08CE915
:1014800093E00E94AC048BE39FE10197F1F788E0C1
:101490008093A80360E08CE993E00E94A803809108
:1014A0000702909108028230910509F44BC144F47F
:1014B000009779F0019709F442C189EA91E00BC0E5
:1014C0008330910509F441C10497B9F789E991E0A6
:1014D00002C089E591E09093010180930001609141
:1014E0000001709101016115710521F087ED92E015
:1014F0000E94160563E471E087ED92E00E941605F4
:1015000061E08DE00E94D10162E084E00E94D1019F
:1015100062E087E00E94D10162E088E00E94D10190
:1015200028E0C22E21E0D22EF12CE12C39E1A32EAD
:10153000B12C0091A9031091AA030E0D1F1DD60115
:101540009D906D01692D70E0D801ED91FC910280B4
:10155000F381E02D42E050E0C8010995F801918A3D
:1015600010860190F081E02D0190F081E02DC801FE
:101570000995882339F0D80118968C9118978360C3
:1015800018968C930E946402F801628373838483AB
:101590009583E091A903F091AA03EE0DFF1DB78298
:1015A000A682F2E1EF0EF11C26E3E216F10409F641
:1015B0002224239492E0392E0E946402F12CE12C23
:1015C00082E0C82E82E0D82EA601425052405A0135
:1015D0000091A9031091AA030E0D1F1DD8011896A2
:1015E0008C9118978B7F18968C931897ED91FC919E
:1015F0000190F081E02DC8010995982EF8018085B1
:1016000086958170981609F4A3C00E946402D801DF
:1016100012966D937D938D939C93159718968C914C
:101620001897832518968C93E091A903F091AA034B
:10163000EE0DFF1D008500FDD3C002FB002700F961
:10164000D6010C939085892F847090FDCBC08823A0
:1016500009F45DC010E018861F821A8619861C8660
:101660001B8647E050E069EB71E0CE0107960E94CF
:10167000FA051A8219821C821B821E821D826F81CA
:1016800078856115710531F04B855C85CE01019639
:101690000E94FA05B501CE0101960E94C4054C01D5
:1016A00042E150E061EC71E00E949D05811103C0B0
:1016B000C4010E945905B801C4010E94C4050E94DA
:1016C0002505CE0101960E946B05CE0107960E946A
:1016D0006B0540E062E08CE993E00E94AC048BE390
:1016E0009FE10197F1F769EB71E08CE993E00E94CB
:1016F0001605C5010E943C0564ED71E08CE993E09C
:101700000E941605F601808190E00E943C05FFEFE3
:10171000CF1ADF0A22E1E20EF11C36E3E316F104F0
:1017200009F052CF40E050E0452B09F445CF0E942C
:10173000DA02882309F440CF0E9400003DCF89E6F9
:1017400091E0C9CE89E791E0C6CE89E891E0C3CEA9
:101750000E946402D80112964D905D906D907C902D
:1017600015979B01AC0124193509460957091696AE
:101770008D919C91B0E0A0E0281739074A075B07DC
:1017800008F452CFD80118968C918170981609F4FC
:101790004BCF0E946402F801628373838483958334
:1017A00080858225846080870E946402D801199612
:1017B0002D913D914D915C911C97621B730B840B95
:1017C000950BF801658776878787908B0E94640266
:1017D000D80119966D937D938D939C931C9724CF7C
:1017E00000E02ECF882309F492CF10E018861F82E4
:1017F0001A8619861C861B8647E050E069EB71E06B
:10180000CE0107960E94FA051A8219821C821B8259
:101810001E821D826F8178856115710531F04B85BF
:101820005C85CE0101960E94FA05B501CE010196B4
:101830000E94C4055C0143E150E06EED71E00E943E
:101840009D05811103C0C5010E945905B801C5015C
:101850000E94C4050E942505CE0101960E946B05D9
:10186000CE0107960E946B050E94C30450CFBB2790
:101870004A3031F4992322F4BDE2909581959F4F2F
:101880000C94430CBB27FB015527AA27880F991FEF
:10189000AA1FA41710F0A41B83955051B9F7A05D9F
:1018A000AA3308F0A95DA193009779F7B111B1931C
:1018B0001192CB010C945C0CDC01FC01672F71913F
:1018C0007723E1F7329704C07C916D937083629126
:1018D000AE17BF07C8F308952F923F924F925F92C1
:1018E0006F927F928F929F92AF92BF92CF92DF9230
:1018F000EF92FF920F931F93CF93DF93CDB7DEB795
:10190000CA1BDB0B0FB6F894DEBF0FBECDBF099428
:101910002A88398848885F846E847D848C849B847F
:10192000AA84B984C884DF80EE80FD800C811B818D
:10193000AA81B981CE0FD11D0FB6F894DEBF0FBEBC
:10194000CDBFED010895EE0FFF1F0590F491E02D3E
:1019500009940F931F93CF93DF938230910510F476
:1019600082E090E0E091AD03F091AE0330E020E042
:10197000B0E0A0E0309799F42115310509F44AC090
:10198000281B390B24303105D8F58A819B816115DC
:10199000710589F1FB0193838283FE0111C04081AF
:1019A00051810281138148175907E0F04817590700
:1019B00099F4109761F012960C93129713961C935A
:1019C0003296CF01DF91CF911F910F91089500932F
:1019D000AD031093AE03F4CF2115310551F042173A
:1019E000530738F0A901DB019A01BD01DF01F801BD
:1019F000C1CFEF01F9CF9093AE038093AD03CDCF6C
:101A0000FE01E20FF31F8193919322503109398334
:101A10002883D7CF2091AB033091AC03232B41F423
:101A200020910401309105013093AC032093AB0366
:101A300020910201309103012115310541F42DB7A8
:101A40003EB74091060150910701241B350BE091F0
:101A5000AB03F091AC03E217F307A0F42E1B3F0B8E
:101A60002817390778F0AC014E5F5F4F2417350710
:101A700048F04E0F5F1F5093AC034093AB0381932C
:101A800091939FCFF0E0E0E09CCFCF93DF9300975E
:101A9000E9F0FC01329713821282A091AD03B0915C
:101AA000AE03ED0130E020E01097A1F420813181F8
:101AB000820F931F2091AB033091AC032817390795
:101AC00009F061C0F093AC03E093AB03DF91CF91D9
:101AD0000895EA01CE17DF07E8F54A815B819E0190
:101AE00041155105B1F7E901FB83EA834991599109
:101AF000C40FD51FEC17FD0761F480819181029618
:101B0000840F951FE90199838883828193819B8348
:101B10008A83F0E0E0E012968D919C9113970097F4
:101B2000B9F52D913C911197CD010296820F931F2B
:101B30002091AB033091AC032817390739F6309761
:101B400051F51092AE031092AD03B093AC03A09385
:101B5000AB03BCCFD383C28340815181840F951FD7
:101B6000C817D90761F44E5F5F4F88819981480F8C
:101B7000591F518340838A819B81938382832115DE
:101B8000310509F0B0CFF093AE03E093AD039ECFE3
:101B9000FD01DC01C0CF13821282D7CFB0E0A0E0FC
:101BA000E4EDFDE00C946E0C8C01009751F4CB0138
:101BB0000E94A90C8C01C801CDB7DEB7E0E10C94FE
:101BC0008A0CFC01E60FF71F9C0122503109E21735
:101BD000F30708F49DC0D901CD91DC911197C61788
:101BE000D70798F0C530D10530F3CE01049786179A
:101BF000970708F3C61BD70B2297C193D1936D9318
:101C00007C93CF010E94450DD6CF5B01AC1ABD0A73
:101C10004C018C0E9D1EA091AD03B091AE03512CD2
:101C2000412CF12CE12C109731F58091AB03909170
:101C3000AC038815990509F05CC04616570608F0F4
:101C400058C08091020190910301009741F48DB733
:101C50009EB74091060150910701841B950BE81730
:101C6000F90708F055C0F093AC03E093AB03F9011A
:101C700071836083A0CF8D919C91119712966C9087
:101C8000129713967C901397A815B90559F56C0116
:101C900042E0C40ED11CCA14DB0420F1AC014A1985
:101CA0005B09DA011296159780F062827382518384
:101CB0004083D9016D937C93E114F10471F0D70155
:101CC0001396FC93EE93129776CF22968C0F9D1F5E
:101CD000F90191838083F301EFCFF093AE03E0939A
:101CE000AD0369CF4816590608F42C017D01D301D4
:101CF0009ACFCB010E94A90C7C01009749F0AE015C
:101D0000B8010E94900EC8010E94450D870153CF73
:101D100010E000E050CF81E090E0F8940C94A00E29
:101D2000FB01DC0102C001900D9241505040D8F7F8
:101D30000895FB01DC0101900D920020E1F7089568
:041D4000F894FFCF45
:101D4400F2010000AF038000040708000000000C4B
:101D540001DF009004B500D800C500B60000000003
:101D640000100370029D025D03CE02AC02C00200AB
:101D7400000000D804700290048F04000000008169
:101D8400037D030D0A0050726F6772616D207374D6
:101D9400617274696E672E2E00533A205365747510
:101DA400702020202020202000533A2043616C69B9
:101DB40062726174696E672000533A2052656164EF
:101DC400696E67202020202000533A2054657374E4
:101DD400696E67202020202000533A204F757470CC
:101DE400757420202020202000533A204572726F01
:101DF400722020202020202000627574746F6E5B96
:101E0400005D207072657373656409207374617476
:101E1400653A20005D3A2073746174653A005D2070
:101E240072656C6561736564092073746174653AE5
:101E340020002020202020202020202020202020BE
:021E440020007C
:00000001FF
