:100000000C94DF000C9407010C9407010C94070179
:100010000C9407010C9407010C9407010C94070140
:100020000C9407010C9407010C9407010C94720CBA
:100030000C9407010C9407010C9407010C94070120
:100040000C94D00B0C9407010C94400C0C941A0CDB
:100050000C9407010C9407010C9407010C94070100
:100060000C94B10A0C94070100407A10F35A00A0D6
:10007000724E18090010A5D4E80000E87648170071
:1000800000E40B54020000CA9A3B000000E1F505B1
:10009000000080969800000040420F000000A086FB
:1000A00001000000102700000000E803000000002D
:1000B0006400000000000A000000000001000000D1
:1000C00000002C76D888DC674F0823DFC1DFAE59EB
:1000D000E1B1B796E5E3E453C63AE651997696E87E
:1000E000E6C28426EB898C9B62ED407C6FFCEFBC02
:1000F0009C9F40F2BAA56FA5F490055A2AF75C932D
:100100006B6CF9676DC11BFCE0E40D47FEF520E662
:10011000B500D0ED902E0300943577050080841E45
:10012000080000204E0A000000C80C333333330FA0
:10013000986E12831141EF8D2114893BE65516CF3D
:10014000FEE6DB18D1844B381BF77C1D901DA4BB49
:10015000E424203284725E228100C9F124ECA1E5FE
:100160003D270000000023002600290000000000B9
:10017000240027002A0000000000250028002B0092
:10018000040404040404040402020202020203033D
:100190000303030301020408102040800102040845
:1001A00010200102040810200000000800020100D5
:1001B0000003040700000000000000002E0D1124C1
:1001C0001FBECFEFD8E0DEBFCDBF12E0A0E0B1E0B0
:1001D000E4EDF1E302C005900D92A838B107D9F71C
:1001E00024E0A8E8B2E001C01D92A935B207E1F70A
:1001F00010E0CFEDD0E004C02197FE010E94D3159E
:10020000CE3DD107C9F70E94D20D0C94E8180C948A
:100210000000E0914304EC3088F54091440428E864
:1002200030E0241B310947FD3395220F331F220F85
:10023000331F8217930784F04091450428E532E08C
:10024000241B310947FD3395220F331F220F331F23
:10025000821793070CF49C0122503109220F331F9F
:100260004FB7F8948E2F90E0FC01EE0FFF1FE80FC0
:10027000F91FEB5EFB4F328321834FBF089520911E
:100280002003260F3327331F21323105ECF4209150
:100290004603FC0190E080E0243069F082E008959C
:1002A000A09120032191AC0142505D4FA40FB52FC6
:1002B000B11D2C930196861798F380912003680F47
:1002C0006093200380E0089581E0089508950895E3
:1002D0000895E091F5028091F402E81730F4F0E01F
:1002E000EC52FD4F808190E008958FEF9FEF0895CD
:1002F0009091F5028091F4022FEF3FEF981748F4A8
:10030000E92FF0E0EC52FD4F208130E09F5F9093A9
:10031000F502C90108958091F4029091F502891BBC
:10032000990B0895CF92DF92EF92FF920F931F9354
:10033000CF93DF937C01CB018A012091D30222234A
:1003400089F0EB016B01C40ED51ECC15DD0569F0FB
:100350006991D701ED91FC910190F081E02DC701E9
:100360000995F3CF642F0E943F01C801DF91CF911F
:100370001F910F91FF90EF90DF90CF900895CF9352
:10038000DF931F92CDB7DEB769832091D30222237A
:10039000F9F02091F602203258F021E030E0FC0123
:1003A0003383228390E080E00F90DF91CF91089516
:1003B0008091F702E82FF0E0ED54FD4F9981908392
:1003C0008F5F8093F7028093F60281E090E0ECCF9C
:1003D00061E0CE0101960E943F01F7CF833081F0AA
:1003E00028F4813099F08230A9F008958730A9F07F
:1003F0008830C9F08430B1F4809180008F7D03C0D3
:10040000809180008F7780938000089584B58F77E6
:1004100084BD089584B58F7DFBCF8091B0008F7728
:100420008093B00008958091B0008F7DF9CF1F9325
:10043000CF93DF93282F30E0F901E855FE4F8491E8
:10044000F901EC56FE4FD491F901E058FE4FC491EA
:10045000CC23A9F0162F81110E94EE01EC2FF0E0C1
:10046000EE0FFF1FEA58FE4FA591B4918FB7F89495
:10047000EC91111108C0D095DE23DC938FBFDF9182
:10048000CF911F910895DE2BF8CF1092460381E0A3
:10049000809348031092470361E082E10E941702B3
:1004A00061E083E10E941702E9EBF0E080818E7F3A
:1004B000808380818D7F808388E48093B80085E489
:1004C0008093BC000895CF93DF9391E09093FD0259
:1004D0008823B9F0C091B800D091BA008091BC00D7
:1004E0008A7B8093BC0060E082E10E94170260E09A
:1004F00083E10E9417020E944502D093BA00C09384
:10050000B800DF91CF910895CF93DF9390E0FC0185
:10051000EC56FE4F249180589E4FFC018491882315
:10052000C9F090E0880F991FFC01E459FE4FA59196
:10053000B491FC01EA58FE4FC591D49161110DC0F0
:100540009FB7F8948C91209582238C9388812823DF
:1005500028839FBFDF91CF910895623051F49FB7F8
:10056000F8943C91822F809583238C93E8812E2BE5
:10057000EFCF8FB7F894EC912E2B2C938FBFEACF4F
:100580008E3008F08E508770806480937C0080915C
:100590007A00806480937A0080917A0086FDFCCF97
:1005A000809178009091790008953FB7F8948091F8
:1005B000AF029091B002A091B102B091B20226B503
:1005C000A89B05C02F3F19F00196A11DB11D3FBF8B
:1005D000BA2FA92F982F8827BC01CD01620F711D5A
:1005E000811D911D42E0660F771F881F991F4A9554
:1005F000D1F708958F929F92AF92BF92CF92DF92E0
:10060000EF92FF924B015C010E94D5026B017C01CD
:100610000E94D5026C197D098E099F09683E7340BE
:1006200081059105A8F321E0821A9108A108B1087B
:1006300088EEC80E83E0D81EE11CF11C81149104E1
:10064000A104B10429F7FF90EF90DF90CF90BF9005
:10065000AF909F908F9008952FB7F8946091AB0260
:100660007091AC028091AD029091AE022FBF0895BF
:100670008FE096E00E9409018091A3028F5F809332
:10068000A30208958EE096E00E9409018091A302E2
:100690008F5F8093A302089580ED97E00E94090187
:1006A0008091A3028F5F8093A3020895AF92BF92BF
:1006B000CF92DF92EF92FF920F931F93CF93DF932E
:1006C0006C017B018B01040F151FEB015E01AE185D
:1006D000BF08C017D10759F06991D601ED91FC917F
:1006E0000190F081E02DC6010995892B79F7C501AC
:1006F000DF91CF911F910F91FF90EF90DF90CF90FE
:10070000BF90AF900895FC01538D448D252F30E0AC
:10071000842F90E0821B930B541710F0CF9608950E
:1007200001970895FC01918D828D981761F0A28D3B
:10073000AE0FBF2FB11D5D968C91928D9F5F9F7301
:10074000928F90E008958FEF9FEF0895FC01918DB7
:10075000828D981731F0828DE80FF11D858D90E024
:1007600008958FEF9FEF0895FC01918D228D892FC1
:1007700090E0805C9F4F821B91098F7399270895A9
:1007800088E793E00E94B40321E0892B09F420E07C
:10079000822F089580E090E0892B29F00E94C00309
:1007A00081110C9400000895FC01A48DA80FB92FAD
:1007B000B11DA35ABF4F2C91848D90E001968F7389
:1007C0009927848FA689B7892C93A089B1898C91A8
:1007D000837080648C93938D848D981306C00288F7
:1007E000F389E02D80818F7D80830895EF92FF92C1
:1007F0000F931F93CF93DF93EC0181E0888F9B8D44
:100800008C8D98131AC0E889F989808185FF15C0FD
:100810009FB7F894EE89FF896083E889F989808120
:100820008370806480839FBF81E090E0DF91CF91EF
:100830001F910F91FF90EF900895F62E0B8D10E011
:100840000F5F1F4F0F731127E02E8C8D8E110CC080
:100850000FB607FCFACFE889F989808185FFF5CFCB
:10086000CE010E94D403F1CFEB8DEC0FFD2FF11DD3
:10087000E35AFF4FF0829FB7F8940B8FEA89FB8908
:1008800080818062CFCFCF93DF93EC01888D882366
:10089000B9F0AA89BB89E889F9898C9185FD03C0E3
:1008A000808186FD0DC00FB607FCF7CF8C9185FFC8
:1008B000F2CF808185FFEDCFCE010E94D403E9CF36
:1008C000DF91CF9108950F931F93CF93DF93FC0196
:1008D00020812223F9F0EC010E942C0309811A8166
:1008E0002B813C81AB01BC01401B510B620B730B94
:1008F0008D819E81B0E0A0E0481759076A077B0709
:1009000048F0EF81F88509950E942C0369837A836A
:100910008B839C83DF91CF911F910F910895862F38
:10092000642F0C948402CF93DF93FC01218930E083
:10093000F901E855FE4F8491F901EC56FE4FD49130
:10094000F901E058FE4FC491CC2379F081110E9447
:10095000EE01EC2FF0E0EE0FFF1FEE59FE4FA591D8
:10096000B491EC91ED2381E009F480E08170DF9196
:10097000CF910895CF92DF92EF92FF920F931F9342
:10098000CF93DF93FC01C48121E02093D302C09375
:1009900097021092F7021092F6028485682B8CE67B
:1009A00093E00E94BF01D091F602D13208F092C0CC
:1009B0000E94D5026B017C0180914603811165C0C4
:1009C00082E08093460381E0809348038FEF809319
:1009D000450310926A03D0936903A3EBB2E0E9E404
:1009E000F3E080E0D81385C010926B0380916B0315
:1009F000CC0FC82BC0936B0380914703813009F063
:100A00007CC0109247030E94D5026B017C0180914B
:100A10006B038093BB008091F9029091FA02A09140
:100A2000FB02B091FC02892B8A2B8B2B99F00E9440
:100A3000D5020091F9021091FA022091FB02309147
:100A4000FC026C197D098E099F09061717072807F4
:100A50003907E0F18091BC0083FDD9CF85EC80930C
:100A6000BC000E94D5026B017C018091460382305C
:100A700009F445C0809145038F3F61F180914503A2
:100A8000803241F18091450325C08091F902909117
:100A9000FA02A091FB02B091FC02892B8A2B8B2BCE
:100AA00009F48ACF0E94D5020091F9021091FA024E
:100AB0002091FB023091FC026C197D098E099F097F
:100AC000061717072807390708F076CF8091F80234
:100AD0000E9463021092F7021092F6021092D30263
:100AE000DF91CF911F910F91FF90EF90DF90CF900A
:100AF00008959D9191938F5F75CF85EEB0CF8091D2
:100B0000F9029091FA02A091FB02B091FC02892BAC
:100B10008A2B8B2B09F4A9CF0E94D5020091F902F0
:100B20001091FA022091FB023091FC026C197D09B0
:100B30008E099F09061717072807390708F095CF70
:100B4000C5CF089590E080E00895FB01019000205A
:100B5000E9F73197AF01461B570BDC01ED91FC9192
:100B60000280F381E02D0994CF93DF93FC0144814F
:100B700055816081718188E793E00E945603EC0102
:100B80006CE471E088E793E00E94A5058C0F9D1F3F
:100B9000DF91CF9108958F929F92AF92BF920F9362
:100BA0001F93CF93DF93CDB7DEB7A1970FB6F8941D
:100BB000DEBF0FBECDBF19A2423008F44AE08E015D
:100BC0000F5D1F4F842E912CB12CA12CA5019401F7
:100BD0000E949115E62FB901CA01EA3004F5E05DE3
:100BE000D801EE938D01232B242B252B79F790E050
:100BF00080E0109729F0BD0188E793E00E94A505E9
:100C0000A1960FB6F894DEBF0FBECDBFDF91CF9196
:100C10001F910F91BF90AF909F908F900895E95CC6
:100C2000DFCFCF93DF93D0E0C0E0009731F0BC017D
:100C300088E793E00E94A505EC016CE471E088E789
:100C400093E00E94A5058C0F9D1FDF91CF91089521
:100C500082309105F9F03CF4009769F00197B9F002
:100C60008FE991E00AC083309105B9F00497C1F78C
:100C70008FE891E002C08FE491E0909301018093AE
:100C8000000180910001909101010C9411068FE503
:100C900091E0F3CF8FE691E0F0CF8FE791E0EDCFD9
:100CA0004F925F926F927F928F929F92AF92BF927C
:100CB000CF92DF92EF92FF920F931F93CF936B012E
:100CC0007C01742EAC019B010E94EC166FEA71E06E
:100CD000811126C046015701E894B7F82FEF3FEF86
:100CE0004FE75FE7C501B4010E94EC1681110CC00B
:100CF0002FEF3FEF4FE75FE7C501B4010E943614C5
:100D000063EB71E0181664F02FEF3FEF4FE75FE4FD
:100D1000C701B6010E94E7161816ACF467EB71E044
:100D200088E793E0CF911F910F91FF90EF90DF90B4
:100D3000CF90BF90AF909F908F907F906F905F907B
:100D40004F900C94A5052FEF3FEF4FE75FECC701E5
:100D5000B6010E94361487FDE1CF20E030E0A90102
:100D6000C701B6010E94361410E000E087FF0AC0F8
:100D70006DE288E793E00E94F6038C01F7FAF094A5
:100D8000F7F8F094C0E060E070E080E09FE37C164C
:100D900041F020E030E040E251E40E944616CF5F8F
:100DA000F6CFA70196010E94DA152B013C010E94A3
:100DB000B8164B015C014AE00E94CB057C01E00EB5
:100DC000F11ECC23C1F1C501B4010E943B149B016B
:100DD000AC01C301B2010E94D9154B015C016EE266
:100DE00088E793E00E94F603E80EF91EC15018F15F
:100DF00020E030E040E251E4C501B4010E949C14BF
:100E00002B013C010E94B8164B01B12CA12C4AE0E9
:100E1000C501B4010E94CB05E80EF91EC501B4015D
:100E20000E943B149B01AC01C301B2010E94D91581
:100E30004B015C01DBCFC701CF911F910F91FF9058
:100E4000EF90DF90CF90BF90AF909F908F907F906A
:100E50006F905F904F9008950F931F93CF938C01E5
:100E6000C62F0E94BA046C2F6460C8010E94BA04A5
:100E70006C2F6B7FC8010E94BA0483EC90E001974D
:100E8000F1F7CF911F910F9108950F931F93CF9377
:100E9000DF938C01D62FC42F607F642B0E942C0718
:100EA00080E1D89FB00111246C2BC801DF91CF9154
:100EB0001F910F910C942C0740E062E086E494E0CF
:100EC0000E9445078BE39FE10197F1F70895CF93C7
:100ED000DF93CDB7DEB728970FB6F894DEBF0FBE0D
:100EE000CDBF98E0E9E0F1E0DE01119601900D92AE
:100EF0009A95E1F790914E04981708F48FEF90E0DF
:100F0000880F991F21E030E02C0F3D1F820F931FA7
:100F1000FC016081606840E086E494E028960FB6AA
:100F2000F894DEBF0FBECDBFDF91CF910C94450783
:100F300040E061E086E494E00E9445078BE39FE196
:100F40000197F1F780914F04882319F080E00C9409
:100F50006707089541E00E94450781E090E0089509
:100F6000CF92DF92EF92FF92CF93DF932091A40272
:100F70003091A502232B81F484E090E09093A502A8
:100F80008093A4028BEB91E0DF91CF91FF90EF90E3
:100F9000DF90CF900C941106EC0184E090E09093E8
:100FA000A5028093A4020E9428060E942C03C090F0
:100FB000A602D090A702E090A802F090A9026C19B6
:100FC0007D098E099F094AE00E94CB0566EF71E01A
:100FD00088E793E00E94A505CC84DD840D2C000CED
:100FE000EE08FF084AE0C701B601F7FE0DC06DE24A
:100FF00088E793E00E94F60366277727CB016C19F8
:101000007D098E099F094AE00E94CB0566EF71E0D9
:1010100088E793E00E94A505688179818A819B8198
:1010200042E00E94500666EF71E088E793E00E947C
:10103000A5056C817D818E819F8142E00E945006D2
:1010400066EF71E088E793E00E94A50568857985E1
:101050008A859B8542E00E9450066CE471E088E737
:1010600093E0DF91CF91FF90EF90DF90CF900C94C1
:10107000A50585ED8093BC008091F9029091FA025C
:10108000A091FB02B091FC020796A11DB11D23E0C7
:10109000B695A795979587952A95D1F72091BC008D
:1010A00024FD03C01092460308954091F902509127
:1010B000FA026091FB027091FC02452B462B472BF4
:1010C00069F30097A105B10541F02AE22A95F1F7ED
:1010D00000C00197A109B109E1CF8091F8020C94F9
:1010E00063020E94D3180F931F93CF93DF93EC01F9
:1010F00088819981009759F02A813B81261737070B
:1011000030F081E0DF91CF911F910F9108958B0115
:101110006F5F7F4F0E941618009759F0998388835C
:101120001B830A832C813D81232B59F7FC011082FC
:10113000E8CF80E0E7CFCF93DF93EC0188819981FE
:10114000009711F00E948D17198218821D821C824F
:101150001B821A82DF91CF910895CF92DF92EF9296
:10116000FF920F931F93CF93DF93CDB7DEB72897EE
:101170000FB6F894DEBF0FBECDBF7C01CB014AE0B5
:101180009E012F5F3F4F6901B9010E94CA11F6010C
:1011900001900020E9F73197EC19FD09D9F0D7014A
:1011A00014960D911C910E0F1F1FB801C7010E94CC
:1011B00073088823F9F0F7012081318184819581BA
:1011C000B601820F931F0E94E118D70115961C9358
:1011D0000E931497C70128960FB6F894DEBF0FBE82
:1011E000CDBFDF91CF911F910F91FF90EF90DF90D6
:1011F000CF900895C7010E949B08ECCFEF92FF9219
:101200000F931F93CF93DF938C017B01FB01019020
:101210000020E9F73197E61BF70BD1F0DC011496BB
:10122000CD91DC91CE0FDF1FBE010E947308882391
:10123000B9F0F8012081318184819581B701820F55
:10124000931F0E94E118D8011596DC93CE93149752
:10125000C801DF91CF911F910F91FF90EF900895FA
:10126000C8010E949B08F4CFEF92FF920F931F9347
:10127000CF93DF93EC017B018A01BA010E947308CE
:1012800081110BC0CE010E949B08CE01DF91CF914E
:101290001F910F91FF90EF9008951D830C83B7016C
:1012A000888199810E94E118F0CFEF92FF920F930D
:1012B0001F93CF93DF93CDB7DEB762970FB6F89445
:1012C000DEBF0FBECDBF8C01CB01F80111821082B1
:1012D00013821282158214824AE09E012F5F3F4FD3
:1012E0007901B9010E94CA11F70101900020E9F7C4
:1012F0003197AF014E195F09B701C8010E94340947
:1013000062960FB6F894DEBF0FBECDBFDF91CF91CE
:101310001F910F91FF90EF900895FB01DC01119652
:101320001C921E9213961C921E92129715961C9256
:101330001E9214978617970749F060817181611595
:10134000710521F0448155810C9434090895FC0104
:10135000118210821382128215821482FB01019085
:101360000020E9F73197AF01461B570B0C94340965
:10137000FC0180819181009711F00C948D170895E4
:101380002F923F924F925F926F927F928F929F9295
:10139000AF92BF92CF92DF92EF92FF920F931F9383
:1013A000CF93DF93CDB7DEB72D970FB6F894DEBF9E
:1013B0000FBECDBF5C016C01F12CE12C772473943E
:1013C00082E0682E46018A189B0800915304109110
:1013D00054040E0D1F1DD80118968C9118978B7F01
:1013E00018968C931897ED91FC910190F081E02D67
:1013F000C80109958D87F8018085869581702D84B7
:10140000281609F468C00E942C03D80112966D9327
:101410007D938D939C93159718968C91189786259C
:1014200018968C93E0915304F0915404EE0DFF1D37
:10143000608562FB112710F960FD10E0D6011D9355
:101440006D01808580FD26C082FF24C068EF71E0B9
:10145000CE0101960E94A709BE016F5F7F4FCE01AA
:1014600007960E948D09B401CE0107960E94AD082F
:1014700061E072E00E94FE08612F70E00E94AD08FA
:101480000E94B405CE0107960E94B809CE010196CC
:101490000E94B809B2E1EB0EF11CE6E3EE16F1048E
:1014A00009F090CF2D960FB6F894DEBF0FBECDBFDA
:1014B000DF91CF911F910F91FF90EF90DF90CF9030
:1014C000BF90AF909F908F907F906F905F904F9064
:1014D0003F902F9008950E942C03F80122813381C0
:1014E000448155811B012C01221A330A440A550AF2
:1014F000B201A10186819781B0E0A0E048175907A9
:101500006A077B0708F48ECF808581703D8438168A
:1015100009F488CF0E942C03D80112966D937D9315
:101520008D939C93159718968C91189787258460B6
:1015300018968C930E942C03F801218532854385EF
:101540005485621B730B840B950B658776878787A1
:10155000908B0E942C03F8016187728783879487A0
:1015600061CF1F920F920FB60F9211242F933F93CA
:101570004F935F936F937F938F939F93AF93BF939B
:10158000EF93FF938091B900887F803609F44AC0B9
:10159000F0F5883209F4A7C018F5803109F49BC032
:1015A000B8F4882309F4F9C0883009F494C0FF9195
:1015B000EF91BF91AF919F918F917F916F915F91CB
:1015C0004F913F912F910F900FBE0F901F90189544
:1015D000883109F488C0803251F78093450314C0E4
:1015E000803409F49DC040F48033B9F38833F9F6B0
:1015F0008093450385ECB0C0803509F485C08835FB
:1016000009F496C0883499F60E943908D0CF8839F9
:1016100009F48CC038F5883729F050F4883611F079
:10162000803729F683E0809346031092440357C025
:10163000883809F47BC0803919F0803809F0B7CFB9
:1016400080914403803208F071C0E091440381E04E
:101650008E0F809344038091BB00F0E0EC5DFC4F63
:1016600080833DC0803B39F0E0F4803A09F479C0D2
:10167000883A09F09CCF84E08093460310922103BE
:1016800010922003E0911E03F0911F0309958091B1
:10169000200381110FC081E0809320031092FE028D
:1016A00009C0803C09F4A6CF883C09F4A3CF883B4D
:1016B00009F07DCFE091210381E08E0F809321031B
:1016C000F0E0E250FD4F80818093BB0090912103B8
:1016D0008091200329C080916B038093BB0085EC2F
:1016E0008093BC0064CF90916A038091690398173E
:1016F00058F5E0916A0381E08E0F80936A03F0E071
:10170000E75BFC4F8081E9CFE0916A0381E08E0FB7
:1017100080936A038091BB00F0E0E75BFC4F80831D
:1017200090916A03809169039817C8F285E8D8CF31
:10173000E0916A0381E08E0F80936A038091BB0081
:10174000F0E0E75BFC4F80838091480381115CCF20
:1017500081E08093470384EA8093BC0010924603A3
:1017600026CF85EC8093BC00109246038091440301
:10177000803230F4E0914403F0E0EC5DFC4F1082E5
:101780006091440370E0E0912203F091230384E22E
:1017900093E00995109244030ACF1092450334CF89
:1017A0001F920F920FB60F9211242F933F938F9396
:1017B0009F93AF93BF938091AB029091AC02A091A5
:1017C000AD02B091AE023091AA0223E0230F2D3773
:1017D00058F50196A11DB11D2093AA028093AB027A
:1017E0009093AC02A093AD02B093AE028091AF0291
:1017F0009091B002A091B102B091B2020196A11DE8
:10180000B11D8093AF029093B002A093B102B09348
:10181000B202BF91AF919F918F913F912F910F9005
:101820000FBE0F901F90189526E8230F0296A11D5A
:10183000B11DD2CF1F920F920FB60F9211242F938A
:101840003F934F935F936F937F938F939F93AF9348
:10185000BF93EF93FF9388E793E00E94D403FF9137
:10186000EF91BF91AF919F918F917F916F915F9118
:101870004F913F912F910F900FBE0F901F90189591
:101880001F920F920FB60F9211242F938F939F9355
:10189000EF93FF93E0918803F09189038081E091B9
:1018A0008E03F0918F0382FD1BC090818091910384
:1018B0008F5F8F7320919203821741F0E091910323
:1018C000F0E0E858FC4F958F80939103FF91EF91E2
:1018D0009F918F912F910F900FBE0F901F90189591
:1018E0008081F4CF1F920F920FB60F9211242F9385
:1018F0003F934F935F936F937F938F939F93AF9398
:10190000BF93CF93DF93EF93FF9380919602C091A3
:101910003904D0E087FF24C0109285001092840023
:10192000809196028F5F8093960280919602082E96
:10193000000C990B8C179D0724F4809196028C3033
:10194000C4F18091840090918500049680349C4974
:1019500008F47AC08091840090918500049676C046
:1019600080919602082E000C990B8C179D07C4F6E7
:10197000E09196028E2FEE0F990BFC01EE0FFF1FE8
:10198000E80FF91FEB5EFB4F808186FFC9CFE09126
:1019900096028E2FEE0F990BFC01EE0FFF1FE80F42
:1019A000F91FEB5EFB4F808160E08F730E9417028E
:1019B000B7CF2091840030918500E09196028E2F60
:1019C000EE0F990BFC01EE0FFF1FE80FF91FEB5E06
:1019D000FB4F81819281820F931F909389008093A6
:1019E0008800E09196028E2FEE0F990BFC01EE0F0E
:1019F000FF1FE80FF91FEB5EFB4F808186FF11C0D0
:101A0000E09196028E2FEE0F990BFC01EE0FFF1F57
:101A1000E80FF91FEB5EFB4F808161E08F730E943E
:101A20001702FF91EF91DF91CF91BF91AF919F91FD
:101A30008F917F916F915F914F913F912F910F9077
:101A40000FBE0F901F90189580E49CE99093890039
:101A5000809388008FEF80939602E3CF10926F03FC
:101A600010926E0388EE93E0A0E0B0E080937003E4
:101A700090937103A0937203B093730328E131E054
:101A800030936D0320936C0310927B0310927A03C2
:101A900080937C0390937D03A0937E03B0937F0398
:101AA0008AE291E0909379038093780385EC90E04B
:101AB000909385038093840384EC90E09093870354
:101AC0008093860380EC90E0909389038093880351
:101AD00081EC90E090938B0380938A0382EC90E0FA
:101AE00090938D0380938C0386EC90E090938F030A
:101AF00080938E031092910310929203109293039D
:101B00001092940386E390E00E94F116FC019C0180
:101B10002A5C3F4F6AE070E048E451E01282138291
:101B20001482158277836683108651834083118ADD
:101B30007296E217F30791F790935404809353043D
:101B400010924904109248048CE391E0909347046A
:101B50008093460410924F0487E280934A0480E108
:101B60008093500482E0809351041092520480913B
:101B700039048C3098F491E0980F90933904809355
:101B8000430490E0FC01EE0FFF1FE80FF91FEB5E2E
:101B9000FB4F88EB9BE09283818308958FEF8093C6
:101BA00043040895CF93DF93CDB7DEB72C970FB6DC
:101BB000F894DEBF0FBECDBF789484B5826084BD3B
:101BC00084B5816084BD85B5826085BD85B5816041
:101BD00085BD80916E00816080936E0010928100BF
:101BE000809181008260809381008091810081607A
:101BF000809381008091800081608093800080913B
:101C0000B10084608093B1008091B00081608093C6
:101C1000B00080917A00846080937A0080917A008D
:101C2000826080937A0080917A00816080937A004C
:101C300080917A00806880937A001092C10010929F
:101C4000A5021092A402E0918803F091890382E03A
:101C50008083E0918403F09185031082E0918603F4
:101C6000F09187038FEC808310929003E0918C03B6
:101C7000F0918D0386E08083E0918A03F0918B03DD
:101C8000808180618083E0918A03F0918B03808161
:101C900088608083E0918A03F0918B038081806863
:101CA0008083E0918A03F0918B0380818F7D808314
:101CB00083E192E00E9411061092F5021092F40264
:101CC0001092F7021092F6020E94450286E691E019
:101CD00090931F0380931E0387E691E09093230364
:101CE0008093220310924B0480915104823018F0AB
:101CF00098E090934B0480934E0462E370E080E0A0
:101D000090E00E94FA026091520486E494E00E94FE
:101D1000BA0468EE73E080E090E00E94FA0260E3AB
:101D200086E494E00E942C070BE416E4C8010197B6
:101D3000F1F760E386E494E00E942C07C801019764
:101D4000F1F760E386E494E00E942C0783E592E0DB
:101D50000197F1F760E286E494E00E942C0760911D
:101D60004B04606240E086E494E00E94450784E012
:101D700080934C0440E06CE086E494E00E944507C8
:101D80000E94980782E080934D0440E066E086E47C
:101D900094E00E9445070E945C0788E0809352040B
:101DA00060E086E494E00E94BA048091A4029091DD
:101DB000A5020E94280661E08DE00E94840261E095
:101DC00083E00E94840260E08EE00E94840260E072
:101DD0008FE00E94840262E084E00E94840262E05C
:101DE00087E00E94840262E088E00E94840211E1A0
:101DF000A12E11E0B12ED12CC12C09E1802E912C05
:101E000000915304109154040C0D1D1DD5017D90BB
:101E10005D01672D70E0D801ED91FC910280F381A6
:101E2000E02D42E050E0C8010995F801718A108662
:101E30000190F081E02D0190F081E02DC80109951D
:101E4000882339F0D80118968C91189783601896DA
:101E50008C930E942C03F80162837383848395839F
:101E6000E0915304F0915404EC0DFD1D978286829D
:101E7000F2E1CF0ED11C26E3C216D10409F688E8A0
:101E800092E00E94B007809143048C3008F051C06A
:101E900061E083E00E94840280914304282F30E0B7
:101EA000F901EE0FFF1FE20FF31FEB5EFB4F908176
:101EB000907C9360908310924404109245042CE02F
:101EC000622F0E94B315829FB001112430E020E000
:101ED000AB01420F531FFA01EE0FFF1FE40FF51F76
:101EE000EB5EFB4F908196FD16C02F5F3F4F2C306D
:101EF000310571F781110FC01092800082E080934C
:101F000081001092850010928400B19A80916F0038
:101F1000826080936F00E09143048E2F90E0FC017B
:101F2000EE0FFF1FE80FF91FEB5EFB4F808180640F
:101F3000808388EE93E00E94090168EE73E080E000
:101F400090E00E94FA0281E090E09093A5028093D5
:101F5000A4020E94280661E070E0CE0107960E946C
:101F60005509BE01695F7F4FCE0101960E948D0920
:101F700066E272E0CE0101960E94FE080E94B4055E
:101F8000CE0101960E94B809CE0107960E94B809B9
:101F90000E9498070E945C0761E070E0CE010796FE
:101FA0000E945509BE01695F7F4FCE0101960E94D4
:101FB0008D0966E272E0CE0101960E94FE08DC0106
:101FC00014964D915C9115976D917C9186E494E007
:101FD0000E945603CE0101960E94B809CE010796D1
:101FE0000E94B80988E992E00E94C0098091980295
:101FF0008823C1F31AE08FE00E94C002E80EF91EA8
:102000001150C9F7C7016AE070E00E94BF157B015B
:1020100081E090E00E94BF1590E080E00E943B14B8
:102020004B015C0180929B0290929C02A0929D02C7
:10203000B0929E020E9498070E945C0703E312E0A0
:1020400026E042E0C501B4010E94AC1164E472E0F4
:10205000CE0107960E94A709BE01695F7F4FCE019E
:1020600001960E948D09B801CE0101960E94FE08DA
:1020700061E572E00E94FE080E94B405CE0101965F
:102080000E94B809CE0107960E94B809B80186E4FB
:1020900094E00E94A50561E572E086E494E00E9468
:1020A000A50581E00E9467076AE070E0CE0107960F
:1020B0000E945509BE01695F7F4FCE0101960E94C3
:1020C0008D0969E572E0CE0101960E94FE080E942A
:1020D000B405CE0101960E94B809CE0107960E9470
:1020E000B8096AE070E0CE0107960E945509BE016A
:1020F000695F7F4FCE0101960E948D0969E572E00C
:10210000CE0101960E94FE08FC0144815581608148
:10211000718186E494E00E945603CE0101960E94EC
:10212000B809CE0107960E94B80988E992E00E949A
:10213000C009809198028823C1F31AE08EE00E94C2
:10214000C002E80EF91E1150C9F72AE030E0C701BD
:10215000B9010E94BF15C9010E94BF1590E080E03F
:102160000E943B146B017C01C0929F02D092A0029E
:10217000E092A102F092A2020E9498070E945C07DE
:1021800003E312E026E042E0C701B6010E94AC1171
:1021900066E672E0CE0107960E94A709BE01695F5C
:1021A0007F4FCE0101960E948D09B801CE010196A4
:1021B0000E94FE0863E772E00E94FE080E94B405D8
:1021C000CE0101960E94B809CE0107960E94B80977
:1021D000B80186E494E00E94A50563E772E086E416
:1021E00094E00E94A50581E00E9467076BE772E01A
:1021F00086E494E00E94A5058BE792E00E94110618
:1022000088E992E00E94C009809199028823C1F375
:102210000E9498070E945C0783E0682E712C94E16D
:10222000C92ED12C28E3A22E23E0B22E30E0832E3B
:1022300030E0932E0E942C036093A6027093A702B5
:102240008093A8029093A90288E992E00E94C009B5
:1022500082E090E09093A5028093A4020E94280659
:102260008EE00E94C0027C018FE00E94C0028C01BF
:10227000B701FF0C880B990B0E943D1420919F021F
:102280003091A0024091A1025091A2020E949C14A0
:102290001B012C01209288023092890240928A020E
:1022A00050928B02B801110F880B990B0E943D14BC
:1022B00020919B0230919C0240919D0250919E0280
:1022C0000E949C149B01AC0120938C0230938D02E0
:1022D00040938E0250938F02C201B1010E949C1460
:1022E0006093900270939102809392029093930274
:1022F0007092A5026092A4020E942C03A1E0A09318
:102300003A04D0924004C0923F0460933B0470931F
:102310003C0480933D0490933E04B0924204A0920A
:102320004104A093020180910201882329F08AE3ED
:1023300094E00E946304F7CF88E892E00E94B0071F
:102340008114910409F476CF0E94C003882309F414
:1023500071CF0E9400006ECFEF920F931F93CF9327
:10236000DF93E80134E047FD34E1042E000C550B07
:1023700057FF03C0519541955109E32E022F242F99
:10238000AE010E94EF11CE01DF91CF911F910F910D
:10239000EF900895BB274A3031F4992322F4BDE22F
:1023A000909581959F4F0C94D611BB27FB01552723
:1023B000AA27880F991FAA1FA41710F0A41B8395A2
:1023C0005051B9F7A05DAA3308F0A95DA193009719
:1023D00079F7B111B1931192CB010C942614A9E0B5
:1023E000B0E0E5EFF1E10C9460156A01F22EB02E39
:1023F000102FFBE3AF2EA01608F41BE31F5F012F85
:1024000027E0AE014F5F5F4F0E944E13BC018981F0
:10241000982F9970913009F43FC09BE2E1FC04C011
:102420009E2D9170E0FC3AC05E2D5071E82FE8704F
:1024300083FF46C084E0911101C083E0EF2DE81BCB
:102440008F1508F0E0E0D6018E2F20E2552351F1E0
:10245000992329F0D6019C93C60101966C0196013F
:102460002D5F3F4FE2FE24C08EE4D6018C9391E4B1
:1024700011969C93119712968C93D9018E2F90E20E
:1024800081111BC0E20FF32FF11D10828EEF9FEF21
:102490002996ECE00C947C159DE2C6CF90E2C4CF67
:1024A0002D9381508111FCCFCE0ED11CE0E0D0CF16
:1024B0008EE6D6018C9391E6DBCF9D938150E0CFE1
:1024C000482F447082FF3DC084E0911101C083E039
:1024D0008F1510F4EF2DE81BD6018E2F20E2552327
:1024E00009F1992329F0D6019C93C60101966C014C
:1024F00096012D5F3F4FE2FE1BC089E4D6018C930D
:102500008EE411968C93119786E412968C93D901E0
:102510008E2F90E2882309F4B5CF9D938150FACF96
:102520002D9381508111FCCFCE0ED11CE0E0D9CF8C
:1025300089E6D6018C938EE611968C93119786E6E8
:10254000E4CF9B0177FF02C030E020E0A1E0B0E0E3
:10255000911102C0B0E0A0E0F9013196AE0FBF1FAB
:102560008B2C912CBB2009F461C05401EFEFAE1A03
:10257000BE0AAA0DBB1DFA161B0619F014F04F2D4A
:102580004A1B511188C0E3FC59C07601A42FB0E268
:10259000A1114FC0C40ED11C992309F45BC040E0C7
:1025A000D6011196F60190836D01552309F448C0B8
:1025B000012F060F9A81582F507184FF03C0913369
:1025C00009F4015010160CF047C0093008F008E07B
:1025D000EEE2FE2E5B01A01AB10885019194819470
:1025E00091082F3F320729F4D601FC92F60131966B
:1025F0006F016217730794F1021713077CF5DB0173
:10260000A21BB30BAA24A394B12CAC0EBD1EAA0D21
:10261000BB1D11968C9121503109D60111962815B8
:102620003905F4F0F60180836D01DBCFB12CA12CCC
:10263000A0CFF701B1937F01A150AACF9111B0CFE4
:10264000D601942F50E302C05D9391509111FCCFBD
:10265000C40ED11C40E0ACCF01E0BACF80E3DBCFA9
:102660006217730731F4963388F4953311F45523C8
:1026700069F0F6018083FD01842F90E2811108C08A
:10268000A40FB11D1C9290E080E002CF81E3F1CF56
:1026900091938150F3CF911183CF8ACF283008F0E6
:1026A00027E03327DA01990F311D87FD91600096ED
:1026B0006105710539F432602E5F3D9330E32A9550
:1026C000E1F708959F3F30F080387105610509F00A
:1026D0003C5F3C5F3D93913008F08068911DDF9333
:1026E000CF931F930F93FF92EF92192F987F969598
:1026F000E92F96959695E90FFF27EE53FF4F9927FF
:102700003327EE24FF24A701E701059008940794DE
:1027100028F4360FE71EF81E491F511D660F771F5C
:10272000881F991F0694A1F70590079428F4E70ED7
:10273000F81E491F561FC11D770F881F991F661F5E
:102740000694A1F70590079428F4F80E491F561F28
:10275000C71FD11D880F991F661F771F0694A1F709
:102760000590079420F4490F561FC71FD81F990FD3
:10277000661F771F881F0694A9F78491109517701C
:1027800041F0D695C79557954795F794E7941A95D4
:10279000C1F7E8E6F0E068941590159135916591E0
:1027A000959105907FE27395E118F10A430B560B62
:1027B000C90BD009C0F7E10CF11E431F561FC91FFA
:1027C000D01D7EF4703311F48A95E6CFE894015061
:1027D00030F0080F0AF40027021708F4202F239581
:1027E000022F7A3328F079E37D932A95E9F710C018
:1027F0007D932A9589F60694979567953795179551
:102800001794E118F10A430B560BC90BD00998F045
:1028100023957E9173957A3308F070E37C932013AF
:10282000B8F77E9170617D9330F0839571E37D936D
:1028300070E32A95E1F71124EF90FF900F911F911B
:10284000CF91DF91992787FD90950895DC01FC01D8
:10285000672F71917723E1F7329704C07C916D93D4
:1028600070836291AE17BF07C8F308950E94781471
:1028700008F481E00895E89409C097FB3EF4909530
:102880008095709561957F4F8F4F9F4F9923A9F049
:10289000F92F96E9BB279395F695879577956795D8
:1028A000B795F111F8CFFAF4BB0F11F460FF1BC01C
:1028B0006F5F7F4F8F4F9F4F16C0882311F096E9AF
:1028C00011C0772321F09EE8872F762F05C066235D
:1028D00071F096E8862F70E060E02AF09A95660F16
:1028E000771F881FDAF7880F9695879597F90895CF
:1028F000990F0008550FAA0BE0E8FEEF1616170611
:10290000E807F907C0F012161306E407F50798F078
:10291000621B730B840B950B39F40A2661F0232B91
:10292000242B252B21F408950A2609F4A140A6950D
:102930008FEF811D811D08950E94AF140C94201506
:102940000E94121538F00E94191520F0952311F0FD
:102950000C9409150C940F1511240C9454150E9415
:10296000311570F3959FC1F3950F50E0551F629F8D
:10297000F001729FBB27F00DB11D639FAA27F00DD8
:10298000B11DAA1F649F6627B00DA11D661F829FFF
:102990002227B00DA11D621F739FB00DA11D621FE4
:1029A000839FA00D611D221F749F3327A00D611D01
:1029B000231F849F600D211D822F762F6A2F1124E3
:1029C0009F5750409AF0F1F088234AF0EE0FFF1F16
:1029D000BB1F661F771F881F91505040A9F79E3F6D
:1029E000510580F00C9409150C9454155F3FE4F3E5
:1029F000983ED4F3869577956795B795F795E795C3
:102A00009F5FC1F7FE2B880F911D9695879597F9CB
:102A1000089597F99F6780E870E060E008959FEF60
:102A200080EC089500240A94161617061806090665
:102A3000089500240A941216130614060506089534
:102A4000092E0394000C11F4882352F0BB0F40F4BC
:102A5000BF2B11F460FF04C06F5F7F4F8F4F9F4FFC
:102A6000089557FD9058440F551F59F05F3F71F07E
:102A70004795880F97FB991F61F09F3F79F08795E5
:102A80000895121613061406551FF2CF4695F1DF6E
:102A900008C0161617061806991FF1CF86957105FE
:102AA000610508940895E894BB2766277727CB0132
:102AB00097F908952F923F924F925F926F927F9273
:102AC0008F929F92AF92BF92CF92DF92EF92FF923E
:102AD0000F931F93CF93DF93CDB7DEB7CA1BDB0BEA
:102AE0000FB6F894DEBF0FBECDBF09942A8839888F
:102AF00048885F846E847D848C849B84AA84B98496
:102B0000C884DF80EE80FD800C811B81AA81B981A1
:102B1000CE0FD11D0FB6F894DEBF0FBECDBFED01B5
:102B20000895A1E21A2EAA1BBB1BFD010DC0AA1F0E
:102B3000BB1FEE1FFF1FA217B307E407F50720F026
:102B4000A21BB30BE40BF50B661F771F881F991FA1
:102B50001A9469F760957095809590959B01AC01EA
:102B6000BD01CF010895991B79E004C0991F961704
:102B700008F0961B881F7A95C9F780950895AA1BBF
:102B8000BB1B51E107C0AA1FBB1FA617B70710F058
:102B9000A61BB70B881F991F5A95A9F7809590958A
:102BA000BC01CD010895EE0FFF1F0590F491E02DBB
:102BB00009945058BB27AA270E94F1150C942015A0
:102BC0000E94121538F00E94191520F039F49F3F29
:102BD00019F426F40C940F150EF4E095E7FB0C9411
:102BE0000915E92F0E94311558F3BA1762077307C8
:102BF0008407950720F079F4A6F50C9453150EF48C
:102C0000E0950B2EBA2FA02D0B01B90190010C01FC
:102C1000CA01A0011124FF27591B99F0593F50F414
:102C2000503E68F11A16F040A22F232F342F44276C
:102C3000585FF3CF469537952795A795F040539564
:102C4000C9F77EF41F16BA0B620B730B840BBAF034
:102C50009150A1F0FF0FBB1F661F771F881FC2F79F
:102C60000EC0BA0F621F731F841F48F487957795B3
:102C70006795B795F7959E3F08F0B0CF9395880F6D
:102C800008F09927EE0F9795879508950E945A1698
:102C90000C9420150E94191558F00E94121540F04E
:102CA00029F45F3F29F00C94091551110C94541527
:102CB0000C940F150E94311568F39923B1F3552335
:102CC00091F3951B550BBB27AA276217730784073F
:102CD00038F09F5F5F4F220F331F441FAA1FA9F3D5
:102CE00035D00E2E3AF0E0E832D091505040E695C3
:102CF000001CCAF72BD0FE2F29D0660F771F881F24
:102D0000BB1F261737074807AB07B0E809F0BB0B16
:102D1000802DBF01FF2793585F4F3AF09E3F51052A
:102D200078F00C9409150C9454155F3FE4F3983E29
:102D3000D4F3869577956795B795F7959F5FC9F713
:102D4000880F911D9695879597F90895E1E0660F94
:102D5000771F881FBB1F621773078407BA0720F00D
:102D6000621B730B840BBA0BEE1F88F7E095089576
:102D70000E94391588F09F5798F0B92F9927B751BD
:102D8000B0F0E1F0660F771F881F991F1AF0BA950F
:102D9000C9F714C0B13091F00E945315B1E0089505
:102DA0000C945315672F782F8827B85F39F0B93FF7
:102DB000CCF3869577956795B395D9F73EF49095C2
:102DC0008095709561957F4F8F4F9F4F08950E941A
:102DD000781408F48FEF08950E947814880B990BEB
:102DE00008950F931F93CF93DF938230910510F4D2
:102DF00082E090E0E0915704F091580430E020E048
:102E0000B0E0A0E0309799F42115310509F44AC0EB
:102E1000281B390B24303105D8F58A819B81611537
:102E2000710589F1FB0193838283FE0111C040810A
:102E300051810281138148175907E0F0481759075B
:102E400099F4109761F012960C93129713961C93B5
:102E50003296CF01DF91CF911F910F91089500938A
:102E6000570410935804F4CF2115310551F042173F
:102E7000530738F0A901DB019A01BD01DF01F80118
:102E8000C1CFEF01F9CF9093580480935704CDCF71
:102E9000FE01E20FF31F8193919322503109398390
:102EA0002883D7CF2091550430915604232B41F429
:102EB000209105013091060130935604209355046A
:102EC00020910301309104012115310541F42DB702
:102ED0003EB74091070150910801241B350BE0914A
:102EE0005504F0915604E217F307A0F42E1B3F0B94
:102EF0002817390778F0AC014E5F5F4F241735076C
:102F000048F04E0F5F1F5093560440935504819331
:102F100091939FCFF0E0E0E09CCFCF93DF930097B9
:102F2000E9F0FC01329713821282A0915704B0910C
:102F30005804ED0130E020E01097A1F420813181A8
:102F4000820F931F2091550430915604281739079A
:102F500009F061C0F0935604E0935504DF91CF91DE
:102F60000895EA01CE17DF07E8F54A815B819E01EB
:102F700041155105B1F7E901FB83EA834991599164
:102F8000C40FD51FEC17FD0761F480819181029673
:102F9000840F951FE90199838883828193819B83A4
:102FA0008A83F0E0E0E012968D919C911397009750
:102FB000B9F52D913C911197CD010296820F931F87
:102FC00020915504309156042817390739F6309767
:102FD00051F51092580410925704B0935604A093E0
:102FE0005504BCCFD383C28340815181840F951F88
:102FF000C817D90761F44E5F5F4F88819981480FE8
:10300000591F518340838A819B8193838283211539
:10301000310509F0B0CFF0935804E09357049ECFE8
:10302000FD01DC01C0CF13821282D7CFB0E0A0E057
:10303000ECE1F8E10C945C158C01009751F4CB01A4
:103040000E94F1168C01C801CDB7DEB7E0E10C9407
:103050007815FC01E60FF71F9C0122503109E21799
:10306000F30708F49DC0D901CD91DC911197C617E3
:10307000D70798F0C530D10530F3CE0104978617F5
:10308000970708F3C61BD70B2297C193D1936D9373
:103090007C93CF010E948D17D6CF5B01AC1ABD0A7D
:1030A0004C018C0E9D1EA0915704B0915804512CD8
:1030B000412CF12CE12C109731F580915504909121
:1030C00056048815990509F05CC04616570608F0A5
:1030D00058C08091030190910401009741F48DB78D
:1030E0009EB74091070150910801841B950BE8178A
:1030F000F90708F055C0F0935604E0935504F90120
:1031000071836083A0CF8D919C91119712966C90E2
:10311000129713967C901397A815B90559F56C0171
:1031200042E0C40ED11CCA14DB0420F1AC014A19E0
:103130005B09DA011296159780F0628273825183DF
:103140004083D9016D937C93E114F10471F0D701B0
:103150001396FC93EE93129776CF22968C0F9D1FB9
:10316000F90191838083F301EFCFF0935804E0934A
:10317000570469CF4816590608F42C017D01D30184
:103180009ACFCB010E94F1167C01009749F0AE0165
:10319000B8010E94D818C8010E948D17870153CF2B
:1031A00010E000E050CF81E090E0F8940C94E81833
:1031B000FB01DC0102C001900D9241505040D8F754
:1031C0000895FB01DC0101900D920020E1F70895C4
:0431D000F894FFCFA1
:1031D400340201000059048000000040001400542F
:1031E4000004070800000000BF019201A205680165
:1031F4008B017801690100000000F6035603830384
:103204004304B4039203A60300000000AA07560374
:10321400A205A1050000000093048F040D0A0053C9
:103224003A205365747570202020202020200053FC
:103234003A2043616C6962726174696E672000535D
:103244003A2052656164696E672020202020005373
:103254003A2054657374696E67202020202000533F
:103264003A204F757470757420202020202000535C
:103274003A204572726F7220202020202020006E98
:10328400616E00696E66006F76660074696D652014
:10329400286D73292C20666F72636520284E292CB3
:1032A40020766F6C74616765202856292C2063751D
:1032B4007272656E7420286D41292C20706F7765B9
:1032C4007220285729002C00627574746F6E3A209E
:1032D400002070726573736564092073746174658A
:1032E4003A200050726F6772616D2073746172745A
:1032F400696E672E2E00412061616E736C7569746E
:10330400656E002020202020202020202020202046
:10331400202020004144435F415F537465703A208C
:103324000020412F5374657000562061616E736CE8
:10333400756974656E004144435F565F53746570EC
:103344003A200020562F53746570005072657373D1
:0833540020477265656E000060
:00000001FF
