:100000000C9462000C948A000C948A000C948A0070
:100010000C948A000C948A000C948A000C948A0038
:100020000C948A000C948A000C948A000C94F208B8
:100030000C948A000C948A000C948A000C948A0018
:100040000C9450080C948A000C94C0080C949A08E4
:100050000C948A000C948A000C948A000C948A00F8
:100060000C9435070C948A00000000002300260041
:10007000290000000000240027002A0000000000E2
:10008000250028002B0004040404040404040202D4
:100090000202020203030303030301020408102007
:1000A0004080010204081020010204081020000012
:1000B0000008000201000003040700000000000027
:1000C0000000AE0911241FBECFEFD8E0DEBFCDBFC8
:1000D00012E0A0E0B1E0E2E0FAE102C005900D928A
:1000E000AA30B107D9F723E0AAE0B2E001C01D921F
:1000F000A23CB207E1F710E0C2E6D0E004C02197CD
:10010000FE010E94CF0BC136D107C9F70E945B0ADE
:100110000C94FF0C0C94000020915F02260F3327F3
:10012000331F21323105ECF420918302FC0190E071
:1001300080E0243069F082E00895A0915F0221916F
:10014000AC01415C5D4FA40FB52FB11D2C930196FE
:10015000861798F380915F02680F60935F0280E0DA
:10016000089581E0089508958FEF9FEF08958FEF30
:100170009FEF08958091380290E0919581959109C3
:100180000895CF92DF92EF92FF920F931F93CF9338
:10019000DF937C01CB018A0120913702222389F071
:1001A000EB016B01C40ED51ECC15DD0569F069911C
:1001B000D701ED91FC910190F081E02DC7010995E7
:1001C000F3CF642F0E948C00C801DF91CF911F9163
:1001D0000F91FF90EF90DF90CF900895CF93DF9332
:1001E0001F92CDB7DEB76983209137022223F9F041
:1001F00020913602203258F021E030E0FC013383B8
:10020000228390E080E00F90DF91CF91089580915C
:100210003502E82FF0E0EB5EFD4F998190838F5F10
:10022000809335028093360281E090E0ECCF61E06C
:10023000CE0101960E948C00F7CF833081F028F424
:10024000813099F08230A9F008958730A9F0883084
:10025000C9F08430B1F4809180008F7D03C080911B
:1002600080008F7780938000089584B58F7784BD58
:10027000089584B58F7DFBCF8091B0008F778093F8
:10028000B00008958091B0008F7DF9CF1F93CF9378
:10029000DF93282F30E0F901E255FF4F8491F901F7
:1002A000E656FF4FD491F901EA57FF4FC491CC2392
:1002B000A9F0162F81110E941D01EC2FF0E0EE0F26
:1002C000FF1FE458FF4FA591B4918FB7F894EC91BC
:1002D000111108C0D095DE23DC938FBFDF91CF9141
:1002E0001F910895DE2BF8CF1F93CF93DF93C1E0CA
:1002F000C0933E02882399F1D091B8001091BA00C2
:100300008091BC008A7B8093BC0060E082E10E9407
:10031000460160E083E10E94460110928302C0938F
:1003200085021092840261E082E10E94460161E050
:1003300083E10E9446018091B9008E7F8093B900CD
:100340008091B9008D7F8093B90088E48093B800D4
:1003500085E48093BC001093BA00D093B800DF917D
:10036000CF911F910895CF93DF9390E0FC01E65663
:10037000FF4F24918A579F4FFC0184918823C9F035
:1003800090E0880F991FFC01EE58FF4FA591B491A2
:10039000FC01E458FF4FC591D49161110DC09FB786
:1003A000F8948C91209582238C938881282328832C
:1003B0009FBFDF91CF910895623051F49FB7F894B9
:1003C0003C91822F809583238C93E8812E2BEFCF55
:1003D0008FB7F894EC912E2B2C938FBFEACF3FB7B9
:1003E000F8948091110290911202A0911302B091A1
:1003F000140226B5A89B05C02F3F19F00196A11D38
:10040000B11D3FBFBA2FA92F982F8827BC01CD015E
:10041000620F711D811D911D42E0660F771F881FBD
:10042000991F4A95D1F70895AF92BF92CF92DF926C
:10043000EF92FF920F931F93CF93DF936C017B0199
:100440008B01040F151FEB015E01AE18BF08C0172A
:10045000D10759F06991D601ED91FC910190F0819D
:10046000E02DC6010995892B79F7C501DF91CF9160
:100470001F910F91FF90EF90DF90CF90BF90AF90C2
:100480000895FC01538D448D252F30E0842F90E09A
:10049000821B930B541710F0CF960895019708957F
:1004A000FC01918D828D981761F0A28DAE0FBF2F48
:1004B000B11D5D968C91928D9F5F9F73928F90E09E
:1004C00008958FEF9FEF0895FC01918D828D98170D
:1004D00031F0828DE80FF11D858D90E008958FEF4A
:1004E0009FEF0895FC01918D228D892F90E0805C13
:1004F0009F4F821B91098F7399270895FC01A48D4A
:10050000A80FB92FB11DA35ABF4F2C91848D90E035
:1005100001968F739927848FA689B7892C93A08918
:10052000B1898C91837080648C93938D848D9813A2
:1005300006C00288F389E02D80818F7D8083089535
:10054000EF92FF920F931F93CF93DF93EC0181E023
:10055000888F9B8D8C8D98131AC0E889F9898081CA
:1005600085FF15C09FB7F894EE89FF896083E889FD
:10057000F98980818370806480839FBF81E090E0EF
:10058000DF91CF911F910F91FF90EF900895F62E7C
:100590000B8D10E00F5F1F4F0F731127E02E8C8D16
:1005A0008E110CC00FB607FCFACFE889F98980815B
:1005B00085FFF5CFCE010E947E02F1CFEB8DEC0FCF
:1005C000FD2FF11DE35AFF4FF0829FB7F8940B8F78
:1005D000EA89FB8980818062CFCFCF93DF93EC01E2
:1005E000888D8823B9F0AA89BB89E889F9898C911B
:1005F00085FD03C0808186FD0DC00FB607FCF7CFD7
:100600008C9185FFF2CF808185FFEDCFCE010E94D6
:100610007E02E9CFDF91CF910895862F642F0C944D
:10062000B301CF93DF93FC01218930E0F901E2555A
:10063000FF4F8491F901E656FF4FD491F901EA5733
:10064000FF4FC491CC2379F081110E941D01EC2F42
:10065000F0E0EE0FFF1FE859FF4FA591B491EC9128
:10066000ED2381E009F480E08170DF91CF9108955E
:10067000CF92DF92EF92FF920F931F93CF93DF936E
:10068000FC01C48121E020933702C0930B02109239
:100690003502109236028485682B80EE92E00E942B
:1006A000EE00D0913602D13208F092C00E94EF01E4
:1006B0006B017C0180918302811165C082E080938F
:1006C000830281E0809385028FEF809382021092F3
:1006D000A702D093A602A5E1B2E0E6E8F2E080E04E
:1006E000D81385C01092A8028091A802CC0FC82B05
:1006F000C093A80280918402813009F07CC01092DE
:1007000084020E94EF016B017C018091A80280931A
:10071000BB0080913A0290913B02A0913C02B091C3
:100720003D02892B8A2B8B2B99F00E94EF010091BF
:100730003A0210913B0220913C0230913D026C192B
:100740007D098E099F090617170728073907E0F169
:100750008091BC0083FDD9CF85EC8093BC000E94C2
:10076000EF016B017C0180918302823009F445C066
:10077000809182028F3F61F180918202803241F14B
:100780008091820225C080913A0290913B02A09113
:100790003C02B0913D02892B8A2B8B2B09F48ACF26
:1007A0000E94EF0100913A0210913B0220913C021D
:1007B00030913D026C197D098E099F0906171707B4
:1007C0002807390708F076CF809139020E9474011A
:1007D000109235021092360210923702DF91CF91BB
:1007E0001F910F91FF90EF90DF90CF9008959D9112
:1007F00091938F5F75CF85EEB0CF80913A02909143
:100800003B02A0913C02B0913D02892B8A2B8B2B9D
:1008100009F4A9CF0E94EF0100913A0210913B0226
:1008200020913C0230913D026C197D098E099F098F
:10083000061717072807390708F095CFC5CF089581
:1008400090E080E00895682F8CEE92E00C94A00276
:10085000CF92DF92EF92FF92CF93DF93EC018991D9
:10086000811107C0DF91CF91FF90EF90DF90CF9083
:10087000089590EE980F9F3530F4082E000C990BD8
:100880000E942304ECCF8D3039F48CE590E00E9477
:10089000230482E790E0F4CF8A3039F48CE590E0CD
:1008A0000E9423048EE690E0EBCF8CE590E00E945E
:1008B000230488E790E00E942304FE013197C08062
:1008C0000C2C000CDD08EE08FF08D701C60124E05F
:1008D000B695A795979587952A95D1F78F70992703
:1008E0008A3091056CF0895C90E00E942304C60177
:1008F0008F7099278A3091052CF0895C90E0C0CFE9
:10090000805DF2CF805DFACF4F925F926F927F92BF
:100910008F929F92AF92BF92CF92DF92EF92FF920F
:100920004B015C01B7FE0CC08DE290E00E942304F5
:10093000B094A09490948094811C911CA11CB11C33
:10094000C12CD12C7601C394C501B401A701960135
:100950000E949E0B2A3031054105510580F58AE041
:10096000482E512C612C712CC501B401A7019601B0
:100970000E949E0BCA01B901A30192010E949E0B25
:10098000605D862F90E00E942304C701B601A30199
:1009900092010E949E0B69017A01C114D104E10405
:1009A000F10411F7FF90EF90DF90CF90BF90AF90E0
:1009B0009F908F907F906F905F904F900895AAE0E6
:1009C000B0E0A70196010E94930B6B017C01BCCFA4
:1009D00085ED8093BC0080913A0290913B02A091FA
:1009E0003C02B0913D020796A11DB11D23E0B695D2
:1009F000A795979587952A95D1F72091BC0024FD5E
:100A000003C010928302089540913A0250913B0234
:100A100060913C0270913D02452B462B472B69F3B8
:100A20000097A105B10541F02AE22A95F1F700C02F
:100A30000197A109B109E1CF809139020C947401A9
:100A40000E94FA0C0F931F93CF938C01C62F646002
:100A50000E9438036C2F6B7FC8010E94380383EC1F
:100A600090E00197F1F7CF911F910F910895FF92B8
:100A70000F931F93CF93DF938C01D62FC42F862F14
:100A8000807FF82EF42A6F2DC8010E9438036F2D45
:100A9000C8010E94220580E1D89FB0011124C62B15
:100AA0006C2FC8010E9438036C2FC801DF91CF91D1
:100AB0001F910F91FF900C942205CF93DF93CDB738
:100AC000DEB728970FB6F894DEBF0FBECDBF98E013
:100AD000EAE0F1E0DE01119601900D929A95E1F7BE
:100AE0009091B903981710F48FEF890F90E0880F59
:100AF000991F21E030E02C0F3D1F820F931FFC0156
:100B00006081606840E081EB93E028960FB6F8942E
:100B1000DEBF0FBECDBFDF91CF910C94370541E012
:100B20000E94370581E090E008953F924F925F92D6
:100B30006F927F928F929F92AF92BF92CF92DF92ED
:100B4000EF92FF920F931F93CF93DF9300D000D0CB
:100B5000CDB7DEB710E000E084E9482E81E0582EE2
:100B600084E090E00E94D50B7C0180E190E00E943F
:100B7000D50B9C838B83D7018D939C9380E190E070
:100B80000E94D50B6C01F70193838283023011051B
:100B900009F4BDC00CF0A8C00130110509F4B2C0C1
:100BA00064E871E0709303016093020140E061E04A
:100BB00081EB93E00E9437058BE39FE10197F1F70A
:100BC0008091BA03882319F080E00E945D05E091CE
:100BD0000201F09103014B815C81809100019091B1
:100BE000010196013F0160E1660E711C46015C0146
:100BF000BA01FA83E983A981BA813D90BA83A983B6
:100C0000DB013D92BD01D5013D905D01D4013D92D6
:100C10004D01A981BA816A167B0669F76191DA01F3
:100C20006D93AD01DC016D91CD01D9016D939D01F5
:100C300069817A81E617F70789F780E00E945D05F0
:100C40008B819C81009769F0FC0101900020E9F7FD
:100C50003197AF01481B590BBC0181EB93E00E9417
:100C6000140281E00E945D05D70112966D917C917E
:100C70006115710561F0FB0101900020E9F73197E2
:100C8000AF01461B570B81EB93E00E941402EB81EE
:100C9000FC81EF2B21F08B819C810E94710CC1148F
:100CA000D10419F0C6010E94710CE114F104E9F5B8
:100CB0000F5F1F4F0530110509F052CF0F900F90B5
:100CC0000F900F90DF91CF911F910F91FF90EF90B8
:100CD000DF90CF90BF90AF909F908F907F906F905C
:100CE0005F904F903F90089503301105B9F00430A4
:100CF000110509F055CFE4ECF1E0F0930301E09326
:100D0000020154CF50920301409202014FCF84EA76
:100D100091E0909303018093020148CFA4EBB1E0EE
:100D2000B0930301A093020141CFC7010E94710C4F
:100D3000BFCFCF92DF92EF92FF92CF93DF93CDB7E9
:100D4000DEB7E9EAF2E084ED91E0938382838FE8F5
:100D500090E0A0E0B0E080879187A287B387848588
:100D60009585A685B7850196A11DB11D84879587B8
:100D7000A687B787158214821782168289EC92E0C3
:100D80000E94520B892B11F40E94950589EC92E088
:100D90000E94520BE9EAF2E0848D958DA68DB78D05
:100DA000892B8A2B8B2B21F184899589A689B78978
:100DB0000196A11DB11D848B958BA68BB78BE9EA9B
:100DC000F2E0108E118E128E138E148E158E168EEA
:100DD000178E8AE090E00E9423048CEE92E00E943D
:100DE000ED02DF91CF91FF90EF90DF90CF900895CB
:100DF000808D918DA28DB38D892B8A2B8B2B49F5FC
:100E0000C084D184E284F384808191810097D9F4F5
:100E10008AE390E00E942304C701B6010E94840483
:100E20008AE390E00E9423048091AB029091AC028F
:100E3000009761F48AE390E00E9423048FE491E03C
:100E40000E942804BCCF0E942804E2CF0E942804FC
:100E5000F1CF80899189A289B3890196A11DB11D25
:100E6000808B918BA28BB38BAACF1F920F920FB660
:100E70000F9211242F933F934F935F936F937F9320
:100E80008F939F93AF93BF93EF93FF938091B9009C
:100E9000887F803609F44AC0F0F5883209F4A5C08D
:100EA00018F5803109F499C0B8F4882309F4F5C025
:100EB000883009F492C0FF91EF91BF91AF919F915B
:100EC0008F917F916F915F914F913F912F910F90F3
:100ED0000FBE0F901F901895883109F486C080329C
:100EE00051F78093820214C0803409F49BC040F40F
:100EF0008033B9F38833F9F68093820285ECAEC073
:100F0000803509F483C0883509F494C0883499F693
:100F10000E94E804D0CF883909F48AC038F58837B0
:100F200029F050F4883611F0803729F683E0809359
:100F300083021092810255C0883809F479C0803943
:100F400019F0803809F0B7CF80918102803208F023
:100F50006FC0E091810281E08E0F809381028091C9
:100F6000BB00F0E0EF59FD4F80833BC0803B39F080
:100F7000D0F4803A09F477C0883A09F09CCF84E035
:100F8000809383021092600210925F02F0E0E0E032
:100F9000099580915F0281110FC081E080935F020B
:100FA00010923F0209C0803C09F4A8CF883C09F4A4
:100FB000A5CF883B09F07FCFE091600281E08E0FE2
:100FC00080936002F0E0E15CFD4F80818093BB0084
:100FD0009091600280915F0229C08091A802809365
:100FE000BB0085EC8093BC0066CF9091A7028091F6
:100FF000A602981758F5E091A70281E08E0F809322
:10100000A702F0E0EA57FD4F8081E9CFE091A70207
:1010100081E08E0F8093A7028091BB00F0E0EA5739
:10102000FD4F80839091A7028091A6029817C8F285
:1010300085E8D8CFE091A70281E08E0F8093A702C8
:101040008091BB00F0E0EA57FD4F808380918502DC
:1010500081115ECF81E08093840284EA8093BC009A
:101060001092830228CF85EC8093BC0010928302FB
:1010700080918102803230F4E0918102F0E0EF59FA
:10108000FD4F10826091810270E081E692E0F0E015
:10109000E0E00995109281020ECF1092820238CFC3
:1010A0001F920F920FB60F9211242F933F938F939D
:1010B0009F93AF93BF9380910D0290910E02A091E8
:1010C0000F02B091100230910C0223E0230F2D3754
:1010D00058F50196A11DB11D20930C0280930D02BD
:1010E00090930E02A0930F02B09310028091110210
:1010F00090911202A0911302B09114020196A11DC9
:10110000B11D8093110290931202A0931302B09329
:101110001402BF91AF919F918F913F912F910F90AA
:101120000FBE0F901F90189526E8230F0296A11D61
:10113000B11DD2CF1F920F920FB60F9211242F9391
:101140003F934F935F936F937F938F939F93AF934F
:10115000BF93EF93FF938CEE92E00E947E02FF918B
:10116000EF91BF91AF919F918F917F916F915F911F
:101170004F913F912F910F900FBE0F901F90189598
:101180001F920F920FB60F9211242F938F939F935C
:10119000EF93FF93E091FC02F091FD028081E091DA
:1011A0000203F091030382FD1BC09081809105032F
:1011B0008F5F8F7320910603821741F0E091050342
:1011C000F0E0E451FD4F958F80930503FF91EF917F
:1011D0009F918F912F910F900FBE0F901F90189598
:1011E0008081F4CF1F920F920FB60F9211242F938C
:1011F0003F934F935F936F937F938F939F93AF939F
:10120000BF93CF93DF93EF93FF9380910A02C09136
:10121000AD03D0E087FF24C01092850010928400B7
:1012200080910A028F5F80930A0280910A02082E41
:10123000000C990B8C179D0724F480910A028C30C6
:10124000C4F18091840090918500049680349C497B
:1012500008F47AC08091840090918500049676C04D
:1012600080910A02082E000C990B8C179D07C4F67A
:10127000E0910A028E2FEE0F990BFC01EE0FFF1F7B
:10128000E80FF91FE757FC4F808186FFC9CFE09137
:101290000A028E2FEE0F990BFC01EE0FFF1FE80FD5
:1012A000F91FE757FC4F808160E08F730E94460171
:1012B000B7CF2091840030918500E0910A028E2FF3
:1012C000EE0F990BFC01EE0FFF1FE80FF91FE75718
:1012D000FC4F81819281820F931F909389008093AC
:1012E0008800E0910A028E2FEE0F990BFC01EE0FA1
:1012F000FF1FE80FF91FE757FC4F808186FF11C0E1
:10130000E0910A028E2FEE0F990BFC01EE0FFF1FEA
:10131000E80FF91FE757FC4F808161E08F730E944F
:101320004601FF91EF91DF91CF91BF91AF919F91D6
:101330008F917F916F915F914F913F912F910F907E
:101340000FBE0F901F90189580E49CE99093890040
:10135000809388008FEF80930A02E3CF1092E3021C
:101360001092E20288EE93E0A0E0B0E08093E40205
:101370009093E502A093E602B093E70228E531E0FE
:101380003093E1022093E0021092EF021092EE02FD
:101390008093F0029093F102A093F202B093F302D3
:1013A0008AE691E09093ED028093EC0285EC90E068
:1013B0009093F9028093F80284EC90E09093FB0202
:1013C0008093FA0280EC90E09093FD028093FC02FF
:1013D00081EC90E09093FF028093FE0282EC90E01B
:1013E000909301038093000386EC90E090930303B5
:1013F00080930203109205031092060310920703D4
:10140000109208031092B4031092B3038CE791E09A
:101410009093B2038093B1031092BA038FE3809349
:10142000B50380E18093BB0382E08093BC031092FC
:10143000BD0360E00E94B30161E083E00E94B3015C
:1014400061E086E00E94B30161E087E00E94B301A1
:1014500061E088E00E94B30161E089E00E94B3018D
:1014600061E08AE00E94B30161E08BE00E94B30179
:1014700062E08CE00E94B30161E08DE00E94B30164
:101480008091AD038C3098F491E0980F9093AD0368
:101490008093AE0390E0FC01EE0FFF1FE80FF91FF1
:1014A000E757FC4F88EB9BE09283818308958FEF91
:1014B0008093AE03089580EE91E09093AA0280930A
:1014C000A9021092AC021092AB021092B1021092DB
:1014D000B2021092B3021092B4021092B5021092AE
:1014E000B6021092B7021092B8021092B90210928E
:1014F000BA021092BB021092BC021092BD0210926E
:10150000BE021092BF021092C0021092C10210924D
:10151000C2021092C3021092C4021092C50210922D
:10152000C6021092C7021092C8021092AE02109228
:10153000AD021092B0021092AF02E091FC02F09165
:10154000FD0282E08083E091F802F091F9021082BE
:10155000E091FA02F091FB0280E180831092040393
:10156000E0910003F091010386E08083E091FE02A8
:10157000F091FF02808180618083E091FE02F09112
:10158000FF02808188608083E091FE02F091FF027B
:10159000808180688083E091FE02F091FF0280816B
:1015A0008F7D80830E9499068AE090E00E94230448
:1015B00087E391E00E9428048AE090E00E942304DF
:1015C0006091B5027091B6028091B7029091B80215
:1015D0000E9484048FE291E00E9428046091B90285
:1015E0007091BA028091BB029091BC020E94840467
:1015F00084E291E00E9428046091BD027091BE02D5
:101600008091BF029091C0020E9484048AE191E01F
:101610000E9428048AE090E00E9423048091B9028D
:101620009091BA02A091BB02B091BC02892B8A2B87
:101630008B2BA9F587E191E00E9428048AE090E0D5
:101640000E9423048CEE92E00E94ED028CEE92E068
:101650000E94ED02E091FE02F091FF0280818F7EF8
:101660008083E091FE02F091FF028081877F80837A
:10167000E091FE02F091FF0280818F778083E091FC
:10168000FE02F091FF0280818F7D808380910603AE
:10169000809305038091B9029091BA02089582E186
:1016A00091E0CACFDC012D923D924D925D926D92F8
:1016B0007D928D929D92AD92BD92CD92DD92ED92F2
:1016C000FD920D931D93CD93DD93FF91EF918DB717
:1016D0008D938EB78D938FB78D93ED93FD93882760
:1016E00099270994DC01CB0181309105811D2D9052
:1016F0003D904D905D906D907D908D909D90AD90C2
:10170000BD90CD90DD90ED90FD900D911D91CD910E
:10171000DD91ED91FD910D90F894FEBF0FBEEDBFF0
:10172000ED91FD9109940E94C00BA59F900DB49F6F
:10173000900DA49F800D911D11240895A1E21A2EF1
:10174000AA1BBB1BFD010DC0AA1FBB1FEE1FFF1F65
:10175000A217B307E407F50720F0A21BB30BE40BB5
:10176000F50B661F771F881F991F1A9469F76095FC
:101770007095809590959B01AC01BD01CF010895B6
:10178000A29FB001B39FC001A39F700D811D1124C2
:10179000911DB29F700D811D1124911D0895EE0FB2
:1017A000FF1F0590F491E02D09940F931F93CF93A1
:1017B000DF938230910510F482E090E0E091C00365
:1017C000F091C10330E020E0B0E0A0E0309799F460
:1017D0002115310509F44AC0281B390B2430310585
:1017E000D8F58A819B816115710589F1FB0193838D
:1017F0008283FE0111C0408151810281138148170B
:101800005907E0F04817590799F4109761F01296BC
:101810000C93129713961C933296CF01DF91CF91C0
:101820001F910F9108950093C0031093C103F4CF4B
:101830002115310551F04217530738F0A901DB019A
:101840009A01BD01DF01F801C1CFEF01F9CF9093FB
:10185000C1038093C003CDCFFE01E20FF31F81933C
:1018600091932250310939832883D7CF2091BE0329
:101870003091BF03232B41F42091060130910701E1
:101880003093BF032093BE032091040130910501E2
:101890002115310541F42DB73EB740910801509113
:1018A0000901241B350BE091BE03F091BF03E21741
:1018B000F307A0F42E1B3F0B2817390778F0AC0173
:1018C0004E5F5F4F2417350748F04E0F5F1F509350
:1018D000BF034093BE03819391939FCFF0E0E0E07C
:1018E0009CCFCF93DF930097E9F0FC0132971382EE
:1018F0001282A091C003B091C103ED0130E020E05D
:101900001097A1F420813181820F931F2091BE0393
:101910003091BF032817390709F061C0F093BF0366
:10192000E093BE03DF91CF910895EA01CE17DF0760
:10193000E8F54A815B819E0141155105B1F7E90146
:10194000FB83EA8349915991C40FD51FEC17FD071A
:1019500061F4808191810296840F951FE90199833A
:101960008883828193819B838A83F0E0E0E01296F2
:101970008D919C9113970097B9F52D913C911197FA
:10198000CD010296820F931F2091BE033091BF03B9
:101990002817390739F6309751F51092C103109284
:1019A000C003B093BF03A093BE03BCCFD383C28355
:1019B00040815181840F951FC817D90761F44E5F8C
:1019C0005F4F88819981480F591F518340838A81D5
:1019D0009B81938382832115310509F0B0CFF09369
:1019E000C103E093C0039ECFFD01DC01C0CF138291
:1019F0001282D7CF81E090E0F8940C94FF0CF89419
:021A0000FFCF16
:101A0200FA01FA010000C203800000004000140045
:101A120054004641494C004F4B002049676E6F729B
:101A220065642000204661696C7572657320002030
:101A3200546573747320002D2D2D2D2D2D2D2D2DDC
:101A42002D2D2D2D2D2D2D2D2D2D2D2D2D2D0050CE
:101A52004153530000000000EE00C1002004B30017
:101A6200BA00B700B40000000000A0021402410254
:101A7200ED02720250026402000000008F0514029F
:101A820020041F04533A20536574757020202020CF
:101A920020202000533A2043616C696272617469AC
:101AA2006E672000533A2052656164696E67202098
:101AB20020202000533A2054657374696E672020F9
:101AC20020202000533A204F757470757420202016
:101AD20020202000746573745F73746174657300F1
:101AE200746573742F7465737453746174654D6196
:101AF2006368696E652E63707000202020202020AC
:0A1B020020202020202020202000B9
:00000001FF
