:100000000C94DF000C9407010C9407010C94070179
:100010000C9407010C9407010C9407010C94070140
:100020000C9407010C9407010C9407010C94260B07
:100030000C9407010C9407010C9407010C94070120
:100040000C94840A0C9407010C94F40A0C94CE0AC4
:100050000C9407010C9407010C9407010C94070100
:100060000C9465090C94070100407A10F35A00A023
:10007000724E18090010A5D4E80000E87648170071
:1000800000E40B54020000CA9A3B000000E1F505B1
:10009000000080969800000040420F000000A086FB
:1000A00001000000102700000000E803000000002D
:1000B0006400000000000A000000000001000000D1
:1000C00000002C76D888DC674F0823DFC1DFAE59EB
:1000D000E1B1B796E5E3E453C63AE651997696E87E
:1000E000E6C28426EB898C9B62ED407C6FFCEFBC02
:1000F0009C9F40F2BAA56FA5F490055A2AF75C932D
:100100006B6CF9676DC11BFCE0E40D47FEF520E662
:10011000B500D0ED902E0300943577050080841E45
:10012000080000204E0A000000C80C333333330FA0
:10013000986E12831141EF8D2114893BE65516CF3D
:10014000FEE6DB18D1844B381BF77C1D901DA4BB49
:10015000E424203284725E228100C9F124ECA1E5FE
:100160003D270000000023002600290000000000B9
:10017000240027002A0000000000250028002B0092
:10018000040404040404040402020202020203033D
:100190000303030301020408102040800102040845
:1001A00010200102040810200000000800020100D5
:1001B000000304070000000000000000E20B11240F
:1001C0001FBECFEFD8E0DEBFCDBF11E0A0E0B1E0B1
:1001D000EEEDFDE202C005900D92A23FB107D9F706
:1001E00023E0A2EFB1E001C01D92A93BB207E1F705
:1001F00010E0CFEDD0E004C02197FE010E94D8139B
:10020000CE3DD107C9F70E94860C0C94ED160C94D4
:100210000000E091A303EC3088F54091A40328E8A6
:1002200030E0241B310947FD3395220F331F220F85
:10023000331F8217930784F04091A50328E532E02D
:10024000241B310947FD3395220F331F220F331F23
:10025000821793070CF49C0122503109220F331F9F
:100260004FB7F8948E2F90E0FC01EE0FFF1FE80FC0
:10027000F91FE258FC4F328321834FBF089520912C
:100280008902260F3327331F21323105ECF42091E8
:10029000AF02FC0190E080E0243069F082E0089534
:1002A000A09189022191AC0149595D4FA40FB52F4E
:1002B000B11D2C930196861798F380918902680FDF
:1002C0006093890280E0089581E00895089508957B
:1002D0000895E0915E0280915D02E81730F4F0E04D
:1002E000E35CFD4F808190E008958FEF9FEF0895CC
:1002F00090915E0280915D022FEF3FEF981748F4D6
:10030000E92FF0E0E35CFD4F208130E09F5F9093A8
:100310005E02C901089580915D0290915E02891B81
:10032000990B0895CF92DF92EF92FF920F931F9354
:10033000CF93DF937C01CB018A0120913C022223E1
:1003400089F0EB016B01C40ED51ECC15DD0569F0FB
:100350006991D701ED91FC910190F081E02DC701E9
:100360000995F3CF642F0E943F01C801DF91CF911F
:100370001F910F91FF90EF90DF90CF900895CF9352
:10038000DF931F92CDB7DEB7698320913C02222311
:10039000F9F020915F02203258F021E030E0FC01BA
:1003A0003383228390E080E00F90DF91CF91089516
:1003B00080916002E82FF0E0E45EFD4F9981908328
:1003C0008F5F8093600280935F0281E090E0ECCFCA
:1003D00061E0CE0101960E943F01F7CF833081F0AA
:1003E00028F4813099F08230A9F008958730A9F07F
:1003F0008830C9F08430B1F4809180008F7D03C0D3
:10040000809180008F7780938000089584B58F77E6
:1004100084BD089584B58F7DFBCF8091B0008F7728
:100420008093B00008958091B0008F7DF9CF1F9325
:10043000CF93DF93282F30E0F901E855FE4F8491E8
:10044000F901EC56FE4FD491F901E058FE4FC491EA
:10045000CC23A9F0162F81110E94EE01EC2FF0E0C1
:10046000EE0FFF1FEA58FE4FA591B4918FB7F89495
:10047000EC91111108C0D095DE23DC938FBFDF9182
:10048000CF911F910895DE2BF8CF1092AF0281E03B
:100490008093B1021092B00261E082E10E941702E3
:1004A00061E083E10E941702E9EBF0E080818E7F3A
:1004B000808380818D7F808388E48093B80085E489
:1004C0008093BC000895CF93DF9391E090936602F0
:1004D0008823B9F0C091B800D091BA008091BC00D7
:1004E0008A7B8093BC0060E082E10E94170260E09A
:1004F00083E10E9417020E944502D093BA00C09384
:10050000B800DF91CF910895CF93DF9390E0FC0185
:10051000EC56FE4F249180589E4FFC018491882315
:10052000C9F090E0880F991FFC01E459FE4FA59196
:10053000B491FC01EA58FE4FC591D49161110DC0F0
:100540009FB7F8948C91209582238C9388812823DF
:1005500028839FBFDF91CF910895623051F49FB7F8
:10056000F8943C91822F809583238C93E8812E2BE5
:10057000EFCF8FB7F894EC912E2B2C938FBFEACF4F
:100580008E3008F08E508770806480937C0080915C
:100590007A00806480937A0080917A0086FDFCCF97
:1005A000809178009091790008953FB7F8948091F8
:1005B000180290911902A0911A02B0911B0226B55F
:1005C000A89B05C02F3F19F00196A11DB11D3FBF8B
:1005D000BA2FA92F982F8827BC01CD01620F711D5A
:1005E000811D911D42E0660F771F881F991F4A9554
:1005F000D1F708958F929F92AF92BF92CF92DF92E0
:10060000EF92FF924B015C010E94D5026B017C01CD
:100610000E94D5026C197D098E099F09683E7340BE
:1006200081059105A8F321E0821A9108A108B1087B
:1006300088EEC80E83E0D81EE11CF11C81149104E1
:10064000A104B10429F7FF90EF90DF90CF90BF9005
:10065000AF909F908F9008952FB7F89460911402F7
:100660007091150280911602909117022FBF089584
:10067000AF92BF92CF92DF92EF92FF920F931F93B0
:10068000CF93DF936C017B018B01040F151FEB01EE
:100690005E01AE18BF08C017D10759F06991D601A5
:1006A000ED91FC910190F081E02DC6010995892B17
:1006B00079F7C501DF91CF911F910F91FF90EF90D6
:1006C000DF90CF90BF90AF900895FC01538D448D83
:1006D000252F30E0842F90E0821B930B541710F0ED
:1006E000CF96089501970895FC01918D828D9817FA
:1006F00061F0A28DAE0FBF2FB11D5D968C91928DD2
:100700009F5F9F73928F90E008958FEF9FEF089502
:10071000FC01918D828D981731F0828DE80FF11DCB
:10072000858D90E008958FEF9FEF0895FC01918DE6
:10073000228D892F90E0805C9F4F821B91098F73DF
:100740009927089581EE92E00E94960321E0892B7B
:1007500009F420E0822F089580E090E0892B29F0B1
:100760000E94A20381110C9400000895FC01A48D45
:10077000A80FB92FB11DA35ABF4F2C91848D90E0C3
:1007800001968F739927848FA689B7892C93A089A6
:10079000B1898C91837080648C93938D848D981330
:1007A00006C00288F389E02D80818F7D80830895C3
:1007B000EF92FF920F931F93CF93DF93EC0181E0B1
:1007C000888F9B8D8C8D98131AC0E889F989808158
:1007D00085FF15C09FB7F894EE89FF896083E8898B
:1007E000F98980818370806480839FBF81E090E07D
:1007F000DF91CF911F910F91FF90EF900895F62E0A
:100800000B8D10E00F5F1F4F0F731127E02E8C8DA3
:100810008E110CC00FB607FCFACFE889F9898081E8
:1008200085FFF5CFCE010E94B603F1CFEB8DEC0F23
:10083000FD2FF11DE35AFF4FF0829FB7F8940B8F05
:10084000EA89FB8980818062CFCFCF93DF93EC016F
:10085000888D8823B9F0AA89BB89E889F9898C91A8
:1008600085FD03C0808186FD0DC00FB607FCF7CF64
:100870008C9185FFF2CF808185FFEDCFCE010E9464
:10088000B603E9CFDF91CF910895862F642F0C94A2
:100890008402CF93DF93FC01218930E0F901E85510
:1008A000FE4F8491F901EC56FE4FD491F901E058C6
:1008B000FE4FC491CC2379F081110E94EE01EC2F00
:1008C000F0E0EE0FFF1FEE59FE4FA591B491EC91B1
:1008D000ED2381E009F480E08170DF91CF910895EC
:1008E000CF92DF92EF92FF920F931F93CF93DF93FC
:1008F000FC01C48121E020933C02C09301021092CC
:10090000600210925F028485682B85ED92E00E9460
:10091000BF01D0915F02D13208F092C00E94D5028F
:100920006B017C018091AF02811165C082E08093F0
:10093000AF0281E08093B1028FEF8093AE021092FC
:10094000D302D093D202ACE1B2E0E2EBF2E080E07D
:10095000D81385C01092D4028091D402CC0FC82B3A
:10096000C093D4028091B002813009F07CC0109213
:10097000B0020E94D5026B017C018091D402809369
:10098000BB008091620290916302A0916402B091D9
:100990006502892B8A2B8B2B99F00E94D50200913E
:1009A00062021091630220916402309165026C1919
:1009B0007D098E099F090617170728073907E0F1F7
:1009C0008091BC0083FDD9CF85EC8093BC000E9450
:1009D000D5026B017C018091AF02823009F445C0E1
:1009E0008091AE028F3F61F18091AE02803241F181
:1009F0008091AE0225C08091620290916302A09125
:100A00006402B0916502892B8A2B8B2B09F48ACF63
:100A10000E94D5020091620210916302209164024B
:100A2000309165026C197D098E099F090617170719
:100A30002807390708F076CF809161020E9463028F
:100A40001092600210925F0210923C02DF91CF91EF
:100A50001F910F91FF90EF90DF90CF9008959D919F
:100A600091938F5F75CF85EEB0CF809162029091A8
:100A70006302A0916402B0916502892B8A2B8B2BB3
:100A800009F4A9CF0E94D50200916202109163027D
:100A900020916402309165026C197D098E099F09CD
:100AA000061717072807390708F095CFC5CF08950F
:100AB00090E080E008954F925F926F927F928F92C4
:100AC0009F92AF92BF92CF92DF92EF92FF920F93DD
:100AD0001F93CF93DF937C0182E090E090930E020E
:100AE00080930D0210E000E0DD24D39482E0C82E54
:100AF000C091A603D091A703C00FD11F88858B7F1B
:100B00008887E881F9810190F081E02DCE01099577
:100B1000B82E888586958170B81671F10E942C03D5
:100B20006A837B838C839D8388858C258887E0916D
:100B3000A603F091A703E00FF11F808580FD54C04C
:100B400082FB882780F9F70181937F010E5E1F4F9A
:100B50000633110569F6DF91CF911F910F91FF9038
:100B6000EF90DF90CF90BF90AF909F908F907F904D
:100B70006F905F904F9008950E942C034A805B8095
:100B80006C807D80AB01BC01441955096609770969
:100B90008E819F81B0E0A0E0481759076A077B0764
:100BA00030F288858170B81611F20E942C036A8396
:100BB0007B838C839D8388858D25846088870E94B4
:100BC0002C0389849A84AB84BC84681979098A09C6
:100BD0009B096D877E878F87988B0E942C0369877E
:100BE0007A878B879C87A3CF80E0ADCF0F931F932D
:100BF000CF938C01C62F0E9470046C2F6460C801D3
:100C00000E9470046C2F6B7FC8010E94700483ECFB
:100C100090E00197F1F7CF911F910F9108950F93F5
:100C20001F93CF93DF938C01D62FC42F607F642B4B
:100C30000E94F60580E1D89FB00111246C2BC801F9
:100C4000DF91CF911F910F910C94F60540E062E087
:100C500088EA93E00E940F068BE39FE10197F1F78A
:100C60000895CF93DF93CDB7DEB728970FB6F894EA
:100C7000DEBF0FBECDBF98E0E6E0F1E0DE011196E9
:100C800001900D929A95E1F79091B003981708F4AE
:100C90008FEF90E0880F991F21E030E02C0F3D1F6F
:100CA000820F931FFC016081606840E088EA93E056
:100CB00028960FB6F894DEBF0FBECDBFDF91CF915F
:100CC0000C940F0640E061E088EA93E00E940F0672
:100CD0008BE39FE10197F1F78091B103882319F02D
:100CE00080E00C943106089541E00E940F0681E0F7
:100CF00090E00895FB0101900020E9F73197AF01E2
:100D0000461B570BDC01ED91FC910280F381E02D35
:100D100009948F929F92AF92BF920F931F93CF939C
:100D2000DF93CDB7DEB7A1970FB6F894DEBF0FBE45
:100D3000CDBF19A2423008F44AE08E010F5D1F4F6B
:100D4000842E912CB12CA12CA50194010E94961304
:100D5000E62FB901CA01EA3004F5E05DD801EE934F
:100D60008D01232B242B252B79F790E080E0109721
:100D700029F0BD0181EE92E00E947A06A1960FB69D
:100D8000F894DEBF0FBECDBFDF91CF911F910F91C1
:100D9000BF90AF909F908F900895E95CDFCF4F9206
:100DA0005F926F927F928F929F92AF92BF92CF92FB
:100DB000DF92EF92FF920F931F93CF936B017C0111
:100DC000742EAC019B010E94F11469E471E0811161
:100DD00026C046015701E894B7F82FEF3FEF4FE7E1
:100DE0005FE7C501B4010E94F11481110CC02FEF1F
:100DF0003FEF4FE75FE7C501B4010E943B126DE48E
:100E000071E0181664F02FEF3FEF4FE75FE4C70182
:100E1000B6010E94EC141816ACF461E571E081EEA5
:100E200092E0CF911F910F91FF90EF90DF90CF90C4
:100E3000BF90AF909F908F907F906F905F904F90FA
:100E40000C947A062FEF3FEF4FE75FECC701B60136
:100E50000E943B1287FDE1CF20E030E0A901C701ED
:100E6000B6010E943B1210E000E087FF0AC06DE26D
:100E700081EE92E00E94D8038C01F7FAF094F7F823
:100E8000F094C0E060E070E080E09FE37C1641F009
:100E900020E030E040E251E40E944B14CF5FF6CFF7
:100EA000A70196010E94DF132B013C010E94BD1493
:100EB0004B015C014AE00E9489067C01E00EF11EB4
:100EC000CC23C1F1C501B4010E9440129B01AC01C9
:100ED000C301B2010E94DE134B015C016EE281EEA0
:100EE00092E00E94D803E80EF91EC15018F120E0EC
:100EF00030E040E251E4C501B4010E94A1122B018F
:100F00003C010E94BD144B01B12CA12C4AE0C5014B
:100F1000B4010E948906E80EF91EC501B4010E94C1
:100F200040129B01AC01C301B2010E94DE134B01D0
:100F30005C01DBCFC701CF911F910F91FF90EF9024
:100F4000DF90CF90BF90AF909F908F907F906F90E9
:100F50005F904F900895CF92DF92EF92FF92CF93E0
:100F6000DF93EC0180910D0290910E02892BC1F468
:100F700084E090E090930E0280930D0265E571E0AD
:100F800081EE92E00E947A0660E971E081EE92E0E3
:100F9000DF91CF91FF90EF90DF90CF900C947A0685
:100FA00084E090E090930E0280930D020E942C0347
:100FB000C0900F02D0901002E0901102F090120247
:100FC0006C197D098E099F094AE00E94890663E930
:100FD00071E081EE92E00E947A06CC84DD840D2CD3
:100FE000000CEE08FF084AE0C701B601F7FE0DC08D
:100FF0006DE281EE92E00E94D80366277727CB014D
:101000006C197D098E099F094AE00E94890663E9EF
:1010100071E081EE92E00E947A06688179818A818E
:101020009B8142E00E94CF0663E971E081EE92E08D
:101030000E947A066C817D818E819F8142E00E94B0
:10104000CF0663E971E081EE92E00E947A0668853E
:1010500079858A859B8542E00E94CF0695CF85EDF4
:101060008093BC008091620290916302A09164021F
:10107000B09165020796A11DB11D23E0B695A79515
:10108000979587952A95D1F72091BC0024FD03C040
:101090001092AF02089540916202509163026091F4
:1010A000640270916502452B462B472B69F300972C
:1010B000A105B10541F02AE22A95F1F700C0019798
:1010C000A109B109E1CF809161020C9463020E94F1
:1010D000D8160F931F93CF93DF93EC0188819981EA
:1010E000009759F02A813B812617370730F081E0BD
:1010F000DF91CF911F910F9108958B016F5F7F4F0B
:101100000E941B16009759F0998388831B830A83DA
:101110002C813D81232B59F7FC011082E8CF80E020
:10112000E7CFCF93DF93EC0188819981009711F08D
:101130000E949215198218821D821C821B821A82BB
:10114000DF91CF910895EF92FF920F931F93CF936A
:10115000DF93EC01198218821B821A821D821C8285
:101160008617970719F1FB010081118101151105FF
:10117000E9F0E480F580B7010E946908811109C097
:10118000CE01DF91CF911F910F91FF90EF900C94C2
:101190009108FD82EC82B80188819981DF91CF911D
:1011A0001F910F91FF90EF900C94E616DF91CF9175
:1011B0001F910F91FF90EF900895CF92DF92EF92E1
:1011C000FF920F931F93CF93DF93CDB7DEB7629754
:1011D0000FB6F894DEBF0FBECDBF8C01CB01F80176
:1011E0001182108213821282158214824AE09E01BB
:1011F0002F5F3F4F6901B9010E94CF0FF6010190A7
:101200000020E9F731977F01EC18FD08B701C8010C
:101210000E946908811112C0C8010E94910862965B
:101220000FB6F894DEBF0FBECDBFDF91CF911F91F7
:101230000F91FF90EF90DF90CF900895F801F58225
:10124000E482B601808191810E94E616E8CFEF9298
:10125000FF920F931F93CF93DF938C017B01FB01D0
:1012600001900020E9F73197E61BF70BD1F0DC0184
:101270001496CD91DC91CE0FDF1FBE010E9469084C
:101280008823B9F0F8012081318184819581B701EB
:10129000820F931F0E94E616D8011596DC93CE9319
:1012A0001497C801DF91CF911F910F91FF90EF909C
:1012B0000895C8010E949108F4CFFC0180819181BA
:1012C000009711F00C94921508951F920F920FB68B
:1012D0000F9211242F933F934F935F936F937F93BC
:1012E0008F939F93AF93BF93EF93FF938091B90038
:1012F000887F803609F44AC0F0F5883209F4A7C027
:1013000018F5803109F49BC0B8F4882309F4F9C0BA
:10131000883009F494C0FF91EF91BF91AF919F91F4
:101320008F917F916F915F914F913F912F910F908E
:101330000FBE0F901F901895883109F488C0803235
:1013400051F78093AE0214C0803409F49DC040F47C
:101350008033B9F38833F9F68093AE0285ECB0C0E0
:10136000803509F485C0883509F496C0883499F62B
:101370000E942F08D0CF883909F48CC038F58837FF
:1013800029F050F4883611F0803729F683E08093F5
:10139000AF021092AD0257C0883809F47BC0803983
:1013A00019F0803809F0B7CF8091AD02803208F093
:1013B00071C0E091AD0281E08E0F8093AD0280910B
:1013C000BB00F0E0E357FD4F80833DC0803B39F028
:1013D000E0F4803A09F479C0883A09F09CCF84E0BF
:1013E0008093AF0210928A0210928902E0918702E4
:1013F000F091880209958091890281110FC081E0E6
:10140000809389021092670209C0803C09F4A6CF3C
:10141000883C09F4A3CF883B09F07DCFE0918A0294
:1014200081E08E0F80938A02F0E0E959FD4F8081C0
:101430008093BB0090918A028091890229C080919B
:10144000D4028093BB0085EC8093BC0064CF909164
:10145000D3028091D202981758F5E091D30281E02F
:101460008E0F8093D302F0E0EE54FD4F8081E9CFE0
:10147000E091D30281E08E0F8093D3028091BB0074
:10148000F0E0EE54FD4F80839091D3028091D20220
:101490009817C8F285E8D8CFE091D30281E08E0F8B
:1014A0008093D3028091BB00F0E0EE54FD4F808327
:1014B0008091B10281115CCF81E08093B00284EA17
:1014C0008093BC001092AF0226CF85EC8093BC00C5
:1014D0001092AF028091AD02803230F4E091AD0203
:1014E000F0E0E357FD4F10826091AD0270E0E091B3
:1014F0008B02F0918C028DE892E009951092AD027A
:101500000ACF1092AE0234CF1F920F920FB60F92F5
:1015100011242F933F938F939F93AF93BF93809109
:10152000140290911502A0911602B0911702309109
:10153000130223E0230F2D3758F50196A11DB11D8D
:10154000209313028093140290931502A093160225
:10155000B09317028091180290911902A0911A027B
:10156000B0911B020196A11DB11D809318029093AA
:101570001902A0931A02B0931B02BF91AF919F91E1
:101580008F913F912F910F900FBE0F901F90189544
:1015900026E8230F0296A11DB11DD2CF1F920F92F4
:1015A0000FB60F9211242F933F934F935F936F9336
:1015B0007F938F939F93AF93BF93EF93FF9381EEAE
:1015C00092E00E94B603FF91EF91BF91AF919F917E
:1015D0008F917F916F915F914F913F912F910F90DC
:1015E0000FBE0F901F9018951F920F920FB60F927B
:1015F00011242F938F939F93EF93FF93E091F10228
:10160000F091F2028081E091F702F091F80282FD00
:101610001BC090818091FA028F5F8F732091FB0233
:10162000821741F0E091FA02F0E0EF51FD4F958F03
:101630008093FA02FF91EF919F918F912F910F90DC
:101640000FBE0F901F9018958081F4CF1F920F92BC
:101650000FB60F9211242F933F934F935F936F9385
:101660007F938F939F93AF93BF93CF93DF93EF932A
:10167000FF9380910002C091A203D0E087FF24C0B5
:101680001092850010928400809100028F5F8093F9
:10169000000280910002082E000C990B8C179D0708
:1016A00024F4809100028C30C4F1809184009091E8
:1016B0008500049680349C4908F47AC080918400A7
:1016C00090918500049676C080910002082E000C4F
:1016D000990B8C179D07C4F6E09100028E2FEE0F38
:1016E000990BFC01EE0FFF1FE80FF91FE258FC4FAA
:1016F000808186FFC9CFE09100028E2FEE0F990BFB
:10170000FC01EE0FFF1FE80FF91FE258FC4F80812C
:1017100060E08F730E941702B7CF20918400309150
:101720008500E09100028E2FEE0F990BFC01EE0F69
:10173000FF1FE80FF91FE258FC4F81819281820F51
:10174000931F9093890080938800E09100028E2F70
:10175000EE0F990BFC01EE0FFF1FE80FF91FE25887
:10176000FC4F808186FF11C0E09100028E2FEE0FAA
:10177000990BFC01EE0FFF1FE80FF91FE258FC4F19
:10178000808161E08F730E941702FF91EF91DF91DA
:10179000CF91BF91AF919F918F917F916F915F9109
:1017A0004F913F912F910F900FBE0F901F90189562
:1017B00080E49CE990938900809388008FEF809368
:1017C0000002E3CF1092D8021092D70288EE93E085
:1017D000A0E0B0E08093D9029093DA02A093DB02FC
:1017E000B093DC0225E131E03093D6022093D5029C
:1017F0001092E4021092E3028093E5029093E602D5
:10180000A093E702B093E80287E291E09093E202AE
:101810008093E10285EC90E09093EE028093ED02DC
:1018200084EC90E09093F0028093EF0280EC90E0E3
:101830009093F2028093F10281EC90E09093F40295
:101840008093F30282EC90E09093F6028093F5028D
:1018500086EC90E09093F8028093F7021092FA02DF
:101860001092FB021092FC021092FD021092AB0348
:101870001092AA0381E491E09093A9038093A803B6
:101880001092B10387E28093AC0380E18093B203AE
:1018900082E08093B3031092B40386E390E00E9449
:1018A000F614FC019C012A5C3F4F6AE070E049E3BA
:1018B00051E0128213821482158277836683108628
:1018C00051834083118A72962E173F0791F79093A8
:1018D000A7038093A6038091A2038C3098F491E033
:1018E000980F9093A2038093A30390E0FC01EE0F66
:1018F000FF1FE80FF91FE258FC4F88EB9BE0928333
:10190000818308958FEF8093A3030895CF93DF938E
:10191000CDB7DEB72C970FB6F894DEBF0FBECDBFA4
:10192000789484B5826084BD84B5816084BD85B5BA
:10193000826085BD85B5816085BD80916E008160C6
:1019400080936E001092810080918100826080936C
:10195000810080918100816080938100809180006E
:101960008160809380008091B10084608093B10099
:101970008091B00081608093B00080917A00846093
:1019800080937A0080917A00826080937A008091BF
:101990007A00816080937A0080917A0080688093D9
:1019A0007A001092C10010920E0210920D02E09186
:1019B000F102F091F20282E08083E091ED02F09179
:1019C000EE021082E091EF02F091F0028FEC808342
:1019D0001092F902E091F502F091F60286E0808320
:1019E000E091F302F091F402808180618083E091C4
:1019F000F302F091F402808188608083E091F30229
:101A0000F091F402808180688083E091F302F0918C
:101A1000F40280818F7D808365E971E081EE92E040
:101A20000E947A0660E971E081EE92E00E947A06F7
:101A300010925E0210925D021092600210925F029C
:101A40000E94450286E691E0909388028093870287
:101A500087E691E090938C0280938B021092AD0305
:101A60008091B303823018F098E09093AD03809397
:101A7000B00362E370E080E090E00E94FA026091BF
:101A8000B40388EA93E00E94700468EE73E080E09B
:101A900090E00E94FA0260E388EA93E00E94F60573
:101AA0000BE416E4C8010197F1F760E388EA93E0DC
:101AB0000E94F605C8010197F1F760E388EA93E018
:101AC0000E94F60583E592E00197F1F760E288EA6B
:101AD00093E00E94F6056091AD03606240E088EA01
:101AE00093E00E940F0684E08093AE0340E06CE038
:101AF00088EA93E00E940F060E94620682E08093CB
:101B0000AF0340E066E088EA93E00E940F060E947F
:101B1000260688E08093B40360E088EA93E00E94A0
:101B2000700461E08DE00E94840261E083E00E9425
:101B3000840260E08EE00E94840260E08FE00E94F8
:101B4000840262E084E00E94840262E087E00E94F6
:101B5000840262E088E00E9484021EE0A12E11E06F
:101B6000B12ED12CC12C09E1802E912C0091A6031D
:101B70001091A7030C0D1D1DD5017D905D01672DF2
:101B800070E0D801ED91FC910280F381E02D42E0FC
:101B900050E0C8010995F801718A10860190F08122
:101BA000E02D0190F081E02DC8010995882339F0DE
:101BB000D80118968C911897836018968C930E9480
:101BC0002C03F8016283738384839583E091A603D9
:101BD000F091A703EC0DFD1D97828682F2E1CF0EF6
:101BE000D11C86E3C816D10409F682EF91E00E9469
:101BF000AB078091A3038C3008F051C061E083E013
:101C00000E9484028091A303282F30E0F901EE0F97
:101C1000FF1FE20FF31FE258FC4F9081907C93600E
:101C200090831092A4031092A5032CE0622F0E94CF
:101C3000B813829FB001112430E020E0AB01420FC5
:101C4000531FFA01EE0FFF1FE40FF51FE258FC4F80
:101C5000908196FD16C02F5F3F4F2C30310571F7F4
:101C600081110FC01092800082E080938100109259
:101C7000850010928400B19A80916F0082608093F9
:101C80006F00E091A3038E2F90E0FC01EE0FFF1F89
:101C9000E80FF91FE258FC4F80818064808388EE52
:101CA00093E00E94090168EE73E080E090E00E94FA
:101CB000FA020E9462060E94260661E070E0CE01F0
:101CC00007960E94DD08BE01695F7F4FCE01019635
:101CD0000E94A30868EA71E0CE0101960E942709DC
:101CE000DC0114964D915C9115976D917C9188EA79
:101CF00093E00E943803CE0101960E945D09CE0157
:101D000007960E945D0982E092E00E945B05809147
:101D100002028823C1F31AE08FE00E94C002E80E9D
:101D2000F91E1150C9F7C7016AE070E00E94C413A0
:101D30007B0181E090E00E94C41390E080E00E946B
:101D400040124B015C018092050290920602A09223
:101D50000702B09208020E9462060E94260605EB66
:101D600011E026E042E0C501B4010E94B10FB801C4
:101D700088EA93E00E947A0666EC71E088EA93E0D4
:101D80000E947A0681E00E9431066AE070E0CE018E
:101D900007960E94DD08BE01695F7F4FCE01019664
:101DA0000E94A3086EEC71E0CE0101960E94270903
:101DB000FC01448155816081718188EA93E00E9431
:101DC0003803CE0101960E945D09CE0107960E945C
:101DD0005D0982E092E00E945B0580910202882307
:101DE000C1F31AE08EE00E94C002E80EF91E115005
:101DF000C9F72AE030E0C701B9010E94C413C90144
:101E00000E94C41390E080E00E9440126B017C01AC
:101E1000C0920902D0920A02E0920B02F0920C02E8
:101E20000E9462060E94260605EB11E026E042E0D1
:101E3000C701B6010E94B10FB80188EA93E00E9481
:101E40007A066BED71E088EA93E00E947A0681E001
:101E50000E94310663EE71E088EA93E00E947A0600
:101E600082E092E00E945B05809103028823C1F327
:101E70000E9462060E94260683E0E82EF12C90E084
:101E8000C92E90E0D92E0E942C0360930F0270930C
:101E90001002809311029093120282E092E00E945D
:101EA0005B058EE00E94C0025C018FE00E94C002D0
:101EB0008C01B501BB0C880B990B0E94421220913A
:101EC000090230910A0240910B0250910C020E94CB
:101ED000A1124B015C018092F2019092F301A09259
:101EE000F401B092F501B801110F880B990B0E9413
:101EF0004212209105023091060240910702509152
:101F000008020E94A1129B01AC012093F6013093BC
:101F1000F7014093F8015093F901C501B4010E9403
:101F2000A1126093FA017093FB018093FC019093DE
:101F3000FD01F0920E02E0920D028CED95E00E9400
:101F4000090182EF91E00E94AB07C114D10409F4AA
:101F50009ACF0E94A203882309F495CF0E94000023
:101F600092CFEF920F931F93CF93DF93E80134E06A
:101F700047FD34E1042E000C550B57FF03C051956B
:101F800041955109E32E022F242FAE010E94F40F38
:101F9000CE01DF91CF911F910F91EF900895BB2754
:101FA0004A3031F4992322F4BDE2909581959F4FF8
:101FB0000C94DB0FBB27FB015527AA27880F991F1D
:101FC000AA1FA41710F0A41B83955051B9F7A05D68
:101FD000AA3308F0A95DA193009779F7B111B193E5
:101FE0001192CB010C942B12A9E0B0E0EAEFFFE0D4
:101FF0000C9465136A01F22EB02E102FFBE3AF2E66
:10200000A01608F41BE31F5F012F27E0AE014F5F0E
:102010005F4F0E945311BC018981982F99709130B4
:1020200009F43FC09BE2E1FC04C09E2D9170E0FCEE
:102030003AC05E2D5071E82FE87083FF46C084E0FF
:10204000911101C083E0EF2DE81B8F1508F0E0E04F
:10205000D6018E2F20E2552351F1992329F0D60184
:102060009C93C60101966C0196012D5F3F4FE2FEE5
:1020700024C08EE4D6018C9391E411969C93119721
:1020800012968C93D9018E2F90E281111BC0E20F22
:10209000F32FF11D10828EEF9FEF2996ECE00C9448
:1020A00081139DE2C6CF90E2C4CF2D938150811160
:1020B000FCCFCE0ED11CE0E0D0CF8EE6D6018C93C3
:1020C00091E6DBCF9D938150E0CF482F447082FF93
:1020D0003DC084E0911101C083E08F1510F4EF2D15
:1020E000E81BD6018E2F20E2552309F1992329F010
:1020F000D6019C93C60101966C0196012D5F3F4F5E
:10210000E2FE1BC089E4D6018C938EE411968C9379
:10211000119786E412968C93D9018E2F90E2882332
:1021200009F4B5CF9D938150FACF2D938150811141
:10213000FCCFCE0ED11CE0E0D9CF89E6D6018C933E
:102140008EE611968C93119786E6E4CF9B0177FF7C
:1021500002C030E020E0A1E0B0E0911102C0B0E0A8
:10216000A0E0F9013196AE0FBF1F8B2C912CBB2044
:1021700009F461C05401EFEFAE1ABE0AAA0DBB1DEF
:10218000FA161B0619F014F04F2D4A1B511188C086
:10219000E3FC59C07601A42FB0E2A1114FC0C40ED8
:1021A000D11C992309F45BC040E0D6011196F601D9
:1021B00090836D01552309F448C0012F060F9A81C1
:1021C000582F507184FF03C0913309F40150101649
:1021D0000CF047C0093008F008E0EEE2FE2E5B018B
:1021E000A01AB10885019194819491082F3F32077C
:1021F00029F4D601FC92F60131966F01621773073C
:1022000094F1021713077CF5DB01A21BB30BAA2480
:10221000A394B12CAC0EBD1EAA0DBB1D11968C91C2
:1022200021503109D601119628153905F4F0F6012F
:1022300080836D01DBCFB12CA12CA0CFF701B1932E
:102240007F01A150AACF9111B0CFD601942F50E3B6
:1022500002C05D9391509111FCCFC40ED11C40E09F
:10226000ACCF01E0BACF80E3DBCF6217730731F464
:10227000963388F4953311F4552369F0F601808381
:10228000FD01842F90E2811108C0A40FB11D1C92A2
:1022900090E080E002CF81E3F1CF91938150F3CFC2
:1022A000911183CF8ACF283008F027E03327DA0155
:1022B000990F311D87FD916000966105710539F414
:1022C00032602E5F3D9330E32A95E1F708959F3FFA
:1022D00030F080387105610509F03C5F3C5F3D934B
:1022E000913008F08068911DDF93CF931F930F9377
:1022F000FF92EF92192F987F9695E92F96959695D4
:10230000E90FFF27EE53FF4F99273327EE24FF24D1
:10231000A701E70105900894079428F4360FE71EFB
:10232000F81E491F511D660F771F881F991F0694BD
:10233000A1F70590079428F4E70EF81E491F561FD1
:10234000C11D770F881F991F661F0694A1F705907E
:10235000079428F4F80E491F561FC71FD11D880F78
:10236000991F661F771F0694A1F70590079420F424
:10237000490F561FC71FD81F990F661F771F881F49
:102380000694A9F784911095177041F0D695C795DA
:1023900057954795F794E7941A95C1F7E8E6F0E06A
:1023A00068941590159135916591959105907FE20E
:1023B0007395E118F10A430B560BC90BD009C0F70E
:1023C000E10CF11E431F561FC91FD01D7EF4703350
:1023D00011F48A95E6CFE894015030F0080F0AF422
:1023E0000027021708F4202F2395022F7A3328F0B4
:1023F00079E37D932A95E9F710C07D932A9589F6B4
:10240000069497956795379517951794E118F10AF3
:10241000430B560BC90BD00998F023957E91739509
:102420007A3308F070E37C932013B8F77E917061E3
:102430007D9330F0839571E37D9370E32A95E1F706
:102440001124EF90FF900F911F91CF91DF91992769
:1024500087FD90950895DC01FC01672F719177232A
:10246000E1F7329704C07C916D9370836291AE174F
:10247000BF07C8F308950E947D1208F481E0089513
:10248000E89409C097FB3EF490958095709561950E
:102490007F4F8F4F9F4F9923A9F0F92F96E9BB27C4
:1024A0009395F695879577956795B795F111F8CF40
:1024B000FAF4BB0F11F460FF1BC06F5F7F4F8F4FAB
:1024C0009F4F16C0882311F096E911C0772321F0A1
:1024D0009EE8872F762F05C0662371F096E8862F39
:1024E00070E060E02AF09A95660F771F881FDAF790
:1024F000880F9695879597F90895990F0008550FBD
:10250000AA0BE0E8FEEF16161706E807F907C0F079
:1025100012161306E407F50798F0621B730B840B81
:10252000950B39F40A2661F0232B242B252B21F45B
:1025300008950A2609F4A140A6958FEF811D811DFB
:1025400008950E94B4120C9425130E94171338F0BA
:102550000E941E1320F0952311F00C940E130C947E
:10256000141311240C9459130E94361370F3959F81
:10257000C1F3950F50E0551F629FF001729FBB277A
:10258000F00DB11D639FAA27F00DB11DAA1F649F16
:102590006627B00DA11D661F829F2227B00DA11DC9
:1025A000621F739FB00DA11D621F839FA00D611D4F
:1025B000221F749F3327A00D611D231F849F600D70
:1025C000211D822F762F6A2F11249F5750409AF099
:1025D000F1F088234AF0EE0FFF1FBB1F661F771F25
:1025E000881F91505040A9F79E3F510580F00C94F0
:1025F0000E130C9459135F3FE4F3983ED4F3869581
:1026000077956795B795F795E7959F5FC1F7FE2B8F
:10261000880F911D9695879597F9089597F99F676B
:1026200080E870E060E008959FEF80EC089500245A
:102630000A941616170618060906089500240A9427
:1026400012161306140605060895092E0394000CAD
:1026500011F4882352F0BB0F40F4BF2B11F460FF3C
:1026600004C06F5F7F4F8F4F9F4F089557FD905865
:10267000440F551F59F05F3F71F04795880F97FB46
:10268000991F61F09F3F79F0879508951216130600
:102690001406551FF2CF4695F1DF08C0161617062F
:1026A0001806991FF1CF8695710561050894089564
:1026B000E894BB2766277727CB0197F908952F92D7
:1026C0003F924F925F926F927F928F929F92AF92C2
:1026D000BF92CF92DF92EF92FF920F931F93CF930F
:1026E000DF93CDB7DEB7CA1BDB0B0FB6F894DEBFA6
:1026F0000FBECDBF09942A88398848885F846E84CC
:102700007D848C849B84AA84B984C884DF80EE8015
:10271000FD800C811B81AA81B981CE0FD11D0FB61E
:10272000F894DEBF0FBECDBFED010895A1E21A2ED1
:10273000AA1BBB1BFD010DC0AA1FBB1FEE1FFF1F65
:10274000A217B307E407F50720F0A21BB30BE40BB5
:10275000F50B661F771F881F991F1A9469F76095FC
:102760007095809590959B01AC01BD01CF010895B6
:10277000991B79E004C0991F961708F0961B881FD3
:102780007A95C9F780950895AA1BBB1B51E107C034
:10279000AA1FBB1FA617B70710F0A61BB70B881FF1
:1027A000991F5A95A9F780959095BC01CD01089580
:1027B000EE0FFF1F0590F491E02D09945058BB27B0
:1027C000AA270E94F6130C9425130E94171338F0C1
:1027D0000E941E1320F039F49F3F19F426F40C9444
:1027E00014130EF4E095E7FB0C940E13E92F0E94EE
:1027F000361358F3BA17620773078407950720F05A
:1028000079F4A6F50C9458130EF4E0950B2EBA2F1C
:10281000A02D0B01B90190010C01CA01A0011124E6
:10282000FF27591B99F0593F50F4503E68F11A1692
:10283000F040A22F232F342F4427585FF3CF469523
:1028400037952795A795F0405395C9F77EF41F1645
:10285000BA0B620B730B840BBAF09150A1F0FF0F0F
:10286000BB1F661F771F881FC2F70EC0BA0F621FFB
:10287000731F841F48F4879577956795B795F795EB
:102880009E3F08F0B0CF9395880F08F09927EE0F80
:102890009795879508950E945F140C9425130E94C4
:1028A0001E1358F00E94171340F029F45F3F29F0DF
:1028B0000C940E1351110C9459130C9414130E9480
:1028C000361368F39923B1F3552391F3951B550BF8
:1028D000BB27AA2762177307840738F09F5F5F4FF3
:1028E000220F331F441FAA1FA9F335D00E2E3AF032
:1028F000E0E832D091505040E695001CCAF72BD04A
:10290000FE2F29D0660F771F881FBB1F261737079A
:102910004807AB07B0E809F0BB0B802DBF01FF27CC
:1029200093585F4F3AF09E3F510578F00C940E1388
:102930000C9459135F3FE4F3983ED4F38695779552
:102940006795B795F7959F5FC9F7880F911D969585
:10295000879597F90895E1E0660F771F881FBB1FE1
:10296000621773078407BA0720F0621B730B840B8E
:10297000BA0BEE1F88F7E09508950E943E1388F089
:102980009F5798F0B92F9927B751B0F0E1F0660F33
:10299000771F881F991F1AF0BA95C9F714C0B13074
:1029A00091F00E945813B1E008950C945813672FCA
:1029B000782F8827B85F39F0B93FCCF386957795A3
:1029C0006795B395D9F73EF490958095709561958C
:1029D0007F4F8F4F9F4F08950E947D1208F48FEF15
:1029E00008950E947D12880B990B08950F931F93F1
:1029F000CF93DF938230910510F482E090E0E09174
:102A0000B703F091B80330E020E0B0E0A0E03097E9
:102A100099F42115310509F44AC0281B390B2430DB
:102A20003105D8F58A819B816115710589F1FB011A
:102A300093838283FE0111C0408151810281138101
:102A400048175907E0F04817590799F4109761F0B3
:102A500012960C93129713961C933296CF01DF9126
:102A6000CF911F910F9108950093B7031093B8036E
:102A7000F4CF2115310551F04217530738F0A90161
:102A8000DB019A01BD01DF01F801C1CFEF01F9CFF0
:102A90009093B8038093B703CDCFFE01E20FF31FED
:102AA000819391932250310939832883D7CF209184
:102AB000B5033091B603232B41F4209102013091EC
:102AC00003013093B6032093B503209100013091A8
:102AD00001012115310541F42DB73EB740910401A4
:102AE00050910501241B350BE091B503F091B6031D
:102AF000E217F307A0F42E1B3F0B2817390778F0D5
:102B0000AC014E5F5F4F2417350748F04E0F5F1F33
:102B10005093B6034093B503819391939FCFF0E018
:102B2000E0E09CCFCF93DF930097E9F0FC01329770
:102B300013821282A091B703B091B803ED0130E087
:102B400020E01097A1F420813181820F931F209102
:102B5000B5033091B6032817390709F061C0F09327
:102B6000B603E093B503DF91CF910895EA01CE1744
:102B7000DF07E8F54A815B819E0141155105B1F7F8
:102B8000E901FB83EA8349915991C40FD51FEC17E2
:102B9000FD0761F4808191810296840F951FE90100
:102BA00099838883828193819B838A83F0E0E0E02C
:102BB00012968D919C9113970097B9F52D913C91A8
:102BC0001197CD010296820F931F2091B50330918A
:102BD000B6032817390739F6309751F51092B80324
:102BE0001092B703B093B603A093B503BCCFD383C1
:102BF000C28340815181840F951FC817D90761F4A2
:102C00004E5F5F4F88819981480F591F51834083E0
:102C10008A819B81938382832115310509F0B0CF8E
:102C2000F093B803E093B7039ECFFD01DC01C0CF62
:102C300013821282D7CFB0E0A0E0E1E2F6E10C947B
:102C400061138C01009751F4CB010E94F6148C01A2
:102C5000C801CDB7DEB7E0E10C947D13FC01E60FAF
:102C6000F71F9C0122503109E217F30708F49DC0B9
:102C7000D901CD91DC911197C617D70798F0C530CF
:102C8000D10530F3CE0104978617970708F3C61BCA
:102C9000D70B2297C193D1936D937C93CF010E9460
:102CA0009215D6CF5B01AC1ABD0A4C018C0E9D1E4D
:102CB000A091B703B091B803512C412CF12CE12C19
:102CC000109731F58091B5039091B6038815990559
:102CD00009F05CC04616570608F058C08091000104
:102CE00090910101009741F48DB79EB74091040186
:102CF00050910501841B950BE817F90708F055C0A2
:102D0000F093B603E093B503F90171836083A0CF1C
:102D10008D919C91119712966C90129713967C90BE
:102D20001397A815B90559F56C0142E0C40ED11CE2
:102D3000CA14DB0420F1AC014A195B09DA011296CE
:102D4000159780F06282738251834083D9016D931D
:102D50007C93E114F10471F0D7011396FC93EE9388
:102D6000129776CF22968C0F9D1FF9019183808355
:102D7000F301EFCFF093B803E093B70369CF4816A0
:102D8000590608F42C017D01D3019ACFCB010E9492
:102D9000F6147C01009749F0AE01B8010E94DD16DF
:102DA000C8010E949215870153CF10E000E050CF78
:102DB00081E090E0F8940C94ED16FB01DC0102C078
:102DC00001900D9241505040D8F70895FB01DC016D
:0E2DD00001900D920020E1F70895F894FFCFD6
:102DDE000000B903800000004000140054000407F6
:102DEE000800000000BF019201580568018B0178B0
:102DFE0001690100000000D803380365032504961D
:102E0E000374038803000000004904450400000019
:102E1E000074063803580557056E616E00696E66BC
:102E2E00006F76660074696D6520286D73292C20FD
:102E3E00666F72636520284E292C20766F6C746144
:102E4E006765202856292C2063757272656E742072
:102E5E00286D41292C20706F776572202857290024
:102E6E000D0A002C0050726F6772616D20737461D1
:102E7E007274696E672E2E00412061616E736C75DF
:102E8E006974656E00202020202020202020202024
:102E9E0020202020200020412F53746570005620E2
:102EAE0061616E736C756974656E0020562F537474
:102EBE006570004472756B206F702047726F656E7F
:022ECE00000002
:00000001FF
