:100000000C94DF000C9407010C9407010C94070179
:100010000C9407010C9407010C9407010C94070140
:100020000C9407010C9407010C9407010C94A90B84
:100030000C9407010C9407010C9407010C94070120
:100040000C94070B0C9407010C94770B0C94510B38
:100050000C9407010C9407010C9407010C94070100
:100060000C94E8090C94070100407A10F35A00A0A0
:10007000724E18090010A5D4E80000E87648170071
:1000800000E40B54020000CA9A3B000000E1F505B1
:10009000000080969800000040420F000000A086FB
:1000A00001000000102700000000E803000000002D
:1000B0006400000000000A000000000001000000D1
:1000C00000002C76D888DC674F0823DFC1DFAE59EB
:1000D000E1B1B796E5E3E453C63AE651997696E87E
:1000E000E6C28426EB898C9B62ED407C6FFCEFBC02
:1000F0009C9F40F2BAA56FA5F490055A2AF75C932D
:100100006B6CF9676DC11BFCE0E40D47FEF520E662
:10011000B500D0ED902E0300943577050080841E45
:10012000080000204E0A000000C80C333333330FA0
:10013000986E12831141EF8D2114893BE65516CF3D
:10014000FEE6DB18D1844B381BF77C1D901DA4BB49
:10015000E424203284725E228100C9F124ECA1E5FE
:100160003D270000000023002600290000000000B9
:10017000240027002A0000000000250028002B0092
:10018000040404040404040402020202020203033D
:100190000303030301020408102040800102040845
:1001A00010200102040810200000000800020100D5
:1001B000000304070000000000000000650C11248B
:1001C0001FBECFEFD8E0DEBFCDBF12E0A0E0B1E0B0
:1001D000EEE0F1E302C005900D92A03CB107D9F723
:1001E00024E0A0ECB2E001C01D92A238B207E1F712
:1001F00010E0CFEDD0E004C02197FE010E94701501
:10020000CE3DD107C9F70E94090D0C9485180C94B6
:100210000000E0916C04EC3088F540916D0428E812
:1002200030E0241B310947FD3395220F331F220F85
:10023000331F8217930784F040916E0428E532E063
:10024000241B310947FD3395220F331F220F331F23
:10025000821793070CF49C0122503109220F331F9F
:100260004FB7F8948E2F90E0FC01EE0FFF1FE80FC0
:10027000F91FE95BFB4F328321834FBF0895209123
:100280005203260F3327331F21323105ECF420911E
:100290007803FC0190E080E0243069F082E008956A
:1002A000A09152032191AC01405D5C4FA40FB52F8A
:1002B000B11D2C930196861798F380915203680F15
:1002C0006093520380E0089581E0089508950895B1
:1002D0000895E091270380912603E81730F4F0E0B9
:1002E000EA5FFC4F808190E008958FEF9FEF0895C3
:1002F00090912703809126032FEF3FEF981748F442
:10030000E92FF0E0EA5FFC4F208130E09F5F90939F
:100310002703C90108958091260390912703891B23
:10032000990B0895CF92DF92EF92FF920F931F9354
:10033000CF93DF937C01CB018A0120910503222317
:1003400089F0EB016B01C40ED51ECC15DD0569F0FB
:100350006991D701ED91FC910190F081E02DC701E9
:100360000995F3CF642F0E943F01C801DF91CF911F
:100370001F910F91FF90EF90DF90CF900895CF9352
:10038000DF931F92CDB7DEB7698320910503222347
:10039000F9F020912803203258F021E030E0FC01F0
:1003A0003383228390E080E00F90DF91CF91089516
:1003B00080912903E82FF0E0EB51FD4F9981908364
:1003C0008F5F809329038093280381E090E0ECCF36
:1003D00061E0CE0101960E943F01F7CF833081F0AA
:1003E00028F4813099F08230A9F008958730A9F07F
:1003F0008830C9F08430B1F4809180008F7D03C0D3
:10040000809180008F7780938000089584B58F77E6
:1004100084BD089584B58F7DFBCF8091B0008F7728
:100420008093B00008958091B0008F7DF9CF1F9325
:10043000CF93DF93282F30E0F901E855FE4F8491E8
:10044000F901EC56FE4FD491F901E058FE4FC491EA
:10045000CC23A9F0162F81110E94EE01EC2FF0E0C1
:10046000EE0FFF1FEA58FE4FA591B4918FB7F89495
:10047000EC91111108C0D095DE23DC938FBFDF9182
:10048000CF911F910895DE2BF8CF1092780381E071
:1004900080937A031092790361E082E10E9417024F
:1004A00061E083E10E941702E9EBF0E080818E7F3A
:1004B000808380818D7F808388E48093B80085E489
:1004C0008093BC000895CF93DF9391E090932F0326
:1004D0008823B9F0C091B800D091BA008091BC00D7
:1004E0008A7B8093BC0060E082E10E94170260E09A
:1004F00083E10E9417020E944502D093BA00C09384
:10050000B800DF91CF910895CF93DF9390E0FC0185
:10051000EC56FE4F249180589E4FFC018491882315
:10052000C9F090E0880F991FFC01E459FE4FA59196
:10053000B491FC01EA58FE4FC591D49161110DC0F0
:100540009FB7F8948C91209582238C9388812823DF
:1005500028839FBFDF91CF910895623051F49FB7F8
:10056000F8943C91822F809583238C93E8812E2BE5
:10057000EFCF8FB7F894EC912E2B2C938FBFEACF4F
:100580008E3008F08E508770806480937C0080915C
:100590007A00806480937A0080917A0086FDFCCF97
:1005A000809178009091790008953FB7F8948091F8
:1005B000E1029091E202A091E302B091E40226B53B
:1005C000A89B05C02F3F19F00196A11DB11D3FBF8B
:1005D000BA2FA92F982F8827BC01CD01620F711D5A
:1005E000811D911D42E0660F771F881F991F4A9554
:1005F000D1F708958F929F92AF92BF92CF92DF92E0
:10060000EF92FF924B015C010E94D5026B017C01CD
:100610000E94D5026C197D098E099F09683E7340BE
:1006200081059105A8F321E0821A9108A108B1087B
:1006300088EEC80E83E0D81EE11CF11C81149104E1
:10064000A104B10429F7FF90EF90DF90CF90BF9005
:10065000AF909F908F9008952FB7F8946091DD022E
:100660007091DE028091DF029091E0022FBF089529
:100670008AEC98E00E9409018091D5028F5F8093F7
:10068000D5020895AF92BF92CF92DF92EF92FF9280
:100690000F931F93CF93DF936C017B018B01040FAA
:1006A000151FEB015E01AE18BF08C017D10759F046
:1006B0006991D601ED91FC910190F081E02DC60188
:1006C0000995892B79F7C501DF91CF911F910F9182
:1006D000FF90EF90DF90CF90BF90AF900895FC0116
:1006E000538D448D252F30E0842F90E0821B930B97
:1006F000541710F0CF96089501970895FC01918D3D
:10070000828D981761F0A28DAE0FBF2FB11D5D963F
:100710008C91928D9F5F9F73928F90E008958FEFE1
:100720009FEF0895FC01918D828D981731F0828D95
:10073000E80FF11D858D90E008958FEF9FEF0895EC
:10074000FC01918D228D892F90E0805C9F4F821B50
:1007500091098F73992708958AEA93E00E94A00374
:1007600021E0892B09F420E0822F089580E090E0B9
:10077000892B29F00E94AC0381110C94000008958C
:10078000FC01A48DA80FB92FB11DA35ABF4F2C9106
:10079000848D90E001968F739927848FA689B789FD
:1007A0002C93A089B1898C91837080648C93938DF4
:1007B000848D981306C00288F389E02D80818F7D97
:1007C00080830895EF92FF920F931F93CF93DF934F
:1007D000EC0181E0888F9B8D8C8D98131AC0E8897D
:1007E000F989808185FF15C09FB7F894EE89FF894C
:1007F0006083E889F98980818370806480839FBFEA
:1008000081E090E0DF91CF911F910F91FF90EF90E9
:100810000895F62E0B8D10E00F5F1F4F0F731127F9
:10082000E02E8C8D8E110CC00FB607FCFACFE88934
:10083000F989808185FFF5CFCE010E94C003F1CFF9
:10084000EB8DEC0FFD2FF11DE35AFF4FF0829FB7A8
:10085000F8940B8FEA89FB8980818062CFCFCF9398
:10086000DF93EC01888D8823B9F0AA89BB89E889D8
:10087000F9898C9185FD03C0808186FD0DC00FB67E
:1008800007FCF7CF8C9185FFF2CF808185FFEDCFFC
:10089000CE010E94C003E9CFDF91CF910895862F4A
:1008A000642F0C948402CF93DF93FC01218930E004
:1008B000F901E855FE4F8491F901EC56FE4FD491B1
:1008C000F901E058FE4FC491CC2379F081110E94C8
:1008D000EE01EC2FF0E0EE0FFF1FEE59FE4FA59159
:1008E000B491EC91ED2381E009F480E08170DF9117
:1008F000CF910895CF92DF92EF92FF920F931F93C3
:10090000CF93DF93FC01C48121E020930503C093C2
:10091000D10210922903109228038485682B8EE956
:1009200093E00E94BF01D0912803D13208F092C019
:100930000E94D5026B017C0180917803811165C012
:1009400082E08093780381E080937A038FEF809335
:10095000770310929C03D0939B03A5EEB2E0EBE7E4
:10096000F3E080E0D81385C010929D0380919D0331
:10097000CC0FC82BC0939D0380917903813009F07F
:100980007CC0109279030E94D5026B017C0180919A
:100990009D038093BB0080912B0390912C03A09129
:1009A0002D03B0912E03892B8A2B8B2B99F00E945B
:1009B000D50200912B0310912C0320912D0330912F
:1009C0002E036C197D098E099F0906171707280742
:1009D0003907E0F18091BC0083FDD9CF85EC80938D
:1009E000BC000E94D5026B017C01809178038230AB
:1009F00009F445C0809177038F3F61F180917703BF
:100A0000803241F18091770325C080912B03909132
:100A10002C03A0912D03B0912E03892B8A2B8B2BB5
:100A200009F48ACF0E94D50200912B0310912C0368
:100A300020912D0330912E036C197D098E099F0999
:100A4000061717072807390708F076CF80912A0381
:100A50000E9463021092290310922803109205034A
:100A6000DF91CF911F910F91FF90EF90DF90CF908A
:100A700008959D9191938F5F75CF85EEB0CF809152
:100A80002B0390912C03A0912D03B0912E03892B61
:100A90008A2B8B2B09F4A9CF0E94D50200912B033E
:100AA00010912C0320912D0330912E036C197D0998
:100AB0008E099F09061717072807390708F095CFF1
:100AC000C5CF089590E080E00895FB0101900020DB
:100AD000E9F73197AF01461B570BDC01ED91FC9113
:100AE0000280F381E02D0994CF93DF93FC014481D0
:100AF0005581608171818AEA93E00E944203EC0192
:100B00006BE471E08AEA93E00E9465058C0F9D1FFB
:100B1000DF91CF9108958F929F92AF92BF920F93E2
:100B20001F93CF93DF93CDB7DEB7A1970FB6F8949D
:100B3000DEBF0FBECDBF19A2423008F44AE08E01DD
:100B40000F5D1F4F842E912CB12CA12CA501940177
:100B50000E942E15E62FB901CA01EA3004F5E05DC6
:100B6000D801EE938D01232B242B252B79F790E0D0
:100B700080E0109729F0BD018AEA93E00E946505A4
:100B8000A1960FB6F894DEBF0FBECDBFDF91CF9117
:100B90001F910F91BF90AF909F908F900895E95C47
:100BA000DFCFCF93DF93D0E0C0E0009731F0BC01FE
:100BB0008AEA93E00E946505EC016BE471E08AEA41
:100BC00093E00E9465058C0F9D1FDF91CF910895E2
:100BD00082309105F9F03CF4009769F00197B9F083
:100BE0008EE991E00AC083309105B9F00497C1F70E
:100BF0008EE891E002C08EE491E090930101809331
:100C0000000180910001909101010C94D1058EE5C5
:100C100091E0F3CF8EE691E0F0CF8EE791E0EDCF5B
:100C20004F925F926F927F928F929F92AF92BF92FC
:100C3000CF92DF92EF92FF920F931F93CF936B01AE
:100C40007C01742EAC019B010E9489166EEA71E052
:100C5000811126C046015701E894B7F82FEF3FEF06
:100C60004FE75FE7C501B4010E94891681110CC0EE
:100C70002FEF3FEF4FE75FE7C501B4010E94D313A9
:100C800062EB71E0181664F02FEF3FEF4FE75FE47F
:100C9000C701B6010E9484161816ACF466EB71E029
:100CA0008AEA93E0CF911F910F91FF90EF90DF9030
:100CB000CF90BF90AF909F908F907F906F905F90FC
:100CC0004F900C9465052FEF3FEF4FE75FECC701A6
:100CD000B6010E94D31387FDE1CF20E030E0A901E7
:100CE000C701B6010E94D31310E000E087FF0AC0DD
:100CF0006DE28AEA93E00E94E2038C01F7FAF09435
:100D0000F7F8F094C0E060E070E080E09FE37C16CC
:100D100041F020E030E040E251E40E94E315CF5F73
:100D2000F6CFA70196010E9477152B013C010E9486
:100D300055164B015C014AE00E948B057C01E00ED8
:100D4000F11ECC23C1F1C501B4010E94D8139B014F
:100D5000AC01C301B2010E9476154B015C016EE249
:100D60008AEA93E00E94E203E80EF91EC15018F1EE
:100D700020E030E040E251E4C501B4010E943914A2
:100D80002B013C010E9455164B01B12CA12C4AE0CD
:100D9000C501B4010E948B05E80EF91EC501B4011E
:100DA0000E94D8139B01AC01C301B2010E947615C9
:100DB0004B015C01DBCFC701CF911F910F91FF90D9
:100DC000EF90DF90CF90BF90AF909F908F907F90EB
:100DD0006F905F904F9008950F931F93CF938C0166
:100DE000C62F0E947A046C2F6460C8010E947A04A6
:100DF0006C2F6B7FC8010E947A0483EC90E001970E
:100E0000F1F7CF911F910F9108950F931F93CF93F7
:100E1000DF938C01D62FC42F607F642B0E94EC06D9
:100E200080E1D89FB00111246C2BC801DF91CF91D4
:100E30001F910F910C94EC0640E062E08FE694E085
:100E40000E9405078BE39FE10197F1F70895CF9387
:100E5000DF93CDB7DEB728970FB6F894DEBF0FBE8D
:100E6000CDBF98E0E8E0F1E0DE01119601900D922F
:100E70009A95E1F790917704981708F48FEF90E036
:100E8000880F991F21E030E02C0F3D1F820F931F28
:100E9000FC016081606840E08FE694E028960FB620
:100EA000F894DEBF0FBECDBFDF91CF910C94050744
:100EB00040E061E08FE694E00E9405078BE39FE14C
:100EC0000197F1F780917804882319F080E00C9461
:100ED0002707089541E00E94050781E090E008950A
:100EE00085ED8093BC0080912B0390912C03A09101
:100EF0002D03B0912E030796A11DB11D23E0B695D9
:100F0000A795979587952A95D1F72091BC0024FD48
:100F100003C010927803089540912B0350912C0345
:100F200060912D0370912E03452B462B472B69F3BF
:100F30000097A105B10541F02AE22A95F1F700C01A
:100F40000197A109B109E1CF80912A030C946302B2
:100F50000E9470180F931F93CF93DF93EC01888149
:100F60009981009759F02A813B812617370730F085
:100F700081E0DF91CF911F910F9108958B016F5FF9
:100F80007F4F0E94B317009759F0998388831B8382
:100F90000A832C813D81232B59F7FC011082E8CF75
:100FA00080E0E7CFCF93DF93EC01888199810097B0
:100FB00011F00E942A17198218821D821C821B823E
:100FC0001A82DF91CF910895CF92DF92EF92FF9234
:100FD0000F931F93CF93DF93CDB7DEB728970FB64C
:100FE000F894DEBF0FBECDBF7C01CB014AE09E016D
:100FF0002F5F3F4F6901B9010E946711F60101900F
:101000000020E9F73197EC19FD09D9F0D7011496C2
:101010000D911C910E0F1F1FB801C7010E94AA0756
:101020008823F9F0F7012081318184819581B6010F
:10103000820F931F0E947E18D70115961C930E9362
:101040001497C70128960FB6F894DEBF0FBECDBF28
:10105000DF91CF911F910F91FF90EF90DF90CF9094
:101060000895C7010E94D207ECCFEF92FF920F9331
:101070001F93CF93DF938C017B01FB010190002034
:10108000E9F73197E61BF70BD1F0DC011496CD910F
:10109000DC91CE0FDF1FBE010E94AA078823B9F0A2
:1010A000F8012081318184819581B701820F931FDE
:1010B0000E947E18D8011596DC93CE931497C80130
:1010C000DF91CF911F910F91FF90EF900895C8018C
:1010D0000E94D207F4CFEF92FF920F931F93CF930A
:1010E000DF93EC017B018A01BA010E94AA078111FA
:1010F0000BC0CE010E94D207CE01DF91CF911F918C
:101100000F91FF90EF9008951D830C83B7018881A4
:1011100099810E947E18F0CFEF92FF920F931F9358
:10112000CF93DF93CDB7DEB762970FB6F894DEBFEB
:101130000FBECDBF8C01CB01F8011182108213824A
:101140001282158214824AE09E012F5F3F4F79017F
:10115000B9010E946711F70101900020E9F731976A
:10116000AF014E195F09B701C8010E946B08629672
:101170000FB6F894DEBF0FBECDBFDF91CF911F91A8
:101180000F91FF90EF900895FB01DC0111961C92E6
:101190001E9213961C921E92129715961C921E92E6
:1011A00014978617970749F0608171816115710561
:1011B00021F0448155810C946B080895FC01118243
:1011C00010821382128215821482FB01019000208A
:1011D000E9F73197AF01461B570B0C946B08FC01E4
:1011E00080819181009711F00C942A1708952F9215
:1011F0003F924F925F926F927F928F929F92AF92A7
:10120000BF92CF92DF92EF92FF920F931F93CF93F3
:10121000DF93CDB7DEB72D970FB6F894DEBF0FBEC4
:10122000CDBF5C016C01F12CE12C7724739482E03A
:10123000682E46018A189B0800917C0410917D0459
:101240000E0D1F1DD80118968C9118978B7F18963C
:101250008C931897ED91FC910190F081E02DC801DD
:1012600009958D87F8018085869581702D842816D3
:1012700009F468C00E942C03D80112966D937D93E7
:101280008D939C93159718968C9118978625189690
:101290008C93E0917C04F0917D04EE0DFF1D608540
:1012A00062FB112710F960FD10E0D6011D936D015E
:1012B000808580FD26C082FF24C06AEB71E0CE01EC
:1012C00001960E94DE08BE016F5F7F4FCE01079638
:1012D0000E94C408B401CE0107960E94E40763ECA3
:1012E00071E00E943508612F70E00E94E4070E94BF
:1012F0007405CE0107960E94EF08CE0101960E9468
:10130000EF08B2E1EB0EF11CE6E3EE16F10409F092
:1013100090CF2D960FB6F894DEBF0FBECDBFDF91F4
:10132000CF911F910F91FF90EF90DF90CF90BF90E2
:10133000AF909F908F907F906F905F904F903F9075
:101340002F9008950E942C03F8012281338144815B
:1013500055811B012C01221A330A440A550AB20195
:10136000A10186819781B0E0A0E0481759076A077C
:101370007B0708F48ECF808581703D84381609F490
:1013800088CF0E942C03D80112966D937D938D9384
:101390009C93159718968C911897872584601896BA
:1013A0008C930E942C03F801218532854385548556
:1013B000621B730B840B950B658776878787908BF1
:1013C0000E942C03F801618772878387948761CF1D
:1013D0001F920F920FB60F9211242F933F934F93AA
:1013E0005F936F937F938F939F93AF93BF93EF938D
:1013F000FF938091B900887F803609F44AC0F0F5E8
:10140000883209F4A7C018F5803109F49BC0B8F4FC
:10141000882309F4F9C0883009F494C0FF91EF9152
:10142000BF91AF919F918F917F916F915F914F91FC
:101430003F912F910F900FBE0F901F9018958831FC
:1014400009F488C0803251F78093770314C0803448
:1014500009F49DC040F48033B9F38833F9F68093E2
:10146000770385ECB0C0803509F485C0883509F470
:1014700096C0883499F60E947007D0CF883909F455
:101480008CC038F5883729F050F4883611F0803751
:1014900029F683E0809378031092760357C088384A
:1014A00009F47BC0803919F0803809F0B7CF8091FA
:1014B0007603803208F071C0E091760381E08E0FF0
:1014C000809376038091BB00F0E0EA5AFC4F808362
:1014D0003DC0803B39F0E0F4803A09F479C0883AA5
:1014E00009F09CCF84E0809378031092530310920C
:1014F0005203E0915003F0915103099580915203FA
:1015000081110FC081E0809352031092300309C013
:10151000803C09F4A6CF883C09F4A3CF883B09F0AE
:101520007DCFE091530381E08E0F80935303F0E071
:10153000E05DFC4F80818093BB00909153038091CC
:10154000520329C080919D038093BB0085EC80935A
:10155000BC0064CF90919C0380919B03981758F531
:10156000E0919C0381E08E0F80939C03F0E0E558AE
:10157000FC4F8081E9CFE0919C0381E08E0F809346
:101580009C038091BB00F0E0E558FC4F8083909174
:101590009C0380919B039817C8F285E8D8CFE0910F
:1015A0009C0381E08E0F80939C038091BB00F0E050
:1015B000E558FC4F808380917A0381115CCF81E0F4
:1015C0008093790384EA8093BC001092780326CF3D
:1015D00085EC8093BC001092780380917603803272
:1015E00030F4E0917603F0E0EA5AFC4F108260910B
:1015F000760370E0E0915403F091550386E593E0A3
:101600000995109276030ACF1092770334CF1F9278
:101610000F920FB60F9211242F933F938F939F93A6
:10162000AF93BF938091DD029091DE02A091DF0223
:10163000B091E0023091DC0223E0230F2D3758F502
:101640000196A11DB11D2093DC028093DD029093D1
:10165000DE02A093DF02B093E0028091E10290915C
:10166000E202A091E302B091E4020196A11DB11D36
:101670008093E1029093E202A093E302B093E4022C
:10168000BF91AF919F918F913F912F910F900FBE7E
:101690000F901F90189526E8230F0296A11DB11DEB
:1016A000D2CF1F920F920FB60F9211242F933F9318
:1016B0004F935F936F937F938F939F93AF93BF935A
:1016C000EF93FF938AEA93E00E94C003FF91EF91AA
:1016D000BF91AF919F918F917F916F915F914F914A
:1016E0003F912F910F900FBE0F901F9018951F9252
:1016F0000F920FB60F9211242F938F939F93EF9316
:10170000FF93E091BA03F091BB038081E091C003A5
:10171000F091C10382FD1BC090818091C3038F5F54
:101720008F732091C403821741F0E091C303F0E06E
:10173000E655FC4F958F8093C303FF91EF919F91E6
:101740008F912F910F900FBE0F901F901895808151
:10175000F4CF1F920F920FB60F9211242F933F9345
:101760004F935F936F937F938F939F93AF93BF93A9
:10177000CF93DF93EF93FF938091D002C0916B04DE
:10178000D0E087FF24C010928500109284008091E1
:10179000D0028F5F8093D0028091D002082E000C7F
:1017A000990B8C179D0724F48091D0028C30C4F1E2
:1017B0008091840090918500049680349C4908F4BF
:1017C0007AC08091840090918500049676C08091C3
:1017D000D002082E000C990B8C179D07C4F6E091DF
:1017E000D0028E2FEE0F990BFC01EE0FFF1FE80FBA
:1017F000F91FE95BFB4F808186FFC9CFE091D002E2
:101800008E2FEE0F990BFC01EE0FFF1FE80FF91F53
:10181000E95BFB4F808160E08F730E941702B7CFB6
:101820002091840030918500E091D0028E2FEE0F40
:10183000990BFC01EE0FFF1FE80FF91FE95BFB4F4F
:1018400081819281820F931F9093890080938800F9
:10185000E091D0028E2FEE0F990BFC01EE0FFF1FCF
:10186000E80FF91FE95BFB4F808186FF11C0E09113
:10187000D0028E2FEE0F990BFC01EE0FFF1FE80F29
:10188000F91FE95BFB4F808161E08F730E941702B3
:10189000FF91EF91DF91CF91BF91AF919F918F9188
:1018A0007F916F915F914F913F912F910F900FBE5C
:1018B0000F901F90189580E49CE990938900809385
:1018C00088008FEF8093D002E3CF1092A103109293
:1018D000A00388EE93E0A0E0B0E08093A203909391
:1018E000A303A093A403B093A50327E131E03093B1
:1018F0009F0320939E031092AD031092AC0380933C
:10190000AE039093AF03A093B003B093B10389E209
:1019100091E09093AB038093AA0385EC90E09093C1
:10192000B7038093B60384EC90E09093B90380935F
:10193000B80380EC90E09093BB038093BA0381ECF2
:1019400090E09093BD038093BC0382EC90E0909371
:10195000BF038093BE0386EC90E09093C103809315
:10196000C0031092C3031092C4031092C5031092D7
:10197000C60386E390E00E948E16FC019C012A5C5F
:101980003F4F6AE070E047E451E012821382148214
:10199000158277836683108651834083118A7296FD
:1019A000E217F30791F790937D0480937C041092E3
:1019B0007204109271048BE391E090937004809311
:1019C0006F041092780487E28093730480E180931F
:1019D000790482E080937A0410927B0480916B04F6
:1019E0008C3098F491E0980F90936B0480936C0482
:1019F00090E0FC01EE0FFF1FE80FF91FE95BFB4FC2
:101A000088EB9BE09283818308958FEF80936C0431
:101A10000895CF93DF93CDB7DEB764970FB6F894F0
:101A2000DEBF0FBECDBF789484B5826084BD84B51F
:101A3000816084BD85B5826085BD85B5816085BDC9
:101A400080916E00816080936E0010928100809181
:101A50008100826080938100809181008160809309
:101A60008100809180008160809380008091B1002E
:101A700084608093B1008091B00081608093B00059
:101A800080917A00846080937A0080917A008260ED
:101A900080937A0080917A00816080937A008091AF
:101AA0007A00806880937A001092C1001092D70269
:101AB0001092D602E091BA03F091BB0382E08083DA
:101AC000E091B603F091B7031082E091B803F09172
:101AD000B9038FEC80831092C203E091BE03F091B2
:101AE000BF0386E08083E091BC03F091BD03808159
:101AF00080618083E091BC03F091BD0380818860A8
:101B00008083E091BC03F091BD0380818068808375
:101B1000E091BC03F091BD0380818F7D808385EDD2
:101B200091E00E94D1051092270310922603109293
:101B30002903109228030E94450286E691E09093C3
:101B400051038093500387E691E09093550380936F
:101B500054031092740480917A04823018F098E053
:101B6000909374048093770462E370E080E090E0E7
:101B70000E94FA0260917B048FE694E00E947A044E
:101B800068EE73E080E090E00E94FA0260E38FE686
:101B900094E00E94EC060BE416E4C8010197F1F70B
:101BA00060E38FE694E00E94EC06C8010197F1F72C
:101BB00060E38FE694E00E94EC0683E592E00197F3
:101BC000F1F760E28FE694E00E94EC066091740405
:101BD000606240E08FE694E00E94050784E0809315
:101BE000750440E06CE08FE694E00E9405070E94D7
:101BF000580782E08093760440E066E08FE694E048
:101C00000E9405070E941C0788E080937B0460E027
:101C10008FE694E00E947A048091D6029091D702D8
:101C20000E94E80561E08DE00E94840261E083E0AB
:101C30000E94840260E08EE00E94840260E08FE0F7
:101C40000E94840260E081E10E94840262E086E0FA
:101C50000E94840262E085E00E94840262E084E0E7
:101C60000E94840210E1812E11E0912EF12CE12CD2
:101C700009E1602E712C00917C0410917D040E0D01
:101C80001F1DD4015D904D01652D70E0D801ED91CF
:101C9000FC910280F381E02D42E050E0C8010995FB
:101CA000F801518A10860190F081E02D0190F081B9
:101CB000E02DC8010995882339F0D80118968C9138
:101CC0001897836018968C930E942C03F801628306
:101CD000738384839583E0917C04F0917D04EE0D01
:101CE000FF1D77826682F2E1EF0EF11C86E3E816B3
:101CF000F10409F68091D6029091D702892B09F060
:101D000064C284E090E09093D7028093D60288EE7C
:101D100091E00E94D10581E090E09093D7028093FA
:101D2000D6020E94E80561E070E0CE0109960E94AB
:101D30008C08BE01675F7F4FCE0101960E94C408E8
:101D400065E272E0CE0101960E9435080E9474059A
:101D5000CE0101960E94EF08CE0109960E94EF087D
:101D60000E9458070E941C0761E070E0CE010996AE
:101D70000E948C08BE01675F7F4FCE0101960E94D2
:101D8000C40865E272E0CE0101960E943508DC01CC
:101D900014964D915C9115976D917C918FE694E02E
:101DA0000E944203CE0101960E94EF08CE010996DF
:101DB0000E94EF0882ED92E00E94F7088091D20223
:101DC0008823C1F31AE08FE00E94C002A80EB91E5A
:101DD0001150C9F7C5016AE070E00E945C157B01F3
:101DE00081E090E00E945C1590E080E00E94D813B2
:101DF0008E010F5F1F4F25E042E00E94491162E310
:101E000072E0CE010F960E94DE08BE01615F7F4F37
:101E1000CE0109960E94C408B801CE0109960E941D
:101E200035086FE372E00E9435080E947405CE0108
:101E300009960E94EF08CE010F960E94EF080E94BB
:101E400058070E941C07B8018FE694E00E946505C0
:101E50006FE372E08FE694E00E9465056AE070E04F
:101E6000CE010F960E948C08BE01615F7F4FCE01AC
:101E700009960E94C40867E472E0CE0109960E94A8
:101E800035080E947405CE0109960E94EF08CE0124
:101E90000F960E94EF0881E00E9427076AE070E039
:101EA000CE010F960E948C08BE01615F7F4FCE016C
:101EB00009960E94C40867E472E0CE0109960E9468
:101EC0003508FC0144815581608171818FE694E081
:101ED0000E944203CE0109960E94EF08CE010F96A0
:101EE0000E94EF0882ED92E00E94F7088091D202F2
:101EF0008823C1F31AE08EE00E94C002E80EF91EAA
:101F00001150C9F72AE030E0C701B9010E945C1501
:101F1000C9010E945C1590E080E00E94D8138E01F8
:101F20000F5F1F4F25E042E00E94491164E572E017
:101F3000CE010F960E94DE08BE01615F7F4FCE0189
:101F400009960E94C408B801CE0109960E9435087E
:101F500061E672E00E9435080E947405CE01099680
:101F60000E94EF08CE010F960E94EF080E945807CA
:101F70000E941C07B8018FE694E00E94650561E6A7
:101F800072E08FE694E00E94650581E00E942707D9
:101F900069E672E08FE694E00E94650589E692E0CA
:101FA0000E94D10582ED92E00E94F7088091D30251
:101FB0008823C1F30E9458070E941C0780916C047B
:101FC0008C3008F051C061E083E00E94840280916F
:101FD0006C04282F30E0F901EE0FFF1FE20FF31F12
:101FE000E95BFB4F9081907C9360908310926D042D
:101FF00010926E042CE0622F0E945015829FB00157
:10200000112430E020E0AB01420F531FFA01EE0F24
:10201000FF1FE40FF51FE95BFB4F908196FD16C093
:102020002F5F3F4F2C30310571F781110FC0109297
:10203000800082E0809381001092850010928400DD
:10204000B19A80916F00826080936F00E0916C0480
:102050008E2F90E0FC01EE0FFF1FE80FF91FE95BE8
:10206000FB4F80818064808364E170E080E090E0D9
:102070000E94FA028CED95E00E94090168E873E184
:1020800080E090E00E94FA0292E0692E712C04EF49
:1020900011E0EE24EA9423E0F22E33E0A32EB12CDB
:1020A00040E0842E40E0942E0E942C036093D802DE
:1020B0007093D9028093DA029093DB0282ED92E072
:1020C0000E94F7087092D7026092D60265E772E02C
:1020D000CE0109960E94DE08BE01675F7F4FCE01E8
:1020E00001960E94C4086AE070E0CE0101960E9449
:1020F000E40766E872E00E9435080E947405CE018C
:1021000001960E94EF08CE0109960E94EF088AE02E
:10211000582E81E10E94C002C80ED91E5A94511057
:10212000F8CFC6016AE070E00E945C15C801861B0A
:10213000970BB7010E945C1590E080E00E94D813D5
:1021400020E030E040EA50E40E9439142AE939E9FD
:102150004BEB51EC0E9439146093CC027093CD028A
:102160008093CE029093CF02B092D702A092D60273
:102170008CE892E00E94D1056AE972E0CE010996EE
:102180000E94DE08BE01675F7F4FCE0101960E946C
:10219000C40861E070E0CE0101960E94E4070E944D
:1021A0007405CE0101960E94EF08CE0109960E94A7
:1021B000EF088114910409F477CF0E94AC038823BF
:1021C00009F472CF0E9400006FCF84E090E09093FA
:1021D000D7028093D6020E94E8050E942C0300914A
:1021E000D8021091D9022091DA023091DB02601BF3
:1021F000710B820B930B4AE00E948B0563E272E045
:102200008AEA93E00E9465056091CC027091CD024C
:102210008091CE029091CF0242E00E94100663E2CC
:1022200072E08AEA93E00E9465056091C0027091B5
:10223000C1028091C2029091C30242E00E94100646
:1022400063E272E08AEA93E00E9465056091C4024D
:102250007091C5028091C6029091C70242E00E942F
:10226000100663E272E08AEA93E00E9465056091DD
:10227000C8027091C9028091CA029091CB0242E0DB
:102280000E9410066BE471E08AEA93E00E94650503
:1022900042CDEF920F931F93CF93DF93E80134E089
:1022A00047FD34E1042E000C550B57FF03C0519538
:1022B00041955109E32E022F242FAE010E948C116B
:1022C000CE01DF91CF911F910F91EF900895BB2721
:1022D0004A3031F4992322F4BDE2909581959F4FC5
:1022E0000C947311BB27FB015527AA27880F991F50
:1022F000AA1FA41710F0A41B83955051B9F7A05D35
:10230000AA3308F0A95DA193009779F7B111B193B1
:102310001192CB010C94C313A9E0B0E0E2E9F1E122
:102320000C94FD146A01F22EB02E102FFBE3AF2E99
:10233000A01608F41BE31F5F012F27E0AE014F5FDB
:102340005F4F0E94EB12BC018981982F99709130E8
:1023500009F43FC09BE2E1FC04C09E2D9170E0FCBB
:102360003AC05E2D5071E82FE87083FF46C084E0CC
:10237000911101C083E0EF2DE81B8F1508F0E0E01C
:10238000D6018E2F20E2552351F1992329F0D60151
:102390009C93C60101966C0196012D5F3F4FE2FEB2
:1023A00024C08EE4D6018C9391E411969C931197EE
:1023B00012968C93D9018E2F90E281111BC0E20FEF
:1023C000F32FF11D10828EEF9FEF2996ECE00C9415
:1023D00019159DE2C6CF90E2C4CF2D938150811193
:1023E000FCCFCE0ED11CE0E0D0CF8EE6D6018C9390
:1023F00091E6DBCF9D938150E0CF482F447082FF60
:102400003DC084E0911101C083E08F1510F4EF2DE1
:10241000E81BD6018E2F20E2552309F1992329F0DC
:10242000D6019C93C60101966C0196012D5F3F4F2A
:10243000E2FE1BC089E4D6018C938EE411968C9346
:10244000119786E412968C93D9018E2F90E28823FF
:1024500009F4B5CF9D938150FACF2D93815081110E
:10246000FCCFCE0ED11CE0E0D9CF89E6D6018C930B
:102470008EE611968C93119786E6E4CF9B0177FF49
:1024800002C030E020E0A1E0B0E0911102C0B0E075
:10249000A0E0F9013196AE0FBF1F8B2C912CBB2011
:1024A00009F461C05401EFEFAE1ABE0AAA0DBB1DBC
:1024B000FA161B0619F014F04F2D4A1B511188C053
:1024C000E3FC59C07601A42FB0E2A1114FC0C40EA5
:1024D000D11C992309F45BC040E0D6011196F601A6
:1024E00090836D01552309F448C0012F060F9A818E
:1024F000582F507184FF03C0913309F40150101616
:102500000CF047C0093008F008E0EEE2FE2E5B0157
:10251000A01AB10885019194819491082F3F320748
:1025200029F4D601FC92F60131966F016217730708
:1025300094F1021713077CF5DB01A21BB30BAA244D
:10254000A394B12CAC0EBD1EAA0DBB1D11968C918F
:1025500021503109D601119628153905F4F0F601FC
:1025600080836D01DBCFB12CA12CA0CFF701B193FB
:102570007F01A150AACF9111B0CFD601942F50E383
:1025800002C05D9391509111FCCFC40ED11C40E06C
:10259000ACCF01E0BACF80E3DBCF6217730731F431
:1025A000963388F4953311F4552369F0F60180834E
:1025B000FD01842F90E2811108C0A40FB11D1C926F
:1025C00090E080E002CF81E3F1CF91938150F3CF8F
:1025D000911183CF8ACF283008F027E03327DA0122
:1025E000990F311D87FD916000966105710539F4E1
:1025F00032602E5F3D9330E32A95E1F708959F3FC7
:1026000030F080387105610509F03C5F3C5F3D9317
:10261000913008F08068911DDF93CF931F930F9343
:10262000FF92EF92192F987F9695E92F96959695A0
:10263000E90FFF27EE53FF4F99273327EE24FF249E
:10264000A701E70105900894079428F4360FE71EC8
:10265000F81E491F511D660F771F881F991F06948A
:10266000A1F70590079428F4E70EF81E491F561F9E
:10267000C11D770F881F991F661F0694A1F705904B
:10268000079428F4F80E491F561FC71FD11D880F45
:10269000991F661F771F0694A1F70590079420F4F1
:1026A000490F561FC71FD81F990F661F771F881F16
:1026B0000694A9F784911095177041F0D695C795A7
:1026C00057954795F794E7941A95C1F7E8E6F0E037
:1026D00068941590159135916591959105907FE2DB
:1026E0007395E118F10A430B560BC90BD009C0F7DB
:1026F000E10CF11E431F561FC91FD01D7EF470331D
:1027000011F48A95E6CFE894015030F0080F0AF4EE
:102710000027021708F4202F2395022F7A3328F080
:1027200079E37D932A95E9F710C07D932A9589F680
:10273000069497956795379517951794E118F10AC0
:10274000430B560BC90BD00998F023957E917395D6
:102750007A3308F070E37C932013B8F77E917061B0
:102760007D9330F0839571E37D9370E32A95E1F7D3
:102770001124EF90FF900F911F91CF91DF91992736
:1027800087FD90950895DC01FC01672F71917723F7
:10279000E1F7329704C07C916D9370836291AE171C
:1027A000BF07C8F308950E94151408F481E0089546
:1027B000E89409C097FB3EF49095809570956195DB
:1027C0007F4F8F4F9F4F9923A9F0F92F96E9BB2791
:1027D0009395F695879577956795B795F111F8CF0D
:1027E000FAF4BB0F11F460FF1BC06F5F7F4F8F4F78
:1027F0009F4F16C0882311F096E911C0772321F06E
:102800009EE8872F762F05C0662371F096E8862F05
:1028100070E060E02AF09A95660F771F881FDAF75C
:10282000880F9695879597F90895990F0008550F89
:10283000AA0BE0E8FEEF16161706E807F907C0F046
:1028400012161306E407F50798F0621B730B840B4E
:10285000950B39F40A2661F0232B242B252B21F428
:1028600008950A2609F4A140A6958FEF811D811DC8
:1028700008950E944C140C94BD140E94AF1438F0BB
:102880000E94B61420F0952311F00C94A6140C9419
:10289000AC1411240C94F1140E94CE1470F3959F83
:1028A000C1F3950F50E0551F629FF001729FBB2747
:1028B000F00DB11D639FAA27F00DB11DAA1F649FE3
:1028C0006627B00DA11D661F829F2227B00DA11D96
:1028D000621F739FB00DA11D621F839FA00D611D1C
:1028E000221F749F3327A00D611D231F849F600D3D
:1028F000211D822F762F6A2F11249F5750409AF066
:10290000F1F088234AF0EE0FFF1FBB1F661F771FF1
:10291000881F91505040A9F79E3F510580F00C94BC
:10292000A6140C94F1145F3FE4F3983ED4F386951B
:1029300077956795B795F795E7959F5FC1F7FE2B5C
:10294000880F911D9695879597F9089597F99F6738
:1029500080E870E060E008959FEF80EC0895002427
:102960000A941616170618060906089500240A94F4
:1029700012161306140605060895092E0394000C7A
:1029800011F4882352F0BB0F40F4BF2B11F460FF09
:1029900004C06F5F7F4F8F4F9F4F089557FD905832
:1029A000440F551F59F05F3F71F04795880F97FB13
:1029B000991F61F09F3F79F08795089512161306CD
:1029C0001406551FF2CF4695F1DF08C016161706FC
:1029D0001806991FF1CF8695710561050894089531
:1029E000E894BB2766277727CB0197F908952F92A4
:1029F0003F924F925F926F927F928F929F92AF928F
:102A0000BF92CF92DF92EF92FF920F931F93CF93DB
:102A1000DF93CDB7DEB7CA1BDB0B0FB6F894DEBF72
:102A20000FBECDBF09942A88398848885F846E8498
:102A30007D848C849B84AA84B984C884DF80EE80E2
:102A4000FD800C811B81AA81B981CE0FD11D0FB6EB
:102A5000F894DEBF0FBECDBFED010895A1E21A2E9E
:102A6000AA1BBB1BFD010DC0AA1FBB1FEE1FFF1F32
:102A7000A217B307E407F50720F0A21BB30BE40B82
:102A8000F50B661F771F881F991F1A9469F76095C9
:102A90007095809590959B01AC01BD01CF01089583
:102AA000991B79E004C0991F961708F0961B881FA0
:102AB0007A95C9F780950895AA1BBB1B51E107C001
:102AC000AA1FBB1FA617B70710F0A61BB70B881FBE
:102AD000991F5A95A9F780959095BC01CD0108954D
:102AE000EE0FFF1F0590F491E02D09945058BB277D
:102AF000AA270E948E150C94BD140E94AF1438F0C2
:102B00000E94B61420F039F49F3F19F426F40C9477
:102B1000AC140EF4E095E7FB0C94A614E92F0E9488
:102B2000CE1458F3BA17620773078407950720F08D
:102B300079F4A6F50C94F0140EF4E0950B2EBA2F50
:102B4000A02D0B01B90190010C01CA01A0011124B3
:102B5000FF27591B99F0593F50F4503E68F11A165F
:102B6000F040A22F232F342F4427585FF3CF4695F0
:102B700037952795A795F0405395C9F77EF41F1612
:102B8000BA0B620B730B840BBAF09150A1F0FF0FDC
:102B9000BB1F661F771F881FC2F70EC0BA0F621FC8
:102BA000731F841F48F4879577956795B795F795B8
:102BB0009E3F08F0B0CF9395880F08F09927EE0F4D
:102BC0009795879508950E94F7150C94BD140E945F
:102BD000B61458F00E94AF1440F029F45F3F29F07A
:102BE0000C94A61451110C94F1140C94AC140E9482
:102BF000CE1468F39923B1F3552391F3951B550B2C
:102C0000BB27AA2762177307840738F09F5F5F4FBF
:102C1000220F331F441FAA1FA9F335D00E2E3AF0FE
:102C2000E0E832D091505040E695001CCAF72BD016
:102C3000FE2F29D0660F771F881FBB1F2617370767
:102C40004807AB07B0E809F0BB0B802DBF01FF2799
:102C500093585F4F3AF09E3F510578F00C94A614BC
:102C60000C94F1145F3FE4F3983ED4F38695779586
:102C70006795B795F7959F5FC9F7880F911D969552
:102C8000879597F90895E1E0660F771F881FBB1FAE
:102C9000621773078407BA0720F0621B730B840B5B
:102CA000BA0BEE1F88F7E09508950E94D61488F0BD
:102CB0009F5798F0B92F9927B751B0F0E1F0660F00
:102CC000771F881F991F1AF0BA95C9F714C0B13041
:102CD00091F00E94F014B1E008950C94F014672F65
:102CE000782F8827B85F39F0B93FCCF38695779570
:102CF0006795B395D9F73EF4909580957095619559
:102D00007F4F8F4F9F4F08950E94151408F48FEF47
:102D100008950E941514880B990B08950F931F9323
:102D2000CF93DF938230910510F482E090E0E09140
:102D30008004F091810430E020E0B0E0A0E0309722
:102D400099F42115310509F44AC0281B390B2430A8
:102D50003105D8F58A819B816115710589F1FB01E7
:102D600093838283FE0111C04081518102811381CE
:102D700048175907E0F04817590799F4109761F080
:102D800012960C93129713961C933296CF01DF91F3
:102D9000CF911F910F9108950093800410938104A7
:102DA000F4CF2115310551F04217530738F0A9012E
:102DB000DB019A01BD01DF01F801C1CFEF01F9CFBD
:102DC0009093810480938004CDCFFE01E20FF31F26
:102DD000819391932250310939832883D7CF209151
:102DE0007E0430917F04232B41F420910401309123
:102DF000050130937F0420937E04209102013091DD
:102E000003012115310541F42DB73EB7409106016C
:102E100050910701241B350BE0917E04F0917F0453
:102E2000E217F307A0F42E1B3F0B2817390778F0A1
:102E3000AC014E5F5F4F2417350748F04E0F5F1F00
:102E400050937F0440937E04819391939FCFF0E051
:102E5000E0E09CCFCF93DF930097E9F0FC0132973D
:102E600013821282A0918004B0918104ED0130E0C0
:102E700020E01097A1F420813181820F931F2091CF
:102E80007E0430917F042817390709F061C0F09360
:102E90007F04E0937E04DF91CF910895EA01CE177D
:102EA000DF07E8F54A815B819E0141155105B1F7C5
:102EB000E901FB83EA8349915991C40FD51FEC17AF
:102EC000FD0761F4808191810296840F951FE901CD
:102ED00099838883828193819B838A83F0E0E0E0F9
:102EE00012968D919C9113970097B9F52D913C9175
:102EF0001197CD010296820F931F20917E0430918D
:102F00007F042817390739F6309751F5109281045C
:102F100010928004B0937F04A0937E04BCCFD3832F
:102F2000C28340815181840F951FC817D90761F46E
:102F30004E5F5F4F88819981480F591F51834083AD
:102F40008A819B81938382832115310509F0B0CF5B
:102F5000F0938104E09380049ECFFD01DC01C0CF9B
:102F600013821282D7CFB0E0A0E0E9EBF7E10C9436
:102F7000F9148C01009751F4CB010E948E168C013C
:102F8000C801CDB7DEB7E0E10C941515FC01E60FE2
:102F9000F71F9C0122503109E217F30708F49DC086
:102FA000D901CD91DC911197C617D70798F0C5309C
:102FB000D10530F3CE0104978617970708F3C61B97
:102FC000D70B2297C193D1936D937C93CF010E942D
:102FD0002A17D6CF5B01AC1ABD0A4C018C0E9D1E80
:102FE000A0918004B0918104512C412CF12CE12C52
:102FF000109731F580917E0490917F048815990592
:1030000009F05CC04616570608F058C080910201CE
:1030100090910301009741F48DB79EB7409106014E
:1030200050910701841B950BE817F90708F055C06C
:10303000F0937F04E0937E04F90171836083A0CF55
:103040008D919C91119712966C90129713967C908B
:103050001397A815B90559F56C0142E0C40ED11CAF
:10306000CA14DB0420F1AC014A195B09DA0112969B
:10307000159780F06282738251834083D9016D93EA
:103080007C93E114F10471F0D7011396FC93EE9355
:10309000129776CF22968C0F9D1FF9019183808322
:1030A000F301EFCFF0938104E093800469CF4816D9
:1030B000590608F42C017D01D3019ACFCB010E945F
:1030C0008E167C01009749F0AE01B8010E94751878
:1030D000C8010E942A17870153CF10E000E050CFAB
:1030E00081E090E0F8940C948518FB01DC0102C0AB
:1030F00001900D9241505040D8F70895FB01DC013A
:0E31000001900D920020E1F70895F894FFCFA2
:10310E00B002000082048000000040001400540051
:10311E0006050400000000BF019201620568018BE4
:10312E00017801690100000000E20342036F032FE2
:10313E0004A0037E039203000000006A07420362AC
:10314E000561050000000053044F040D0A00533AB8
:10315E002053657475702020202020202000533AC3
:10316E002043616C6962726174696E672000533A24
:10317E002052656164696E67202020202000533A3A
:10318E002054657374696E67202020202000533A06
:10319E00204F757470757420202020202000533A23
:1031AE00204572726F7220202020202020006E6138
:1031BE006E00696E66006F766600627574746F6E6F
:1031CE003A20002070726573736564092073746110
:1031DE0074653A200050726F6772616D207374616E
:1031EE007274696E672E2E0074696D6520286D737A
:1031FE00292C20666F72636520284E292C20766F4D
:10320E006C74616765202856292C2063757272656F
:10321E006E7420286D41292C20706F7765722028DE
:10322E005729002C00412061616E736C75697465BD
:10323E006E004144435F415F537465703A20002035
:10324E00412F5374657000562061616E736C756901
:10325E0074656E004144435F565F537465703A2047
:10326E000020562F5374657000507265737320479B
:10327E007265656E0052656164696E67205665728F
:10328E006E6965723A0074696D6573005465737486
:10329E00696E67206D6F746F720054657374696E1A
:1032AE0067206D6F746F7270726F6772616D3A0026
:1032BE002020202020202020202020202020200020
:00000001FF
