:100000000C9462000C948A000C948A000C948A0070
:100010000C948A000C948A000C948A000C948A0038
:100020000C948A000C948A000C948A000C94400969
:100030000C948A000C948A000C948A000C948A0018
:100040000C949E080C948A000C940E090C94E808F9
:100050000C948A000C948A000C948A000C948A00F8
:100060000C947F070C948A000000000023002600F7
:10007000290000000000240027002A0000000000E2
:10008000250028002B0004040404040404040202D4
:100090000202020203030303030301020408102007
:1000A0004080010204081020010204081020000012
:1000B0000008000201000003040700000000000027
:1000C0000000FC0911241FBECFEFD8E0DEBFCDBF7A
:1000D00012E0A0E0B1E0E0EBF6E202C005900D9284
:1000E000A434B107D9F724E0A4E4B2E001C01D9222
:1000F000A430B207E1F710E0C2E6D0E004C02197D7
:10010000FE010E944110C136D107C9F70E94A00A22
:100110000C9456130C940000E091EE03EC3088F53B
:100120004091EF0328E830E0241B310947FD339567
:10013000220F331F220F331F8217930784F0409141
:10014000F00328E532E0241B310947FD3395220FE7
:10015000331F220F331F821793070CF49C01225088
:100160003109220F331F4FB7F8948E2F90E0FC0116
:10017000EE0FFF1FE80FF91FE753FC4F3283218377
:100180004FBF08952091D402260F3327331F213209
:100190003105ECF42091FA02FC0190E080E024307B
:1001A00069F082E00895A091D4022191AC014E54EF
:1001B0005D4FA40FB52FB11D2C930196861798F3B0
:1001C0008091D402680F6093D40280E0089581E0AA
:1001D0000895089508950895E091A9028091A802D4
:1001E000E81730F4F0E0E857FD4F808190E0089583
:1001F0008FEF9FEF08959091A9028091A8022FEFB1
:100200003FEF981748F4E92FF0E0E857FD4F2081C1
:1002100030E09F5F9093A902C90108958091A802E0
:100220009091A902891B990B0895CF92DF92EF92CA
:10023000FF920F931F93CF93DF937C01CB018A0131
:1002400020918702222389F0EB016B01C40ED51E99
:10025000CC15DD0569F06991D701ED91FC91019014
:10026000F081E02DC7010995F3CF642F0E94C200F1
:10027000C801DF91CF911F910F91FF90EF90DF9018
:10028000CF900895CF93DF931F92CDB7DEB76983E8
:10029000209187022223F9F02091AA02203258F0FF
:1002A00021E030E0FC013383228390E080E00F9076
:1002B000DF91CF9108958091AB02E82FF0E0E959EA
:1002C000FD4F998190838F5F8093AB028093AA0248
:1002D00081E090E0ECCF61E0CE0101960E94C20087
:1002E000F7CF833081F028F4813099F08230A9F083
:1002F00008958730A9F08830C9F08430B1F4809136
:1003000080008F7D03C0809180008F778093800074
:10031000089584B58F7784BD089584B58F7DFBCF14
:100320008091B0008F778093B00008958091B000E5
:100330008F7DF9CF1F93CF93DF93282F30E0F90102
:10034000E255FF4F8491F901E656FF4FD491F90130
:10035000EA57FF4FC491CC23A9F0162F81110E94B8
:100360007101EC2FF0E0EE0FFF1FE458FF4FA59155
:10037000B4918FB7F894EC91111108C0D095DE2399
:10038000DC938FBFDF91CF911F910895DE2BF8CFC3
:100390001092FA0281E08093FC021092FB0261E06D
:1003A00082E10E949A0161E083E10E949A01E9EBF7
:1003B000F0E080818E7F808380818D7F808388E4E0
:1003C0008093B80085E48093BC000895CF93DF93B9
:1003D00091E09093B1028823B9F0C091B800D09118
:1003E000BA008091BC008A7B8093BC0060E082E10F
:1003F0000E949A0160E083E10E949A010E94C80174
:10040000D093BA00C093B800DF91CF910895CF93F5
:10041000DF9390E0FC01E656FF4F24918A579F4FEF
:10042000FC0184918823C9F090E0880F991FFC019A
:10043000EE58FF4FA591B491FC01E458FF4FC591D0
:10044000D49161110DC09FB7F8948C9120958223AF
:100450008C938881282328839FBFDF91CF910895B3
:10046000623051F49FB7F8943C91822F809583239A
:100470008C93E8812E2BEFCF8FB7F894EC912E2B35
:100480002C938FBFEACF3FB7F8948091630290918D
:100490006402A0916502B091660226B5A89B05C0D2
:1004A0002F3F19F00196A11DB11D3FBFBA2FA92FF3
:1004B000982F8827BC01CD01620F711D811D911DF0
:1004C00042E0660F771F881F991F4A95D1F708955C
:1004D0008F929F92AF92BF92CF92DF92EF92FF9254
:1004E0004B015C010E9443026B017C010E944302AC
:1004F0006C197D098E099F09683E7340810591053D
:10050000A8F321E0821A9108A108B10888EEC80E6C
:1005100083E0D81EE11CF11C81149104A104B104F4
:1005200029F7FF90EF90DF90CF90BF90AF909F9012
:100530008F9008952FB7F89460915F0270916002D8
:1005400080916102909162022FBF08958AEC98E039
:100550000E948C00809157028F5F8093570208950C
:10056000AF92BF92CF92DF92EF92FF920F931F93C1
:10057000CF93DF936C017B018B01040F151FEB01FF
:100580005E01AE18BF08C017D10759F06991D601B6
:10059000ED91FC910190F081E02DC6010995892B28
:1005A00079F7C501DF91CF911F910F91FF90EF90E7
:1005B000DF90CF90BF90AF900895FC01538D448D94
:1005C000252F30E0842F90E0821B930B541710F0FE
:1005D000CF96089501970895FC01918D828D98170B
:1005E00061F0A28DAE0FBF2FB11D5D968C91928DE3
:1005F0009F5F9F73928F90E008958FEF9FEF089514
:10060000FC01918D828D981731F0828DE80FF11DDC
:10061000858D90E008958FEF9FEF0895FC01918DF7
:10062000228D892F90E0805C9F4F821B91098F73F0
:10063000992708958CE293E00E940E0321E0892B14
:1006400009F420E0822F089580E090E0892B29F0C2
:100650000E941A0381110C9400000895FC01A48DDE
:10066000A80FB92FB11DA35ABF4F2C91848D90E0D4
:1006700001968F739927848FA689B7892C93A089B7
:10068000B1898C91837080648C93938D848D981341
:1006900006C00288F389E02D80818F7D80830895D4
:1006A000EF92FF920F931F93CF93DF93EC0181E0C2
:1006B000888F9B8D8C8D98131AC0E889F989808169
:1006C00085FF15C09FB7F894EE89FF896083E8899C
:1006D000F98980818370806480839FBF81E090E08E
:1006E000DF91CF911F910F91FF90EF900895F62E1B
:1006F0000B8D10E00F5F1F4F0F731127E02E8C8DB5
:100700008E110CC00FB607FCFACFE889F9898081F9
:1007100085FFF5CFCE010E942E03F1CFEB8DEC0FBC
:10072000FD2FF11DE35AFF4FF0829FB7F8940B8F16
:10073000EA89FB8980818062CFCFCF93DF93EC0180
:10074000888D8823B9F0AA89BB89E889F9898C91B9
:1007500085FD03C0808186FD0DC00FB607FCF7CF75
:100760008C9185FFF2CF808185FFEDCFCE010E9475
:100770002E03E9CFDF91CF910895862F642F0C943B
:100780000702CF93DF93FC01218930E0F901E255A4
:10079000FF4F8491F901E656FF4FD491F901EA57D2
:1007A000FF4FC491CC2379F081110E947101EC2F8D
:1007B000F0E0EE0FFF1FE859FF4FA591B491EC91C7
:1007C000ED2381E009F480E08170DF91CF910895FD
:1007D000CF92DF92EF92FF920F931F93CF93DF930D
:1007E000FC01C48121E020938702C093560210923D
:1007F000AB021092AA028485682B80E293E00E94EB
:100800004201D091AA02D13208F092C00E94430264
:100810006B017C018091FA02811165C082E08093B6
:10082000FA0281E08093FC028FEF8093F90210922C
:100830001E03D0931D03A7E6B2E0EDEFF2E080E0E7
:10084000D81385C010921F0380911F03CC0FC82BB3
:10085000C0931F038091FB02813009F07CC010928D
:10086000FB020E9443026B017C0180911F03809375
:10087000BB008091AD029091AE02A091AF02B09109
:10088000B002892B8A2B8B2B99F00E944302009196
:10089000AD021091AE022091AF023091B0026C19FE
:1008A0007D098E099F090617170728073907E0F108
:1008B0008091BC0083FDD9CF85EC8093BC000E9461
:1008C00043026B017C018091FA02823009F445C039
:1008D0008091F9028F3F61F18091F902803241F1FC
:1008E0008091F90225C08091AD029091AE02A09155
:1008F000AF02B091B002892B8A2B8B2B09F48ACFDF
:100900000E9443020091AD021091AE022091AF020D
:100910003091B0026C197D098E099F0906171707DF
:100920002807390708F076CF8091AC020E94E601D3
:100930001092AB021092AA0210928702DF91CF911F
:100940001F910F91FF90EF90DF90CF9008959D91B0
:1009500091938F5F75CF85EEB0CF8091AD0290916E
:10096000AE02A091AF02B091B002892B8A2B8B2BE3
:1009700009F4A9CF0E9443020091AD021091AE028A
:100980002091AF023091B0026C197D098E099F0948
:10099000061717072807390708F095CFC5CF089520
:1009A00090E080E00895FC0101900020E9F7319784
:1009B000AF01481B590BBC018CE293E00C94B002D0
:1009C000CF93DF93FC0144815581608171818CE27A
:1009D00093E00E94B002EC0183E491E00E94D30412
:1009E0008C0F9D1FDF91CF9108958F929F92AF92B0
:1009F000BF920F931F93CF93DF93CDB7DEB7A1972D
:100A00000FB6F894DEBF0FBECDBF19A2423008F476
:100A10004AE08E010F5D1F4F842E912CB12CA12C2A
:100A2000A50194010E941310E62FB901CA01EA3012
:100A3000F4F4E05DD801EE938D01232B242B252BBC
:100A400079F790E080E0109719F0CD010E94D3046F
:100A5000A1960FB6F894DEBF0FBECDBFDF91CF9148
:100A60001F910F91BF90AF909F908F900895E95C78
:100A7000E1CFCF93DF93D0E0C0E0009719F00E9460
:100A8000D304EC0183E491E00E94D3048C0F9D1FFA
:100A9000DF91CF9108954F925F926F927F928F92E4
:100AA0009F92AF92BF92CF92DF92EF92FF920F93FD
:100AB0001F93CF936B017C01742EAC019B010E94AC
:100AC0005A11882399F086E491E0CF911F910F91FC
:100AD000FF90EF90DF90CF90BF90AF909F908F905E
:100AE0007F906F905F904F900C94D3044601570114
:100AF000E894B7F82FEF3FEF4FE75FE7C501B40188
:100B00000E945A1181110DC02FEF3FEF4FE75FE7B1
:100B1000C501B4010E94B80E18161CF48AE491E0D5
:100B2000D4CF2FEF3FEF4FE75FE4C701B6010E943C
:100B3000551118161CF48EE491E0C7CF2FEF3FEF4C
:100B40004FE75FECC701B6010E94B80E87FDF3CFF7
:100B500020E030E0A901C701B6010E94B80E10E004
:100B600000E087FF0AC06DE28CE293E00E94500330
:100B70008C01F7FAF094F7F8F094C0E060E070E0D0
:100B800080E09FE37C1641F020E030E040E251E459
:100B90000E94B410CF5FF6CFA70196010E944810C3
:100BA0002B013C010E9426114B015C014AE00E948E
:100BB000F5047C01E00EF11ECC23C1F1C501B401A6
:100BC0000E94BD0E9B01AC01C301B2010E944710FF
:100BD0004B015C016EE28CE293E00E945003E80E50
:100BE000F91EC15018F120E030E040E251E4C501A7
:100BF000B4010E941E0F2B013C010E9426114B01E3
:100C0000B12CA12C4AE0C501B4010E94F504E80E04
:100C1000F91EC501B4010E94BD0E9B01AC01C301C8
:100C2000B2010E9447104B015C01DBCFC701CF919D
:100C30001F910F91FF90EF90DF90CF90BF90AF90FA
:100C40009F908F907F906F905F904F9008950F933B
:100C50001F93CF938C01C62F0E94E8036C2F646012
:100C6000C8010E94E8036C2F6B7FC8010E94E80353
:100C700083EC90E00197F1F7CF911F910F910895C8
:100C80000F931F93CF93DF938C01D62FC42F607FD8
:100C9000642B0E94270680E1D89FB00111246C2BA1
:100CA000C801DF91CF911F910F910C94270641E06D
:100CB0000E94400681E090E0089585ED8093BC009D
:100CC0008091AD029091AE02A091AF02B091B002BE
:100CD0000796A11DB11D23E0B695A7959795879519
:100CE0002A95D1F72091BC0024FD03C01092FA028E
:100CF00008954091AD025091AE026091AF027091A3
:100D0000B002452B462B472B69F30097A105B1058F
:100D100041F02AE22A95F1F700C00197A109B10933
:100D2000E1CF8091AC020C94E6010E9441130F9335
:100D30001F93CF93DF93EC0188819981009759F03D
:100D40002A813B812617370730F081E0DF91CF9170
:100D50001F910F9108958B016F5F7F4F0E94841246
:100D6000009759F0998388831B830A832C813D81E6
:100D7000232B59F7FC011082E8CF80E0E7CFCF9317
:100D8000DF93EC0188819981009711F00E94FB119B
:100D9000198218821D821C821B821A82DF91CF91D8
:100DA0000895EF92FF920F931F93CF93DF938C01DF
:100DB0007B01EB0109900020E9F72197C61BD70BB7
:100DC000BE010E949706811109C0C801DF91CF9131
:100DD0001F910F91FF90EF900C94BF06F801D583FF
:100DE000C483B70180819181DF91CF911F910F91D1
:100DF000FF90EF900C944F13CF92DF92EF92FF92FF
:100E00000F931F93CF93DF93CDB7DEB728970FB61D
:100E1000F894DEBF0FBECDBF7C01CB014AE09E013E
:100E20002F5F3F4F6901B9010E94830EF6010190C7
:100E30000020E9F73197EC19FD09D9F0D701149694
:100E40000D911C910E0F1F1FB801C7010E9497063C
:100E50008823F9F0F7012081318184819581B601E1
:100E6000820F931F0E944F13D70115961C930E9368
:100E70001497C70128960FB6F894DEBF0FBECDBFFA
:100E8000DF91CF911F910F91FF90EF90DF90CF9066
:100E90000895C7010E94BF06ECCFEF92FF920F9317
:100EA0001F93CF93DF93EC018617970781F0FB0127
:100EB000008111810115110539F0E480F580B70139
:100EC0000E94970681110BC0CE010E94BF06CE0181
:100ED000DF91CF911F910F91FF90EF900895FD82C8
:100EE000EC82B801888199810E944F13F0CFFC01F8
:100EF00080819181009711F00C94FB1108951F924D
:100F00000F920FB60F9211242F933F934F935F933D
:100F10006F937F938F939F93AF93BF93EF93FF93C1
:100F20008091B900887F803609F44AC0F0F5883294
:100F300009F4A7C018F5803109F49BC0B8F48823E0
:100F400009F4F9C0883009F494C0FF91EF91BF9182
:100F5000AF919F918F917F916F915F914F913F9151
:100F60002F910F900FBE0F901F901895883109F4A4
:100F700088C0803251F78093F90214C0803409F49C
:100F80009DC040F48033B9F38833F9F68093F902B9
:100F900085ECB0C0803509F485C0883509F496C069
:100FA000883499F60E945D06D0CF883909F48CC048
:100FB00038F5883729F050F4883611F0803729F653
:100FC00083E08093FA021092F80257C0883809F43F
:100FD0007BC0803919F0803809F0B7CF8091F802D2
:100FE000803208F071C0E091F80281E08E0F8093AA
:100FF000F8028091BB00F0E0E852FD4F80833DC0D5
:10100000803B39F0E0F4803A09F479C0883A09F07D
:101010009CCF84E08093FA021092D5021092D40201
:10102000E091D202F091D30209958091D40281110E
:101030000FC081E08093D4021092B20209C0803CBC
:1010400009F4A6CF883C09F4A3CF883B09F07DCFF3
:10105000E091D50281E08E0F8093D502F0E0EE544E
:10106000FD4F80818093BB009091D5028091D40286
:1010700029C080911F038093BB0085EC8093BC0046
:1010800064CF90911E0380911D03981758F5E0914D
:101090001E0381E08E0F80931E03F0E0E350FD4FAE
:1010A0008081E9CFE0911E0381E08E0F80931E03C3
:1010B0008091BB00F0E0E350FD4F808390911E03D0
:1010C00080911D039817C8F285E8D8CFE0911E03E0
:1010D00081E08E0F80931E038091BB00F0E0E3500F
:1010E000FD4F80838091FC0281115CCF81E0809371
:1010F000FB0284EA8093BC001092FA0226CF85ECB2
:101100008093BC001092FA028091F802803230F491
:10111000E091F802F0E0E852FD4F10826091F80291
:1011200070E0E091D602F091D70288ED92E0099547
:101130001092F8020ACF1092F90234CF1F920F9248
:101140000FB60F9211242F933F938F939F93AF93DA
:10115000BF9380915F0290916002A0916102B09173
:10116000620230915E0223E0230F2D3758F501967D
:10117000A11DB11D20935E0280935F0290936002D7
:10118000A0936102B0936202809163029091640225
:10119000A0916502B09166020196A11DB11D8093D8
:1011A000630290936402A0936502B0936602BF91BC
:1011B000AF919F918F913F912F910F900FBE0F9004
:1011C0001F90189526E8230F0296A11DB11DD2CFBE
:1011D0001F920F920FB60F9211242F933F934F93AC
:1011E0005F936F937F938F939F93AF93BF93EF938F
:1011F000FF938CE293E00E942E03FF91EF91BF9149
:10120000AF919F918F917F916F915F914F913F919E
:101210002F910F900FBE0F901F9018951F920F9255
:101220000FB60F9211242F938F939F93EF93FF93F9
:10123000E0913C03F0913D038081E0914203F09105
:10124000430382FD1BC09081809145038F5F8F73A4
:1012500020914603821741F0E0914503F0E0E45D00
:10126000FC4F958F80934503FF91EF919F918F9154
:101270002F910F900FBE0F901F9018958081F4CF83
:101280001F920F920FB60F9211242F933F934F93FB
:101290005F936F937F938F939F93AF93BF93CF93FE
:1012A000DF93EF93FF9380915502C091ED03D0E05F
:1012B00087FF24C01092850010928400809155020F
:1012C0008F5F8093550280915502082E000C990B78
:1012D0008C179D0724F4809155028C30C4F18091C5
:1012E000840090918500049680349C4908F47AC06B
:1012F0008091840090918500049676C0809155027B
:10130000082E000C990B8C179D07C4F6E09155022E
:101310008E2FEE0F990BFC01EE0FFF1FE80FF91F48
:10132000E753FC4F808186FFC9CFE09155028E2F95
:10133000EE0F990BFC01EE0FFF1FE80FF91FE753AB
:10134000FC4F808160E08F730E949A01B7CF20919B
:10135000840030918500E09155028E2FEE0F990B9D
:10136000FC01EE0FFF1FE80FF91FE753FC4F8181CF
:101370009281820F931F9093890080938800E0915F
:1013800055028E2FEE0F990BFC01EE0FFF1FE80F99
:10139000F91FE753FC4F808186FF11C0E091550291
:1013A0008E2FEE0F990BFC01EE0FFF1FE80FF91FB8
:1013B000E753FC4F808161E08F730E949A01FF9197
:1013C000EF91DF91CF91BF91AF919F918F917F91DD
:1013D0006F915F914F913F912F910F900FBE0F90A2
:1013E0001F90189580E49CE9909389008093880071
:1013F0008FEF80935502E3CF1092230310922203C4
:1014000088EE93E0A0E0B0E080932403909325035E
:10141000A0932603B09327032FE031E030932103FC
:101420002093200310922F0310922E0380933003F9
:1014300090933103A0933203B093330381E291E0A0
:1014400090932D0380932C0385EC90E090933903C7
:101450008093380384EC90E090933B0380933A03AD
:1014600080EC90E090933D0380933C0381EC90E00E
:1014700090933F0380933E0382EC90E0909341036E
:101480008093400386EC90E0909343038093420363
:10149000109245031092460310924703109248039E
:1014A00086E390E00E945F11FC019C012A5C3F4FA3
:1014B0006AE070E04FE351E01282138214821582D9
:1014C00077836683108651834083118A7296E21770
:1014D000F30791F79093FF038093FE031092F403B8
:1014E0001092F30383E391E09093F2038093F1036E
:1014F0001092FA0387E28093F50380E18093FB0367
:1015000082E08093FC031092FD038091ED038C3008
:1015100098F491E0980F9093ED038093EE0390E0A0
:10152000FC01EE0FFF1FE80FF91FE753FC4F88EB9C
:101530009BE09283818308958FEF8093EE0308955B
:10154000CF93DF93CDB7DEB760970FB6F894DEBFC9
:101550000FBECDBF789484B5826084BD84B58160B0
:1015600084BD85B5826085BD85B5816085BD80916E
:101570006E00816080936E001092810080918100E6
:1015800082608093810080918100816080938100DE
:10159000809180008160809380008091B1008460A0
:1015A0008093B1008091B00081608093B000809101
:1015B0007A00846080937A0080917A0082608093C0
:1015C0007A0080917A00816080937A0080917A001D
:1015D000806880937A001092C10010925902109294
:1015E0005802E0913C03F0913D0382E08083E0915A
:1015F0003803F09139031082E0913A03F0913B03F4
:101600008FEC808310924403E0914003F0914103FA
:1016100086E08083E0913E03F0913F03808180610A
:101620008083E0913E03F0913F0380818860808356
:10163000E0913E03F0913F03808180688083E091D8
:101640003E03F0913F0380818F7D808382E591E0AE
:101650000E9439051092A9021092A8021092AB02C2
:101660001092AA020E94C80189EE90E09093D302E2
:101670008093D2028AEE90E09093D7028093D602B4
:101680001092F6038091FC03823018F098E090935A
:10169000F6038093F90362E370E080E090E00E943B
:1016A00068026091FD0381EF93E00E94E80368EE19
:1016B00073E080E090E00E94680260E381EF93E0D5
:1016C0000E9427060BE416E4C8010197F1F760E3D6
:1016D00081EF93E00E942706C8010197F1F760E3CC
:1016E00081EF93E00E94270683E592E00197F1F7EE
:1016F00060E281EF93E00E9427066091F60360624A
:1017000040E081EF93E00E94400684E08093F7037D
:1017100040E06CE081EF93E00E94400640E061E031
:1017200081EF93E00E9440068BE39FE10197F1F780
:101730008091FA03882331F040E060E881EF93E084
:101740000E94400682E08093F80340E066E081EF6B
:1017500093E00E94400640E062E081EF93E00E9447
:1017600040068BE39FE10197F1F788E08093FD034A
:1017700060E081EF93E00E94E8038091580290912D
:1017800059028230910509F4ECC144F4009779F0D4
:10179000019709F4E3C185EB91E00BC0833091051B
:1017A00009F4E2C10497B9F785EA91E002C085E641
:1017B00091E090930101809300018091000190914C
:1017C00001010E94390561E08DE00E94070261E09D
:1017D00083E00E94070260E08EE00E94070260E062
:1017E0008FE00E94070262E086E00E94070262E04A
:1017F00085E00E94070262E084E00E94070218E090
:10180000C12E11E0D12EF12CE12C09E1A02EB12C3A
:101810000091FE031091FF030E0D1F1DD6019D9038
:101820006D01692D70E0D801ED91FC910280F3818A
:10183000E02D42E050E0C8010995F801918A108638
:101840000190F081E02D0190F081E02DC801099513
:10185000882339F0D80118968C91189783601896D0
:101860008C930E949A02F801628373838483958328
:10187000E091FE03F091FF03EE0DFF1DB782A682FB
:10188000F2E1EF0EF11C26E3E216F10409F6809175
:10189000580290915902892B09F069C184E090E0C7
:1018A000909359028093580285EC91E00E9439058B
:1018B0008091EE038C3008F051C061E083E00E941B
:1018C00007028091EE03282F30E0F901EE0FFF1F91
:1018D000E20FF31FE753FC4F9081907C936090835D
:1018E0001092EF031092F0032CE0622F0E9435104B
:1018F000829FB001112430E020E0AB01420F531F62
:10190000FA01EE0FFF1FE40FF51FE753FC4F908124
:1019100096FD16C02F5F3F4F2C30310571F78111B6
:101920000FC01092800082E08093810010928500A9
:1019300010928400B19A80916F00826080936F0052
:10194000E091EE038E2F90E0FC01EE0FFF1FE80FF9
:10195000F91FE753FC4F8081806480838CED95E014
:101960000E948C0068EB7BE080E090E00E946802BF
:101970002224239492E0392E0E949A0260935A0204
:1019800070935B0280935C0290935D0282E5882EE7
:1019900082E0982ED12CC12CA401425552407A01EC
:1019A0000091FE031091FF030C0D1D1DD801189628
:1019B0008C9118978B7F18968C931897ED91FC91CA
:1019C0000190F081E02DC8010995B82EF8018085BD
:1019D00086958170B81609F43BC10E949A02D8011D
:1019E00012966D937D938D939C93159718968C9179
:1019F0001897832518968C93E091FE03F091FF03CE
:101A0000EC0DFD1D008500FD6BC102FB002700F9F8
:101A1000D4010D934D01808580FD3EC082FF3CC006
:101A200010E018861F821A8619861C861B8662E0C3
:101A300072E0CE0107960E94D1061A8219821C829A
:101A40001B821E821D82BE01695F7F4FCE010196FF
:101A50000E944D07B701CE0101960E94FC067C0151
:101A6000FC01A480B580F1E1AF0EB11CB5010E946C
:101A70009706811137C1C7010E94BF06B801C7018F
:101A80000E94FC060E94E004CE0101960E947707A6
:101A9000CE0107960E947707F2E1CF0ED11C26E314
:101AA000C216D10409F078CF43E050E050935902B8
:101AB000409358028DE192E00E9439058CED95E04B
:101AC0000E948C0068E873E180E090E00E94680268
:101AD0000CED15E0C8010E948C0018861F821A8642
:101AE00019861C861B866BE272E0CE0107960E9467
:101AF000D1061A8219821C821B821E821D82BE019F
:101B0000695F7F4FCE0101960E944D07B801CE015B
:101B100001960E94FC060E94E004CE0101960E94FC
:101B20007707CE0107960E94770764E170E080E0B6
:101B300090E00E9468020F5F1F4F0A3C58E01507B3
:101B400049F680E090E0892B09F416CF0E941A0331
:101B5000882309F411CF0E9400000ECF85E791E0A1
:101B600028CE85E891E025CE85E991E022CE84E07B
:101B700090E0909359028093580285EA91E0909307
:101B80000101809300010E9439050E949A02009190
:101B90005A0210915B0220915C0230915D02601B41
:101BA000710B820B930B4AE00E94F50480E092E0F7
:101BB0000E94D304C0905002D09051020D2C000C12
:101BC000EE08FF084AE0C701B601F7FE0DC06DE25E
:101BD0008CE293E00E94500366277727CB016C19B3
:101BE0007D098E099F094AE00E94F50480E092E099
:101BF0000E94D30460914402709145028091460294
:101C00009091470242E00E944B0580E092E00E94E2
:101C1000D304609148027091490280914A029091E8
:101C20004B0242E00E944B0580E092E00E94D30408
:101C300060914C0270914D0280914E0290914F0242
:101C400042E00E944B0583E491E00E94D30430CE31
:101C50000E949A02D80112964D905D906D907C90F2
:101C600015979B01AC0124193509460957091696A9
:101C70008D919C91B0E0A0E0281739074A075B07D7
:101C800008F4BACED80118968C918170B81609F470
:101C9000B3CE0E949A02F801628373838483958392
:101CA00080858225846080870E949A02D8011996D7
:101CB0002D913D914D915C911C97621B730B840B90
:101CC000950BF801658776878787908B0E949A022B
:101CD000D80119966D937D938D939C931C978CCE10
:101CE00000E096CED7012D913C91119714968D91DD
:101CF0009C916BE072E0820F931F0E944F13F701DB
:101D0000B582A482BBCEBB274A3031F4992322F49A
:101D1000BDE2909581959F4F0C948F0EBB27FB01E0
:101D20005527AA27880F991FAA1FA41710F0A41BD4
:101D300083955051B9F7A05DAA3308F0A95DA1932E
:101D4000009779F7B111B1931192CB010C94A80EC1
:101D5000DC01FC01672F71917723E1F7329704C012
:101D60007C916D9370836291AE17BF07C8F308959D
:101D70000E94FA0E08F481E00895E89409C097FBE8
:101D80003EF490958095709561957F4F8F4F9F4F52
:101D90009923A9F0F92F96E9BB279395F695879596
:101DA00077956795B795F111F8CFFAF4BB0F11F459
:101DB00060FF1BC06F5F7F4F8F4F9F4F16C0882300
:101DC00011F096E911C0772321F09EE8872F762F36
:101DD00005C0662371F096E8862F70E060E02AF077
:101DE0009A95660F771F881FDAF7880F9695879563
:101DF00097F90895990F0008550FAA0BE0E8FEEF38
:101E000016161706E807F907C0F012161306E407BE
:101E1000F50798F0621B730B840B950B39F40A26B7
:101E200061F0232B242B252B21F408950A2609F495
:101E3000A140A6958FEF811D811D08950E94310F4D
:101E40000C94A20F0E94940F38F00E949B0F20F078
:101E5000952311F00C948B0F0C94910F11240C947A
:101E6000D60F0E94B30F70F3959FC1F3950F50E00A
:101E7000551F629FF001729FBB27F00DB11D639F3C
:101E8000AA27F00DB11DAA1F649F6627B00DA11DE2
:101E9000661F829F2227B00DA11D621F739FB00D88
:101EA000A11D621F839FA00D611D221F749F3327F8
:101EB000A00D611D231F849F600D211D822F762F91
:101EC0006A2F11249F5750409AF0F1F088234AF06E
:101ED000EE0FFF1FBB1F661F771F881F91505040DA
:101EE000A9F79E3F510580F00C948B0F0C94D60FF0
:101EF0005F3FE4F3983ED4F3869577956795B79561
:101F0000F795E7959F5FC1F7FE2B880F911D96957A
:101F1000879597F9089597F99F6780E870E060E0EA
:101F200008959FEF80EC089500240A941616170672
:101F300018060906089500240A94121613061406BA
:101F400005060895092E0394000C11F4882352F01D
:101F5000BB0F40F4BF2B11F460FF04C06F5F7F4FD5
:101F60008F4F9F4F089557FD9058440F551F59F0BC
:101F70005F3F71F04795880F97FB991F61F09F3F76
:101F800079F087950895121613061406551FF2CF9F
:101F90004695F1DF08C0161617061806991FF1CFEF
:101FA00086957105610508940895E894BB27662716
:101FB0007727CB0197F908952F923F924F925F9226
:101FC0006F927F928F929F92AF92BF92CF92DF9249
:101FD000EF92FF920F931F93CF93DF93CDB7DEB7AE
:101FE000CA1BDB0B0FB6F894DEBF0FBECDBF099442
:101FF0002A88398848885F846E847D848C849B8499
:10200000AA84B984C884DF80EE80FD800C811B81A6
:10201000AA81B981CE0FD11D0FB6F894DEBF0FBED5
:10202000CDBFED010895A1E21A2EAA1BBB1BFD0135
:102030000DC0AA1FBB1FEE1FFF1FA217B307E407A7
:10204000F50720F0A21BB30BE40BF50B661F771FFF
:10205000881F991F1A9469F76095709580959095DF
:102060009B01AC01BD01CF010895991B79E004C02B
:10207000991F961708F0961B881F7A95C9F78095C7
:102080000895EE0FFF1F0590F491E02D099450582C
:10209000BB27AA270E945F100C94A20F0E94940FE6
:1020A00038F00E949B0F20F039F49F3F19F426F47A
:1020B0000C94910F0EF4E095E7FB0C948B0FE92F35
:1020C0000E94B30F58F3BA17620773078407950786
:1020D00020F079F4A6F50C94D50F0EF4E0950B2EB4
:1020E000BA2FA02D0B01B90190010C01CA01A0016A
:1020F0001124FF27591B99F0593F50F4503E68F1C5
:102100001A16F040A22F232F342F4427585FF3CF05
:10211000469537952795A795F0405395C9F77EF4D6
:102120001F16BA0B620B730B840BBAF09150A1F01F
:10213000FF0FBB1F661F771F881FC2F70EC0BA0FA5
:10214000621F731F841F48F4879577956795B7952D
:10215000F7959E3F08F0B0CF9395880F08F0992728
:10216000EE0F9795879508950E94C8100C94A20FC2
:102170000E949B0F58F00E94940F40F029F45F3F9B
:1021800029F00C948B0F51110C94D60F0C94910FD5
:102190000E94B30F68F39923B1F3552391F3951B74
:1021A000550BBB27AA2762177307840738F09F5F78
:1021B0005F4F220F331F441FAA1FA9F335D00E2EE5
:1021C0003AF0E0E832D091505040E695001CCAF752
:1021D0002BD0FE2F29D0660F771F881FBB1F261715
:1021E00037074807AB07B0E809F0BB0B802DBF01EC
:1021F000FF2793585F4F3AF09E3F510578F00C94BB
:102200008B0F0C94D60F5F3FE4F3983ED4F3869582
:1022100077956795B795F7959F5FC9F7880F911DDB
:102220009695879597F90895E1E0660F771F881FC7
:10223000BB1F621773078407BA0720F0621B730B7A
:10224000840BBA0BEE1F88F7E09508950E94BB0F30
:1022500088F09F5798F0B92F9927B751B0F0E1F067
:10226000660F771F881F991F1AF0BA95C9F714C017
:10227000B13091F00E94D50FB1E008950C94D50FC4
:10228000672F782F8827B85F39F0B93FCCF3869550
:1022900077956795B395D9F73EF4909580957095AD
:1022A00061957F4F8F4F9F4F08950E94FA0E08F45B
:1022B0008FEF08950E94FA0E880B990B08950F93E3
:1022C0001F93CF93DF938230910510F482E090E06A
:1022D000E0910204F091030430E020E0B0E0A0E0DF
:1022E000309799F42115310509F44AC0281B390BA0
:1022F00024303105D8F58A819B816115710589F1FA
:10230000FB0193838283FE0111C0408151810281D0
:10231000138148175907E0F04817590799F41097A7
:1023200061F012960C93129713961C933296CF017C
:10233000DF91CF911F910F910895009302041093A4
:102340000304F4CF2115310551F04217530738F03B
:10235000A901DB019A01BD01DF01F801C1CFEF0145
:10236000F9CF9093030480930204CDCFFE01E20FD6
:10237000F31F819391932250310939832883D7CF5A
:102380002091000430910104232B41F42091040199
:102390003091050130930104209300042091020143
:1023A000309103012115310541F42DB73EB740911D
:1023B000060150910701241B350BE0910004F091B8
:1023C0000104E217F307A0F42E1B3F0B281739076F
:1023D00078F0AC014E5F5F4F2417350748F04E0F81
:1023E0005F1F5093010440930004819391939FCF0A
:1023F000F0E0E0E09CCFCF93DF930097E9F0FC01A1
:10240000329713821282A0910204B0910304ED016D
:1024100030E020E01097A1F420813181820F931FDA
:1024200020910004309101042817390709F061C098
:10243000F0930104E0930004DF91CF910895EA0145
:10244000CE17DF07E8F54A815B819E0141155105F2
:10245000B1F7E901FB83EA8349915991C40FD51F74
:10246000EC17FD0761F4808191810296840F951F1E
:10247000E90199838883828193819B838A83F0E039
:10248000E0E012968D919C9113970097B9F52D91EC
:102490003C911197CD010296820F931F2091000469
:1024A000309101042817390739F6309751F5109209
:1024B000030410920204B0930104A0930004BCCF63
:1024C000D383C28340815181840F951FC817D907D8
:1024D00061F44E5F5F4F88819981480F591F518386
:1024E00040838A819B81938382832115310509F082
:1024F000B0CFF0930304E09302049ECFFD01DC0112
:10250000C0CF13821282D7CFB0E0A0E0EAE8F2E1B8
:102510000C94DE0F8C01009751F4CB010E945F11E7
:102520008C01C801CDB7DEB7E0E10C94FA0FFC01D5
:10253000E60FF71F9C0122503109E217F30708F458
:102540009DC0D901CD91DC911197C617D70798F09E
:10255000C530D10530F3CE0104978617970708F3ED
:10256000C61BD70B2297C193D1936D937C93CF0158
:102570000E94FB11D6CF5B01AC1ABD0A4C018C0E38
:102580009D1EA0910204B0910304512C412CF12C0A
:10259000E12C109731F58091000490910104881589
:1025A000990509F05CC04616570608F058C080919E
:1025B000020190910301009741F48DB79EB74091BD
:1025C000060150910701841B950BE817F90708F0E5
:1025D00055C0F0930104E0930004F9017183608316
:1025E000A0CF8D919C91119712966C901297139693
:1025F0007C901397A815B90559F56C0142E0C40EFB
:10260000D11CCA14DB0420F1AC014A195B09DA01C0
:102610001296159780F06282738251834083D901AC
:102620006D937C93E114F10471F0D7011396FC9340
:10263000EE93129776CF22968C0F9D1FF90191830E
:102640008083F301EFCFF0930304E093020469CF9A
:102650004816590608F42C017D01D3019ACFCB010D
:102660000E945F117C01009749F0AE01B8010E9401
:102670004613C8010E94FB11870153CF10E000E010
:1026800050CF81E090E0F8940C945613FB01DC01EC
:1026900002C001900D9241505040D8F70895FB01BF
:1026A000DC0101900D920020E1F70895F894FFCF2E
:1026B000330200000404800006050400000000420C
:1026C000011501D004EB000E01FB00EC000000003E
:1026D000005003B002DD029D030E03EC0200030074
:1026E0000000005706B002D004CF0400000000C173
:1026F00003BD030D0A006E616E00696E66006F76A1
:10270000660050726F6772616D20737461727469D4
:102710006E672E2E00533A2053657475702020206A
:102720002020202000533A2043616C69627261745A
:10273000696E672000533A2052656164696E6720B4
:102740002020202000533A2054657374696E67205E
:102750002020202000533A204F757470757420207B
:102760002020202000533A204572726F72202020D2
:10277000202020200074696D6520286D73292C208D
:10278000666F72636520284E292C20766F6C746109
:102790006765202856292C2063757272656E742037
:1027A000286D41292C20706F7765722028572900E9
:1027B0002C00627574746F6E3A200020707265731D
:1027C000736564092073746174653A2000546573FD
:1027D00074696E67206D6F746F72007468727573C0
:1027E000743A00202020202020202020202020209B
:0427F00020200000A5
:00000001FF
