:100000000C94DF000C9407010C9407010C94070179
:100010000C9407010C9407010C9407010C94070140
:100020000C9407010C9407010C9407010C94720CBA
:100030000C9407010C9407010C9407010C94070120
:100040000C94D00B0C9407010C94400C0C941A0CDB
:100050000C9407010C9407010C9407010C94070100
:100060000C94B10A0C94070100407A10F35A00A0D6
:10007000724E18090010A5D4E80000E87648170071
:1000800000E40B54020000CA9A3B000000E1F505B1
:10009000000080969800000040420F000000A086FB
:1000A00001000000102700000000E803000000002D
:1000B0006400000000000A000000000001000000D1
:1000C00000002C76D888DC674F0823DFC1DFAE59EB
:1000D000E1B1B796E5E3E453C63AE651997696E87E
:1000E000E6C28426EB898C9B62ED407C6FFCEFBC02
:1000F0009C9F40F2BAA56FA5F490055A2AF75C932D
:100100006B6CF9676DC11BFCE0E40D47FEF520E662
:10011000B500D0ED902E0300943577050080841E45
:10012000080000204E0A000000C80C333333330FA0
:10013000986E12831141EF8D2114893BE65516CF3D
:10014000FEE6DB18D1844B381BF77C1D901DA4BB49
:10015000E424203284725E228100C9F124ECA1E5FE
:100160003D270000000023002600290000000000B9
:10017000240027002A0000000000250028002B0092
:10018000040404040404040402020202020203033D
:100190000303030301020408102040800102040845
:1001A00010200102040810200000000800020100D5
:1001B0000003040700000000000000002E0D1124C1
:1001C0001FBECFEFD8E0DEBFCDBF12E0A0E0B1E0B0
:1001D000E8EDF1E302C005900D92A638B107D9F71A
:1001E00024E0A6E8B2E001C01D92A735B207E1F70E
:1001F00010E0CFEDD0E004C02197FE010E94D5159C
:10020000CE3DD107C9F70E94D20D0C94EA180C9488
:100210000000E0914104EC3088F54091420428E868
:1002200030E0241B310947FD3395220F331F220F85
:10023000331F8217930784F04091430428E532E08E
:10024000241B310947FD3395220F331F220F331F23
:10025000821793070CF49C0122503109220F331F9F
:100260004FB7F8948E2F90E0FC01EE0FFF1FE80FC0
:10027000F91FED5EFB4F328321834FBF089520911C
:100280001E03260F3327331F21323105ECF4209152
:100290004403FC0190E080E0243069F082E008959E
:1002A000A0911E032191AC0144505D4FA40FB52FC6
:1002B000B11D2C930196861798F380911E03680F49
:1002C00060931E0380E0089581E0089508950895E5
:1002D0000895E091F3028091F202E81730F4F0E023
:1002E000EE52FD4F808190E008958FEF9FEF0895CB
:1002F0009091F3028091F2022FEF3FEF981748F4AC
:10030000E92FF0E0EE52FD4F208130E09F5F9093A7
:10031000F302C90108958091F2029091F302891BC2
:10032000990B0895CF92DF92EF92FF920F931F9354
:10033000CF93DF937C01CB018A012091D10222234C
:1003400089F0EB016B01C40ED51ECC15DD0569F0FB
:100350006991D701ED91FC910190F081E02DC701E9
:100360000995F3CF642F0E943F01C801DF91CF911F
:100370001F910F91FF90EF90DF90CF900895CF9352
:10038000DF931F92CDB7DEB769832091D10222237C
:10039000F9F02091F402203258F021E030E0FC0125
:1003A0003383228390E080E00F90DF91CF91089516
:1003B0008091F502E82FF0E0EF54FD4F9981908392
:1003C0008F5F8093F5028093F40281E090E0ECCFA0
:1003D00061E0CE0101960E943F01F7CF833081F0AA
:1003E00028F4813099F08230A9F008958730A9F07F
:1003F0008830C9F08430B1F4809180008F7D03C0D3
:10040000809180008F7780938000089584B58F77E6
:1004100084BD089584B58F7DFBCF8091B0008F7728
:100420008093B00008958091B0008F7DF9CF1F9325
:10043000CF93DF93282F30E0F901E855FE4F8491E8
:10044000F901EC56FE4FD491F901E058FE4FC491EA
:10045000CC23A9F0162F81110E94EE01EC2FF0E0C1
:10046000EE0FFF1FEA58FE4FA591B4918FB7F89495
:10047000EC91111108C0D095DE23DC938FBFDF9182
:10048000CF911F910895DE2BF8CF1092440381E0A5
:10049000809346031092450361E082E10E941702B7
:1004A00061E083E10E941702E9EBF0E080818E7F3A
:1004B000808380818D7F808388E48093B80085E489
:1004C0008093BC000895CF93DF9391E09093FB025B
:1004D0008823B9F0C091B800D091BA008091BC00D7
:1004E0008A7B8093BC0060E082E10E94170260E09A
:1004F00083E10E9417020E944502D093BA00C09384
:10050000B800DF91CF910895CF93DF9390E0FC0185
:10051000EC56FE4F249180589E4FFC018491882315
:10052000C9F090E0880F991FFC01E459FE4FA59196
:10053000B491FC01EA58FE4FC591D49161110DC0F0
:100540009FB7F8948C91209582238C9388812823DF
:1005500028839FBFDF91CF910895623051F49FB7F8
:10056000F8943C91822F809583238C93E8812E2BE5
:10057000EFCF8FB7F894EC912E2B2C938FBFEACF4F
:100580008E3008F08E508770806480937C0080915C
:100590007A00806480937A0080917A0086FDFCCF97
:1005A000809178009091790008953FB7F8948091F8
:1005B000AD029091AE02A091AF02B091B00226B50B
:1005C000A89B05C02F3F19F00196A11DB11D3FBF8B
:1005D000BA2FA92F982F8827BC01CD01620F711D5A
:1005E000811D911D42E0660F771F881F991F4A9554
:1005F000D1F708958F929F92AF92BF92CF92DF92E0
:10060000EF92FF924B015C010E94D5026B017C01CD
:100610000E94D5026C197D098E099F09683E7340BE
:1006200081059105A8F321E0821A9108A108B1087B
:1006300088EEC80E83E0D81EE11CF11C81149104E1
:10064000A104B10429F7FF90EF90DF90CF90BF9005
:10065000AF909F908F9008952FB7F8946091A90262
:100660007091AA028091AB029091AC022FBF0895C5
:100670008FE096E00E9409018091A1028F5F809334
:10068000A10208958EE096E00E9409018091A102E6
:100690008F5F8093A102089580ED97E00E94090189
:1006A0008091A1028F5F8093A1020895AF92BF92C3
:1006B000CF92DF92EF92FF920F931F93CF93DF932E
:1006C0006C017B018B01040F151FEB015E01AE185D
:1006D000BF08C017D10759F06991D601ED91FC917F
:1006E0000190F081E02DC6010995892B79F7C501AC
:1006F000DF91CF911F910F91FF90EF90DF90CF90FE
:10070000BF90AF900895FC01538D448D252F30E0AC
:10071000842F90E0821B930B541710F0CF9608950E
:1007200001970895FC01918D828D981761F0A28D3B
:10073000AE0FBF2FB11D5D968C91928D9F5F9F7301
:10074000928F90E008958FEF9FEF0895FC01918DB7
:10075000828D981731F0828DE80FF11D858D90E024
:1007600008958FEF9FEF0895FC01918D228D892FC1
:1007700090E0805C9F4F821B91098F7399270895A9
:1007800086E793E00E94B40321E0892B09F420E07E
:10079000822F089580E090E0892B29F00E94C00309
:1007A00081110C9400000895FC01A48DA80FB92FAD
:1007B000B11DA35ABF4F2C91848D90E001968F7389
:1007C0009927848FA689B7892C93A089B1898C91A8
:1007D000837080648C93938D848D981306C00288F7
:1007E000F389E02D80818F7D80830895EF92FF92C1
:1007F0000F931F93CF93DF93EC0181E0888F9B8D44
:100800008C8D98131AC0E889F989808185FF15C0FD
:100810009FB7F894EE89FF896083E889F989808120
:100820008370806480839FBF81E090E0DF91CF91EF
:100830001F910F91FF90EF900895F62E0B8D10E011
:100840000F5F1F4F0F731127E02E8C8D8E110CC080
:100850000FB607FCFACFE889F989808185FFF5CFCB
:10086000CE010E94D403F1CFEB8DEC0FFD2FF11DD3
:10087000E35AFF4FF0829FB7F8940B8FEA89FB8908
:1008800080818062CFCFCF93DF93EC01888D882366
:10089000B9F0AA89BB89E889F9898C9185FD03C0E3
:1008A000808186FD0DC00FB607FCF7CF8C9185FFC8
:1008B000F2CF808185FFEDCFCE010E94D403E9CF36
:1008C000DF91CF9108950F931F93CF93DF93FC0196
:1008D00020812223F9F0EC010E942C0309811A8166
:1008E0002B813C81AB01BC01401B510B620B730B94
:1008F0008D819E81B0E0A0E0481759076A077B0709
:1009000048F0EF81F88509950E942C0369837A836A
:100910008B839C83DF91CF911F910F910895862F38
:10092000642F0C948402CF93DF93FC01218930E083
:10093000F901E855FE4F8491F901EC56FE4FD49130
:10094000F901E058FE4FC491CC2379F081110E9447
:10095000EE01EC2FF0E0EE0FFF1FEE59FE4FA591D8
:10096000B491EC91ED2381E009F480E08170DF9196
:10097000CF910895CF92DF92EF92FF920F931F9342
:10098000CF93DF93FC01C48121E02093D102C09377
:1009900095021092F5021092F4028485682B8AE683
:1009A00093E00E94BF01D091F402D13208F092C0CE
:1009B0000E94D5026B017C0180914403811165C0C6
:1009C00082E08093440381E0809346038FEF80931D
:1009D000430310926803D0936703A1EBB2E0E7E40E
:1009E000F3E080E0D81385C0109269038091690319
:1009F000CC0FC82BC093690380914503813009F067
:100A00007CC0109245030E94D5026B017C0180914D
:100A100069038093BB008091F7029091F802A09146
:100A2000F902B091FA02892B8A2B8B2B99F00E9444
:100A3000D5020091F7021091F8022091F90230914D
:100A4000FA026C197D098E099F09061717072807F6
:100A50003907E0F18091BC0083FDD9CF85EC80930C
:100A6000BC000E94D5026B017C018091440382305E
:100A700009F445C0809143038F3F61F180914303A6
:100A8000803241F18091430325C08091F70290911B
:100A9000F802A091F902B091FA02892B8A2B8B2BD4
:100AA00009F48ACF0E94D5020091F7021091F80252
:100AB0002091F9023091FA026C197D098E099F0983
:100AC000061717072807390708F076CF8091F60236
:100AD0000E9463021092F5021092F4021092D10269
:100AE000DF91CF911F910F91FF90EF90DF90CF900A
:100AF00008959D9191938F5F75CF85EEB0CF8091D2
:100B0000F7029091F802A091F902B091FA02892BB4
:100B10008A2B8B2B09F4A9CF0E94D5020091F702F2
:100B20001091F8022091F9023091FA026C197D09B6
:100B30008E099F09061717072807390708F095CF70
:100B4000C5CF089590E080E00895FB01019000205A
:100B5000E9F73197AF01461B570BDC01ED91FC9192
:100B60000280F381E02D0994CF93DF93FC0144814F
:100B700055816081718186E793E00E945603EC0104
:100B80006CE471E086E793E00E94A5058C0F9D1F41
:100B9000DF91CF9108958F929F92AF92BF920F9362
:100BA0001F93CF93DF93CDB7DEB7A1970FB6F8941D
:100BB000DEBF0FBECDBF19A2423008F44AE08E015D
:100BC0000F5D1F4F842E912CB12CA12CA5019401F7
:100BD0000E949315E62FB901CA01EA3004F5E05DE1
:100BE000D801EE938D01232B242B252B79F790E050
:100BF00080E0109729F0BD0186E793E00E94A505EB
:100C0000A1960FB6F894DEBF0FBECDBFDF91CF9196
:100C10001F910F91BF90AF909F908F900895E95CC6
:100C2000DFCFCF93DF93D0E0C0E0009731F0BC017D
:100C300086E793E00E94A505EC016CE471E086E78D
:100C400093E00E94A5058C0F9D1FDF91CF91089521
:100C500082309105F9F03CF4009769F00197B9F002
:100C60008FE991E00AC083309105B9F00497C1F78C
:100C70008FE891E002C08FE491E0909301018093AE
:100C8000000180910001909101010C9411068FE503
:100C900091E0F3CF8FE691E0F0CF8FE791E0EDCFD9
:100CA0004F925F926F927F928F929F92AF92BF927C
:100CB000CF92DF92EF92FF920F931F93CF936B012E
:100CC0007C01742EAC019B010E94EE166FEA71E06C
:100CD000811126C046015701E894B7F82FEF3FEF86
:100CE0004FE75FE7C501B4010E94EE1681110CC009
:100CF0002FEF3FEF4FE75FE7C501B4010E943814C3
:100D000063EB71E0181664F02FEF3FEF4FE75FE4FD
:100D1000C701B6010E94E9161816ACF467EB71E042
:100D200086E793E0CF911F910F91FF90EF90DF90B6
:100D3000CF90BF90AF909F908F907F906F905F907B
:100D40004F900C94A5052FEF3FEF4FE75FECC701E5
:100D5000B6010E94381487FDE1CF20E030E0A90100
:100D6000C701B6010E94381410E000E087FF0AC0F6
:100D70006DE286E793E00E94F6038C01F7FAF094A7
:100D8000F7F8F094C0E060E070E080E09FE37C164C
:100D900041F020E030E040E251E40E944816CF5F8D
:100DA000F6CFA70196010E94DC152B013C010E94A1
:100DB000BA164B015C014AE00E94CB057C01E00EB3
:100DC000F11ECC23C1F1C501B4010E943D149B0169
:100DD000AC01C301B2010E94DB154B015C016EE264
:100DE00086E793E00E94F603E80EF91EC15018F161
:100DF00020E030E040E251E4C501B4010E949E14BD
:100E00002B013C010E94BA164B01B12CA12C4AE0E7
:100E1000C501B4010E94CB05E80EF91EC501B4015D
:100E20000E943D149B01AC01C301B2010E94DB157D
:100E30004B015C01DBCFC701CF911F910F91FF9058
:100E4000EF90DF90CF90BF90AF909F908F907F906A
:100E50006F905F904F9008950F931F93CF938C01E5
:100E6000C62F0E94BA046C2F6460C8010E94BA04A5
:100E70006C2F6B7FC8010E94BA0483EC90E001974D
:100E8000F1F7CF911F910F9108950F931F93CF9377
:100E9000DF938C01D62FC42F607F642B0E942C0718
:100EA00080E1D89FB00111246C2BC801DF91CF9154
:100EB0001F910F910C942C0740E062E084E494E0D1
:100EC0000E9445078BE39FE10197F1F70895CF93C7
:100ED000DF93CDB7DEB728970FB6F894DEBF0FBE0D
:100EE000CDBF98E0E9E0F1E0DE01119601900D92AE
:100EF0009A95E1F790914C04981708F48FEF90E0E1
:100F0000880F991F21E030E02C0F3D1F820F931FA7
:100F1000FC016081606840E084E494E028960FB6AC
:100F2000F894DEBF0FBECDBFDF91CF910C94450783
:100F300040E061E084E494E00E9445078BE39FE198
:100F40000197F1F780914D04882319F080E00C940B
:100F50006707089541E00E94450781E090E0089509
:100F6000CF92DF92EF92FF92CF93DF932091A20274
:100F70003091A302232B81F484E090E09093A302AC
:100F80008093A2028BEB91E0DF91CF91FF90EF90E5
:100F9000DF90CF900C941106EC0184E090E09093E8
:100FA000A3028093A2020E9428060E942C03C090F4
:100FB000A402D090A502E090A602F090A7026C19BE
:100FC0007D098E099F094AE00E94CB0566EF71E01A
:100FD00086E793E00E94A505CC84DD840D2C000CEF
:100FE000EE08FF084AE0C701B601F7FE0DC06DE24A
:100FF00086E793E00E94F60366277727CB016C19FA
:101000007D098E099F094AE00E94CB0566EF71E0D9
:1010100086E793E00E94A505688179818A819B819A
:1010200042E00E94500666EF71E086E793E00E947E
:10103000A5056C817D818E819F8142E00E945006D2
:1010400066EF71E086E793E00E94A50568857985E3
:101050008A859B8542E00E9450066CE471E086E739
:1010600093E0DF91CF91FF90EF90DF90CF900C94C1
:10107000A50585ED8093BC008091F7029091F80260
:10108000A091F902B091FA020796A11DB11D23E0CB
:10109000B695A795979587952A95D1F72091BC008D
:1010A00024FD03C01092440308954091F70250912B
:1010B000F8026091F9027091FA02452B462B472BFA
:1010C00069F30097A105B10541F02AE22A95F1F7ED
:1010D00000C00197A109B109E1CF8091F6020C94FB
:1010E00063020E94D5180F931F93CF93DF93EC01F7
:1010F00088819981009759F02A813B81261737070B
:1011000030F081E0DF91CF911F910F9108958B0115
:101110006F5F7F4F0E941818009759F0998388835A
:101120001B830A832C813D81232B59F7FC011082FC
:10113000E8CF80E0E7CFCF93DF93EC0188819981FE
:10114000009711F00E948F17198218821D821C824D
:101150001B821A82DF91CF910895CF92DF92EF9296
:10116000FF920F931F93CF93DF93CDB7DEB72897EE
:101170000FB6F894DEBF0FBECDBF7C01CB014AE0B5
:101180009E012F5F3F4F6901B9010E94CC11F6010A
:1011900001900020E9F73197EC19FD09D9F0D7014A
:1011A00014960D911C910E0F1F1FB801C7010E94CC
:1011B00073088823F9F0F7012081318184819581BA
:1011C000B601820F931F0E94E318D70115961C9356
:1011D0000E931497C70128960FB6F894DEBF0FBE82
:1011E000CDBFDF91CF911F910F91FF90EF90DF90D6
:1011F000CF900895C7010E949B08ECCFEF92FF9219
:101200000F931F93CF93DF938C017B01FB01019020
:101210000020E9F73197E61BF70BD1F0DC011496BB
:10122000CD91DC91CE0FDF1FBE010E947308882391
:10123000B9F0F8012081318184819581B701820F55
:10124000931F0E94E318D8011596DC93CE93149750
:10125000C801DF91CF911F910F91FF90EF900895FA
:10126000C8010E949B08F4CFEF92FF920F931F9347
:10127000CF93DF93EC017B018A01BA010E947308CE
:1012800081110BC0CE010E949B08CE01DF91CF914E
:101290001F910F91FF90EF9008951D830C83B7016C
:1012A000888199810E94E318F0CFEF92FF920F930B
:1012B0001F93CF93DF93CDB7DEB762970FB6F89445
:1012C000DEBF0FBECDBF8C01CB01F80111821082B1
:1012D00013821282158214824AE09E012F5F3F4FD3
:1012E0007901B9010E94CC11F70101900020E9F7C2
:1012F0003197AF014E195F09B701C8010E94340947
:1013000062960FB6F894DEBF0FBECDBFDF91CF91CE
:101310001F910F91FF90EF900895FB01DC01119652
:101320001C921E9213961C921E92129715961C9256
:101330001E9214978617970749F060817181611595
:10134000710521F0448155810C9434090895FC0104
:10135000118210821382128215821482FB01019085
:101360000020E9F73197AF01461B570B0C94340965
:10137000FC0180819181009711F00C948F170895E2
:101380002F923F924F925F926F927F928F929F9295
:10139000AF92BF92CF92DF92EF92FF920F931F9383
:1013A000CF93DF93CDB7DEB72D970FB6F894DEBF9E
:1013B0000FBECDBF5C016C01F12CE12C772473943E
:1013C00082E0682E46018A189B0800915104109112
:1013D00052040E0D1F1DD80118968C9118978B7F03
:1013E00018968C931897ED91FC910190F081E02D67
:1013F000C80109958D87F8018085869581702D84B7
:10140000281609F468C00E942C03D80112966D9327
:101410007D938D939C93159718968C91189786259C
:1014200018968C93E0915104F0915204EE0DFF1D3B
:10143000608562FB112710F960FD10E0D6011D9355
:101440006D01808580FD26C082FF24C068EF71E0B9
:10145000CE0101960E94A709BE016F5F7F4FCE01AA
:1014600007960E948D09B401CE0107960E94AD082F
:1014700061E072E00E94FE08612F70E00E94AD08FA
:101480000E94B405CE0107960E94B809CE010196CC
:101490000E94B809B2E1EB0EF11CE6E3EE16F1048E
:1014A00009F090CF2D960FB6F894DEBF0FBECDBFDA
:1014B000DF91CF911F910F91FF90EF90DF90CF9030
:1014C000BF90AF909F908F907F906F905F904F9064
:1014D0003F902F9008950E942C03F80122813381C0
:1014E000448155811B012C01221A330A440A550AF2
:1014F000B201A10186819781B0E0A0E048175907A9
:101500006A077B0708F48ECF808581703D8438168A
:1015100009F488CF0E942C03D80112966D937D9315
:101520008D939C93159718968C91189787258460B6
:1015300018968C930E942C03F801218532854385EF
:101540005485621B730B840B950B658776878787A1
:10155000908B0E942C03F8016187728783879487A0
:1015600061CF1F920F920FB60F9211242F933F93CA
:101570004F935F936F937F938F939F93AF93BF939B
:10158000EF93FF938091B900887F803609F44AC0B9
:10159000F0F5883209F4A7C018F5803109F49BC032
:1015A000B8F4882309F4F9C0883009F494C0FF9195
:1015B000EF91BF91AF919F918F917F916F915F91CB
:1015C0004F913F912F910F900FBE0F901F90189544
:1015D000883109F488C0803251F78093430314C0E6
:1015E000803409F49DC040F48033B9F38833F9F6B0
:1015F0008093430385ECB0C0803509F485C08835FD
:1016000009F496C0883499F60E943908D0CF8839F9
:1016100009F48CC038F5883729F050F4883611F079
:10162000803729F683E0809344031092420357C029
:10163000883809F47BC0803919F0803809F0B7CFB9
:1016400080914203803208F071C0E091420381E052
:101650008E0F809342038091BB00F0E0EE5DFC4F63
:1016600080833DC0803B39F0E0F4803A09F479C0D2
:10167000883A09F09CCF84E08093440310921F03C2
:1016800010921E03E0911C03F0911D0309958091B7
:101690001E0381110FC081E080931E031092FC0293
:1016A00009C0803C09F4A6CF883C09F4A3CF883B4D
:1016B00009F07DCFE0911F0381E08E0F80931F031F
:1016C000F0E0E450FD4F80818093BB0090911F03B8
:1016D00080911E0329C0809169038093BB0085EC33
:1016E0008093BC0064CF9091680380916703981742
:1016F00058F5E091680381E08E0F80936803F0E075
:10170000E95BFC4F8081E9CFE091680381E08E0FB7
:10171000809368038091BB00F0E0E95BFC4F80831D
:1017200090916803809167039817C8F285E8D8CF35
:10173000E091680381E08E0F809368038091BB0085
:10174000F0E0E95BFC4F80838091460381115CCF20
:1017500081E08093450384EA8093BC0010924403A7
:1017600026CF85EC8093BC00109244038091420305
:10177000803230F4E0914203F0E0EE5DFC4F1082E5
:101780006091420370E0E0912003F091210382E236
:1017900093E00995109242030ACF1092430334CF8D
:1017A0001F920F920FB60F9211242F933F938F9396
:1017B0009F93AF93BF938091A9029091AA02A091A9
:1017C000AB02B091AC023091A80223E0230F2D3779
:1017D00058F50196A11DB11D2093A8028093A9027E
:1017E0009093AA02A093AB02B093AC028091AD0299
:1017F0009091AE02A091AF02B091B0020196A11DEE
:10180000B11D8093AD029093AE02A093AF02B0934E
:10181000B002BF91AF919F918F913F912F910F9007
:101820000FBE0F901F90189526E8230F0296A11D5A
:10183000B11DD2CF1F920F920FB60F9211242F938A
:101840003F934F935F936F937F938F939F93AF9348
:10185000BF93EF93FF9386E793E00E94D403FF9139
:10186000EF91BF91AF919F918F917F916F915F9118
:101870004F913F912F910F900FBE0F901F90189591
:101880001F920F920FB60F9211242F938F939F9355
:10189000EF93FF93E0918603F09187038081E091BD
:1018A0008C03F0918D0382FD1BC0908180918F038A
:1018B0008F5F8F7320919003821741F0E0918F0327
:1018C000F0E0EA58FC4F958F80938F03FF91EF91E2
:1018D0009F918F912F910F900FBE0F901F90189591
:1018E0008081F4CF1F920F920FB60F9211242F9385
:1018F0003F934F935F936F937F938F939F93AF9398
:10190000BF93CF93DF93EF93FF9380919402C091A5
:101910003704D0E087FF24C0109285001092840025
:10192000809194028F5F8093940280919402082E9C
:10193000000C990B8C179D0724F4809194028C3035
:10194000C4F18091840090918500049680349C4974
:1019500008F47AC08091840090918500049676C046
:1019600080919402082E000C990B8C179D07C4F6E9
:10197000E09194028E2FEE0F990BFC01EE0FFF1FEA
:10198000E80FF91FED5EFB4F808186FFC9CFE09124
:1019900094028E2FEE0F990BFC01EE0FFF1FE80F44
:1019A000F91FED5EFB4F808160E08F730E9417028C
:1019B000B7CF2091840030918500E09194028E2F62
:1019C000EE0F990BFC01EE0FFF1FE80FF91FED5E04
:1019D000FB4F81819281820F931F909389008093A6
:1019E0008800E09194028E2FEE0F990BFC01EE0F10
:1019F000FF1FE80FF91FED5EFB4F808186FF11C0CE
:101A0000E09194028E2FEE0F990BFC01EE0FFF1F59
:101A1000E80FF91FED5EFB4F808161E08F730E943C
:101A20001702FF91EF91DF91CF91BF91AF919F91FD
:101A30008F917F916F915F914F913F912F910F9077
:101A40000FBE0F901F90189580E49CE99093890039
:101A5000809388008FEF80939402E3CF10926D0300
:101A600010926C0388EE93E0A0E0B0E080936E03E8
:101A700090936F03A0937003B093710328E131E05A
:101A800030936B0320936A031092790310927803CA
:101A900080937A0390937B03A0937C03B0937D03A0
:101AA0008AE291E0909377038093760385EC90E04F
:101AB000909383038093820384EC90E0909385035A
:101AC0008093840380EC90E0909387038093860357
:101AD00081EC90E0909389038093880382EC90E0FE
:101AE00090938B0380938A0386EC90E090938D0310
:101AF00080938C0310928F031092900310929103A5
:101B00001092920386E390E00E94F316FC019C0180
:101B10002A5C3F4F6AE070E048E451E01282138291
:101B20001482158277836683108651834083118ADD
:101B30007296E217F30791F7909352048093510441
:101B400010924704109246048CE391E09093450470
:101B50008093440410924D0487E28093480480E10E
:101B600080934E0482E080934F0410925004809141
:101B700037048C3098F491E0980F90933704809359
:101B8000410490E0FC01EE0FFF1FE80FF91FED5E2E
:101B9000FB4F88EB9BE09283818308958FEF8093C6
:101BA00041040895CF93DF93CDB7DEB764970FB6A6
:101BB000F894DEBF0FBECDBF789484B5826084BD3B
:101BC00084B5816084BD85B5826085BD85B5816041
:101BD00085BD80916E00816080936E0010928100BF
:101BE000809181008260809381008091810081607A
:101BF000809381008091800081608093800080913B
:101C0000B10084608093B1008091B00081608093C6
:101C1000B00080917A00846080937A0080917A008D
:101C2000826080937A0080917A00816080937A004C
:101C300080917A00806880937A001092C10010929F
:101C4000A3021092A202E0918603F091870382E042
:101C50008083E0918203F09183031082E0918403FA
:101C6000F09185038FEC808310928E03E0918A03BC
:101C7000F0918B0386E08083E0918803F0918903E3
:101C8000808180618083E0918803F0918903808165
:101C900088608083E0918803F09189038081806867
:101CA0008083E0918803F091890380818F7D808318
:101CB00083E192E00E9411061092F3021092F20268
:101CC0001092F5021092F4020E94450286E691E01D
:101CD00090931D0380931C0387E691E0909321036A
:101CE000809320031092490480914F04823018F0B1
:101CF00098E09093490480934C0462E370E080E0A4
:101D000090E00E94FA026091500484E494E00E9402
:101D1000BA0468EE73E080E090E00E94FA0260E3AB
:101D200084E494E00E942C070BE416E4C8010197B8
:101D3000F1F760E384E494E00E942C07C801019766
:101D4000F1F760E384E494E00E942C0783E592E0DD
:101D50000197F1F760E284E494E00E942C0760911F
:101D60004904606240E084E494E00E94450784E016
:101D700080934A0440E06CE084E494E00E944507CC
:101D80000E94980782E080934B0440E066E084E480
:101D900094E00E9445070E945C0788E0809350040D
:101DA00060E084E494E00E94BA048091A2029091E1
:101DB000A3020E94280661E08DE00E94840261E097
:101DC00083E00E94840260E08EE00E94840260E072
:101DD0008FE00E94840262E084E00E94840262E05C
:101DE00087E00E94840262E088E00E94840211E1A0
:101DF000A12E11E0B12ED12CC12C09E1802E912C05
:101E000000915104109152040C0D1D1DD5017D90BF
:101E10005D01672D70E0D801ED91FC910280F381A6
:101E2000E02D42E050E0C8010995F801718A108662
:101E30000190F081E02D0190F081E02DC80109951D
:101E4000882339F0D80118968C91189783601896DA
:101E50008C930E942C03F80162837383848395839F
:101E6000E0915104F0915204EC0DFD1D97828682A1
:101E7000F2E1CF0ED11C26E3C216D10409F686E8A2
:101E800092E00E94B007809141048C3008F051C06C
:101E900061E083E00E94840280914104282F30E0B9
:101EA000F901EE0FFF1FE20FF31FED5EFB4F908174
:101EB000907C9360908310924204109243042CE033
:101EC000622F0E94B515829FB001112430E020E0FE
:101ED000AB01420F531FFA01EE0FFF1FE40FF51F76
:101EE000ED5EFB4F908196FD16C02F5F3F4F2C306B
:101EF000310571F781110FC01092800082E080934C
:101F000081001092850010928400B19A80916F0038
:101F1000826080936F00E09141048E2F90E0FC017D
:101F2000EE0FFF1FE80FF91FED5EFB4F808180640D
:101F3000808388EE93E00E94090168EE73E080E000
:101F400090E00E94FA0281E090E09093A3028093D7
:101F5000A2020E94280661E070E0CE0109960E946C
:101F60005509BE01675F7F4FCE0101960E948D0922
:101F700066E272E0CE0101960E94FE080E94B4055E
:101F8000CE0101960E94B809CE0109960E94B809B7
:101F90000E9498070E945C0761E070E0CE010996FC
:101FA0000E945509BE01675F7F4FCE0101960E94D6
:101FB0008D0966E272E0CE0101960E94FE08DC0106
:101FC00014964D915C9115976D917C9184E494E009
:101FD0000E945603CE0101960E94B809CE010996CF
:101FE0000E94B80986E992E00E94C0098091960299
:101FF0008823C1F31AE08FE00E94C002E80EF91EA8
:102000001150C9F7C7016AE070E00E94C1157B0159
:1020100081E090E00E94C11590E080E00E943D14B4
:102020004B015C018092990290929A02A0929B02CD
:10203000B0929C020E9498070E945C078E010F5F7D
:102040001F4F25E042E0C501B4010E94AE1163E3D9
:1020500072E0CE010F960E94A709BE01615F7F4F1B
:10206000CE0109960E948D09B801CE0109960E9401
:10207000FE0860E472E00E94FE080E94B405CE01F2
:1020800009960E94B809CE010F960E94B809B801BE
:1020900084E494E00E94A50560E472E084E494E0A6
:1020A0000E94A50581E00E9467076AE070E0CE010A
:1020B0000F960E945509BE01615F7F4FCE010996C0
:1020C0000E948D0968E472E0CE0109960E94FE0824
:1020D0000E94B405CE0109960E94B809CE010F9660
:1020E0000E94B8096AE070E0CE010F960E9455097F
:1020F000BE01615F7F4FCE0109960E948D0968E4A1
:1021000072E0CE0109960E94FE08FC0144815581CF
:102110006081718184E494E00E945603CE010996A7
:102120000E94B809CE010F960E94B80986E992E094
:102130000E94C009809196028823C1F31AE08EE0C4
:102140000E94C002E80EF91E1150C9F72AE030E0E3
:10215000C701B9010E94C115C9010E94C11590E0D3
:1021600080E00E943D146B017C01C0929D02D092E0
:102170009E02E0929F02F092A0020E9498070E94A5
:102180005C078E010F5F1F4F25E042E0C701B601DB
:102190000E94AE1165E572E0CE010F960E94A7097C
:1021A000BE01615F7F4FCE0109960E948D09B80183
:1021B000CE0109960E94FE0862E672E00E94FE08C7
:1021C0000E94B405CE0109960E94B809CE010F966F
:1021D0000E94B809B80184E494E00E94A50562E673
:1021E00072E084E494E00E94A50581E00E94670704
:1021F0006AE672E084E494E00E94A5058AE692E033
:102200000E94110686E992E00E94C009809197021F
:102210008823C1F30E9498070E945C0783E0682E20
:10222000712C94E1C92ED12C28E3A22E23E0B22EEA
:1022300030E0832E30E0932E0E942C036093A402A2
:102240007093A5028093A6029093A70286E992E07C
:102250000E94C00982E090E09093A3028093A202C2
:102260000E9428068EE00E94C0027C018FE00E943E
:10227000C0028C01B701FF0C880B990B0E943F1420
:1022800020919D0230919E0240919F025091A002A8
:102290000E949E141B012C0120928602309287021C
:1022A0004092880250928902B801110F880B990B55
:1022B0000E943F142091990230919A0240919B0212
:1022C00050919C020E949E149B01AC0120938A02B3
:1022D00030938B0240938C0250938D02C201B10166
:1022E0000E949E1460938E0270938F0280939002DE
:1022F000909391027092A3026092A2020E942C031A
:10230000A1E0A0933804D0923E04C0923D046093B3
:10231000390470933A0480933B0490933C04B09248
:102320004004A0923F04A0930201809102018823FF
:1023300029F088E394E00E946304F7CF86E892E0F6
:102340000E94B0078114910409F476CF0E94C00363
:10235000882309F471CF0E9400006ECFEF920F9393
:102360001F93CF93DF93E80134E047FD34E1042E5F
:10237000000C550B57FF03C0519541955109E32EB1
:10238000022F242FAE010E94F111CE01DF91CF91D7
:102390001F910F91EF900895BB274A3031F4992394
:1023A00022F4BDE2909581959F4F0C94D811BB27E4
:1023B000FB015527AA27880F991FAA1FA41710F001
:1023C000A41B83955051B9F7A05DAA3308F0A95D0D
:1023D000A193009779F7B111B1931192CB010C94AD
:1023E0002814A9E0B0E0E7EFF1E10C9462156A016E
:1023F000F22EB02E102FFBE3AF2EA01608F41BE335
:102400001F5F012F27E0AE014F5F5F4F0E94501307
:10241000BC018981982F9970913009F43FC09BE2EB
:10242000E1FC04C09E2D9170E0FC3AC05E2D50711D
:10243000E82FE87083FF46C084E0911101C083E07B
:10244000EF2DE81B8F1508F0E0E0D6018E2F20E27B
:10245000552351F1992329F0D6019C93C601019689
:102460006C0196012D5F3F4FE2FE24C08EE4D60141
:102470008C9391E411969C93119712968C93D901A9
:102480008E2F90E281111BC0E20FF32FF11D1082FD
:102490008EEF9FEF2996ECE00C947E159DE2C6CF5F
:1024A00090E2C4CF2D9381508111FCCFCE0ED11C70
:1024B000E0E0D0CF8EE6D6018C9391E6DBCF9D9302
:1024C0008150E0CF482F447082FF3DC084E09111DD
:1024D00001C083E08F1510F4EF2DE81BD6018E2F7D
:1024E00020E2552309F1992329F0D6019C93C601D6
:1024F00001966C0196012D5F3F4FE2FE1BC089E4FF
:10250000D6018C938EE411968C93119786E41296E3
:102510008C93D9018E2F90E2882309F4B5CF9D9337
:102520008150FACF2D9381508111FCCFCE0ED11C5A
:10253000E0E0D9CF89E6D6018C938EE611968C9394
:10254000119786E6E4CF9B0177FF02C030E020E0E0
:10255000A1E0B0E0911102C0B0E0A0E0F901319635
:10256000AE0FBF1F8B2C912CBB2009F461C054010E
:10257000EFEFAE1ABE0AAA0DBB1DFA161B0619F024
:1025800014F04F2D4A1B511188C0E3FC59C076014D
:10259000A42FB0E2A1114FC0C40ED11C992309F49D
:1025A0005BC040E0D6011196F60190836D01552382
:1025B00009F448C0012F060F9A81582F507184FFEB
:1025C00003C0913309F4015010160CF047C00930D4
:1025D00008F008E0EEE2FE2E5B01A01AB1088501CA
:1025E0009194819491082F3F320729F4D601FC92EF
:1025F000F60131966F016217730794F10217130702
:102600007CF5DB01A21BB30BAA24A394B12CAC0E66
:10261000BD1EAA0DBB1D11968C9121503109D6010A
:10262000119628153905F4F0F60180836D01DBCF92
:10263000B12CA12CA0CFF701B1937F01A150AACF5B
:102640009111B0CFD601942F50E302C05D93915009
:102650009111FCCFC40ED11C40E0ACCF01E0BACF49
:1026600080E3DBCF6217730731F4963388F4953338
:1026700011F4552369F0F6018083FD01842F90E267
:10268000811108C0A40FB11D1C9290E080E002CF20
:1026900081E3F1CF91938150F3CF911183CF8ACF12
:1026A000283008F027E03327DA01990F311D87FD24
:1026B000916000966105710539F432602E5F3D939B
:1026C00030E32A95E1F708959F3F30F08038710597
:1026D000610509F03C5F3C5F3D93913008F08068F4
:1026E000911DDF93CF931F930F93FF92EF92192FBA
:1026F000987F9695E92F96959695E90FFF27EE53CB
:10270000FF4F99273327EE24FF24A701E701059007
:102710000894079428F4360FE71EF81E491F511D30
:10272000660F771F881F991F0694A1F705900794DD
:1027300028F4E70EF81E491F561FC11D770F881F8A
:10274000991F661F0694A1F70590079428F4F80EC8
:10275000491F561FC71FD11D880F991F661F771F5E
:102760000694A1F70590079420F4490F561FC71F40
:10277000D81F990F661F771F881F0694A9F78491A9
:102780001095177041F0D695C79557954795F794D2
:10279000E7941A95C1F7E8E6F0E068941590159172
:1027A00035916591959105907FE27395E118F10A55
:1027B000430B560BC90BD009C0F7E10CF11E431FA8
:1027C000561FC91FD01D7EF4703311F48A95E6CFD1
:1027D000E894015030F0080F0AF40027021708F4BB
:1027E000202F2395022F7A3328F079E37D932A95C1
:1027F000E9F710C07D932A9589F606949795679519
:10280000379517951794E118F10A430B560BC90B2E
:10281000D00998F023957E9173957A3308F070E390
:102820007C932013B8F77E9170617D9330F083958F
:1028300071E37D9370E32A95E1F71124EF90FF9007
:102840000F911F91CF91DF91992787FD9095089562
:10285000DC01FC01672F71917723E1F7329704C007
:102860007C916D9370836291AE17BF07C8F3089592
:102870000E947A1408F481E00895E89409C097FB57
:102880003EF490958095709561957F4F8F4F9F4F47
:102890009923A9F0F92F96E9BB279395F69587958B
:1028A00077956795B795F111F8CFFAF4BB0F11F44E
:1028B00060FF1BC06F5F7F4F8F4F9F4F16C08823F5
:1028C00011F096E911C0772321F09EE8872F762F2B
:1028D00005C0662371F096E8862F70E060E02AF06C
:1028E0009A95660F771F881FDAF7880F9695879558
:1028F00097F90895990F0008550FAA0BE0E8FEEF2D
:1029000016161706E807F907C0F012161306E407B3
:10291000F50798F0621B730B840B950B39F40A26AC
:1029200061F0232B242B252B21F408950A2609F48A
:10293000A140A6958FEF811D811D08950E94B114BD
:102940000C9422150E94141538F00E941B1520F0DB
:10295000952311F00C940B150C94111511240C9463
:1029600056150E94331570F3959FC1F3950F50E0F3
:10297000551F629FF001729FBB27F00DB11D639F31
:10298000AA27F00DB11DAA1F649F6627B00DA11DD7
:10299000661F829F2227B00DA11D621F739FB00D7D
:1029A000A11D621F839FA00D611D221F749F3327ED
:1029B000A00D611D231F849F600D211D822F762F86
:1029C0006A2F11249F5750409AF0F1F088234AF063
:1029D000EE0FFF1FBB1F661F771F881F91505040CF
:1029E000A9F79E3F510580F00C940B150C945615D9
:1029F0005F3FE4F3983ED4F3869577956795B79556
:102A0000F795E7959F5FC1F7FE2B880F911D96956F
:102A1000879597F9089597F99F6780E870E060E0DF
:102A200008959FEF80EC089500240A941616170667
:102A300018060906089500240A94121613061406AF
:102A400005060895092E0394000C11F4882352F012
:102A5000BB0F40F4BF2B11F460FF04C06F5F7F4FCA
:102A60008F4F9F4F089557FD9058440F551F59F0B1
:102A70005F3F71F04795880F97FB991F61F09F3F6B
:102A800079F087950895121613061406551FF2CF94
:102A90004695F1DF08C0161617061806991FF1CFE4
:102AA00086957105610508940895E894BB2766270B
:102AB0007727CB0197F908952F923F924F925F921B
:102AC0006F927F928F929F92AF92BF92CF92DF923E
:102AD000EF92FF920F931F93CF93DF93CDB7DEB7A3
:102AE000CA1BDB0B0FB6F894DEBF0FBECDBF099437
:102AF0002A88398848885F846E847D848C849B848E
:102B0000AA84B984C884DF80EE80FD800C811B819B
:102B1000AA81B981CE0FD11D0FB6F894DEBF0FBECA
:102B2000CDBFED010895A1E21A2EAA1BBB1BFD012A
:102B30000DC0AA1FBB1FEE1FFF1FA217B307E4079C
:102B4000F50720F0A21BB30BE40BF50B661F771FF4
:102B5000881F991F1A9469F76095709580959095D4
:102B60009B01AC01BD01CF010895991B79E004C020
:102B7000991F961708F0961B881F7A95C9F78095BC
:102B80000895AA1BBB1B51E107C0AA1FBB1FA617B4
:102B9000B70710F0A61BB70B881F991F5A95A9F706
:102BA00080959095BC01CD010895EE0FFF1F059013
:102BB000F491E02D09945058BB27AA270E94F315E1
:102BC0000C9422150E94141538F00E941B1520F059
:102BD00039F49F3F19F426F40C9411150EF4E09586
:102BE000E7FB0C940B15E92F0E94331558F3BA1725
:102BF000620773078407950720F079F4A6F50C9413
:102C000055150EF4E0950B2EBA2FA02D0B01B9012E
:102C100090010C01CA01A0011124FF27591B99F052
:102C2000593F50F4503E68F11A16F040A22F232F5E
:102C3000342F4427585FF3CF469537952795A795AE
:102C4000F0405395C9F77EF41F16BA0B620B730B55
:102C5000840BBAF09150A1F0FF0FBB1F661F771FC6
:102C6000881FC2F70EC0BA0F621F731F841F48F47B
:102C7000879577956795B795F7959E3F08F0B0CF04
:102C80009395880F08F09927EE0F979587950895EB
:102C90000E945C160C9422150E941B1558F00E948D
:102CA000141540F029F45F3F29F00C940B155111D5
:102CB0000C9456150C9411150E94331568F3992342
:102CC000B1F3552391F3951B550BBB27AA27621728
:102CD0007307840738F09F5F5F4F220F331F441F35
:102CE000AA1FA9F335D00E2E3AF0E0E832D0915069
:102CF0005040E695001CCAF72BD0FE2F29D0660F56
:102D0000771F881FBB1F261737074807AB07B0E898
:102D100009F0BB0B802DBF01FF2793585F4F3AF09E
:102D20009E3F510578F00C940B150C9456155F3F9F
:102D3000E4F3983ED4F3869577956795B795F79524
:102D40009F5FC9F7880F911D9695879597F908950C
:102D5000E1E0660F771F881FBB1F621773078407A8
:102D6000BA0720F0621B730B840BBA0BEE1F88F7B7
:102D7000E09508950E943B1588F09F5798F0B92F71
:102D80009927B751B0F0E1F0660F771F881F991FA0
:102D90001AF0BA95C9F714C0B13091F00E945515D8
:102DA000B1E008950C945515672F782F8827B85FE8
:102DB00039F0B93FCCF3869577956795B395D9F7F8
:102DC0003EF490958095709561957F4F8F4F9F4F02
:102DD00008950E947A1408F48FEF08950E947A14DF
:102DE000880B990B08950F931F93CF93DF93823035
:102DF000910510F482E090E0E0915504F0915604C2
:102E000030E020E0B0E0A0E0309799F421153105E2
:102E100009F44AC0281B390B24303105D8F58A81C2
:102E20009B816115710589F1FB0193838283FE010A
:102E300011C0408151810281138148175907E0F088
:102E40004817590799F4109761F012960C9312974E
:102E500013961C933296CF01DF91CF911F910F9162
:102E600008950093550410935604F4CF21153105AD
:102E700051F04217530738F0A901DB019A01BD0157
:102E8000DF01F801C1CFEF01F9CF90935604809391
:102E90005504CDCFFE01E20FF31F81939193225091
:102EA000310939832883D7CF2091530430915404BA
:102EB000232B41F4209105013091060130935404F5
:102EC0002093530420910301309104012115310511
:102ED00041F42DB73EB74091070150910801241BE2
:102EE000350BE0915304F0915404E217F307A0F47A
:102EF0002E1B3F0B2817390778F0AC014E5F5F4F50
:102F00002417350748F04E0F5F1F50935404409329
:102F10005304819391939FCFF0E0E0E09CCFCF9357
:102F2000DF930097E9F0FC01329713821282A0919F
:102F30005504B0915604ED0130E020E01097A1F463
:102F400020813181820F931F2091530430915404CA
:102F50002817390709F061C0F0935404E093530433
:102F6000DF91CF910895EA01CE17DF07E8F54A8196
:102F70005B819E0141155105B1F7E901FB83EA83AD
:102F800049915991C40FD51FEC17FD0761F4808159
:102F900091810296840F951FE9019983888382812C
:102FA00093819B838A83F0E0E0E012968D919C915F
:102FB00013970097B9F52D913C911197CD01029689
:102FC000820F931F2091530430915404281739071E
:102FD00039F6309751F51092560410925504B0937B
:102FE0005404A0935304BCCFD383C2834081518146
:102FF000840F951FC817D90761F44E5F5F4F888112
:103000009981480F591F518340838A819B81938303
:1030100082832115310509F0B0CFF0935604E09377
:1030200055049ECFFD01DC01C0CF13821282D7CFA1
:10303000B0E0A0E0EEE1F8E10C945E158C010097A1
:1030400051F4CB010E94F3168C01C801CDB7DEB755
:10305000E0E10C947A15FC01E60FF71F9C01225069
:103060003109E217F30708F49DC0D901CD91DC9135
:103070001197C617D70798F0C530D10530F3CE01A8
:1030800004978617970708F3C61BD70B2297C1939F
:10309000D1936D937C93CF010E948F17D6CF5B01A4
:1030A000AC1ABD0A4C018C0E9D1EA0915504B09126
:1030B0005604512C412CF12CE12C109731F58091C4
:1030C0005304909154048815990509F05CC0461684
:1030D000570608F058C080910301909104010097B1
:1030E00041F48DB79EB74091070150910801841BB0
:1030F000950BE817F90708F055C0F0935404E093D6
:103100005304F90171836083A0CF8D919C91119735
:1031100012966C90129713967C901397A815B90588
:1031200059F56C0142E0C40ED11CCA14DB0420F135
:10313000AC014A195B09DA011296159780F0628298
:10314000738251834083D9016D937C93E114F10420
:1031500071F0D7011396FC93EE93129776CF2296D7
:103160008C0F9D1FF90191838083F301EFCFF093C2
:103170005604E093550469CF4816590608F42C010B
:103180007D01D3019ACFCB010E94F3167C010097F9
:1031900049F0AE01B8010E94DA18C8010E948F17E9
:1031A000870153CF10E000E050CF81E090E0F89429
:1031B0000C94EA18FB01DC0102C001900D92415011
:1031C0005040D8F70895FB01DC0101900D920020DA
:0831D000E1F70895F894FFCF28
:1031D80076020100005704800000004000140054EB
:1031E8000004070800000000BF019201A205680161
:1031F8008B017801690100000000F6035603830380
:103208004304B4039203A60300000000AA07560370
:10321800A205A1050000000093048F040D0A0053C5
:103228003A205365747570202020202020200053F8
:103238003A2043616C6962726174696E6720005359
:103248003A2052656164696E67202020202000536F
:103258003A2054657374696E67202020202000533B
:103268003A204F7574707574202020202020005358
:103278003A204572726F7220202020202020006E94
:10328800616E00696E66006F76660074696D652010
:10329800286D73292C20666F72636520284E292CAF
:1032A80020766F6C74616765202856292C20637519
:1032B8007272656E7420286D41292C20706F7765B5
:1032C8007220285729002C00627574746F6E3A209A
:1032D8000020707265737365640920737461746586
:1032E8003A200050726F6772616D20737461727456
:1032F800696E672E2E00412061616E736C7569746A
:10330800656E004144435F415F537465703A200025
:1033180020412F5374657000562061616E736C757F
:103328006974656E004144435F565F537465703A33
:10333800200020562F5374657000507265737320F7
:10334800477265656E002020202020202020202044
:06335800202020202000CF
:00000001FF
