:100000000C94DF000C9407010C9407010C94070179
:100010000C9407010C9407010C9407010C94070140
:100020000C9407010C9407010C9407010C94750CB7
:100030000C9407010C9407010C9407010C94070120
:100040000C94D30B0C9407010C94430C0C941D0CD2
:100050000C9407010C9407010C9407010C94070100
:100060000C94B40A0C94070100407A10F35A00A0D3
:10007000724E18090010A5D4E80000E87648170071
:1000800000E40B54020000CA9A3B000000E1F505B1
:10009000000080969800000040420F000000A086FB
:1000A00001000000102700000000E803000000002D
:1000B0006400000000000A000000000001000000D1
:1000C00000002C76D888DC674F0823DFC1DFAE59EB
:1000D000E1B1B796E5E3E453C63AE651997696E87E
:1000E000E6C28426EB898C9B62ED407C6FFCEFBC02
:1000F0009C9F40F2BAA56FA5F490055A2AF75C932D
:100100006B6CF9676DC11BFCE0E40D47FEF520E662
:10011000B500D0ED902E0300943577050080841E45
:10012000080000204E0A000000C80C333333330FA0
:10013000986E12831141EF8D2114893BE65516CF3D
:10014000FEE6DB18D1844B381BF77C1D901DA4BB49
:10015000E424203284725E228100C9F124ECA1E5FE
:100160003D270000000023002600290000000000B9
:10017000240027002A0000000000250028002B0092
:10018000040404040404040402020202020203033D
:100190000303030301020408102040800102040845
:1001A00010200102040810200000000800020100D5
:1001B000000304070000000000000000310D1124BE
:1001C0001FBECFEFD8E0DEBFCDBF13E0A0E0B1E0AF
:1001D000E6EBF2E302C005900D92A632B107D9F723
:1001E00024E0A6E2B3E001C01D92A23FB207E1F70E
:1001F00010E0CFEDD0E004C02197FE010E9444162C
:10020000CE3DD107C9F70E94D50D0C9459190C9415
:100210000000E091DC04EC3088F54091DD0428E832
:1002200030E0241B310947FD3395220F331F220F85
:10023000331F8217930784F04091DE0428E532E0F3
:10024000241B310947FD3395220F331F220F331F23
:10025000821793070CF49C0122503109220F331F9F
:100260004FB7F8948E2F90E0FC01EE0FFF1FE80FC0
:10027000F91FE255FB4F328321834FBF0895209130
:10028000B903260F3327331F21323105ECF42091B7
:10029000DF03FC0190E080E0243069F082E0089503
:1002A000A091B9032191AC0149565C4FA40FB52F21
:1002B000B11D2C930196861798F38091B903680FAE
:1002C0006093B90380E0089581E00895089508954A
:1002D0000895E0918E0380918D03E81730F4F0E0EB
:1002E000E359FC4F808190E008958FEF9FEF0895D0
:1002F00090918E0380918D032FEF3FEF981748F474
:10030000E92FF0E0E359FC4F208130E09F5F9093AC
:100310008E03C901089580918D0390918E03891BEE
:10032000990B0895CF92DF92EF92FF920F931F9354
:10033000CF93DF937C01CB018A0120916C032223B0
:1003400089F0EB016B01C40ED51ECC15DD0569F0FB
:100350006991D701ED91FC910190F081E02DC701E9
:100360000995F3CF642F0E943F01C801DF91CF911F
:100370001F910F91FF90EF90DF90CF900895CF9352
:10038000DF931F92CDB7DEB7698320916C032223E0
:10039000F9F020918F03203258F021E030E0FC0189
:1003A0003383228390E080E00F90DF91CF91089516
:1003B00080919003E82FF0E0E45BFC4F99819083FB
:1003C0008F5F8093900380938F0381E090E0ECCF68
:1003D00061E0CE0101960E943F01F7CF833081F0AA
:1003E00028F4813099F08230A9F008958730A9F07F
:1003F0008830C9F08430B1F4809180008F7D03C0D3
:10040000809180008F7780938000089584B58F77E6
:1004100084BD089584B58F7DFBCF8091B0008F7728
:100420008093B00008958091B0008F7DF9CF1F9325
:10043000CF93DF93282F30E0F901E855FE4F8491E8
:10044000F901EC56FE4FD491F901E058FE4FC491EA
:10045000CC23A9F0162F81110E94EE01EC2FF0E0C1
:10046000EE0FFF1FEA58FE4FA591B4918FB7F89495
:10047000EC91111108C0D095DE23DC938FBFDF9182
:10048000CF911F910895DE2BF8CF1092DF0381E00A
:100490008093E1031092E00361E082E10E94170281
:1004A00061E083E10E941702E9EBF0E080818E7F3A
:1004B000808380818D7F808388E48093B80085E489
:1004C0008093BC000895CF93DF9391E090939603BF
:1004D0008823B9F0C091B800D091BA008091BC00D7
:1004E0008A7B8093BC0060E082E10E94170260E09A
:1004F00083E10E9417020E944502D093BA00C09384
:10050000B800DF91CF910895CF93DF9390E0FC0185
:10051000EC56FE4F249180589E4FFC018491882315
:10052000C9F090E0880F991FFC01E459FE4FA59196
:10053000B491FC01EA58FE4FC591D49161110DC0F0
:100540009FB7F8948C91209582238C9388812823DF
:1005500028839FBFDF91CF910895623051F49FB7F8
:10056000F8943C91822F809583238C93E8812E2BE5
:10057000EFCF8FB7F894EC912E2B2C938FBFEACF4F
:100580008E3008F08E508770806480937C0080915C
:100590007A00806480937A0080917A0086FDFCCF97
:1005A000809178009091790008953FB7F8948091F8
:1005B000480390914903A0914A03B0914B0326B59B
:1005C000A89B05C02F3F19F00196A11DB11D3FBF8B
:1005D000BA2FA92F982F8827BC01CD01620F711D5A
:1005E000811D911D42E0660F771F881F991F4A9554
:1005F000D1F708958F929F92AF92BF92CF92DF92E0
:10060000EF92FF924B015C010E94D5026B017C01CD
:100610000E94D5026C197D098E099F09683E7340BE
:1006200081059105A8F321E0821A9108A108B1087B
:1006300088EEC80E83E0D81EE11CF11C81149104E1
:10064000A104B10429F7FF90EF90DF90CF90BF9005
:10065000AF909F908F9008952FB7F89460914403C6
:100660007091450380914603909147032FBF0895F1
:1006700080ED97E00E94090180913C038F5F809399
:100680003C030895AF92BF92CF92DF92EF92FF9218
:100690000F931F93CF93DF936C017B018B01040FAA
:1006A000151FEB015E01AE18BF08C017D10759F046
:1006B0006991D601ED91FC910190F081E02DC60188
:1006C0000995892B79F7C501DF91CF911F910F9182
:1006D000FF90EF90DF90CF90BF90AF900895FC0116
:1006E000538D448D252F30E0842F90E0821B930B97
:1006F000541710F0CF96089501970895FC01918D3D
:10070000828D981761F0A28DAE0FBF2FB11D5D963F
:100710008C91928D9F5F9F73928F90E008958FEFE1
:100720009FEF0895FC01918D828D981731F0828D95
:10073000E80FF11D858D90E008958FEF9FEF0895EC
:10074000FC01918D228D892F90E0805C9F4F821B50
:1007500091098F739927089581E194E00E94A00385
:1007600021E0892B09F420E0822F089580E090E0B9
:10077000892B29F00E94AC0381110C94000008958C
:10078000FC01A48DA80FB92FB11DA35ABF4F2C9106
:10079000848D90E001968F739927848FA689B789FD
:1007A0002C93A089B1898C91837080648C93938DF4
:1007B000848D981306C00288F389E02D80818F7D97
:1007C00080830895EF92FF920F931F93CF93DF934F
:1007D000EC0181E0888F9B8D8C8D98131AC0E8897D
:1007E000F989808185FF15C09FB7F894EE89FF894C
:1007F0006083E889F98980818370806480839FBFEA
:1008000081E090E0DF91CF911F910F91FF90EF90E9
:100810000895F62E0B8D10E00F5F1F4F0F731127F9
:10082000E02E8C8D8E110CC00FB607FCFACFE88934
:10083000F989808185FFF5CFCE010E94C003F1CFF9
:10084000EB8DEC0FFD2FF11DE35AFF4FF0829FB7A8
:10085000F8940B8FEA89FB8980818062CFCFCF9398
:10086000DF93EC01888D8823B9F0AA89BB89E889D8
:10087000F9898C9185FD03C0808186FD0DC00FB67E
:1008800007FCF7CF8C9185FFF2CF808185FFEDCFFC
:10089000CE010E94C003E9CFDF91CF9108950F935D
:1008A0001F93CF93DF93FC0120812223F9F0EC0109
:1008B0000E942C0309811A812B813C81AB01BC0170
:1008C000401B510B620B730B8D819E81B0E0A0E049
:1008D000481759076A077B0748F0EF81F8850995A3
:1008E0000E942C0369837A838B839C83DF91CF9151
:1008F0001F910F910895862F642F0C948402CF933B
:10090000DF93FC01218930E0F901E855FE4F849125
:10091000F901EC56FE4FD491F901E058FE4FC49115
:10092000CC2379F081110E94EE01EC2FF0E0EE0F64
:10093000FF1FEE59FE4FA591B491EC91ED2381E09C
:1009400009F480E08170DF91CF910895CF92DF921A
:10095000EF92FF920F931F93CF93DF93FC01C4811B
:1009600021E020936C03C0933803109290031092FF
:100970008F038485682B85E094E00E94BF01D091AD
:100980008F03D13208F092C00E94D5026B017C0126
:100990008091DF03811165C082E08093DF0381E0F5
:1009A0008093E1038FEF8093DE0310920304D093D2
:1009B0000204ACE4B3E0E2EEF3E080E0D81385C0DB
:1009C0001092040480910404CC0FC82BC09304043B
:1009D0008091E003813009F07CC01092E0030E9416
:1009E000D5026B017C01809104048093BB0080914F
:1009F000920390919303A0919403B0919503892B56
:100A00008A2B8B2B99F00E94D502009192031091B2
:100A1000930320919403309195036C197D098E09FD
:100A20009F090617170728073907E0F18091BC00D6
:100A300083FDD9CF85EC8093BC000E94D5026B0169
:100A40007C018091DF03823009F445C08091DE0390
:100A50008F3F61F18091DE03803241F18091DE03AE
:100A600025C08091920390919303A0919403B0913B
:100A70009503892B8A2B8B2B09F48ACF0E94D502F0
:100A80000091920310919303209194033091950368
:100A90006C197D098E099F09061717072807390762
:100AA00008F076CF809191030E9463021092900328
:100AB00010928F0310926C03DF91CF911F910F91D1
:100AC000FF90EF90DF90CF9008959D9191938F5F6D
:100AD00075CF85EEB0CF8091920390919303A09152
:100AE0009403B0919503892B8A2B8B2B09F4A9CF02
:100AF0000E94D502009192031091930320919403D8
:100B0000309195036C197D098E099F090617170707
:100B10002807390708F095CFC5CF089590E080E009
:100B20000895FB0101900020E9F73197AF01461BC2
:100B3000570BDC01ED91FC910280F381E02D0994CB
:100B40008F929F92AF92BF920F931F93CF93DF9399
:100B5000CDB7DEB7A1970FB6F894DEBF0FBECDBFFD
:100B600019A2423008F44AE08E010F5D1F4F842E17
:100B7000912CB12CA12CA50194010E940216E62F04
:100B8000B901CA01EA3004F5E05DD801EE938D01A8
:100B9000232B242B252B79F790E080E0109729F068
:100BA000BD0181E194E00E949105A1960FB6F894F1
:100BB000DEBF0FBECDBFDF91CF911F910F91BF90D0
:100BC000AF909F908F900895E95CDFCFCF93DF9334
:100BD000D0E0C0E0009731F0BC0181E194E00E94D8
:100BE0009105EC0161E571E081E194E00E949105DD
:100BF0008C0F9D1FDF91CF91089582309105F9F000
:100C00003CF4009769F00197B9F084EA91E00AC0DA
:100C100083309105B9F00497C1F784E991E002C0EF
:100C200084E591E090930601809305018091050190
:100C3000909106010C94E60584E691E0F3CF84E7F9
:100C400091E0F0CF84E891E0EDCFCF93DF93FC010A
:100C5000448155816081718181E194E00E94420369
:100C6000EC0161E571E081E194E00E9491058C0F57
:100C70009D1FDF91CF9108954F925F926F927F9267
:100C80008F929F92AF92BF92CF92DF92EF92FF929C
:100C90000F931F93CF936B017C01742EAC019B01CA
:100CA0000E945D1764EB71E0811126C04601570177
:100CB000E894B7F82FEF3FEF4FE75FE7C501B401C6
:100CC0000E945D1781110CC02FEF3FEF4FE75FE7E8
:100CD000C501B4010E94A71468EB71E0181664F016
:100CE0002FEF3FEF4FE75FE4C701B6010E945817AF
:100CF0001816ACF46CEB71E081E194E0CF911F9198
:100D00000F91FF90EF90DF90CF90BF90AF909F90AA
:100D10008F907F906F905F904F900C9491052FEF84
:100D20003FEF4FE75FECC701B6010E94A71487FDB4
:100D3000E1CF20E030E0A901C701B6010E94A7146D
:100D400010E000E087FF0AC06DE281E194E00E94BC
:100D5000E2038C01F7FAF094F7F8F094C0E060E059
:100D600070E080E09FE37C1641F020E030E040E25C
:100D700051E40E94B716CF5FF6CFA70196010E94FB
:100D80004B162B013C010E9429174B015C014AE0E4
:100D90000E94A0057C01E00EF11ECC23C1F1C5012B
:100DA000B4010E94AC149B01AC01C301B2010E94CA
:100DB0004A164B015C016EE281E194E00E94E2037D
:100DC000E80EF91EC15018F120E030E040E251E495
:100DD000C501B4010E940D152B013C010E94291789
:100DE0004B01B12CA12C4AE0C501B4010E94A00521
:100DF000E80EF91EC501B4010E94AC149B01AC01C0
:100E0000C301B2010E944A164B015C01DBCFC7014E
:100E1000CF911F910F91FF90EF90DF90CF90BF90F7
:100E2000AF909F908F907F906F905F904F900895BC
:100E30000F931F93CF938C01C62F0E94A6046C2F93
:100E40006460C8010E94A6046C2F6B7FC8010E94D9
:100E5000A60483EC90E00197F1F7CF911F910F91D9
:100E600008950F931F93CF93DF938C01D62FC42F38
:100E7000607F642B0E94180780E1D89FB001112485
:100E80006C2BC801DF91CF911F910F910C94180723
:100E900040E062E08FED94E00E9431078BE39FE138
:100EA0000197F1F70895CF93DF93CDB7DEB7289779
:100EB0000FB6F894DEBF0FBECDBF98E0EEE0F1E0D4
:100EC000DE01119601900D929A95E1F79091E70459
:100ED000981708F48FEF90E0880F991F21E030E019
:100EE0002C0F3D1F820F931FFC016081606840E062
:100EF0008FED94E028960FB6F894DEBF0FBECDBFFD
:100F0000DF91CF910C94310740E061E08FED94E0E8
:100F10000E9431078BE39FE10197F1F78091E8048C
:100F2000882319F080E00C945307089541E00E9453
:100F3000310781E090E0089585ED8093BC008091B9
:100F4000920390919303A0919403B0919503079617
:100F5000A11DB11D23E0B695A795979587952A9574
:100F6000D1F72091BC0024FD03C01092DF03089547
:100F70004091920350919303609194037091950373
:100F8000452B462B472B69F30097A105B10541F08E
:100F90002AE22A95F1F700C00197A109B109E1CF32
:100FA000809191030C9463020E9444190F931F9344
:100FB000CF93DF93EC0188819981009759F02A81C2
:100FC0003B812617370730F081E0DF91CF911F91E9
:100FD0000F9108958B016F5F7F4F0E9487180097D4
:100FE00059F0998388831B830A832C813D81232BAD
:100FF00059F7FC011082E8CF80E0E7CFEF92FF9233
:101000000F931F93CF93DF9341155105B1F07B01EF
:10101000EC010C811D81040F151FB8010E94D60739
:10102000882361F0288139818C819D81B701820FED
:10103000931F0E9452191D830C8381E0DF91CF9191
:101040001F910F91FF90EF900895CF93DF93EC01E4
:1010500088819981009711F00E94FE1719821882E9
:101060001D821C821B821A82DF91CF910895EF921C
:10107000FF920F931F93CF93DF93CDB7DEB72897DF
:101080000FB6F894DEBF0FBECDBF7C01CB014AE0A6
:101090008E010F5F1F4FB8010E941912F8010190D5
:1010A0000020E9F73197AF01401B510BB801C70190
:1010B0000E94FE07811103C0C7010E942508C701D5
:1010C00028960FB6F894DEBF0FBECDBFDF91CF914B
:1010D0001F910F91FF90EF900895CF93DF93EC0154
:1010E000FB0101900020E9F73197AF01461B570B38
:1010F0000E94FE07811103C0CE010E942508CE0187
:10110000DF91CF910895EF92FF920F931F93CF93AA
:10111000DF93EC017B018A01BA010E94D60781119D
:101120000BC0CE010E942508CE01DF91CF911F9107
:101130000F91FF90EF9008951D830C83B701888174
:1011400099810E945219F0CFEF92FF920F931F9353
:10115000CF93DF93CDB7DEB762970FB6F894DEBFBB
:101160000FBECDBF8C01CB01F8011182108213821A
:101170001282158214824AE09E012F5F3F4F79014F
:10118000B9010E941912F70101900020E9F7319787
:10119000AF014E195F09B701C8010E94830862962A
:1011A0000FB6F894DEBF0FBECDBFDF91CF911F9178
:1011B0000F91FF90EF900895FC011182108213822D
:1011C000128215821482FB0101900020E9F7319709
:1011D000AF01461B570B0C948308FB01DC011196F1
:1011E0001C921E9213961C921E92129715961C9298
:1011F0001E9214978617970749F0608171816115D7
:10120000710521F0448155810C9483080895FC01F7
:1012100080819181009711F00C94FE1708952F9210
:101220003F924F925F926F927F928F929F92AF9276
:10123000BF92CF92DF92EF92FF920F931F93CF93C3
:10124000DF93CDB7DEB72D970FB6F894DEBF0FBE94
:10125000CDBF5C016C01F12CE12C7724739482E00A
:10126000682E46018A189B080091EC041091ED0449
:101270000E0D1F1DD80118968C9118978B7F18960C
:101280008C931897ED91FC910190F081E02DC801AD
:1012900009958D87F8018085869581702D842816A3
:1012A00009F468C00E942C03D80112966D937D93B7
:1012B0008D939C93159718968C9118978625189660
:1012C0008C93E091EC04F091ED04EE0DFF1D608530
:1012D00062FB112710F960FD10E0D6011D936D012E
:1012E000808580FD26C082FF24C060EC71E0CE01C5
:1012F00001960E94DC08BE016F5F7F4FCE0107960A
:101300000E94ED08B401CE0107960E94370869ECEF
:1013100071E00E946D08612F70E00E9437080E9402
:101320002506CE0107960E940709CE0101960E946C
:101330000709B2E1EB0EF11CE6E3EE16F10409F049
:1013400090CF2D960FB6F894DEBF0FBECDBFDF91C4
:10135000CF911F910F91FF90EF90DF90CF90BF90B2
:10136000AF909F908F907F906F905F904F903F9045
:101370002F9008950E942C03F8012281338144812B
:1013800055811B012C01221A330A440A550AB20165
:10139000A10186819781B0E0A0E0481759076A074C
:1013A0007B0708F48ECF808581703D84381609F460
:1013B00088CF0E942C03D80112966D937D938D9354
:1013C0009C93159718968C9118978725846018968A
:1013D0008C930E942C03F801218532854385548526
:1013E000621B730B840B950B658776878787908BC1
:1013F0000E942C03F801618772878387948761CFED
:10140000CF92DF92EF92FF920F931F93CF93DF93D0
:10141000CDB7DEB769970FB6F894DEBF0FBECDBF6C
:10142000809135039091360381309105B1F150F0F0
:101430008230910509F483C0039709F48DC08CEDC7
:1014400095E087C08BED91E00E94E6058CED95E07C
:101450000E940901809134038F5F809334038233AB
:1014600040F081E090E09093360380933503109232
:10147000340380913C038F5F80933C0369960FB6E1
:10148000F894DEBF0FBECDBFDF91CF911F910F91BA
:10149000FF90EF90DF90CF90089580EF91E00E9451
:1014A000E605C0900101D0900201E0900301F090A8
:1014B00004018FEFC81AD80AE80AF80AC09201019D
:1014C000D0920201E0920301F0920401C6010E9451
:1014D000090164E072E0CE010E960E94DC08BE01B4
:1014E000625F7F4FCE0144960E94ED082AE08E0194
:1014F0000F5F1F4FA801C701B6010E942412F80117
:1015000001900020E9F73197AF01401B510BB80162
:10151000CE0144960E94FE07811104C0CE0144967C
:101520000E942508CE0144960E942506CE014496CD
:101530000E940709CE010E960E9407099ACF8CE0FF
:1015400092E00E94E60580910001815080930001A5
:1015500090E00E9409018DCF85E292E00E94E605AD
:10156000809100018F5FF2CF1F920F920FB60F9202
:1015700011242F933F934F935F936F937F938F9398
:101580009F93AF93BF93EF93FF938091B900887FB0
:10159000803609F44AC0F0F5883209F4A7C018F57E
:1015A000803109F49BC0B8F4882309F4F9C088306D
:1015B00009F494C0FF91EF91BF91AF919F918F91EA
:1015C0007F916F915F914F913F912F910F900FBE3F
:1015D0000F901F901895883109F488C0803251F718
:1015E0008093DE0314C0803409F49DC040F480333E
:1015F000B9F38833F9F68093DE0385ECB0C080350B
:1016000009F485C0883509F496C0883499F60E949B
:101610009C07D0CF883909F48CC038F5883729F079
:1016200050F4883611F0803729F683E08093DF0389
:101630001092DD0357C0883809F47BC0803919F057
:10164000803809F0B7CF8091DD03803208F071C097
:10165000E091DD0381E08E0F8093DD038091BB007C
:10166000F0E0E354FC4F80833DC0803B39F0E0F470
:10167000803A09F479C0883A09F09CCF84E08093DD
:10168000DF031092BA031092B903E091B703F0910F
:10169000B80309958091B90381110FC081E080934F
:1016A000B9031092970309C0803C09F4A6CF883C87
:1016B00009F4A3CF883B09F07DCFE091BA0381E024
:1016C0008E0F8093BA03F0E0E956FC4F808180933F
:1016D000BB009091BA038091B90329C080910404A2
:1016E0008093BB0085EC8093BC0064CF9091030491
:1016F00080910204981758F5E091030481E08E0F61
:1017000080930304F0E0EE51FC4F8081E9CFE0913B
:10171000030481E08E0F809303048091BB00F0E00E
:10172000EE51FC4F8083909103048091020498173E
:10173000C8F285E8D8CFE091030481E08E0F809352
:1017400003048091BB00F0E0EE51FC4F8083809158
:10175000E10381115CCF81E08093E00384EA809310
:10176000BC001092DF0326CF85EC8093BC00109262
:10177000DF038091DD03803230F4E091DD03F0E09F
:10178000E354FC4F10826091DD0370E0E091BB03F5
:10179000F091BC038DEB93E009951092DD030ACF25
:1017A0001092DE0334CF1F920F920FB60F921124C6
:1017B0002F933F938F939F93AF93BF938091440355
:1017C00090914503A0914603B091470330914303A4
:1017D00023E0230F2D3758F50196A11DB11D20934D
:1017E00043038093440390934503A0934603B0932F
:1017F00047038091480390914903A0914A03B09117
:101800004B030196A11DB11D80934803909349039A
:10181000A0934A03B0934B03BF91AF919F918F91D7
:101820003F912F910F900FBE0F901F90189526E8B3
:10183000230F0296A11DB11DD2CF1F920F920FB69A
:101840000F9211242F933F934F935F936F937F9346
:101850008F939F93AF93BF93EF93FF9381E194E0B6
:101860000E94C003FF91EF91BF91AF919F918F9123
:101870007F916F915F914F913F912F910F900FBE8C
:101880000F901F9018951F920F920FB60F92112470
:101890002F938F939F93EF93FF93E0912104F09107
:1018A00022048081E0912704F091280482FD1BC06E
:1018B000908180912A048F5F8F7320912B0482176F
:1018C00041F0E0912A04F0E0EF5EFB4F958F8093AA
:1018D0002A04FF91EF919F918F912F910F900FBE4E
:1018E0000F901F9018958081F4CF1F920F920FB622
:1018F0000F9211242F933F934F935F936F937F9396
:101900008F939F93AF93BF93CF93DF93EF93FF9307
:1019100080913703C091D204D0E087FF24C0109299
:10192000850010928400809137038F5F8093370386
:1019300080913703082E000C990B8C179D0724F417
:10194000809137038C30C4F18091840090918500A0
:10195000049680349C4908F47AC080918400909168
:101960008500049676C080913703082E000C990BF1
:101970008C179D07C4F6E09137038E2FEE0F990B5D
:10198000FC01EE0FFF1FE80FF91FE255FB4F8081AE
:1019900086FFC9CFE09137038E2FEE0F990BFC0124
:1019A000EE0FFF1FE80FF91FE255FB4F808160E04B
:1019B0008F730E941702B7CF209184003091850069
:1019C000E09137038E2FEE0F990BFC01EE0FFF1FF6
:1019D000E80FF91FE255FB4F81819281820F931F1F
:1019E0009093890080938800E09137038E2FEE0F4B
:1019F000990BFC01EE0FFF1FE80FF91FE255FB4F9B
:101A0000808186FF11C0E09137038E2FEE0F990B76
:101A1000FC01EE0FFF1FE80FF91FE255FB4F80811D
:101A200061E08F730E941702FF91EF91DF91CF91D8
:101A3000BF91AF919F918F917F916F915F914F91E6
:101A40003F912F910F900FBE0F901F90189580E43B
:101A50009CE990938900809388008FEF80933703EF
:101A6000E3CF109208041092070488EE93E0A0E000
:101A7000B0E08093090490930A04A0930B04B09300
:101A80000C042DE131E030930604209305041092FC
:101A90001404109213048093150490931604A093D9
:101AA0001704B09318048FE291E09093120480938E
:101AB000110485EC90E090931E0480931D0484EC47
:101AC00090E09093200480931F0480EC90E090932A
:101AD00022048093210481EC90E09093240480936D
:101AE000230482EC90E0909326048093250486ECF6
:101AF00090E0909328048093270410922A04109277
:101B00002B0410922C0410922D0486E390E00E9486
:101B10006217FC019C012A5C3F4F6AE070E04DE4D3
:101B200051E01282138214821582778366831086B5
:101B300051834083118A7296E217F30791F79093CD
:101B4000ED048093EC041092E2041092E10481E42D
:101B500091E09093E0048093DF041092E80487E220
:101B60008093E30480E18093E90482E08093EA04B7
:101B70001092EB048091D2048C3098F491E0980F8D
:101B80009093D2048093DC0490E0FC01EE0FFF1FE1
:101B9000E80FF91FE255FB4F88EB9BE092838183AE
:101BA00008958FEF8093DC040895CF93DF93CDB732
:101BB000DEB764970FB6F894DEBF0FBECDBF789442
:101BC00084B5826084BD84B5816084BD85B5826042
:101BD00085BD85B5816085BD80916E0081608093F3
:101BE0006E0010928100809181008260809381005C
:101BF000809181008160809381008091800081606C
:101C0000809380008091B10084608093B1008091C6
:101C1000B00081608093B00080917A0084608093EE
:101C20007A0080917A00826080937A0080917A00B5
:101C3000816080937A0080917A00806880937A0036
:101C40001092C10010923E0310923D03E0912104D6
:101C5000F091220482E08083E0911D04F0911E0443
:101C60001082E0911F04F09120048FEC8083109289
:101C70002904E0912504F091260486E08083E09118
:101C80002304F0912404808180618083E091230407
:101C9000F0912404808188608083E0912304F09196
:101CA0002404808180688083E0912304F0912404DF
:101CB00080818F7D80838FE392E00E94E605109201
:101CC0008E0310928D031092900310928F030E9446
:101CD000450286E691E09093B8038093B70387E6C8
:101CE00091E09093BC038093BB031092E404809135
:101CF000EA04823018F098E09093E4048093E704BB
:101D000062E370E080E090E00E94FA026091EB04F0
:101D10008FED94E00E94A60468EE73E080E090E00E
:101D20000E94FA0260E38FED94E00E9418070BE432
:101D300016E4C8010197F1F760E38FED94E00E948B
:101D40001807C8010197F1F760E38FED94E00E9456
:101D5000180783E592E00197F1F760E28FED94E0D8
:101D60000E9418076091E404606240E08FED94E007
:101D70000E94310784E08093E50440E06CE08FED41
:101D800094E00E9431070E94840782E08093E60479
:101D900040E066E08FED94E00E9431070E94480722
:101DA00088E08093EB0460E08FED94E00E94A6044D
:101DB00080913D0390913E030E94FD0561E08DE01E
:101DC0000E94840261E083E00E94840260E08EE071
:101DD0000E94840260E08FE00E94840262E086E05C
:101DE0000E94840262E085E00E94840262E084E056
:101DF0000E94840216E1C12E11E0D12EF12CE12CBB
:101E000009E1802E912C0091EC041091ED040E0D4F
:101E10001F1DD6017D906D01672D70E0D801ED91F9
:101E2000FC910280F381E02D42E050E0C801099569
:101E3000F801718A10860190F081E02D0190F08107
:101E4000E02DC8010995882339F0D80118968C91A6
:101E50001897836018968C930E942C03F801628374
:101E6000738384839583E091EC04F091ED04EE0D8F
:101E7000FF1D97828682F2E1EF0EF11C86E3E816E1
:101E8000F10409F680913D0390913E03892B09F0FE
:101E900031C284E090E090933E0380933D0382E55D
:101EA00092E00E94E60581E090E090933E038093EB
:101EB0003D030E94FD0561E070E0CE0109960E949D
:101EC000A408BE01675F7F4FCE0101960E94ED0816
:101ED0006FE872E0CE0101960E946D080E9425060F
:101EE000CE0101960E940709CE0109960E940709BA
:101EF0000E9484070E94480761E070E0CE010996C5
:101F00000E94A408BE01675F7F4FCE0101960E9428
:101F1000ED086FE872E0CE0101960E946D08DC01C9
:101F200014964D915C9115976D917C918FED94E095
:101F30000E944203CE0101960E940709CE01099634
:101F40000E94070989E393E00E940F0980913903F9
:101F50008823C1F31AE08FE00E94C002A80EB91EC8
:101F60001150C9F7C5016AE070E00E9430167B018C
:101F700081E090E00E94301690E080E00E94AC1476
:101F80008E010F5F1F4F25E042E00E94FB116CE9BC
:101F900072E0CE010F960E94DC08BE01615F7F4FA8
:101FA000CE0109960E94ED08B801CE0109960E9463
:101FB0006D0869EA72E00E946D080E942506CE0154
:101FC00009960E940709CE010F960E9407090E94F8
:101FD00084070E944807B8018FED94E00E949105A4
:101FE00069EA72E08FED94E00E9491056AE070E08A
:101FF000CE010F960E94A408BE01615F7F4FCE0103
:1020000009960E94ED0861EB72E0CE0109960E94EC
:102010006D080E942506CE0109960E940709CE018F
:102020000F960E94070981E00E9453076AE070E062
:10203000CE010F960E94A408BE01615F7F4FCE01C2
:1020400009960E94ED0861EB72E0CE0109960E94AC
:102050006D08FC0144815581608171818FED94E0B0
:102060000E944203CE0109960E940709CE010F96F5
:102070000E94070989E393E00E940F0980913903C8
:102080008823C1F31AE08EE00E94C002E80EF91E18
:102090001150C9F72AE030E0C701B9010E9430169B
:1020A000C9010E94301690E080E00E94AC148E01BD
:1020B0000F5F1F4F25E042E00E94FB116EEB72E0C4
:1020C000CE010F960E94DC08BE01615F7F4FCE01FA
:1020D00009960E94ED08B801CE0109960E946D088C
:1020E0006BEC72E00E946D080E942506CE010996F5
:1020F0000E940709CE010F960E9407090E948407DB
:102100000E944807B8018FED94E00E9491056BECA6
:1021100072E08FED94E00E94910581E00E945307E8
:1021200063ED72E08FED94E00E94910583ED92E003
:102130000E94E60589E393E00E940F0980913A032B
:102140008823C1F30E9484070E9448078091DC0421
:102150008C3008F051C061E083E00E9484028091DD
:10216000DC04282F30E0F901EE0FFF1FE20FF31F10
:10217000E255FB4F9081907C936090831092DD0438
:102180001092DE042CE0622F0E942416829FB00180
:10219000112430E020E0AB01420F531FFA01EE0F93
:1021A000FF1FE40FF51FE255FB4F908196FD16C00F
:1021B0002F5F3F4F2C30310571F781110FC0109206
:1021C000800082E08093810010928500109284004C
:1021D000B19A80916F00826080936F00E091DC047F
:1021E0008E2F90E0FC01EE0FFF1FE80FF91FE25564
:1021F000FB4F80818064808364E170E080E090E048
:102200000E94FA028CED95E00E94090168E873E1F2
:1022100080E090E00E94FA0283E0E82EF12C11E0C9
:1022200094E1C92ED12C20E0A22E2AE0B22E30E07B
:10223000832E30E0932E0E942C0360933F03709313
:102240004003809341039093420389E393E00E940B
:102250000F09F0923E03E0923D038FED92E00E9461
:10226000E6051A8619861C861B861E861D8645E194
:1022700050E06DEE72E0CE0109960E948308BE0127
:10228000675F7F4FCE0101960E94ED0870E060E02D
:10229000CE0101960E9437080E942506CE010196C4
:1022A0000E940709CE0109960E9407090E942C038B
:1022B0001093D304D092D904C092D8046093D4046C
:1022C0007093D5048093D6049093D704B092DB0426
:1022D000A092DA041093070180910701882309F482
:1022E0007EC083ED94E00E944F0483E093E00E945F
:1022F000E605F2CF84E090E090933E0380933D03A7
:102300000E94FD050E942C0300913F0310914003A1
:102310002091410330914203601B710B820B930BA0
:102320004AE00E94A0056DE872E081E194E00E941D
:102330009105C0903203D09033030D2C000CEE08B1
:10234000FF084AE0C701B601F7FE0DC06DE281E16A
:1023500094E00E94E20366277727CB016C197D0980
:102360008E099F094AE00E94A0056DE872E081E1B4
:1023700094E00E949105609126037091270380915B
:1023800028039091290342E00E943C066DE872E028
:1023900081E194E00E94910560912A0370912B03E2
:1023A00080912C0390912D0342E00E943C066DE841
:1023B00072E081E194E00E94910560912E0370919A
:1023C0002F03809130039091310342E00E943C063C
:1023D00061E571E081E194E00E94910564CD811492
:1023E000910409F428CF0E94AC03882309F423CF79
:1023F0000E94000020CFEF920F931F93CF93DF93A3
:10240000E80134E047FD34E1042E000C550B57FF82
:1024100003C0519541955109E32E022F242FAE019F
:102420000E946012CE01DF91CF911F910F91EF902A
:102430000895BB274A3031F4992322F4BDE29095E8
:1024400081959F4F0C944712BB27FA01A62F621764
:10245000710581059105330B30FB66F0AA27660FE5
:10246000771F881F991FAA1FA21710F0A21B639540
:102470003850A9F7A05DAA3308F0A95DA19336F7FB
:10248000B111B1931082CA010C949714BB27FB01C0
:102490005527AA27880F991FAA1FA41710F0A41B5D
:1024A00083955051B9F7A05DAA3308F0A95DA193B7
:1024B000009779F7B111B1931192CB010C94971455
:1024C000A9E0B0E0E6E6F2E10C94D1156A01F22E43
:1024D000B02E102FFBE3AF2EA01608F41BE31F5FF6
:1024E000012F27E0AE014F5F5F4F0E94BF13BC0179
:1024F0008981982F9970913009F43FC09BE2E1FCEB
:1025000004C09E2D9170E0FC3AC05E2D5071E82F02
:10251000E87083FF46C084E0911101C083E0EF2D95
:10252000E81B8F1508F0E0E0D6018E2F20E255233E
:1025300051F1992329F0D6019C93C60101966C01B3
:1025400096012D5F3F4FE2FE24C08EE4D6018C93AE
:1025500091E411969C93119712968C93D9018E2F2A
:1025600090E281111BC0E20FF32FF11D10828EEF5C
:102570009FEF2996ECE00C94ED159DE2C6CF90E21A
:10258000C4CF2D9381508111FCCFCE0ED11CE0E041
:10259000D0CF8EE6D6018C9391E6DBCF9D93815010
:1025A000E0CF482F447082FF3DC084E0911101C00C
:1025B00083E08F1510F4EF2DE81BD6018E2F20E25B
:1025C000552309F1992329F0D6019C93C601019660
:1025D0006C0196012D5F3F4FE2FE1BC089E4D601DE
:1025E0008C938EE411968C93119786E412968C93BB
:1025F000D9018E2F90E2882309F4B5CF9D938150A5
:10260000FACF2D9381508111FCCFCE0ED11CE0E08A
:10261000D9CF89E6D6018C938EE611968C931197CB
:1026200086E6E4CF9B0177FF02C030E020E0A1E026
:10263000B0E0911102C0B0E0A0E0F9013196AE0F18
:10264000BF1F8B2C912CBB2009F461C05401EFEF0C
:10265000AE1ABE0AAA0DBB1DFA161B0619F014F01D
:102660004F2D4A1B511188C0E3FC59C07601A42F9D
:10267000B0E2A1114FC0C40ED11C992309F45BC074
:1026800040E0D6011196F60190836D01552309F4BF
:1026900048C0012F060F9A81582F507184FF03C044
:1026A000913309F4015010160CF047C0093008F0BE
:1026B00008E0EEE2FE2E5B01A01AB10885019194BC
:1026C000819491082F3F320729F4D601FC92F6013C
:1026D00031966F016217730794F1021713077CF5A7
:1026E000DB01A21BB30BAA24A394B12CAC0EBD1E1C
:1026F000AA0DBB1D11968C9121503109D60111965E
:1027000028153905F4F0F60180836D01DBCFB12C7B
:10271000A12CA0CFF701B1937F01A150AACF9111B5
:10272000B0CFD601942F50E302C05D939150911128
:10273000FCCFC40ED11C40E0ACCF01E0BACF80E3A7
:10274000DBCF6217730731F4963388F4953311F4B5
:10275000552369F0F6018083FD01842F90E28111F9
:1027600008C0A40FB11D1C9290E080E002CF81E36D
:10277000F1CF91938150F3CF911183CF8ACF28303D
:1027800008F027E03327DA01990F311D87FD9160AA
:1027900000966105710539F432602E5F3D9330E398
:1027A0002A95E1F708959F3F30F080387105610563
:1027B00009F03C5F3C5F3D93913008F08068911DCB
:1027C000DF93CF931F930F93FF92EF92192F987F70
:1027D0009695E92F96959695E90FFF27EE53FF4FB3
:1027E00099273327EE24FF24A701E70105900894D9
:1027F000079428F4360FE71EF81E491F511D660F77
:10280000771F881F991F0694A1F70590079428F455
:10281000E70EF81E491F561FC11D770F881F991F0D
:10282000661F0694A1F70590079428F4F80E491F37
:10283000561FC71FD11D880F991F661F771F06944B
:10284000A1F70590079420F4490F561FC71FD81F02
:10285000990F661F771F881F0694A9F7849110951A
:10286000177041F0D695C79557954795F794E7941B
:102870001A95C1F7E8E6F0E0689415901591359146
:102880006591959105907FE27395E118F10A430BEC
:10289000560BC90BD009C0F7E10CF11E431F561FA0
:1028A000C91FD01D7EF4703311F48A95E6CFE894E9
:1028B000015030F0080F0AF40027021708F4202F07
:1028C0002395022F7A3328F079E37D932A95E9F74F
:1028D00010C07D932A9589F606949795679537954C
:1028E00017951794E118F10A430B560BC90BD00941
:1028F00098F023957E9173957A3308F070E37C937A
:102900002013B8F77E9170617D9330F0839571E369
:102910007D9370E32A95E1F71124EF90FF900F91DA
:102920001F91CF91DF91992787FD90950895DC0144
:10293000FC01672F71917723E1F7329704C07C91F6
:102940006D9370836291AE17BF07C8F308950E941C
:10295000E91408F481E00895E89409C097FB3EF477
:1029600090958095709561957F4F8F4F9F4F9923DC
:10297000A9F0F92F96E9BB279395F695879577955A
:102980006795B795F111F8CFFAF4BB0F11F460FF1A
:102990001BC06F5F7F4F8F4F9F4F16C0882311F072
:1029A00096E911C0772321F09EE8872F762F05C086
:1029B000662371F096E8862F70E060E02AF09A9521
:1029C000660F771F881FDAF7880F9695879597F916
:1029D0000895990F0008550FAA0BE0E8FEEF1616B0
:1029E0001706E807F907C0F012161306E407F50703
:1029F00098F0621B730B840B950B39F40A2661F077
:102A0000232B242B252B21F408950A2609F4A14019
:102A1000A6958FEF811D811D08950E9420150C94AD
:102A200091150E94831538F00E948A1520F0952395
:102A300011F00C947A150C94801511240C94C51582
:102A40000E94A21570F3959FC1F3950F50E0551F9A
:102A5000629FF001729FBB27F00DB11D639FAA27F3
:102A6000F00DB11DAA1F649F6627B00DA11D661F42
:102A7000829F2227B00DA11D621F739FB00DA11D63
:102A8000621F839FA00D611D221F749F3327A00D1D
:102A9000611D231F849F600D211D822F762F6A2FB9
:102AA00011249F5750409AF0F1F088234AF0EE0F1E
:102AB000FF1FBB1F661F771F881F91505040A9F74B
:102AC0009E3F510580F00C947A150C94C5155F3F1C
:102AD000E4F3983ED4F3869577956795B795F79587
:102AE000E7959F5FC1F7FE2B880F911D96958795FF
:102AF00097F9089597F99F6780E870E060E008957E
:102B00009FEF80EC089500240A9416161706180605
:102B10000906089500240A941216130614060506E1
:102B20000895092E0394000C11F4882352F0BB0F72
:102B300040F4BF2B11F460FF04C06F5F7F4F8F4FD5
:102B40009F4F089557FD9058440F551F59F05F3F10
:102B500071F04795880F97FB991F61F09F3F79F0BF
:102B600087950895121613061406551FF2CF469541
:102B7000F1DF08C0161617061806991FF1CF8695C3
:102B80007105610508940895E894BB2766277727A7
:102B9000CB0197F908952F923F924F925F926F92D7
:102BA0007F928F929F92AF92BF92CF92DF92EF92DD
:102BB000FF920F931F93CF93DF93CDB7DEB7CA1B5E
:102BC000DB0B0FB6F894DEBF0FBECDBF09942A8889
:102BD000398848885F846E847D848C849B84AA8431
:102BE000B984C884DF80EE80FD800C811B81AA81BE
:102BF000B981CE0FD11D0FB6F894DEBF0FBECDBF89
:102C0000ED010895A1E21A2EAA1BBB1BFD010DC008
:102C1000AA1FBB1FEE1FFF1FA217B307E407F5078C
:102C200020F0A21BB30BE40BF50B661F771F881F68
:102C3000991F1A9469F760957095809590959B01FE
:102C4000AC01BD01CF010895991B79E004C0991F23
:102C5000961708F0961B881F7A95C9F780950895F6
:102C6000AA1BBB1B51E107C0AA1FBB1FA617B707B2
:102C700010F0A61BB70B881F991F5A95A9F78095CE
:102C80009095BC01CD010895EE0FFF1F0590F491C2
:102C9000E02D09945058BB27AA270E9462160C9475
:102CA00091150E94831538F00E948A1520F039F49E
:102CB0009F3F19F426F40C9480150EF4E095E7FB81
:102CC0000C947A15E92F0E94A21558F3BA176207DF
:102CD00073078407950720F079F4A6F50C94C415C2
:102CE0000EF4E0950B2EBA2FA02D0B01B901900127
:102CF0000C01CA01A0011124FF27591B99F0593F6B
:102D000050F4503E68F11A16F040A22F232F342FB2
:102D10004427585FF3CF469537952795A795F04000
:102D20005395C9F77EF41F16BA0B620B730B840B15
:102D3000BAF09150A1F0FF0FBB1F661F771F881FCD
:102D4000C2F70EC0BA0F621F731F841F48F4879525
:102D500077956795B795F7959E3F08F0B0CF939517
:102D6000880F08F09927EE0F9795879508950E9490
:102D7000CB160C9491150E948A1558F00E94831569
:102D800040F029F45F3F29F00C947A1551110C940E
:102D9000C5150C9480150E94A21568F39923B1F310
:102DA000552391F3951B550BBB27AA276217730771
:102DB000840738F09F5F5F4F220F331F441FAA1F05
:102DC000A9F335D00E2E3AF0E0E832D091505040C1
:102DD000E695001CCAF72BD0FE2F29D0660F771F6F
:102DE000881FBB1F261737074807AB07B0E809F055
:102DF000BB0B802DBF01FF2793585F4F3AF09E3FDA
:102E0000510578F00C947A150C94C5155F3FE4F3E6
:102E1000983ED4F3869577956795B795F7959F5F1C
:102E2000C9F7880F911D9695879597F90895E1E068
:102E3000660F771F881FBB1F621773078407BA07C7
:102E400020F0621B730B840BBA0BEE1F88F7E09522
:102E500008950E94AA1588F09F5798F0B92F9927D6
:102E6000B751B0F0E1F0660F771F881F991F1AF075
:102E7000BA95C9F714C0B13091F00E94C415B1E001
:102E800008950C94C415672F782F8827B85F39F000
:102E9000B93FCCF3869577956795B395D9F73EF40E
:102EA00090958095709561957F4F8F4F9F4F0895B6
:102EB0000E94E91408F48FEF08950E94E914880B2A
:102EC000990B08950F931F93CF93DF938230910551
:102ED00010F482E090E0E091F004F091F10430E031
:102EE00020E0B0E0A0E0309799F42115310509F415
:102EF0004AC0281B390B24303105D8F58A819B81C3
:102F00006115710589F1FB0193838283FE0111C074
:102F1000408151810281138148175907E0F0481719
:102F2000590799F4109761F012960C931297139623
:102F30001C933296CF01DF91CF911F910F9108958D
:102F40000093F0041093F104F4CF2115310551F0F2
:102F50004217530738F0A901DB019A01BD01DF01D7
:102F6000F801C1CFEF01F9CF9093F1048093F00401
:102F7000CDCFFE01E20FF31F8193919322503109CF
:102F800039832883D7CF2091EE043091EF04232B8F
:102F900041F420910A0130910B013093EF0420930A
:102FA000EE0420910801309109012115310541F409
:102FB0002DB73EB740910C0150910D01241B350BEC
:102FC000E091EE04F091EF04E217F307A0F42E1B5A
:102FD0003F0B2817390778F0AC014E5F5F4F24177D
:102FE000350748F04E0F5F1F5093EF044093EE04F7
:102FF000819391939FCFF0E0E0E09CCFCF93DF935C
:103000000097E9F0FC01329713821282A091F0043C
:10301000B091F104ED0130E020E01097A1F420819F
:103020003181820F931F2091EE043091EF04281715
:10303000390709F061C0F093EF04E093EE04DF91EB
:10304000CF910895EA01CE17DF07E8F54A815B8149
:103050009E0141155105B1F7E901FB83EA834991CE
:103060005991C40FD51FEC17FD0761F48081918140
:103070000296840F951FE901998388838281938149
:103080009B838A83F0E0E0E012968D919C911397E8
:103090000097B9F52D913C911197CD010296820FC1
:1030A000931F2091EE043091EF042817390739F669
:1030B000309751F51092F1041092F004B093EF04A0
:1030C000A093EE04BCCFD383C28340815181840F8F
:1030D000951FC817D90761F44E5F5F4F88819981AA
:1030E000480F591F518340838A819B819383828338
:1030F0002115310509F0B0CFF093F104E093F0040D
:103100009ECFFD01DC01C0CF13821282D7CFB0E089
:10311000A0E0EDE8F8E10C94CD158C01009751F496
:10312000CB010E9462178C01C801CDB7DEB7E0E188
:103130000C94E915FC01E60FF71F9C0122503109A0
:10314000E217F30708F49DC0D901CD91DC911197E6
:10315000C617D70798F0C530D10530F3CE010497D4
:103160008617970708F3C61BD70B2297C193D193F5
:103170006D937C93CF010E94FE17D6CF5B01AC1AF2
:10318000BD0A4C018C0E9D1EA091F004B091F1047B
:10319000512C412CF12CE12C109731F58091EE044B
:1031A0009091EF048815990509F05CC04616570602
:1031B00008F058C08091080190910901009741F4EE
:1031C0008DB79EB740910C0150910D01841B950B5A
:1031D000E817F90708F055C0F093EF04E093EE0408
:1031E000F90171836083A0CF8D919C911197129604
:1031F0006C90129713967C901397A815B90559F502
:103200006C0142E0C40ED11CCA14DB0420F1AC01F5
:103210004A195B09DA011296159780F0628273826F
:1032200051834083D9016D937C93E114F10471F0D3
:10323000D7011396FC93EE93129776CF22968C0FBC
:103240009D1FF90191838083F301EFCFF093F10487
:10325000E093F00469CF4816590608F42C017D016B
:10326000D3019ACFCB010E9462177C01009749F0ED
:10327000AE01B8010E944919C8010E94FE178701DA
:1032800053CF10E000E050CF81E090E0F8940C9430
:103290005919FB01DC0102C001900D9241505040D0
:1032A000D8F70895FB01DC0101900D920020E1F7B1
:0632B0000895F894FFCF21
:1032B600DCDC0500001603010000F20480000000BB
:1032C60040001400540006050400000000BF0192EF
:1032D600018E0568018B017801690100000000E29A
:1032E6000342036F032F04A0037E03920300000032
:1032F60000960742038E058D05000000007F047BC3
:10330600040D0A00533A205365747570202020205E
:1033160020202000533A2043616C6962726174690F
:103326006E672000533A2052656164696E672020FB
:1033360020202000533A2054657374696E6720205C
:1033460020202000533A204F757470757420202079
:1033560020202000533A204572726F7220202020D0
:10336600202020006E616E00696E66006F76660032
:10337600627574746F6E3A2000207072657373659F
:1033860064092073746174653A200052656163684C
:1033960065642063617365204E45555452414C0067
:1033A6005265616368656420636173652041646486
:1033B600696E670074657374203D20005265616311
:1033C6006865642063617365205375627472616316
:1033D60074696E6700526561636865642063617332
:1033E6006520416464696E675F68616C766500504C
:1033F600726F6772616D207374617274696E672E85
:103406002E0074696D6520286D73292C20666F72F5
:10341600636520284E292C20766F6C7461676520C1
:103426002856292C2063757272656E7420286D41AA
:10343600292C20706F77657220285729002C0041AF
:103446002061616E736C756974656E004144435FFB
:10345600415F537465703A200020412F53746570A4
:1034660000562061616E736C756974656E00414427
:10347600435F565F537465703A200020562F53748D
:10348600657000507265737320477265656E0054EF
:10349600657374696E67206D6F746F72005465731F
:1034A60074696E67206D6F746F7270726F67726188
:1034B6006D3A00436F6465206E65787420746F20E2
:1034C60074696D6572002020202020202020202095
:0634D60020202020200050
:00000001FF
