:100000000C94DF000C9407010C9407010C94070179
:100010000C9407010C9407010C9407010C94070140
:100020000C9407010C9407010C9407010C949C0C90
:100030000C9407010C9407010C9407010C94070120
:100040000C94FA0B0C9407010C946A0C0C94440C5D
:100050000C9407010C9407010C9407010C94070100
:100060000C94DB0A0C94070100407A10F35A00A0AC
:10007000724E18090010A5D4E80000E87648170071
:1000800000E40B54020000CA9A3B000000E1F505B1
:10009000000080969800000040420F000000A086FB
:1000A00001000000102700000000E803000000002D
:1000B0006400000000000A000000000001000000D1
:1000C00000002C76D888DC674F0823DFC1DFAE59EB
:1000D000E1B1B796E5E3E453C63AE651997696E87E
:1000E000E6C28426EB898C9B62ED407C6FFCEFBC02
:1000F0009C9F40F2BAA56FA5F490055A2AF75C932D
:100100006B6CF9676DC11BFCE0E40D47FEF520E662
:10011000B500D0ED902E0300943577050080841E45
:10012000080000204E0A000000C80C333333330FA0
:10013000986E12831141EF8D2114893BE65516CF3D
:10014000FEE6DB18D1844B381BF77C1D901DA4BB49
:10015000E424203284725E228100C9F124ECA1E5FE
:100160003D270000000023002600290000000000B9
:10017000240027002A0000000000250028002B0092
:10018000040404040404040402020202020203033D
:100190000303030301020408102040800102040845
:1001A00010200102040810200000000800020100D5
:1001B000000304070000000000000000580D112497
:1001C0001FBECFEFD8E0DEBFCDBF12E0A0E0B1E0B0
:1001D000E2EBF2E302C005900D92A43EB107D9F71D
:1001E00024E0A4EEB2E001C01D92AC3AB207E1F700
:1001F00010E0CFEDD0E004C02197FE010E9442162E
:10020000CE3DD107C9F70E94FC0D0C9457190C94F0
:100210000000E0919604EC3088F54091970428E8BE
:1002200030E0241B310947FD3395220F331F220F85
:10023000331F8217930784F04091980428E532E039
:10024000241B310947FD3395220F331F220F331F23
:10025000821793070CF49C0122503109220F331F9F
:100260004FB7F8948E2F90E0FC01EE0FFF1FE80FC0
:10027000F91FEF58FB4F328321834FBF0895209120
:100280007C03260F3327331F21323105ECF42091F4
:10029000A203FC0190E080E0243069F082E0089540
:1002A000A0917C032191AC01465A5C4FA40FB52F5D
:1002B000B11D2C930196861798F380917C03680FEB
:1002C00060937C0380E0089581E008950895089587
:1002D0000895E091510380915003E81730F4F0E065
:1002E000E05DFC4F808190E008958FEF9FEF0895CF
:1002F00090915103809150032FEF3FEF981748F4EE
:10030000E92FF0E0E05DFC4F208130E09F5F9093AB
:100310005103C90108958091500390915103891BA5
:10032000990B0895CF92DF92EF92FF920F931F9354
:10033000CF93DF937C01CB018A0120912F032223ED
:1003400089F0EB016B01C40ED51ECC15DD0569F0FB
:100350006991D701ED91FC910190F081E02DC701E9
:100360000995F3CF642F0E943F01C801DF91CF911F
:100370001F910F91FF90EF90DF90CF900895CF9352
:10038000DF931F92CDB7DEB7698320912F0322231D
:10039000F9F020915203203258F021E030E0FC01C6
:1003A0003383228390E080E00F90DF91CF91089516
:1003B00080915303E82FF0E0E15FFC4F9981908337
:1003C0008F5F809353038093520381E090E0ECCFE2
:1003D00061E0CE0101960E943F01F7CF833081F0AA
:1003E00028F4813099F08230A9F008958730A9F07F
:1003F0008830C9F08430B1F4809180008F7D03C0D3
:10040000809180008F7780938000089584B58F77E6
:1004100084BD089584B58F7DFBCF8091B0008F7728
:100420008093B00008958091B0008F7DF9CF1F9325
:10043000CF93DF93282F30E0F901E855FE4F8491E8
:10044000F901EC56FE4FD491F901E058FE4FC491EA
:10045000CC23A9F0162F81110E94EE01EC2FF0E0C1
:10046000EE0FFF1FEA58FE4FA591B4918FB7F89495
:10047000EC91111108C0D095DE23DC938FBFDF9182
:10048000CF911F910895DE2BF8CF1092A20381E047
:100490008093A4031092A30361E082E10E941702FB
:1004A00061E083E10E941702E9EBF0E080818E7F3A
:1004B000808380818D7F808388E48093B80085E489
:1004C0008093BC000895CF93DF9391E090935903FC
:1004D0008823B9F0C091B800D091BA008091BC00D7
:1004E0008A7B8093BC0060E082E10E94170260E09A
:1004F00083E10E9417020E944502D093BA00C09384
:10050000B800DF91CF910895CF93DF9390E0FC0185
:10051000EC56FE4F249180589E4FFC018491882315
:10052000C9F090E0880F991FFC01E459FE4FA59196
:10053000B491FC01EA58FE4FC591D49161110DC0F0
:100540009FB7F8948C91209582238C9388812823DF
:1005500028839FBFDF91CF910895623051F49FB7F8
:10056000F8943C91822F809583238C93E8812E2BE5
:10057000EFCF8FB7F894EC912E2B2C938FBFEACF4F
:100580008E3008F08E508770806480937C0080915C
:100590007A00806480937A0080917A0086FDFCCF97
:1005A000809178009091790008953FB7F8948091F8
:1005B0000B0390910C03A0910D03B0910E0326B58F
:1005C000A89B05C02F3F19F00196A11DB11D3FBF8B
:1005D000BA2FA92F982F8827BC01CD01620F711D5A
:1005E000811D911D42E0660F771F881F991F4A9554
:1005F000D1F708958F929F92AF92BF92CF92DF92E0
:10060000EF92FF924B015C010E94D5026B017C01CD
:100610000E94D5026C197D098E099F09683E7340BE
:1006200081059105A8F321E0821A9108A108B1087B
:1006300088EEC80E83E0D81EE11CF11C81149104E1
:10064000A104B10429F7FF90EF90DF90CF90BF9005
:10065000AF909F908F9008952FB7F8946091070303
:10066000709108038091090390910A032FBF0895A8
:100670008AEC98E00E9409018091FF028F5F8093CD
:10068000FF020895AF92BF92CF92DF92EF92FF9256
:100690000F931F93CF93DF936C017B018B01040FAA
:1006A000151FEB015E01AE18BF08C017D10759F046
:1006B0006991D601ED91FC910190F081E02DC60188
:1006C0000995892B79F7C501DF91CF911F910F9182
:1006D000FF90EF90DF90CF90BF90AF900895FC0116
:1006E000538D448D252F30E0842F90E0821B930B97
:1006F000541710F0CF96089501970895FC01918D3D
:10070000828D981761F0A28DAE0FBF2FB11D5D963F
:100710008C91928D9F5F9F73928F90E008958FEFE1
:100720009FEF0895FC01918D828D981731F0828D95
:10073000E80FF11D858D90E008958FEF9FEF0895EC
:10074000FC01918D228D892F90E0805C9F4F821B50
:1007500091098F739927089584ED93E00E94A00377
:1007600021E0892B09F420E0822F089580E090E0B9
:10077000892B29F00E94AC0381110C94000008958C
:10078000FC01A48DA80FB92FB11DA35ABF4F2C9106
:10079000848D90E001968F739927848FA689B789FD
:1007A0002C93A089B1898C91837080648C93938DF4
:1007B000848D981306C00288F389E02D80818F7D97
:1007C00080830895EF92FF920F931F93CF93DF934F
:1007D000EC0181E0888F9B8D8C8D98131AC0E8897D
:1007E000F989808185FF15C09FB7F894EE89FF894C
:1007F0006083E889F98980818370806480839FBFEA
:1008000081E090E0DF91CF911F910F91FF90EF90E9
:100810000895F62E0B8D10E00F5F1F4F0F731127F9
:10082000E02E8C8D8E110CC00FB607FCFACFE88934
:10083000F989808185FFF5CFCE010E94C003F1CFF9
:10084000EB8DEC0FFD2FF11DE35AFF4FF0829FB7A8
:10085000F8940B8FEA89FB8980818062CFCFCF9398
:10086000DF93EC01888D8823B9F0AA89BB89E889D8
:10087000F9898C9185FD03C0808186FD0DC00FB67E
:1008800007FCF7CF8C9185FFF2CF808185FFEDCFFC
:10089000CE010E94C003E9CFDF91CF910895862F4A
:1008A000642F0C948402CF93DF93FC01218930E004
:1008B000F901E855FE4F8491F901EC56FE4FD491B1
:1008C000F901E058FE4FC491CC2379F081110E94C8
:1008D000EE01EC2FF0E0EE0FFF1FEE59FE4FA59159
:1008E000B491EC91ED2381E009F480E08170DF9117
:1008F000CF910895CF92DF92EF92FF920F931F93C3
:10090000CF93DF93FC01C48121E020932F03C09398
:10091000F30210925303109252038485682B88ECE3
:1009200093E00E94BF01D0915203D13208F092C0EF
:100930000E94D5026B017C018091A203811165C0E8
:1009400082E08093A20381E08093A4038FEF8093E1
:10095000A1031092C603D093C503AFE0B3E0E5EA6C
:10096000F3E080E0D81385C01092C7038091C703DD
:10097000CC0FC82BC093C7038091A303813009F02B
:100980007CC01092A3030E94D5026B017C01809170
:10099000C7038093BB008091550390915603A091AB
:1009A0005703B0915803892B8A2B8B2B99F00E9407
:1009B000D5020091550310915603209157033091B1
:1009C00058036C197D098E099F0906171707280718
:1009D0003907E0F18091BC0083FDD9CF85EC80938D
:1009E000BC000E94D5026B017C018091A203823081
:1009F00009F445C08091A1038F3F61F18091A1036B
:100A0000803241F18091A10325C0809155039091DE
:100A10005603A0915703B0915803892B8A2B8B2B37
:100A200009F48ACF0E94D502009155031091560314
:100A300020915703309158036C197D098E099F0945
:100A4000061717072807390708F076CF8091540357
:100A50000E946302109253031092520310922F03CC
:100A6000DF91CF911F910F91FF90EF90DF90CF908A
:100A700008959D9191938F5F75CF85EEB0CF809152
:100A8000550390915603A0915703B0915803892BB9
:100A90008A2B8B2B09F4A9CF0E94D5020091550314
:100AA0001091560320915703309158036C197D091A
:100AB0008E099F09061717072807390708F095CFF1
:100AC000C5CF089590E080E00895892B79F41092C5
:100AD000800082E080938100109285001092840053
:100AE000B19A80916F00826080936F000895809129
:100AF00096048C3008F043C061E083E00E948402D9
:100B000080919604282F30E0F901EE0FFF1FE20FCD
:100B1000F31FEF58FB4F9081907C9360908310926D
:100B20009704109298042CE0622F0E942216829F54
:100B3000B001112430E020E0AB01420F531FFA0155
:100B4000EE0FFF1FE40FF51FEF58FB4F908196FD4E
:100B500008C02F5F3F4F2C30310571F790E00E94A5
:100B60006505E09196048E2F90E0FC01EE0FFF1FCB
:100B7000E80FF91FEF58FB4F80818064808364E1A8
:100B800070E080E090E00E94FA028CED95E00E9417
:100B9000090168E873E180E090E00C94FA02FB013F
:100BA00001900020E9F73197AF01461B570BDC019C
:100BB000ED91FC910280F381E02D0994CF93DF93B6
:100BC000FC01448155816081718184ED93E00E9434
:100BD0004203EC016BE471E084ED93E00E94CF05E9
:100BE0008C0F9D1FDF91CF9108958F929F92AF92AE
:100BF000BF920F931F93CF93DF93CDB7DEB7A1972B
:100C00000FB6F894DEBF0FBECDBF19A2423008F474
:100C10004AE08E010F5D1F4F842E912CB12CA12C28
:100C2000A50194010E940016E62FB901CA01EA301D
:100C300004F5E05DD801EE938D01232B242B252BA9
:100C400079F790E080E0109729F0BD0184ED93E002
:100C50000E94CF05A1960FB6F894DEBF0FBECDBFA0
:100C6000DF91CF911F910F91BF90AF909F908F9088
:100C70000895E95CDFCFCF93DF93D0E0C0E0009729
:100C800031F0BC0184ED93E00E94CF05EC016BE4F0
:100C900071E084ED93E00E94CF058C0F9D1FDF91E2
:100CA000CF91089582309105F9F03CF4009769F0F6
:100CB0000197B9F08EE991E00AC083309105B9F04F
:100CC0000497C1F78EE891E002C08EE491E0909322
:100CD00001018093000180910001909101010C9429
:100CE0003B068EE591E0F3CF8EE691E0F0CF8EE704
:100CF00091E0EDCF4F925F926F927F928F929F9291
:100D0000AF92BF92CF92DF92EF92FF920F931F9319
:100D1000CF936B017C01742EAC019B010E945B1789
:100D20006EEA71E0811126C046015701E894B7F8D8
:100D30002FEF3FEF4FE75FE7C501B4010E945B175C
:100D400081110CC02FEF3FEF4FE75FE7C501B40102
:100D50000E94A51462EB71E0181664F02FEF3FEFCC
:100D60004FE75FE4C701B6010E9456171816ACF4AE
:100D700066EB71E084ED93E0CF911F910F91FF90AE
:100D8000EF90DF90CF90BF90AF909F908F907F902B
:100D90006F905F904F900C94CF052FEF3FEF4FE790
:100DA0005FECC701B6010E94A51487FDE1CF20E0EA
:100DB00030E0A901C701B6010E94A51410E000E0CF
:100DC00087FF0AC06DE284ED93E00E94E2038C018C
:100DD000F7FAF094F7F8F094C0E060E070E080E09B
:100DE0009FE37C1641F020E030E040E251E40E94B5
:100DF000B516CF5FF6CFA70196010E9449162B01C9
:100E00003C010E9427174B015C014AE00E94F50556
:100E10007C01E00EF11ECC23C1F1C501B4010E949A
:100E2000AA149B01AC01C301B2010E9448164B01F8
:100E30005C016EE284ED93E00E94E203E80EF91E8D
:100E4000C15018F120E030E040E251E4C501B401A6
:100E50000E940B152B013C010E9427174B01B12C5E
:100E6000A12C4AE0C501B4010E94F505E80EF91E67
:100E7000C501B4010E94AA149B01AC01C301B201D7
:100E80000E9448164B015C01DBCFC701CF911F9137
:100E90000F91FF90EF90DF90CF90BF90AF909F9019
:100EA0008F907F906F905F904F9008950F931F9356
:100EB000CF938C01C62F0E947A046C2F6460C80106
:100EC0000E947A046C2F6B7FC8010E947A0483EC25
:100ED00090E00197F1F7CF911F910F9108950F9333
:100EE0001F93CF93DF938C01D62FC42F607F642B89
:100EF0000E94560780E1D89FB00111246C2BC801D5
:100F0000DF91CF911F910F910C94560740E062E062
:100F100089E994E00E946F078BE39FE10197F1F765
:100F20000895CF93DF93CDB7DEB728970FB6F89427
:100F3000DEBF0FBECDBF98E0E8E0F1E0DE01119624
:100F400001900D929A95E1F79091A104981708F4F9
:100F50008FEF90E0880F991F21E030E02C0F3D1FAC
:100F6000820F931FFC016081606840E089E994E092
:100F700028960FB6F894DEBF0FBECDBFDF91CF919C
:100F80000C946F0740E061E089E994E00E946F07EC
:100F90008BE39FE10197F1F78091A204882319F078
:100FA00080E00C949107089541E00E946F0781E072
:100FB00090E00895CF92DF92EF92FF92CF93DF936C
:100FC0002091000330910103232B81F484E090E011
:100FD00090930103809300038AEB91E0DF91CF911E
:100FE000FF90EF90DF90CF900C943B06EC0184E0F3
:100FF00090E090930103809300030E9452060E94A8
:101000002C03C0900203D0900303E0900403F090FF
:1010100005036C197D098E099F094AE00E94F505B8
:1010200065EF71E084ED93E00E94CF05CC84DD8410
:101030000D2C000CEE08FF084AE0C701B601F7FED0
:101040000DC06DE284ED93E00E94E20366277727EE
:10105000CB016C197D098E099F094AE00E94F505B4
:1010600065EF71E084ED93E00E94CF05688179819E
:101070008A819B8142E00E947A0665EF71E084EDEF
:1010800093E00E94CF056C817D818E819F8142E03B
:101090000E947A0665EF71E084ED93E00E94CF052F
:1010A000688579858A859B8542E00E947A066BE493
:1010B00071E084ED93E0DF91CF91FF90EF90DF90AE
:1010C000CF900C94CF0585ED8093BC0080915503A3
:1010D00090915603A0915703B09158030796A11D14
:1010E000B11D23E0B695A795979587952A95D1F7D9
:1010F0002091BC0024FD03C01092A20308954091EA
:101100005503509156036091570370915803452B36
:10111000462B472B69F30097A105B10541F02AE260
:101120002A95F1F700C00197A109B109E1CF80919B
:1011300054030C9463020E9442190F931F93CF93A0
:10114000DF93EC0188819981009759F02A813B81D6
:101150002617370730F081E0DF91CF911F910F9173
:1011600008958B016F5F7F4F0E948518009759F09B
:10117000998388831B830A832C813D81232B59F714
:10118000FC011082E8CF80E0E7CFCF93DF93EC0142
:1011900088819981009711F00E94FC1719821882AA
:1011A0001D821C821B821A82DF91CF910895CF92FB
:1011B000DF92EF92FF920F931F93CF93DF93CDB700
:1011C000DEB728970FB6F894DEBF0FBECDBF7C0107
:1011D000CB014AE09E012F5F3F4F6901B9010E9498
:1011E0003912F60101900020E9F73197EC19FD0959
:1011F000D9F0D70114960D911C910E0F1F1FB80145
:10120000C7010E949D088823F9F0F70120813181F0
:1012100084819581B601820F931F0E945019D701D6
:1012200015961C930E931497C70128960FB6F89441
:10123000DEBF0FBECDBFDF91CF911F910F91FF9009
:10124000EF90DF90CF900895C7010E94C508ECCFC2
:10125000EF92FF920F931F93CF93DF938C017B014B
:10126000FB0101900020E9F73197E61BF70BD1F065
:10127000DC011496CD91DC91CE0FDF1FBE010E94E0
:101280009D088823B9F0F8012081318184819581FE
:10129000B701820F931F0E945019D8011596DC9355
:1012A000CE931497C801DF91CF911F910F91FF90BA
:1012B000EF900895C8010E94C508F4CFEF92FF9205
:1012C0000F931F93CF93DF93EC017B018A01BA0147
:1012D0000E949D0881110BC0CE010E94C508CE015D
:1012E000DF91CF911F910F91FF90EF9008951D8393
:1012F0000C83B701888199810E945019F0CFEF9239
:10130000FF920F931F93CF93DF93CDB7DEB7629712
:101310000FB6F894DEBF0FBECDBF8C01CB01F80134
:101320001182108213821282158214824AE09E0179
:101330002F5F3F4F7901B9010E943912F7010190E7
:101340000020E9F73197AF014E195F09B701C801D5
:101350000E945E0962960FB6F894DEBF0FBECDBF45
:10136000DF91CF911F910F91FF90EF900895FB01B6
:10137000DC0111961C921E9213961C921E921297DB
:1013800015961C921E9214978617970749F0608154
:1013900071816115710521F0448155810C945E09BC
:1013A0000895FC0111821082138212821582148228
:1013B000FB0101900020E9F73197AF01461B570B65
:1013C0000C945E09FC0180819181009711F00C94CE
:1013D000FC1708952F923F924F925F926F927F92E7
:1013E0008F929F92AF92BF92CF92DF92EF92FF9235
:1013F0000F931F93CF93DF93CDB7DEB72D970FB623
:10140000F894DEBF0FBECDBF5C016C01F12CE12C66
:101410007724739482E0682E46018A189B08009115
:10142000A6041091A7040E0D1F1DD80118968C91CB
:1014300018978B7F18968C931897ED91FC910190DB
:10144000F081E02DC80109958D87F801808586958A
:1014500081702D84281609F468C00E942C03D801DD
:1014600012966D937D938D939C93159718968C91FE
:101470001897862518968C93E091A604F091A704FE
:10148000EE0DFF1D608562FB112710F960FD10E075
:10149000D6011D936D01808580FD26C082FF24C08A
:1014A00067EF71E0CE0101960E94D109BE016F5F26
:1014B0007F4FCE0107960E94B709B401CE0107966F
:1014C0000E94D70860E072E00E942809612F70E056
:1014D0000E94D7080E94DE05CE0107960E94E2090D
:1014E000CE0101960E94E209B2E1EB0EF11CE6E3A7
:1014F000EE16F10409F090CF2D960FB6F894DEBFEA
:101500000FBECDBFDF91CF911F910F91FF90EF9054
:10151000DF90CF90BF90AF909F908F907F906F9013
:101520005F904F903F902F9008950E942C03F801F8
:1015300022813381448155811B012C01221A330AF7
:10154000440A550AB201A10186819781B0E0A0E06A
:10155000481759076A077B0708F48ECF808581708A
:101560003D84381609F488CF0E942C03D8011296C6
:101570006D937D938D939C93159718968C911897E6
:101580008725846018968C930E942C03F80121858E
:10159000328543855485621B730B840B950B6587DD
:1015A00076878787908B0E942C03F801618772876A
:1015B0008387948761CF1F920F920FB60F921124E9
:1015C0002F933F934F935F936F937F938F939F934B
:1015D000AF93BF93EF93FF938091B900887F8036DC
:1015E00009F44AC0F0F5883209F4A7C018F5803133
:1015F00009F49BC0B8F4882309F4F9C0883009F4D1
:1016000094C0FF91EF91BF91AF919F918F917F9186
:101610006F915F914F913F912F910F900FBE0F905F
:101620001F901895883109F488C0803251F7809353
:10163000A10314C0803409F49DC040F48033B9F391
:101640008833F9F68093A10385ECB0C0803509F4A6
:1016500085C0883509F496C0883499F60E946308DD
:10166000D0CF883909F48CC038F5883729F050F488
:10167000883611F0803729F683E08093A203109218
:10168000A00357C0883809F47BC0803919F080382E
:1016900009F0B7CF8091A003803208F071C0E091CB
:1016A000A00381E08E0F8093A0038091BB00F0E047
:1016B000E058FC4F80833DC0803B39F0E0F4803A35
:1016C00009F479C0883A09F09CCF84E08093A203A2
:1016D00010927D0310927C03E0917A03F0917B03DA
:1016E000099580917C0381110FC081E080937C0378
:1016F00010925A0309C0803C09F4A6CF883C09F433
:10170000A3CF883B09F07DCFE0917D0381E08E0F70
:1017100080937D03F0E0E65AFC4F80818093BB000C
:1017200090917D0380917C0329C08091C7038093B1
:10173000BB0085EC8093BC0064CF9091C603809180
:10174000C503981758F5E091C60381E08E0F80938A
:10175000C603F0E0EB55FC4F8081E9CFE091C60372
:1017600081E08E0F8093C6038091BB00F0E0EB55C3
:10177000FC4F80839091C6038091C5039817C8F2EF
:1017800085E8D8CFE091C60381E08E0F8093C60331
:101790008091BB00F0E0EB55FC4F80838091A40367
:1017A00081115CCF81E08093A30384EA8093BC0025
:1017B0001092A20326CF85EC8093BC001092A20366
:1017C0008091A003803230F4E091A003F0E0E05873
:1017D000FC4F10826091A00370E0E0917E03F091D5
:1017E0007F0380E893E009951092A0030ACF10923E
:1017F000A10334CF1F920F920FB60F9211242F9393
:101800003F938F939F93AF93BF93809107039091E2
:101810000803A0910903B0910A033091060323E065
:10182000230F2D3758F50196A11DB11D20930603F6
:101830008093070390930803A0930903B0930A03CE
:1018400080910B0390910C03A0910D03B0910E03B6
:101850000196A11DB11D80930B0390930C03A093DF
:101860000D03B0930E03BF91AF919F918F913F9164
:101870002F910F900FBE0F901F90189526E8230F01
:101880000296A11DB11DD2CF1F920F920FB60F92DB
:1018900011242F933F934F935F936F937F938F9375
:1018A0009F93AF93BF93EF93FF9384ED93E00E94D8
:1018B000C003FF91EF91BF91AF919F918F917F9165
:1018C0006F915F914F913F912F910F900FBE0F90AD
:1018D0001F9018951F920F920FB60F9211242F93FD
:1018E0008F939F93EF93FF93E091E403F091E503CF
:1018F0008081E091EA03F091EB0382FD1BC09081AF
:101900008091ED038F5F8F732091EE03821741F07A
:10191000E091ED03F0E0EC52FC4F958F8093ED03E6
:10192000FF91EF919F918F912F910F900FBE0F908C
:101930001F9018958081F4CF1F920F920FB60F92CF
:1019400011242F933F934F935F936F937F938F93C4
:101950009F93AF93BF93CF93DF93EF93FF938091C8
:10196000F202C0919504D0E087FF24C01092850058
:10197000109284008091F2028F5F8093F202809136
:10198000F202082E000C990B8C179D0724F480910D
:10199000F2028C30C4F1809184009091850004960D
:1019A00080349C4908F47AC080918400909185002D
:1019B000049676C08091F202082E000C990B8C17C9
:1019C0009D07C4F6E091F2028E2FEE0F990BFC01F9
:1019D000EE0FFF1FE80FF91FEF58FB4F808186FFC6
:1019E000C9CFE091F2028E2FEE0F990BFC01EE0FA2
:1019F000FF1FE80FF91FEF58FB4F808160E08F73E6
:101A00000E941702B7CF2091840030918500E091A9
:101A1000F2028E2FEE0F990BFC01EE0FFF1FE80F65
:101A2000F91FEF58FB4F81819281820F931F909392
:101A3000890080938800E091F2028E2FEE0F990BBF
:101A4000FC01EE0FFF1FE80FF91FEF58FB4F8081DD
:101A500086FF11C0E091F2028E2FEE0F990BFC0170
:101A6000EE0FFF1FE80FF91FEF58FB4F808161E079
:101A70008F730E941702FF91EF91DF91CF91BF9179
:101A8000AF919F918F917F916F915F914F913F9116
:101A90002F910F900FBE0F901F90189580E49CE936
:101AA00090938900809388008FEF8093F202E3CFB8
:101AB0001092CB031092CA0388EE93E0A0E0B0E04E
:101AC0008093CC039093CD03A093CE03B093CF0328
:101AD00027E131E03093C9032093C8031092D70364
:101AE0001092D6038093D8039093D903A093DA037E
:101AF000B093DB0389E291E09093D5038093D40304
:101B000085EC90E09093E1038093E00384EC90E017
:101B10009093E3038093E20380EC90E09093E503DD
:101B20008093E40381EC90E09093E7038093E603D5
:101B300082EC90E09093E9038093E80386EC90E0D8
:101B40009093EB038093EA031092ED031092EE035F
:101B50001092EF031092F00386E390E00E9460176A
:101B6000FC019C012A5C3F4F6AE070E047E451E0D1
:101B700012821382148215827783668310865183C2
:101B80004083118A7296E217F30791F79093A704A6
:101B90008093A60410929C0410929B048BE391E026
:101BA00090939A04809399041092A20487E2809300
:101BB0009D0480E18093A30482E08093A4041092AA
:101BC000A504809195048C3098F491E0980F90933F
:101BD00095048093960490E0FC01EE0FFF1FE80F40
:101BE000F91FEF58FB4F88EB9BE0928381830895A8
:101BF0008FEF809396040895CF93DF93CDB7DEB730
:101C00002C970FB6F894DEBF0FBECDBF789484B585
:101C1000826084BD84B5816084BD85B5826085BDE8
:101C200085B5816085BD80916E00816080936E0076
:101C30001092810080918100826080938100809168
:101C40008100816080938100809180008160809319
:101C500080008091B10084608093B1008091B000D9
:101C600081608093B00080917A00846080937A00D4
:101C700080917A00826080937A0080917A008160FE
:101C800080937A0080917A00806880937A00109225
:101C9000C1001092010310920003E091E403F0915F
:101CA000E50382E08083E091E003F091E10310829C
:101CB000E091E203F091E3038FEC80831092EC0358
:101CC000E091E803F091E90386E08083E091E60388
:101CD000F091E703808180618083E091E603F091D9
:101CE000E703808188608083E091E603F091E70359
:101CF000808180688083E091E603F091E703808132
:101D00008F7D808382E192E00E943B061092510316
:101D10001092500310925303109252030E944502F6
:101D200086E691E090937B0380937A0387E691E0C7
:101D300090937F0380937E0310929E048091A4046D
:101D4000823018F098E090939E048093A10462E39F
:101D500070E080E090E00E94FA026091A50489E9B9
:101D600094E00E947A0468EE73E080E090E00E94C4
:101D7000FA0260E389E994E00E9456070BE416E456
:101D8000C8010197F1F760E389E994E00E945607E2
:101D9000C8010197F1F760E389E994E00E945607D2
:101DA00083E592E00197F1F760E289E994E00E940F
:101DB000560760919E04606240E089E994E00E94C9
:101DC0006F0784E080939F0440E06CE089E994E031
:101DD0000E946F070E94C20782E08093A00440E047
:101DE00066E089E994E00E946F070E94860788E018
:101DF0008093A50460E089E994E00E947A048091D0
:101E00000003909101030E94520661E08DE00E9460
:101E1000840261E083E00E94840260E08EE00E9420
:101E2000840260E08FE00E94840262E084E00E940D
:101E3000840262E087E00E94840262E088E00E94FF
:101E4000840210E1A12E11E0B12ED12CC12C09E1A8
:101E5000602E712C0091A6041091A7040C0D1D1D7D
:101E6000D5015D905D01652D70E0D801ED91FC918B
:101E70000280F381E02D42E050E0C8010995F801AD
:101E8000518A10860190F081E02D0190F081E02DC3
:101E9000C8010995882339F0D80118968C911897B4
:101EA000836018968C930E942C03F80162837383DD
:101EB00084839583E091A604F091A704EC0DFD1DA9
:101EC00077826682F2E1CF0ED11C86E3C816D10478
:101ED00009F684EE92E00E94DA07809196048C3035
:101EE00008F043C061E083E00E9484028091960480
:101EF000282F30E0F901EE0FFF1FE20FF31FEF581C
:101F0000FB4F9081907C9360908310929704109285
:101F100098042CE0622F0E94221690E0829FB0016C
:101F2000112430E020E0AB01420F531FFA01EE0F05
:101F3000FF1FE40FF51FEF58FB4F408146FD07C020
:101F40002F5F3F4F2C30310571F70E946505E091FE
:101F500096048E2F90E0FC01EE0FFF1FE80FF91F93
:101F6000EF58FB4F8081806480830E94770581E079
:101F700090E090930103809300030E94520661E079
:101F800070E0CE0107960E947F09BE01695F7F4F16
:101F9000CE0101960E94B70965E272E0CE0101967A
:101FA0000E9428090E94DE05CE0101960E94E209E6
:101FB000CE0107960E94E2090E94C2070E9486078E
:101FC00061E070E0CE0107960E947F09BE01695F63
:101FD0007F4FCE0101960E94B70965E272E0CE0103
:101FE00001960E942809DC0114964D915C91159789
:101FF0006D917C9189E994E00E944203CE010196A3
:102000000E94E209CE0107960E94E20984EF92E065
:102010000E94EA098091F4028823C1F31AE08FE05C
:102020000E94C002E80EF91E1150C9F7C7016AE00C
:1020300070E00E942E167B0181E090E00E942E1637
:1020400090E080E00E94AA142B013C014092F7022C
:102050005092F8026092F9027092FA020E94C2074E
:102060000E94860702E312E026E042E0C301B201CB
:102070000E941B1263E472E0CE0107960E94D10910
:10208000BE01695F7F4FCE0101960E94B709B8017A
:10209000CE0101960E94280960E572E00E9428099D
:1020A0000E94DE05CE0101960E94E209CE0107964C
:1020B0000E94E209B80189E994E00E94CF0560E539
:1020C00072E089E994E00E94CF0581E00E949107C7
:1020D0006AE070E0CE0107960E947F09BE01695F49
:1020E0007F4FCE0101960E94B70968E572E0CE01EC
:1020F00001960E9428090E94DE05CE0101960E94E9
:10210000E209CE0107960E94E2096AE070E0CE0182
:1021100007960E947F09BE01695F7F4FCE0101963D
:102120000E94B70968E572E0CE0101960E94280975
:10213000FC01448155816081718189E994E00E94AC
:102140004203CE0101960E94E209CE0107960E9449
:10215000E20984EF92E00E94EA098091F402882368
:10216000C1F31AE08EE00E94C002E80EF91E115081
:10217000C9F72AE030E0C701B9010E942E16C90153
:102180000E942E1690E080E00E94AA146B017C0150
:10219000C092FB02D092FC02E092FD02F092FE029D
:1021A0000E94C2070E94860702E312E026E042E096
:1021B000C701B6010E941B1265E672E0CE010796C8
:1021C0000E94D109BE01695F7F4FCE0101960E9436
:1021D000B709B801CE0101960E94280962E772E0B2
:1021E0000E9428090E94DE05CE0101960E94E209A4
:1021F000CE0107960E94E209B80189E994E00E94A5
:10220000CF0562E772E089E994E00E94CF0581E0A2
:102210000E9491076AE772E089E994E00E94CF0585
:102220008AE792E00E943B0684EF92E00E94EA096E
:102230008091F5028823C1F30E94C2070E9486079D
:102240000E94770582E0E82EF12C93E0C92ED12C74
:1022500020E0A22E20E0B22E0E942C036093020305
:1022600070930303809304039093050384EF92E03B
:102270000E94EA09F0920103E092000382E090E0FC
:102280000E9452068EE00E94C0023C018FE00E9434
:10229000C0028C01B301770C880B990B0E94AC141F
:1022A0002091FB023091FC024091FD025091FE0210
:1022B0000E940B152B013C014092E4025092E50272
:1022C0006092E6027092E702B801110F880B990B39
:1022D0000E94AC142091F7023091F8024091F9026B
:1022E0005091FA020E940B159B01AC012093E80269
:1022F0003093E9024093EA025093EB02C301B2012A
:102300000E940B156093EC027093ED028093EE0235
:102310009093EF02D0920103C092000366E872E04E
:10232000CE0107960E94D109BE01695F7F4FCE01A1
:1023300001960E94B70970E060E0CE0101960E940C
:10234000D7080E94DE05CE0101960E94E209CE0167
:1023500007960E94E2090CED15E0C8010E940901F0
:102360006CE972E0CE0107960E94D109BE01695F57
:102370007F4FCE0101960E94B709B801CE010196A8
:102380000E94D7080E94DE05CE0101960E94E20954
:10239000CE0107960E94E20964E170E080E090E0DF
:1023A0000E94FA0202501109083EF3E01F07A9F645
:1023B00084EA92E00E943B06C8010E9409016CE990
:1023C00072E0CE0107960E94D109BE01695F7F4F7E
:1023D000CE0101960E94B709B801CE0101960E9474
:1023E000D7080E94DE05CE0101960E94E209CE01C7
:1023F00007960E94E20964E170E080E090E00E94AC
:10240000FA020E5F1F4F0A3C88E01807A9F682EC1B
:1024100092E00E943B0684EE92E00E94DA07A1144B
:10242000B10409F419CF0E94AC03882309F414CF36
:102430000E94000011CFEF920F931F93CF93DF9371
:10244000E80134E047FD34E1042E000C550B57FF42
:1024500003C0519541955109E32E022F242FAE015F
:102460000E945E12CE01DF91CF911F910F91EF90EC
:102470000895BB274A3031F4992322F4BDE29095A8
:1024800081959F4F0C944512BB27FB015527AA2726
:10249000880F991FAA1FA41710F0A41B83955051F1
:1024A000B9F7A05DAA3308F0A95DA193009779F769
:1024B000B111B1931192CB010C949514A9E0B0E045
:1024C000E4E6F2E10C94CF156A01F22EB02E102F43
:1024D000FBE3AF2EA01608F41BE31F5F012F27E0DC
:1024E000AE014F5F5F4F0E94BD13BC018981982FE1
:1024F0009970913009F43FC09BE2E1FC04C09E2D2D
:102500009170E0FC3AC05E2D5071E82FE87083FFB7
:1025100046C084E0911101C083E0EF2DE81B8F15C8
:1025200008F0E0E0D6018E2F20E2552351F19923E7
:1025300029F0D6019C93C60101966C0196012D5F8E
:102540003F4FE2FE24C08EE4D6018C9391E41196B5
:102550009C93119712968C93D9018E2F90E2811142
:102560001BC0E20FF32FF11D10828EEF9FEF299613
:10257000ECE00C94EB159DE2C6CF90E2C4CF2D9316
:1025800081508111FCCFCE0ED11CE0E0D0CF8EE681
:10259000D6018C9391E6DBCF9D938150E0CF482FFD
:1025A000447082FF3DC084E0911101C083E08F152B
:1025B00010F4EF2DE81BD6018E2F20E2552309F1F0
:1025C000992329F0D6019C93C60101966C019601CE
:1025D0002D5F3F4FE2FE1BC089E4D6018C938EE451
:1025E00011968C93119786E412968C93D9018E2FB5
:1025F00090E2882309F4B5CF9D938150FACF2D93B3
:1026000081508111FCCFCE0ED11CE0E0D9CF89E6FC
:10261000D6018C938EE611968C93119786E6E4CFC3
:102620009B0177FF02C030E020E0A1E0B0E0911113
:1026300002C0B0E0A0E0F9013196AE0FBF1F8B2CB5
:10264000912CBB2009F461C05401EFEFAE1ABE0A11
:10265000AA0DBB1DFA161B0619F014F04F2D4A1BCC
:10266000511188C0E3FC59C07601A42FB0E2A1113A
:102670004FC0C40ED11C992309F45BC040E0D601C1
:102680001196F60190836D01552309F448C0012F7E
:10269000060F9A81582F507184FF03C0913309F4BB
:1026A000015010160CF047C0093008F008E0EEE2C7
:1026B000FE2E5B01A01AB1088501919481949108C6
:1026C0002F3F320729F4D601FC92F60131966F01B3
:1026D0006217730794F1021713077CF5DB01A21B45
:1026E000B30BAA24A394B12CAC0EBD1EAA0DBB1D26
:1026F00011968C9121503109D60111962815390572
:10270000F4F0F60180836D01DBCFB12CA12CA0CFBA
:10271000F701B1937F01A150AACF9111B0CFD6019B
:10272000942F50E302C05D9391509111FCCFC40EE1
:10273000D11C40E0ACCF01E0BACF80E3DBCF621721
:10274000730731F4963388F4953311F4552369F007
:10275000F6018083FD01842F90E2811108C0A40F4F
:10276000B11D1C9290E080E002CF81E3F1CF919304
:102770008150F3CF911183CF8ACF283008F027E022
:102780003327DA01990F311D87FD916000966105AD
:10279000710539F432602E5F3D9330E32A95E1F7FD
:1027A00008959F3F30F080387105610509F03C5F66
:1027B0003C5F3D93913008F08068911DDF93CF938B
:1027C0001F930F93FF92EF92192F987F9695E92F01
:1027D00096959695E90FFF27EE53FF4F99273327DC
:1027E000EE24FF24A701E70105900894079428F43C
:1027F000360FE71EF81E491F511D660F771F881FF1
:10280000991F0694A1F70590079428F4E70EF81E87
:10281000491F561FC11D770F881F991F661F0694F9
:10282000A1F70590079428F4F80E491F561FC71FFB
:10283000D11D880F991F661F771F0694A1F7059079
:10284000079420F4490F561FC71FD81F990F661F02
:10285000771F881F0694A9F784911095177041F08F
:10286000D695C79557954795F794E7941A95C1F76C
:10287000E8E6F0E068941590159135916591959191
:1028800005907FE27395E118F10A430B560BC90BD3
:10289000D009C0F7E10CF11E431F561FC91FD01D00
:1028A0007EF4703311F48A95E6CFE894015030F04D
:1028B000080F0AF40027021708F4202F2395022F8F
:1028C0007A3328F079E37D932A95E9F710C07D9358
:1028D0002A9589F6069497956795379517951794D5
:1028E000E118F10A430B560BC90BD00998F0239558
:1028F0007E9173957A3308F070E37C932013B8F7D8
:102900007E9170617D9330F0839571E37D9370E3E8
:102910002A95E1F71124EF90FF900F911F91CF912D
:10292000DF91992787FD90950895DC01FC01672FC1
:1029300071917723E1F7329704C07C916D93708396
:102940006291AE17BF07C8F308950E94E71408F418
:1029500081E00895E89409C097FB3EF49095809536
:10296000709561957F4F8F4F9F4F9923A9F0F92F55
:1029700096E9BB279395F695879577956795B795D3
:10298000F111F8CFFAF4BB0F11F460FF1BC06F5FB9
:102990007F4F8F4F9F4F16C0882311F096E911C0CB
:1029A000772321F09EE8872F762F05C0662371F0EC
:1029B00096E8862F70E060E02AF09A95660F771F00
:1029C000881FDAF7880F9695879597F90895990FDC
:1029D0000008550FAA0BE0E8FEEF16161706E807E9
:1029E000F907C0F012161306E407F50798F0621B0A
:1029F000730B840B950B39F40A2661F0232B242BDF
:102A0000252B21F408950A2609F4A140A6958FEFFD
:102A1000811D811D08950E941E150C948F150E9422
:102A2000811538F00E94881520F0952311F00C9440
:102A300078150C947E1511240C94C3150E94A015D2
:102A400070F3959FC1F3950F50E0551F629FF00101
:102A5000729FBB27F00DB11D639FAA27F00DB11D1A
:102A6000AA1F649F6627B00DA11D661F829F2227A3
:102A7000B00DA11D621F739FB00DA11D621F839F2A
:102A8000A00D611D221F749F3327A00D611D231F00
:102A9000849F600D211D822F762F6A2F11249F574E
:102AA00050409AF0F1F088234AF0EE0FFF1FBB1F51
:102AB000661F771F881F91505040A9F79E3F510510
:102AC00080F00C9478150C94C3155F3FE4F3983EA6
:102AD000D4F3869577956795B795F795E7959F5FBA
:102AE000C1F7FE2B880F911D9695879597F908954C
:102AF00097F99F6780E870E060E008959FEF80ECB1
:102B0000089500240A941616170618060906089553
:102B100000240A9412161306140605060895092EB9
:102B20000394000C11F4882352F0BB0F40F4BF2B28
:102B300011F460FF04C06F5F7F4F8F4F9F4F089568
:102B400057FD9058440F551F59F05F3F71F047955E
:102B5000880F97FB991F61F09F3F79F08795089543
:102B6000121613061406551FF2CF4695F1DF08C062
:102B7000161617061806991FF1CF8695710561057F
:102B800008940895E894BB2766277727CB0197F927
:102B900008952F923F924F925F926F927F928F9201
:102BA0009F92AF92BF92CF92DF92EF92FF920F93DC
:102BB0001F93CF93DF93CDB7DEB7CA1BDB0B0FB6E6
:102BC000F894DEBF0FBECDBF09942A8839884888A3
:102BD0005F846E847D848C849B84AA84B984C88439
:102BE000DF80EE80FD800C811B81AA81B981CE0F30
:102BF000D11D0FB6F894DEBF0FBECDBFED01089515
:102C0000A1E21A2EAA1BBB1BFD010DC0AA1FBB1FF0
:102C1000EE1FFF1FA217B307E407F50720F0A21B62
:102C2000B30BE40BF50B661F771F881F991F1A94CF
:102C300069F760957095809590959B01AC01BD01F9
:102C4000CF010895991B79E004C0991F961708F0E9
:102C5000961B881F7A95C9F780950895AA1BBB1B00
:102C600051E107C0AA1FBB1FA617B70710F0A61B8C
:102C7000B70B881F991F5A95A9F780959095BC01AD
:102C8000CD010895EE0FFF1F0590F491E02D0994FA
:102C90005058BB27AA270E9460160C948F150E94DB
:102CA000811538F00E94881520F039F49F3F19F4FF
:102CB00026F40C947E150EF4E095E7FB0C94781541
:102CC000E92F0E94A01558F3BA176207730784070B
:102CD000950720F079F4A6F50C94C2150EF4E09552
:102CE0000B2EBA2FA02D0B01B90190010C01CA01C6
:102CF000A0011124FF27591B99F0593F50F4503E71
:102D000068F11A16F040A22F232F342F4427585F62
:102D1000F3CF469537952795A795F0405395C9F77A
:102D20007EF41F16BA0B620B730B840BBAF0915032
:102D3000A1F0FF0FBB1F661F771F881FC2F70EC0D1
:102D4000BA0F621F731F841F48F4879577956795A4
:102D5000B795F7959E3F08F0B0CF9395880F08F090
:102D60009927EE0F9795879508950E94C9160C94A0
:102D70008F150E94881558F00E94811540F029F4A3
:102D80005F3F29F00C94781551110C94C3150C94E5
:102D90007E150E94A01568F39923B1F3552391F392
:102DA000951B550BBB27AA2762177307840738F0BA
:102DB0009F5F5F4F220F331F441FAA1FA9F335D017
:102DC0000E2E3AF0E0E832D091505040E695001CCB
:102DD000CAF72BD0FE2F29D0660F771F881FBB1F85
:102DE000261737074807AB07B0E809F0BB0B802D63
:102DF000BF01FF2793585F4F3AF09E3F510578F08F
:102E00000C9478150C94C3155F3FE4F3983ED4F30B
:102E1000869577956795B795F7959F5FC9F7880F62
:102E2000911D9695879597F90895E1E0660F771FB4
:102E3000881FBB1F621773078407BA0720F0621B45
:102E4000730B840BBA0BEE1F88F7E09508950E9470
:102E5000A81588F09F5798F0B92F9927B751B0F06F
:102E6000E1F0660F771F881F991F1AF0BA95C9F70E
:102E700014C0B13091F00E94C215B1E008950C94D5
:102E8000C215672F782F8827B85F39F0B93FCCF388
:102E9000869577956795B395D9F73EF4909580958B
:102EA000709561957F4F8F4F9F4F08950E94E71453
:102EB00008F48FEF08950E94E714880B990B08958A
:102EC0000F931F93CF93DF938230910510F482E02C
:102ED00090E0E091AA04F091AB0430E020E0B0E093
:102EE000A0E0309799F42115310509F44AC0281B58
:102EF000390B24303105D8F58A819B816115710524
:102F000089F1FB0193838283FE0111C040815181CD
:102F10000281138148175907E0F04817590799F4BF
:102F2000109761F012960C93129713961C93329699
:102F3000CF01DF91CF911F910F9108950093AA04C3
:102F40001093AB04F4CF2115310551F0421753070C
:102F500038F0A901DB019A01BD01DF01F801C1CF01
:102F6000EF01F9CF9093AB048093AA04CDCFFE017B
:102F7000E20FF31F81939193225031093983288303
:102F8000D7CF2091A8043091A904232B41F420919C
:102F90000401309105013093A9042093A8042091E5
:102FA0000201309103012115310541F42DB73EB7DF
:102FB0004091060150910701241B350BE091A804B4
:102FC000F091A904E217F307A0F42E1B3F0B28177A
:102FD000390778F0AC014E5F5F4F2417350748F092
:102FE0004E0F5F1F5093A9044093A80481939193BF
:102FF0009FCFF0E0E0E09CCFCF93DF930097E9F024
:10300000FC01329713821282A091AA04B091AB0402
:10301000ED0130E020E01097A1F420813181820F92
:10302000931F2091A8043091A9042817390709F0AB
:1030300061C0F093A904E093A804DF91CF910895B3
:10304000EA01CE17DF07E8F54A815B819E01411551
:103050005105B1F7E901FB83EA8349915991C40F06
:10306000D51FEC17FD0761F4808191810296840FD2
:10307000951FE90199838883828193819B838A8349
:10308000F0E0E0E012968D919C9113970097B9F5CE
:103090002D913C911197CD010296820F931F2091A3
:1030A000A8043091A9042817390739F6309751F54B
:1030B0001092AB041092AA04B093A904A093A804A0
:1030C000BCCFD383C28340815181840F951FC81721
:1030D000D90761F44E5F5F4F88819981480F591F6E
:1030E000518340838A819B8193838283211531059B
:1030F00009F0B0CFF093AB04E093AA049ECFFD019A
:10310000DC01C0CF13821282D7CFB0E0A0E0EBE8A1
:10311000F8E10C94CB158C01009751F4CB010E947F
:1031200060178C01C801CDB7DEB7E0E10C94E7155C
:10313000FC01E60FF71F9C0122503109E217F3074B
:1031400008F49DC0D901CD91DC911197C617D7071E
:1031500098F0C530D10530F3CE0104978617970754
:1031600008F3C61BD70B2297C193D1936D937C9321
:10317000CF010E94FC17D6CF5B01AC1ABD0A4C01EF
:103180008C0E9D1EA091AA04B091AB04512C412C31
:10319000F12CE12C109731F58091A8049091A904AD
:1031A0008815990509F05CC04616570608F058C006
:1031B0008091020190910301009741F48DB79EB771
:1031C0004091060150910701841B950BE817F90700
:1031D00008F055C0F093A904E093A804F9017183A5
:1031E0006083A0CF8D919C91119712966C9012974D
:1031F00013967C901397A815B90559F56C0142E018
:10320000C40ED11CCA14DB0420F1AC014A195B09BD
:10321000DA011296159780F062827382518340839F
:10322000D9016D937C93E114F10471F0D7011396E9
:10323000FC93EE93129776CF22968C0F9D1FF90187
:1032400091838083F301EFCFF093AB04E093AA0462
:1032500069CF4816590608F42C017D01D3019ACF95
:10326000CB010E9460177C01009749F0AE01B801C4
:103270000E944719C8010E94FC17870153CF10E034
:1032800000E050CF81E090E0F8940C945719FB01D6
:10329000DC0102C001900D9241505040D8F70895D2
:1032A000FB01DC0101900D920020E1F70895F894F4
:0232B000FFCF4E
:1032B20033020000AC0480000000400014005400FF
:1032C20004070800000000BF019201620568018B3B
:1032D200017801690100000000E20342036F032F3D
:1032E20004A0037E03920300000000D4074203629D
:1032F2000561050000000053044F040D0A00533A13
:103302002053657475702020202020202000533A1D
:103312002043616C6962726174696E672000533A7E
:103322002052656164696E67202020202000533A94
:103332002054657374696E67202020202000533A60
:10334200204F757470757420202020202000533A7D
:10335200204572726F7220202020202020006E6192
:103362006E00696E66006F76660074696D6520286E
:103372006D73292C20666F72636520284E292C20DC
:10338200766F6C74616765202856292C20637572EC
:1033920072656E7420286D41292C20706F776572DA
:1033A20020285729002C00627574746F6E3A200031
:1033B2002070726573736564092073746174653A71
:1033C200200050726F6772616D207374617274694C
:1033D2006E672E2E00412061616E736C7569746593
:1033E2006E002020202020202020202020202020AD
:1033F2002020004144435F415F537465703A2000CE
:1034020020412F5374657000562061616E736C7594
:103412006974656E004144435F565F537465703A48
:10342200200020562F53746570005072657373200C
:10343200477265656E0054657374696E67206D6FBF
:10344200746F7270726F6772616D3A007468727530
:1034520073743A00526561636865642066756C6CCA
:1034620020636C6F636B7769736520737065656445
:103472003A00526561636865642066756C6C206110
:103482006E7469636C6F636B7769736520737065C3
:0434920065643A0033
:00000001FF
