:100000000C9462000C948A000C948A000C948A0070
:100010000C948A000C948A000C948A000C948A0038
:100020000C948A000C948A000C948A000C94140B93
:100030000C948A000C948A000C948A000C948A0018
:100040000C94720A0C948A000C94E20A0C94BC0A78
:100050000C948A000C948A000C948A000C948A00F8
:100060000C9453090C948A00000000002300260021
:10007000290000000000240027002A0000000000E2
:10008000250028002B0004040404040404040202D4
:100090000202020203030303030301020408102007
:1000A0004080010204081020010204081020000012
:1000B0000008000201000003040700000000000027
:1000C0000000D00B11241FBECFEFD8E0DEBFCDBFA4
:1000D00012E0A0E0B1E0EEECFAE202C005900D9271
:1000E000AE36B107D9F724E0AEE6B2E001C01D920A
:1000F000A534B207E1F710E0C2E6D0E004C02197D2
:10010000FE010E945012C136D107C9F70E94740C3B
:100110000C9465150C940000E0912F04EC3088F5E8
:100120004091300428E830E0241B310947FD339525
:10013000220F331F220F331F8217930784F0409141
:10014000310428E532E0241B310947FD3395220FA5
:10015000331F220F331F821793070CF49C01225088
:100160003109220F331F4FB7F8948E2F90E0FC0116
:10017000EE0FFF1FE80FF91FEF5FFB4F3283218364
:100180004FBF089520910C03260F3327331F2132D0
:100190003105ECF420913203FC0190E080E0243042
:1001A00069F082E00895A0910C032191AC014651C1
:1001B0005D4FA40FB52FB11D2C930196861798F3B0
:1001C00080910C03680F60930C0380E0089581E038
:1001D0000895089508950895E091E1028091E00264
:1001E000E81730F4F0E0E054FD4F808190E008958E
:1001F0008FEF9FEF08959091E1028091E0022FEF41
:100200003FEF981748F4E92FF0E0E054FD4F2081CC
:1002100030E09F5F9093E102C90108958091E00270
:100220009091E102891B990B0895CF92DF92EF9292
:10023000FF920F931F93CF93DF937C01CB018A0131
:100240002091BF02222389F0EB016B01C40ED51E61
:10025000CC15DD0569F06991D701ED91FC91019014
:10026000F081E02DC7010995F3CF642F0E94C200F1
:10027000C801DF91CF911F910F91FF90EF90DF9018
:10028000CF900895CF93DF931F92CDB7DEB76983E8
:100290002091BF022223F9F02091E202203258F08F
:1002A00021E030E0FC013383228390E080E00F9076
:1002B000DF91CF9108958091E302E82FF0E0E156BD
:1002C000FD4F998190838F5F8093E3028093E202D8
:1002D00081E090E0ECCF61E0CE0101960E94C20087
:1002E000F7CF833081F028F4813099F08230A9F083
:1002F00008958730A9F08830C9F08430B1F4809136
:1003000080008F7D03C0809180008F778093800074
:10031000089584B58F7784BD089584B58F7DFBCF14
:100320008091B0008F778093B00008958091B000E5
:100330008F7DF9CF1F93CF93DF93282F30E0F90102
:10034000E255FF4F8491F901E656FF4FD491F90130
:10035000EA57FF4FC491CC23A9F0162F81110E94B8
:100360007101EC2FF0E0EE0FFF1FE458FF4FA59155
:10037000B4918FB7F894EC91111108C0D095DE2399
:10038000DC938FBFDF91CF911F910895DE2BF8CFC3
:100390001092320381E0809334031092330361E0C2
:1003A00082E10E949A0161E083E10E949A01E9EBF7
:1003B000F0E080818E7F808380818D7F808388E4E0
:1003C0008093B80085E48093BC000895CF93DF93B9
:1003D00091E09093E9028823B9F0C091B800D091E0
:1003E000BA008091BC008A7B8093BC0060E082E10F
:1003F0000E949A0160E083E10E949A010E94C80174
:10040000D093BA00C093B800DF91CF910895CF93F5
:10041000DF9390E0FC01E656FF4F24918A579F4FEF
:10042000FC0184918823C9F090E0880F991FFC019A
:10043000EE58FF4FA591B491FC01E458FF4FC591D0
:10044000D49161110DC09FB7F8948C9120958223AF
:100450008C938881282328839FBFDF91CF910895B3
:10046000623051F49FB7F8943C91822F809583239A
:100470008C93E8812E2BEFCF8FB7F894EC912E2B35
:100480002C938FBFEACF3FB7F89480919B02909155
:100490009C02A0919D02B0919E0226B5A89B05C02A
:1004A0002F3F19F00196A11DB11D3FBFBA2FA92FF3
:1004B000982F8827BC01CD01620F711D811D911DF0
:1004C00042E0660F771F881F991F4A95D1F708955C
:1004D0008F929F92AF92BF92CF92DF92EF92FF9254
:1004E0004B015C010E9443026B017C010E944302AC
:1004F0006C197D098E099F09683E7340810591053D
:10050000A8F321E0821A9108A108B10888EEC80E6C
:1005100083E0D81EE11CF11C81149104A104B104F4
:1005200029F7FF90EF90DF90CF90BF90AF909F9012
:100530008F9008952FB7F894609197027091980268
:100540008091990290919A022FBF0895CF92DF92E5
:10055000EF92FF9280918302909184028130910505
:10056000E1F150F08230910509F46CC0039709F471
:10057000A0C08CED95E09AC0C0907F02D090800220
:10058000E0908102F090820225E0C216D104E104DD
:10059000F10420F48CED95E00E948C008FEFC81AD6
:1005A000D80AE80AF80AC0927F02D0928002E0924C
:1005B0008102F092820281E090E022E3C216D1042F
:1005C000E104F10490F580918F028F5F80938F0298
:1005D000FF90EF90DF90CF9008958091000190916F
:1005E0000101A0910201B0910301803D27E0920733
:1005F000A105B10508F46CC080917F029091800242
:10060000A0918102B09182020196A11DB11D80933B
:100610007F0290938002A0938102B0938202C297DE
:10062000A105B10580F282E090E09093840280936E
:10063000830210927F021092800210928102109227
:100640008202C1CF8091000190910101A09102012D
:10065000B0910301883E23E09207A105B105D9F4CA
:1006600080917F0290918002A0918102B0918202DC
:100670000196A11DB11D80937F0290938002A093EB
:100680008102B0938202C297A105B10508F49BCF05
:1006900083E090E0CACF0A97A109B10980930001D5
:1006A00090930101A0930201B09303010E948C007A
:1006B0008ACF8091000190910101A0910201B09137
:1006C00003018C3D25E09207A105B10509F494CF03
:1006D0000A96A11DB11DE2CFCF92DF92EF92FF9259
:1006E000809185029091860281309105D1F128F1A7
:1006F000029709F058C0C0900401D0900501E09025
:100700000601F0900701C6010E948C0082E3C81A1E
:10071000D108E108F108C0920401D0920501E092ED
:100720000601F092070189EEC81683E0D806E104BD
:10073000F10468F483E090E006C08CED95E00E943F
:100740008C0081E090E090938602809385028091F6
:100750008F028F5F80938F02FF90EF90DF90CF909A
:100760000895C0900401D0900501E0900601F0903A
:100770000701C6010E948C0082E3C80ED11CE11C57
:10078000F11CC0920401D0920501E0920601F092A2
:10079000070180EDC81687E0D806E104F104B8F23D
:1007A00082E090E0D0CF8CED95E00E948C00CFCF1E
:1007B000CF92DF92EF92FF9280918B0290918C0208
:1007C0008130910509F160F08230910509F451C042
:1007D000039709F483C08CED95E00E948C000AC059
:1007E0008CED95E00E948C0081E090E090938C026B
:1007F00080938B0280918F028F5F80938F02FF9096
:10080000EF90DF90CF9008958CED95E0A0E0B0E000
:100810008093870290938802A0938902B0938A0202
:10082000C0908702D0908802E0908902F0908A02FE
:1008300081EDC81687E0D806E104F104B8F4C601DA
:100840000E948C0065E070E080E090E00E94680209
:100850008FEFC81AD80AE80AF80AC0928702D09225
:100860008802E0928902F0928A02DACF82E090E078
:10087000BDCF80ED97E0A0E0B0E080938702909339
:100880008802A0938902B0938A02C0908702D09018
:100890008802E0908902F0908A0289EEC81683E00F
:1008A000D806E104F104B8F4C6010E948C0065E0AA
:1008B00070E080E090E00E94680281E0C81AD108F0
:1008C000E108F108C0928702D0928802E092890282
:1008D000F0928A02DACF83E090E088CF88EE93E04E
:1008E000A0E0B0E08093870290938802A0938902F1
:1008F000B0938A02C0908702D0908802E09089026B
:10090000F0908A028DEDC81685E0D806E104F10466
:1009100008F061CFC6010E948C0065E070E080E0C5
:1009200090E00E9468028FEFC81AD80AE80AF80A15
:10093000C0928702D0928802E0928902F0928A02E5
:10094000D9CFAF92BF92CF92DF92EF92FF920F93E7
:100950001F93CF93DF936C017B018B01040F151F55
:10096000EB015E01AE18BF08C017D10759F06991BD
:10097000D601ED91FC910190F081E02DC601099521
:10098000892B79F7C501DF91CF911F910F91FF90CE
:10099000EF90DF90CF90BF90AF900895FC01538D02
:1009A000448D252F30E0842F90E0821B930B541749
:1009B00010F0CF96089501970895FC01918D828DD6
:1009C000981761F0A28DAE0FBF2FB11D5D968C916F
:1009D000928D9F5F9F73928F90E008958FEF9FEFAE
:1009E0000895FC01918D828D981731F0828DE80F6A
:1009F000F11D858D90E008958FEF9FEF0895FC0124
:100A0000918D228D892F90E0805C9F4F821B9109F0
:100A10008F739927089584E693E00E94FF0421E0F4
:100A2000892B09F420E0822F089580E090E0892B43
:100A300029F00E940B0581110C9400000895FC011F
:100A4000A48DA80FB92FB11DA35ABF4F2C91848D2F
:100A500090E001968F739927848FA689B7892C938C
:100A6000A089B1898C91837080648C93938D848DDF
:100A7000981306C00288F389E02D80818F7D8083E2
:100A80000895EF92FF920F931F93CF93DF93EC01A2
:100A900081E0888F9B8D8C8D98131AC0E889F98925
:100AA000808185FF15C09FB7F894EE89FF89608328
:100AB000E889F98980818370806480839FBF81E0A9
:100AC00090E0DF91CF911F910F91FF90EF900895EB
:100AD000F62E0B8D10E00F5F1F4F0F731127E02EC6
:100AE0008C8D8E110CC00FB607FCFACFE889F989FE
:100AF000808185FFF5CFCE010E941F05F1CFEB8DE0
:100B0000EC0FFD2FF11DE35AFF4FF0829FB7F894D1
:100B10000B8FEA89FB8980818062CFCFCF93DF93EF
:100B2000EC01888D8823B9F0AA89BB89E889F98905
:100B30008C9185FD03C0808186FD0DC00FB607FC3A
:100B4000F7CF8C9185FFF2CF808185FFEDCFCE016D
:100B50000E941F05E9CFDF91CF9108950F931F9356
:100B6000CF93DF93FC0120812223F9F0EC010E9456
:100B70009A0209811A812B813C81AB01BC01401B87
:100B8000510B620B730B8D819E81B0E0A0E0481782
:100B900059076A077B0748F0EF81F88509950E949D
:100BA0009A0269837A838B839C83DF91CF911F9113
:100BB0000F910895862F642F0C940702CF93DF9333
:100BC000FC01218930E0F901E255FF4F8491F901E0
:100BD000E656FF4FD491F901EA57FF4FC491CC2359
:100BE00079F081110E947101EC2FF0E0EE0FFF1FF0
:100BF000E859FF4FA591B491EC91ED2381E009F400
:100C000080E08170DF91CF910895CF92DF92EF92D3
:100C1000FF920F931F93CF93DF93FC01C48121E0D8
:100C20002093BF02C0938E021092E3021092E20260
:100C30008485682B88E593E00E944201D091E2020E
:100C4000D13208F092C00E9443026B017C01809176
:100C50003203811165C082E08093320381E080938A
:100C600034038FEF8093310310925603D0935503D2
:100C7000AFE9B2E0E5E3F3E080E0D81385C010927D
:100C8000570380915703CC0FC82BC0935703809113
:100C90003303813009F07CC0109233030E94430279
:100CA0006B017C01809157038093BB008091E5022A
:100CB0009091E602A091E702B091E802892B8A2B7D
:100CC0008B2B99F00E9443020091E5021091E602FD
:100CD0002091E7023091E8026C197D098E099F0985
:100CE0000617170728073907E0F18091BC0083FD3C
:100CF000D9CF85EC8093BC000E9443026B017C013C
:100D000080913203823009F445C0809131038F3FD6
:100D100061F180913103803241F18091310325C02E
:100D20008091E5029091E602A091E702B091E8027D
:100D3000892B8A2B8B2B09F48ACF0E9443020091C6
:100D4000E5021091E6022091E7023091E8026C1969
:100D50007D098E099F09061717072807390708F02C
:100D600076CF8091E4020E94E6011092E302109295
:100D7000E2021092BF02DF91CF911F910F91FF907D
:100D8000EF90DF90CF9008959D9191938F5F75CFF5
:100D900085EEB0CF8091E5029091E602A091E70246
:100DA000B091E802892B8A2B8B2B09F4A9CF0E94E2
:100DB00043020091E5021091E6022091E702309192
:100DC000E8026C197D098E099F0906171707280785
:100DD000390708F095CFC5CF089590E080E00895D9
:100DE000FC0101900020E9F73197AF01481B590B36
:100DF000BC0184E693E00C94A1048F929F92AF9281
:100E0000BF920F931F93CF93DF93CDB7DEB7A19718
:100E10000FB6F894DEBF0FBECDBF19A2423008F462
:100E20004AE08E010F5D1F4F842E912CB12CA12C16
:100E3000A50194010E942212E62FB901CA01EA30ED
:100E4000F4F4E05DD801EE938D01232B242B252BA8
:100E500079F790E080E0109719F0CD010E94F0063C
:100E6000A1960FB6F894DEBF0FBECDBFDF91CF9134
:100E70001F910F91BF90AF909F908F900895E95C64
:100E8000E1CFCF93DF93D0E0C0E0009719F00E944C
:100E9000F006EC018CE491E00E94F0068C0F9D1F9F
:100EA000DF91CF9108954F925F926F927F928F92D0
:100EB0009F92AF92BF92CF92DF92EF92FF920F93E9
:100EC0001F93CF936B017C01742EAC019B010E9498
:100ED0006913882399F08FE491E0CF911F910F91CE
:100EE000FF90EF90DF90CF90BF90AF909F908F904A
:100EF0007F906F905F904F900C94F00646015701E1
:100F0000E894B7F82FEF3FEF4FE75FE7C501B40173
:100F10000E94691381110DC02FEF3FEF4FE75FE78C
:100F2000C501B4010E94C71018161CF483E591E0B6
:100F3000D4CF2FEF3FEF4FE75FE4C701B6010E9428
:100F4000641318161CF487E591E0C7CF2FEF3FEF2D
:100F50004FE75FECC701B6010E94C71087FDF3CFD2
:100F600020E030E0A901C701B6010E94C71010E0DF
:100F700000E087FF0AC06DE284E693E00E9441052D
:100F80008C01F7FAF094F7F8F094C0E060E070E0BC
:100F900080E09FE37C1641F020E030E040E251E445
:100FA0000E94C312CF5FF6CFA70196010E9457128D
:100FB0002B013C010E9435134B015C014AE00E9469
:100FC000FD067C01E00EF11ECC23C1F1C501B40188
:100FD0000E94CC109B01AC01C301B2010E945612C9
:100FE0004B015C016EE284E693E00E944105E80E4D
:100FF000F91EC15018F120E030E040E251E4C50193
:10100000B4010E942D112B013C010E9435134B01AC
:10101000B12CA12C4AE0C501B4010E94FD06E80EE6
:10102000F91EC501B4010E94CC109B01AC01C301A3
:10103000B2010E9456124B015C01DBCFC701CF9178
:101040001F910F91FF90EF90DF90CF90BF90AF90E6
:101050009F908F907F906F905F904F9008950F9327
:101060001F93CF938C01C62F0E9405066C2F6460DE
:10107000C8010E9405066C2F6B7FC8010E940506FF
:1010800083EC90E00197F1F7CF911F910F910895B4
:101090000F931F93CF93DF938C01D62FC42F607FC4
:1010A000642B0E942F0880E1D89FB00111246C2B83
:1010B000C801DF91CF911F910F910C942F0841E04F
:1010C0000E94480881E090E0089585ED8093BC007F
:1010D0008091E5029091E602A091E702B091E802CA
:1010E0000796A11DB11D23E0B695A7959795879505
:1010F0002A95D1F72091BC0024FD03C01092320341
:1011000008954091E5025091E6026091E7027091E6
:10111000E802452B462B472B69F30097A105B10543
:1011200041F02AE22A95F1F700C00197A109B1091F
:10113000E1CF8091E4020C94E601CF93DF93EC01C0
:1011400088819981009711F00E940A1419821882EF
:101150001D821C821B821A82DF91CF910895FC01AF
:1011600080819181009711F00C940A1408950E94D7
:1011700050150F931F93CF93DF93EC0188819981D2
:10118000009759F02A813B812617370730F081E01C
:10119000DF91CF911F910F9108958B016F5F7F4F6A
:1011A0000E949314009759F0998388831B830A83C4
:1011B0002C813D81232B59F7FC011082E8CF80E080
:1011C000E7CFCF92DF92EF92FF920F931F93CF93CF
:1011D000DF93CDB7DEB728970FB6F894DEBF0FBE0A
:1011E000CDBF7C01CB014AE09E012F5F3F4F6901DB
:1011F000B9010E949210F60101900020E9F73197A1
:10120000EC19FD09D9F0D70114960D911C910E0F20
:101210001F1FB801C7010E94B9088823F9F0F70120
:101220002081318184819581B601820F931F0E94B4
:101230005E15D70115961C930E931497C701289637
:101240000FB6F894DEBF0FBECDBFDF91CF911F91D7
:101250000F91FF90EF90DF90CF900895C7010E940B
:101260009D08ECCFEF92FF920F931F93CF93DF93E4
:10127000EC017B018A01BA010E94B90881110BC0FF
:10128000CE010E949D08CE01DF91CF911F910F9159
:10129000FF90EF9008951D830C83B7018881998199
:1012A0000E945E15F0CF1F920F920FB60F9211247D
:1012B0002F933F934F935F936F937F938F939F935E
:1012C000AF93BF93EF93FF938091B900887F8036EF
:1012D00009F44AC0F0F5883209F4A7C018F5803146
:1012E00009F49BC0B8F4882309F4F9C0883009F4E4
:1012F00094C0FF91EF91BF91AF919F918F917F919A
:101300006F915F914F913F912F910F900FBE0F9072
:101310001F901895883109F488C0803251F7809366
:10132000310314C0803409F49DC040F48033B9F314
:101330008833F9F68093310385ECB0C0803509F429
:1013400085C0883509F496C0883499F60E946508EE
:10135000D0CF883909F48CC038F5883729F050F49B
:10136000883611F0803729F683E08093320310929B
:10137000300357C0883809F47BC0803919F08038B1
:1013800009F0B7CF80913003803208F071C0E0914E
:10139000300381E08E0F809330038091BB00F0E03A
:1013A000E05FFC4F80833DC0803B39F0E0F4803A41
:1013B00009F479C0883A09F09CCF84E08093320325
:1013C00010920D0310920C03E0910A03F0910B03AD
:1013D000099580910C0381110FC081E080930C036B
:1013E0001092EA0209C0803C09F4A6CF883C09F4B7
:1013F000A3CF883B09F07DCFE0910D0381E08E0FF4
:1014000080930D03F0E0E651FD4F80818093BB0097
:1014100090910D0380910C0329C080915703809314
:10142000BB0085EC8093BC0064CF90915603809103
:101430005503981758F5E091560381E08E0F80937D
:101440005603F0E0EB5CFC4F8081E9CFE09156035E
:1014500081E08E0F809356038091BB00F0E0EB5C3F
:10146000FC4F808390915603809155039817C8F2E2
:1014700085E8D8CFE091560381E08E0F8093560324
:101480008091BB00F0E0EB5CFC4F808380913403E3
:1014900081115CCF81E08093330384EA8093BC00A8
:1014A0001092320326CF85EC8093BC001092320359
:1014B00080913003803230F4E0913003F0E0E05F5F
:1014C000FC4F10826091300370E0E0910E03F091C8
:1014D0000F0380E193E00995109230030ACF109238
:1014E000310334CF1F920F920FB60F9211242F9316
:1014F0003F938F939F93AF93BF9380919702909167
:101500009802A0919902B0919A023091960223E03C
:10151000230F2D3758F50196A11DB11D209396027A
:101520008093970290939802A0939902B0939A02A5
:1015300080919B0290919C02A0919D02B0919E028D
:101540000196A11DB11D80939B0290939C02A093D4
:101550009D02B0939E02BF91AF919F918F913F9159
:101560002F910F900FBE0F901F90189526E8230F14
:101570000296A11DB11DD2CF1F920F920FB60F92EE
:1015800011242F933F934F935F936F937F938F9388
:101590009F93AF93BF93EF93FF9384E693E00E94F2
:1015A0001F05FF91EF91BF91AF919F918F917F9117
:1015B0006F915F914F913F912F910F900FBE0F90C0
:1015C0001F9018951F920F920FB60F9211242F9310
:1015D0008F939F93EF93FF93E0917403F0917503C2
:1015E0008081E0917A03F0917B0382FD1BC09081A2
:1015F00080917D038F5F8F7320917E03821741F06E
:10160000E0917D03F0E0EC59FC4F958F80937D03D2
:10161000FF91EF919F918F912F910F900FBE0F909F
:101620001F9018958081F4CF1F920F920FB60F92E2
:1016300011242F933F934F935F936F937F938F93D7
:101640009F93AF93BF93CF93DF93EF93FF938091DB
:101650008D02C0912504D0E087FF24C01092850040
:101660001092840080918D028F5F80938D02809113
:101670008D02082E000C990B8C179D0724F4809185
:101680008D028C30C4F18091840090918500049685
:1016900080349C4908F47AC0809184009091850040
:1016A000049676C080918D02082E000C990B8C1741
:1016B0009D07C4F6E0918D028E2FEE0F990BFC0171
:1016C000EE0FFF1FE80FF91FEF5FFB4F808186FFD2
:1016D000C9CFE0918D028E2FEE0F990BFC01EE0F1A
:1016E000FF1FE80FF91FEF5FFB4F808160E08F73F2
:1016F0000E949A01B7CF2091840030918500E0913B
:101700008D028E2FEE0F990BFC01EE0FFF1FE80FDD
:10171000F91FEF5FFB4F81819281820F931F90939E
:10172000890080938800E0918D028E2FEE0F990B37
:10173000FC01EE0FFF1FE80FF91FEF5FFB4F8081E9
:1017400086FF11C0E0918D028E2FEE0F990BFC01E8
:10175000EE0FFF1FE80FF91FEF5FFB4F808161E085
:101760008F730E949A01FF91EF91DF91CF91BF910A
:10177000AF919F918F917F916F915F914F913F9129
:101780002F910F900FBE0F901F90189580E49CE949
:1017900090938900809388008FEF80938D02E3CF30
:1017A00010925B0310925A0388EE93E0A0E0B0E041
:1017B00080935C0390935D03A0935E03B0935F03FB
:1017C00028E131E0309359032093580310926703C6
:1017D000109266038093680390936903A0936A0351
:1017E000B0936B038AE291E0909365038093640366
:1017F00085EC90E0909371038093700384EC90E00B
:10180000909373038093720380EC90E09093750340
:101810008093740381EC90E0909377038093760338
:1018200082EC90E0909379038093780386EC90E0CB
:1018300090937B0380937A0310927D0310927E0332
:1018400010927F031092800386E390E00E946E1353
:10185000FC019C012A5C3F4F6AE070E048E451E0E3
:1018600012821382148215827783668310865183D5
:101870004083118A7296E217F30791F79093400420
:1018800080933F0410923504109234048CE391E06D
:10189000909333048093320410923B0487E2809348
:1018A000360480E180933C0482E080933D041092F2
:1018B0003E04809125048C3098F491E0980F909329
:1018C000250480932F0490E0FC01EE0FFF1FE80F2A
:1018D000F91FEF5FFB4F88EB9BE0928381830895B4
:1018E0008FEF80932F040895CF93DF93CDB7DEB7AA
:1018F00060970FB6F894DEBF0FBECDBF789484B565
:10190000826084BD84B5816084BD85B5826085BDFB
:1019100085B5816085BD80916E00816080936E0089
:10192000109281008091810082608093810080917B
:10193000810081608093810080918000816080932C
:1019400080008091B10084608093B1008091B000EC
:1019500081608093B00080917A00846080937A00E7
:1019600080917A00826080937A0080917A00816011
:1019700080937A0080917A00806880937A00109238
:10198000C1001092910210929002E0917403F091C4
:10199000750382E08083E0917003F09171031082FF
:1019A000E0917203F09173038FEC808310927C03BB
:1019B000E0917803F091790386E08083E0917603EB
:1019C000F0917703808180618083E0917603F091CC
:1019D0007703808188608083E0917603F0917703BC
:1019E000808180688083E0917603F0917703808125
:1019F0008F7D80838BE591E00E9441071092E10288
:101A00001092E0021092E3021092E2020E94C801DA
:101A100089EE90E090930B0380930A038AEE90E0A6
:101A200090930F0380930E031092370480913D042E
:101A3000823018F098E09093370480933A0462E380
:101A400070E080E090E00E94680260913E0482E3D2
:101A500094E00E94050668EE73E080E090E00E944A
:101A6000680260E382E394E00E942F080BE416E42E
:101A7000C8010197F1F760E382E394E00E942F0828
:101A8000C8010197F1F760E382E394E00E942F0818
:101A900083E592E00197F1F760E282E394E00E942F
:101AA0002F0860913704606240E082E394E00E9476
:101AB000480884E08093380440E06CE082E394E0DE
:101AC0000E94480840E061E082E394E00E944808F8
:101AD0008BE39FE10197F1F780913B04882331F07C
:101AE00040E060E882E394E00E94480882E080934E
:101AF000390440E066E082E394E00E94480840E058
:101B000062E082E394E00E9448088BE39FE1019742
:101B1000F1F788E080933E0460E082E394E00E9465
:101B2000050680919002909191028230910509F40E
:101B30001DC244F4009779F0019709F414C28EEBAA
:101B400091E00BC08330910509F413C20497B9F7F3
:101B50008EEA91E002C08EE691E0909309018093B5
:101B6000080180910801909109010E94410761E0FC
:101B70008DE00E94070261E083E00E94070260E0BE
:101B80008EE00E94070260E08FE00E94070262E0A0
:101B900086E00E94070262E085E00E94070262E0A0
:101BA00084E00E94070211E1C12E11E0D12EF12C38
:101BB000E12C09E1A02EB12C00913F0410914004CA
:101BC0000E0D1F1DD6019D906D01692D70E0D8018D
:101BD000ED91FC910280F381E02D42E050E0C801DC
:101BE0000995F801918A10860190F081E02D01900D
:101BF000F081E02DC8010995882339F0D8011896A5
:101C00008C911897836018968C930E949A02F80121
:101C10006283738384839583E0913F04F091400451
:101C2000EE0DFF1DB782A682F2E1EF0EF11C26E356
:101C3000E216F10409F68091900290919102892BAD
:101C400009F09AC184E090E0909391028093900211
:101C50008EEC91E00E94410780912F048C3008F0B7
:101C600051C061E083E00E94070280912F04282F79
:101C700030E0F901EE0FFF1FE20FF31FEF5FFB4FA4
:101C80009081907C93609083109230041092310484
:101C90002CE0622F0E944412829FB001112430E098
:101CA00020E0AB01420F531FFA01EE0FFF1FE40FBC
:101CB000F51FEF5FFB4F908196FD16C02F5F3F4FE2
:101CC0002C30310571F781110FC01092800082E035
:101CD000809381001092850010928400B19A8091C7
:101CE0006F00826080936F00E0912F048E2F90E050
:101CF000FC01EE0FFF1FE80FF91FEF5FFB4F808124
:101D00008064808364E170E080E090E00E9468027B
:101D10008CED95E00E948C0068E873E180E090E033
:101D20000E94680230E0232E30E0332E0E949A0297
:101D30006093920270939302809394029093950221
:101D40002CE7822E22E0922ED12CC12CA4014C57DC
:101D500052407A0100913F04109140040C0D1D1D6A
:101D6000D80118968C9118978B7F18968C9318979A
:101D7000ED91FC910190F081E02DC8010995B82EFC
:101D8000F801808586958170B81609F466C10E94B5
:101D90009A02D80112966D937D938D939C9315971B
:101DA00018968C91B2E08B27F8018087E0913F0470
:101DB000F0914004EC0DFD1D008500FD94C102FB77
:101DC000002700F9D4010D934D01808580FD51C09D
:101DD00082FF4FC010E018861F821A8619861C8663
:101DE0001B8648E050E06BE072E0CE0107960E944F
:101DF00032091A8219821C821B821E821D826F8107
:101E000078856115710531F04B855C85CE010196B1
:101E10000E943209B701CE0101960E94E1087C01BF
:101E2000FC01A480B580F1E1AF0EB11CB5010E94A8
:101E3000B90881115AC1C7010E949D08B801C701A4
:101E40000E94E108DC0114964D915C9115976D910B
:101E50007C9184E693E00E94A1048CE491E00E94CE
:101E6000F006CE0101960E94AF08CE0107960E94AF
:101E7000AF08B2E1CB0ED11CE6E3CE16D10409F0D7
:101E800065CF93E0492E512C5092910240929002DE
:101E900086E292E00E94410718861F821A86198600
:101EA0001C861B8645E150E064E372E0CE01079694
:101EB0000E9432091A8219821C821B821E821D8294
:101EC0006F8178856115710531F04B855C85CE0198
:101ED00001960E94320970E060E0CE0101960E94F6
:101EE000E108DC0114964D915C9115976D917C9100
:101EF00084E693E00E94A1048CE491E00E94F00645
:101F0000CE0101960E94AF08CE0107960E94AF084D
:101F10000E949A02B1E0B0932604E4E1F0E0F0936D
:101F20002C04E0932B04609327047093280480937F
:101F3000290490932A0486EA482E82E0582E509273
:101F40002E0440922D04B0930A0180910A01882347
:101F500009F4DCC086E294E00E94AE058AE492E0D7
:101F60000E944107F2CF8EE791E0F7CD8EE891E035
:101F7000F4CD8EE991E0F1CD84E090E09093910270
:101F8000809390028EEA91E090930901809308017A
:101F90000E9441070E949A020091920210919302BE
:101FA0002091940230919502601B710B820B930B70
:101FB0004AE00E94FD0689E092E00E94F006C0908F
:101FC0007A02D0907B020D2C000CEE08FF084AE04C
:101FD000C701B601F7FE0DC06DE284E693E00E94F2
:101FE000410566277727CB016C197D098E099F096A
:101FF0004AE00E94FD0689E092E00E94F0066091AE
:102000006E0270916F02809170029091710242E0B5
:102010000E94530789E092E00E94F00660917202EC
:1020200070917302809174029091750242E00E9457
:10203000530789E092E00E94F00660917602709169
:102040007702809178029091790242E00E945307D2
:102050008CE491E00E94F006FFCD0E949A02D80124
:1020600012964D905D906D907C9015979B01AC0100
:10207000241935094609570916968D919C91B0E0AF
:10208000A0E0281739074A075B0708F48FCED8016C
:1020900018968C918170B81609F488CE0E949A0225
:1020A000F80162837383848395838085F1E08F27B1
:1020B0008460D80118968C930E949A02F8012185B9
:1020C000328543855485621B730B840B950B6587A2
:1020D00076878787908B0E949A02F80161877287C2
:1020E0008387948763CE00E06DCED7012D913C911C
:1020F000119714968D919C9164E172E0820F931F69
:102100000E945E15F701B582A48298CE2114310495
:1021100009F40CCE0E940B05882309F403CE0E941B
:10212000000000CEBB274A3031F4992322F4BDE2EF
:10213000909581959F4F0C949E10BB27FB015527CE
:10214000AA27880F991FAA1FA41710F0A41B839514
:102150005051B9F7A05DAA3308F0A95DA19300978B
:1021600079F7B111B1931192CB010C94B710DC0146
:10217000FC01672F71917723E1F7329704C07C91BE
:102180006D9370836291AE17BF07C8F308950E94E4
:10219000091108F481E00895E89409C097FB3EF422
:1021A00090958095709561957F4F8F4F9F4F9923A4
:1021B000A9F0F92F96E9BB279395F6958795779522
:1021C0006795B795F111F8CFFAF4BB0F11F460FFE2
:1021D0001BC06F5F7F4F8F4F9F4F16C0882311F03A
:1021E00096E911C0772321F09EE8872F762F05C04E
:1021F000662371F096E8862F70E060E02AF09A95E9
:10220000660F771F881FDAF7880F9695879597F9DD
:102210000895990F0008550FAA0BE0E8FEEF161677
:102220001706E807F907C0F012161306E407F507CA
:1022300098F0621B730B840B950B39F40A2661F03E
:10224000232B242B252B21F408950A2609F4A140E1
:10225000A6958FEF811D811D08950E9440110C9459
:10226000B1110E94A31138F00E94AA1120F0952309
:1022700011F00C949A110C94A01111240C94E511F6
:102280000E94C21170F3959FC1F3950F50E0551F46
:10229000629FF001729FBB27F00DB11D639FAA27BB
:1022A000F00DB11DAA1F649F6627B00DA11D661F0A
:1022B000829F2227B00DA11D621F739FB00DA11D2B
:1022C000621F839FA00D611D221F749F3327A00DE5
:1022D000611D231F849F600D211D822F762F6A2F81
:1022E00011249F5750409AF0F1F088234AF0EE0FE6
:1022F000FF1FBB1F661F771F881F91505040A9F713
:102300009E3F510580F00C949A110C94E5115F3FAB
:10231000E4F3983ED4F3869577956795B795F7954E
:10232000E7959F5FC1F7FE2B880F911D96958795C6
:1023300097F9089597F99F6780E870E060E0089545
:102340009FEF80EC089500240A94161617061806CD
:102350000906089500240A941216130614060506A9
:102360000895092E0394000C11F4882352F0BB0F3A
:1023700040F4BF2B11F460FF04C06F5F7F4F8F4F9D
:102380009F4F089557FD9058440F551F59F05F3FD8
:1023900071F04795880F97FB991F61F09F3F79F087
:1023A00087950895121613061406551FF2CF469509
:1023B000F1DF08C0161617061806991FF1CF86958B
:1023C0007105610508940895E894BB27662777276F
:1023D000CB0197F908952F923F924F925F926F929F
:1023E0007F928F929F92AF92BF92CF92DF92EF92A5
:1023F000FF920F931F93CF93DF93CDB7DEB7CA1B26
:10240000DB0B0FB6F894DEBF0FBECDBF09942A8850
:10241000398848885F846E847D848C849B84AA84F8
:10242000B984C884DF80EE80FD800C811B81AA8185
:10243000B981CE0FD11D0FB6F894DEBF0FBECDBF50
:10244000ED010895A1E21A2EAA1BBB1BFD010DC0D0
:10245000AA1FBB1FEE1FFF1FA217B307E407F50754
:1024600020F0A21BB30BE40BF50B661F771F881F30
:10247000991F1A9469F760957095809590959B01C6
:10248000AC01BD01CF010895991B79E004C0991FEB
:10249000961708F0961B881F7A95C9F780950895BE
:1024A000EE0FFF1F0590F491E02D09945058BB27C3
:1024B000AA270E946E120C94B1110E94A31138F049
:1024C0000E94AA1120F039F49F3F19F426F40C94CD
:1024D000A0110EF4E095E7FB0C949A11E92F0E94ED
:1024E000C21158F3BA17620773078407950720F0E3
:1024F00079F4A6F50C94E4110EF4E0950B2EBA2FA6
:10250000A02D0B01B90190010C01CA01A0011124F9
:10251000FF27591B99F0593F50F4503E68F11A16A5
:10252000F040A22F232F342F4427585FF3CF469536
:1025300037952795A795F0405395C9F77EF41F1658
:10254000BA0B620B730B840BBAF09150A1F0FF0F22
:10255000BB1F661F771F881FC2F70EC0BA0F621F0E
:10256000731F841F48F4879577956795B795F795FE
:102570009E3F08F0B0CF9395880F08F09927EE0F93
:102580009795879508950E94D7120C94B1110E94D7
:10259000AA1158F00E94A31140F029F45F3F29F0DE
:1025A0000C949A1151110C94E5110C94A0110E94F5
:1025B000C21168F39923B1F3552391F3951B550B81
:1025C000BB27AA2762177307840738F09F5F5F4F06
:1025D000220F331F441FAA1FA9F335D00E2E3AF045
:1025E000E0E832D091505040E695001CCAF72BD05D
:1025F000FE2F29D0660F771F881FBB1F26173707AE
:102600004807AB07B0E809F0BB0B802DBF01FF27DF
:1026100093585F4F3AF09E3F510578F00C949A1111
:102620000C94E5115F3FE4F3983ED4F386957795DB
:102630006795B795F7959F5FC9F7880F911D969598
:10264000879597F90895E1E0660F771F881FBB1FF4
:10265000621773078407BA0720F0621B730B840BA1
:10266000BA0BEE1F88F7E09508950E94CA1188F012
:102670009F5798F0B92F9927B751B0F0E1F0660F46
:10268000771F881F991F1AF0BA95C9F714C0B13087
:1026900091F00E94E411B1E008950C94E411672FC9
:1026A000782F8827B85F39F0B93FCCF386957795B6
:1026B0006795B395D9F73EF490958095709561959F
:1026C0007F4F8F4F9F4F08950E94091108F48FEF9D
:1026D00008950E940911880B990B08950F931F9379
:1026E000CF93DF938230910510F482E090E0E09187
:1026F0004304F091440430E020E0B0E0A0E03097E3
:1027000099F42115310509F44AC0281B390B2430EE
:102710003105D8F58A819B816115710589F1FB012D
:1027200093838283FE0111C0408151810281138114
:1027300048175907E0F04817590799F4109761F0C6
:1027400012960C93129713961C933296CF01DF9139
:10275000CF911F910F910895009343041093440467
:10276000F4CF2115310551F04217530738F0A90174
:10277000DB019A01BD01DF01F801C1CFEF01F9CF03
:102780009093440480934304CDCFFE01E20FF31FE6
:10279000819391932250310939832883D7CF209197
:1027A000410430914204232B41F420910D013091DA
:1027B0000E01309342042093410420910B0130918B
:1027C0000C012115310541F42DB73EB740910F01A1
:1027D00050911001241B350BE0914104F09142040B
:1027E000E217F307A0F42E1B3F0B2817390778F0E8
:1027F000AC014E5F5F4F2417350748F04E0F5F1F47
:102800005093420440934104819391939FCFF0E011
:10281000E0E09CCFCF93DF930097E9F0FC01329783
:1028200013821282A0914304B0914404ED0130E080
:1028300020E01097A1F420813181820F931F209115
:102840004104309142042817390709F061C0F09320
:102850004204E0934104DF91CF910895EA01CE173D
:10286000DF07E8F54A815B819E0141155105B1F70B
:10287000E901FB83EA8349915991C40FD51FEC17F5
:10288000FD0761F4808191810296840F951FE90113
:1028900099838883828193819B838A83F0E0E0E03F
:1028A00012968D919C9113970097B9F52D913C91BB
:1028B0001197CD010296820F931F20914104309110
:1028C00042042817390739F6309751F5109244041D
:1028D00010924304B0934204A0934104BCCFD3832D
:1028E000C28340815181840F951FC817D90761F4B5
:1028F0004E5F5F4F88819981480F591F51834083F4
:102900008A819B81938382832115310509F0B0CFA1
:10291000F0934404E09343049ECFFD01DC01C0CF5B
:1029200013821282D7CFB0E0A0E0E9E9F4E10C9481
:10293000ED118C01009751F4CB010E946E138C01B4
:10294000C801CDB7DEB7E0E10C940912FC01E60F37
:10295000F71F9C0122503109E217F30708F49DC0CC
:10296000D901CD91DC911197C617D70798F0C530E2
:10297000D10530F3CE0104978617970708F3C61BDD
:10298000D70B2297C193D1936D937C93CF010E9473
:102990000A14D6CF5B01AC1ABD0A4C018C0E9D1EE9
:1029A000A0914304B0914404512C412CF12CE12C12
:1029B000109731F580914104909142048815990552
:1029C00009F05CC04616570608F058C080910B010C
:1029D00090910C01009741F48DB79EB740910F0183
:1029E00050911001841B950BE817F90708F055C0AA
:1029F000F0934204E0934104F90171836083A0CF16
:102A00008D919C91119712966C90129713967C90D1
:102A10001397A815B90559F56C0142E0C40ED11CF5
:102A2000CA14DB0420F1AC014A195B09DA011296E1
:102A3000159780F06282738251834083D9016D9330
:102A40007C93E114F10471F0D7011396FC93EE939B
:102A5000129776CF22968C0F9D1FF9019183808368
:102A6000F301EFCFF0934404E093430469CF481699
:102A7000590608F42C017D01D3019ACFCB010E94A5
:102A80006E137C01009749F0AE01B8010E94551504
:102A9000C8010E940A14870153CF10E000E050CF14
:102AA00081E090E0F8940C946515FB01DC0102C014
:102AB00001900D9241505040D8F70895FB01DC0180
:0E2AC00001900D920020E1F70895F894FFCFE9
:102ACE00DC050000DC0500005D020100004504800D
:102ADE00000605040000000042011501ED06EB00A2
:102AEE000E01FB00EC00000000004105A104CE0425
:102AFE008E05FF04DD04F104000000005F08A10450
:102B0E00ED06EC0600000000DE05DA050D0A006E8B
:102B1E00616E00696E66006F76660050726F677246
:102B2E00616D207374617274696E672E2E00533A54
:102B3E002053657475702020202020202000533AE9
:102B4E002043616C6962726174696E672000533A4A
:102B5E002052656164696E67202020202000533A60
:102B6E002054657374696E67202020202000533A2C
:102B7E00204F757470757420202020202000533A49
:102B8E00204572726F722020202020202000746950
:102B9E006D6520286D73292C20666F726365202861
:102BAE004E292C20766F6C74616765202856292C6F
:102BBE002063757272656E7420286D41292C207009
:102BCE006F77657220285729002C00627574746F18
:102BDE006E3A2000207072657373656409207374F9
:102BEE006174653A200054657374696E67206D6F69
:102BFE00746F720054657374696E67206D6F746FB5
:102C0E007270726F6772616D3A00436F6465206E09
:102C1E0065787420746F2074696D657200202020B1
:0E2C2E00202020202020202020202020000018
:00000001FF
