:100000000C9462000C948A000C948A000C948A0070
:100010000C948A000C948A000C948A000C948A0038
:100020000C948A000C948A000C948A000C940A08A0
:100030000C948A000C948A000C948A000C948A0018
:100040000C9468070C948A000C94D8070C94B2079F
:100050000C948A000C948A000C948A000C948A00F8
:100060000C9449060C948A0000000000230026002E
:10007000290000000000240027002A0000000000E2
:10008000250028002B0004040404040404040202D4
:100090000202020203030303030301020408102007
:1000A0004080010204081020010204081020000012
:1000B0000008000201000003040700000000000027
:1000C0000000C60811241FBECFEFD8E0DEBFCDBFB1
:1000D00012E0A0E0B1E0E2EBFDE102C005900D927C
:1000E000AA30B107D9F723E0AAE0B2E001C01D921F
:1000F000A73BB207E1F710E0C2E6D0E004C02197C9
:10010000FE010E94DA0CC136D107C9F70E946A09C4
:100110000C94D70E0C94000020918702260F3327F1
:10012000331F21323105ECF42091AD02FC0190E047
:1001300080E0243069F082E00895A0918702219147
:10014000AC014B595D4FA40FB52FB11D2C930196F7
:10015000861798F380918702680F6093870280E08A
:10016000089581E00895089508950895E0915C024E
:1001700080915B02E81730F4F0E0E55CFD4F808190
:1001800090E008958FEF9FEF089590915C02809129
:100190005B022FEF3FEF981748F4E92FF0E0E55CA2
:1001A000FD4F208130E09F5F90935C02C90108956C
:1001B00080915B0290915C02891B990B0895CF920C
:1001C000DF92EF92FF920F931F93CF93DF937C0107
:1001D000CB018A0120913A02222389F0EB016B01C5
:1001E000C40ED51ECC15DD0569F06991D701ED91DE
:1001F000FC910190F081E02DC7010995F3CF642FA8
:100200000E948C00C801DF91CF911F910F91FF9048
:10021000EF90DF90CF900895CF93DF931F92CDB7EB
:10022000DEB7698320913A022223F9F020915D0222
:10023000203258F021E030E0FC013383228390E04B
:1002400080E00F90DF91CF91089580915E02E82FBA
:10025000F0E0E65EFD4F998190838F5F80935E02B0
:1002600080935D0281E090E0ECCF61E0CE010196E9
:100270000E948C00F7CF833081F028F4813099F010
:100280008230A9F008958730A9F08830C9F0843011
:10029000B1F4809180008F7D03C0809180008F77C2
:1002A00080938000089584B58F7784BD089584B5C8
:1002B0008F7DFBCF8091B0008F778093B000089541
:1002C0008091B0008F7DF9CF1F93CF93DF93282FBC
:1002D00030E0F901E255FF4F8491F901E656FF4FF6
:1002E000D491F901EA57FF4FC491CC23A9F0162FFE
:1002F00081110E943B01EC2FF0E0EE0FFF1FE4584C
:10030000FF4FA591B4918FB7F894EC91111108C0EB
:10031000D095DE23DC938FBFDF91CF911F9108959D
:10032000DE2BF8CF1092AD0281E08093AF021092E5
:10033000AE0261E082E10E94640161E083E10E941B
:100340006401E9EBF0E080818E7F808380818D7F86
:10035000808388E48093B80085E48093BC0008958E
:10036000CF93DF9391E0909364028823B9F0C0911A
:10037000B800D091BA008091BC008A7B8093BC0009
:1003800060E082E10E94640160E083E10E94640118
:100390000E949201D093BA00C093B800DF91CF9130
:1003A0000895CF93DF9390E0FC01E656FF4F249130
:1003B0008A579F4FFC0184918823C9F090E0880FF1
:1003C000991FFC01EE58FF4FA591B491FC01E45830
:1003D000FF4FC591D49161110DC09FB7F8948C91D6
:1003E000209582238C938881282328839FBFDF91C7
:1003F000CF910895623051F49FB7F8943C91822FC9
:10040000809583238C93E8812E2BEFCF8FB7F894C0
:10041000EC912E2B2C938FBFEACF3FB7F8948091AD
:10042000160290911702A0911802B091190226B5F8
:10043000A89B05C02F3F19F00196A11DB11D3FBF1C
:10044000BA2FA92F982F8827BC01CD01620F711DEB
:10045000811D911D42E0660F771F881F991F4A95E5
:10046000D1F708958F929F92AF92BF92CF92DF9271
:10047000EF92FF924B015C010E940D026B017C0127
:100480000E940D026C197D098E099F09683E734018
:1004900081059105A8F321E0821A9108A108B1080D
:1004A00088EEC80E83E0D81EE11CF11C8114910473
:1004B000A104B10429F7FF90EF90DF90CF90BF9097
:1004C000AF909F908F9008952FB7F894609112028B
:1004D0007091130280911402909115022FBF08951C
:1004E000AF92BF92CF92DF92EF92FF920F931F9342
:1004F000CF93DF936C017B018B01040F151FEB0180
:100500005E01AE18BF08C017D10759F06991D60136
:10051000ED91FC910190F081E02DC6010995892BA8
:1005200079F7C501DF91CF911F910F91FF90EF9067
:10053000DF90CF90BF90AF900895FC01538D448D14
:10054000252F30E0842F90E0821B930B541710F07E
:10055000CF96089501970895FC01918D828D98178B
:1005600061F0A28DAE0FBF2FB11D5D968C91928D63
:100570009F5F9F73928F90E008958FEF9FEF089594
:10058000FC01918D828D981731F0828DE80FF11D5D
:10059000858D90E008958FEF9FEF0895FC01918D78
:1005A000228D892F90E0805C9F4F821B91098F7371
:1005B000992708958FED92E00E94CE0221E0892BC9
:1005C00009F420E0822F089580E090E0892B29F043
:1005D0000E94DA0281110C9400000895FC01A48DA0
:1005E000A80FB92FB11DA35ABF4F2C91848D90E055
:1005F00001968F739927848FA689B7892C93A08938
:10060000B1898C91837080648C93938D848D9813C1
:1006100006C00288F389E02D80818F7D8083089554
:10062000EF92FF920F931F93CF93DF93EC0181E042
:10063000888F9B8D8C8D98131AC0E889F9898081E9
:1006400085FF15C09FB7F894EE89FF896083E8891C
:10065000F98980818370806480839FBF81E090E00E
:10066000DF91CF911F910F91FF90EF900895F62E9B
:100670000B8D10E00F5F1F4F0F731127E02E8C8D35
:100680008E110CC00FB607FCFACFE889F98980817A
:1006900085FFF5CFCE010E94EE02F1CFEB8DEC0F7E
:1006A000FD2FF11DE35AFF4FF0829FB7F8940B8F97
:1006B000EA89FB8980818062CFCFCF93DF93EC0101
:1006C000888D8823B9F0AA89BB89E889F9898C913A
:1006D00085FD03C0808186FD0DC00FB607FCF7CFF6
:1006E0008C9185FFF2CF808185FFEDCFCE010E94F6
:1006F000EE02E9CFDF91CF910895862F642F0C94FD
:10070000D101CF93DF93FC01218930E0F901E2555B
:10071000FF4F8491F901E656FF4FD491F901EA5752
:10072000FF4FC491CC2379F081110E943B01EC2F43
:10073000F0E0EE0FFF1FE859FF4FA591B491EC9147
:10074000ED2381E009F480E08170DF91CF9108957D
:10075000CF92DF92EF92FF920F931F93CF93DF938D
:10076000FC01C48121E020933A02C0930E02109252
:100770005E0210925D028485682B83ED92E00E94F8
:100780000C01D0915D02D13208F092C00E940D029E
:100790006B017C018091AD02811165C082E0809384
:1007A000AD0281E08093AF028FEF8093AC02109294
:1007B000D102D093D002AAE1B2E0E0EBF2E080E017
:1007C000D81385C01092D2028091D202CC0FC82BD0
:1007D000C093D2028091AE02813009F07CC01092A9
:1007E000AE020E940D026B017C018091D2028093C7
:1007F000BB008091600290916102A0916202B09171
:100800006302892B8A2B8B2B99F00E940D02009199
:1008100060021091610220916202309163026C19B2
:100820007D098E099F090617170728073907E0F188
:100830008091BC0083FDD9CF85EC8093BC000E94E1
:100840000D026B017C018091AD02823009F445C03C
:100850008091AC028F3F61F18091AC02803241F116
:100860008091AC0225C08091600290916102A091BC
:100870006202B0916302892B8A2B8B2B09F48ACFF9
:100880000E940D02009160021091610220916202AB
:10089000309163026C197D098E099F0906171707AD
:1008A0002807390708F076CF80915F020E94B001D7
:1008B00010925E0210925D0210923A02DF91CF9187
:1008C0001F910F91FF90EF90DF90CF9008959D9131
:1008D00091938F5F75CF85EEB0CF8091600290913C
:1008E0006102A0916202B0916302892B8A2B8B2B4B
:1008F00009F4A9CF0E940D020091600210916102DB
:1009000020916202309163026C197D098E099F0962
:10091000061717072807390708F095CFC5CF0895A0
:1009200090E080E008950F931F93CF938C01C62F22
:100930000E94A8036C2F6460C8010E94A8036C2F5A
:100940006B7FC8010E94A80383EC90E00197F1F748
:10095000CF911F910F9108950F931F93CF93DF9322
:100960008C01D62FC42F607F642B0E94930480E1FA
:10097000D89FB00111246C2BC801DF91CF911F913A
:100980000F910C949304CF93DF93CDB7DEB72897E4
:100990000FB6F894DEBF0FBECDBF98E0E8E0F1E0FF
:1009A000DE01119601900D929A95E1F79091AC03BA
:1009B000981708F48FEF90E0880F991F21E030E03E
:1009C0002C0F3D1F820F931FFC016081606840E087
:1009D00084EA93E028960FB6F894DEBF0FBECDBF31
:1009E000DF91CF910C94AC0440E061E084EA93E0A5
:1009F0000E94AC048BE39FE10197F1F78091AD0376
:100A0000882319F080E00C94C304089541E00E940B
:100A1000AC0481E090E0089585ED8093BC00809166
:100A2000600290916102A0916202B0916302079608
:100A3000A11DB11D23E0B695A795979587952A9599
:100A4000D1F72091BC0024FD03C01092AD0208959F
:100A50004091600250916102609162027091630264
:100A6000452B462B472B69F30097A105B10541F0B3
:100A70002AE22A95F1F700C00197A109B109E1CF57
:100A800080915F020C94B001FB0101900020E9F716
:100A90003197AF01461B570BDC01ED91FC910280B1
:100AA000F381E02D0994CF93DF93FC0144815581BC
:100AB000608171818FED92E00E947002EC016BE425
:100AC00071E08FED92E00E9444058C0F9D1FDF9135
:100AD000CF910895CF93DF93CDB7DEB7A1970FB62F
:100AE000F894DEBF0FBECDBF19A2805D88A3BE0102
:100AF000605E7F4F84EA93E00E944405A1960FB6A2
:100B0000F894DEBF0FBECDBFDF91CF910895CF9394
:100B1000DF93EC0188819981009711F00E947C0D90
:100B2000198218821D821C821B821A82DF91CF914A
:100B30000895FC0180819181009711F00C947C0D47
:100B400008950E94C20E0F931F93CF93DF93EC0181
:100B500088819981009759F02A813B8126173707B0
:100B600030F081E0DF91CF911F910F9108958B01BB
:100B70006F5F7F4F0E94050E009759F0998388831D
:100B80001B830A832C813D81232B59F7FC011082A2
:100B9000E8CF80E0E7CFEF92FF920F931F93CF93C0
:100BA000DF9341155105B1F07B01EC010C811D81F2
:100BB000040F151FB8010E94A305882361F0288146
:100BC00039818C819D81B701820F931F0E94D00EC5
:100BD0001D830C8381E0DF91CF911F910F91FF90D6
:100BE000EF900895EF92FF920F931F93CF93DF93AF
:100BF000CDB7DEB728970FB6F894DEBF0FBECDBFD6
:100C00007C01CB014AE08E010F5F1F4FB8010E94AB
:100C10006E0CF80101900020E9F73197AF01401BFD
:100C2000510BB801C7010E94CB05811103C0C70158
:100C30000E948705C70128960FB6F894DEBF0FBE45
:100C4000CDBFDF91CF911F910F91FF90EF9008954D
:100C5000EF92FF920F931F93CF93DF93EC017B01F1
:100C60008A01BA010E94A30581110BC0CE010E9426
:100C70008705CE01DF91CF911F910F91FF90EF90EB
:100C800008951D830C83B701888199810E94D00E3D
:100C9000F0CF1F920F920FB60F9211242F933F9314
:100CA0004F935F936F937F938F939F93AF93BF9374
:100CB000EF93FF938091B900887F803609F44AC092
:100CC000F0F5883209F4A7C018F5803109F49BC00B
:100CD000B8F4882309F4F9C0883009F494C0FF916E
:100CE000EF91BF91AF919F918F917F916F915F91A4
:100CF0004F913F912F910F900FBE0F901F9018951D
:100D0000883109F488C0803251F78093AC0214C056
:100D1000803409F49DC040F48033B9F38833F9F688
:100D20008093AC0285ECB0C0803509F485C088356D
:100D300009F496C0883499F60E940C05D0CF883902
:100D400009F48CC038F5883729F050F4883611F052
:100D5000803729F683E08093AD021092AB0257C032
:100D6000883809F47BC0803919F0803809F0B7CF92
:100D70008091AB02803208F071C0E091AB0281E05B
:100D80008E0F8093AB028091BB00F0E0E557FD4FE2
:100D900080833DC0803B39F0E0F4803A09F479C0AB
:100DA000883A09F09CCF84E08093AD0210928802CB
:100DB00010928702E0918502F09186020995809158
:100DC000870281110FC081E0809387021092650233
:100DD00009C0803C09F4A6CF883C09F4A3CF883B26
:100DE00009F07DCFE091880281E08E0F8093880228
:100DF000F0E0EB59FD4F80818093BB009091880219
:100E00008091870229C08091D2028093BB0085EC3B
:100E10008093BC0064CF9091D1028091D00298174A
:100E200058F5E091D10281E08E0F8093D102F0E07D
:100E3000E055FD4F8081E9CFE091D10281E08E0F36
:100E40008093D1028091BB00F0E0E055FD4F80839C
:100E50009091D1028091D0029817C8F285E8D8CF3E
:100E6000E091D10281E08E0F8093D1028091BB008E
:100E7000F0E0E055FD4F80838091AF0281115CCF9F
:100E800081E08093AE0284EA8093BC001092AD02B0
:100E900026CF85EC8093BC001092AD028091AB020E
:100EA000803230F4E091AB02F0E0E557FD4F108264
:100EB0006091AB0270E0E0918902F0918A028BE8C8
:100EC00092E009951092AB020ACF1092AC0234CF97
:100ED0001F920F920FB60F9211242F933F938F936F
:100EE0009F93AF93BF938091120290911302A091B0
:100EF0001402B09115023091110223E0230F2D3717
:100F000058F50196A11DB11D209311028093120284
:100F100090931302A0931402B093150280911602CD
:100F200090911702A0911802B09119020196A11D8B
:100F3000B11D8093160290931702A0931802B093EC
:100F40001902BF91AF919F918F913F912F910F9077
:100F50000FBE0F901F90189526E8230F0296A11D33
:100F6000B11DD2CF1F920F920FB60F9211242F9363
:100F70003F934F935F936F937F938F939F93AF9321
:100F8000BF93EF93FF938FED92E00E94EE02FF91EB
:100F9000EF91BF91AF919F918F917F916F915F91F1
:100FA0004F913F912F910F900FBE0F901F9018956A
:100FB0001F920F920FB60F9211242F938F939F932E
:100FC000EF93FF93E091EF02F091F0028081E091C6
:100FD000F502F091F60282FD1BC090818091F8022B
:100FE0008F5F8F732091F902821741F0E091F80230
:100FF000F0E0E152FD4F958F8093F802FF91EF9161
:101000009F918F912F910F900FBE0F901F90189569
:101010008081F4CF1F920F920FB60F9211242F935D
:101020003F934F935F936F937F938F939F93AF9370
:10103000BF93CF93DF93EF93FF9380910D02C09105
:10104000A003D0E087FF24C0109285001092840096
:1010500080910D028F5F80930D0280910D02082E0A
:10106000000C990B8C179D0724F480910D028C3095
:10107000C4F18091840090918500049680349C494D
:1010800008F47AC08091840090918500049676C01F
:1010900080910D02082E000C990B8C179D07C4F649
:1010A000E0910D028E2FEE0F990BFC01EE0FFF1F4A
:1010B000E80FF91FE458FC4F808186FFC9CFE0910B
:1010C0000D028E2FEE0F990BFC01EE0FFF1FE80FA4
:1010D000F91FE458FC4F808160E08F730E94640127
:1010E000B7CF2091840030918500E0910D028E2FC2
:1010F000EE0F990BFC01EE0FFF1FE80FF91FE458EC
:10110000FC4F81819281820F931F9093890080937D
:101110008800E0910D028E2FEE0F990BFC01EE0F6F
:10112000FF1FE80FF91FE458FC4F808186FF11C0B4
:10113000E0910D028E2FEE0F990BFC01EE0FFF1FB9
:10114000E80FF91FE458FC4F808161E08F730E9423
:101150006401FF91EF91DF91CF91BF91AF919F918A
:101160008F917F916F915F914F913F912F910F9050
:101170000FBE0F901F90189580E49CE99093890012
:10118000809388008FEF80930D02E3CF1092D602F8
:101190001092D50288EE93E0A0E0B0E08093D702F1
:1011A0009093D802A093D902B093DA0227E131E0FC
:1011B0003093D4022093D3021092E2021092E10203
:1011C0008093E3029093E402A093E502B093E602D9
:1011D00089E291E09093E0028093DF0285EC90E059
:1011E0009093EC028093EB0284EC90E09093EE02FB
:1011F0008093ED0280EC90E09093F0028093EF02F8
:1012000081EC90E09093F2028093F10282EC90E006
:101210009093F4028093F30286EC90E09093F602B0
:101220008093F5021092F8021092F9021092FA02DD
:101230001092FB0286E390E00E94E00CFC019C010E
:101240002A5C3F4F6AE070E047E451E0128213826B
:101250001482158277836683108651834083118AB6
:1012600072962E173F0791F79093B2038093B103C4
:101270001092A7031092A6038BE391E09093A5032D
:101280008093A4031092AD0387E28093A80380E1CA
:101290008093AE0382E08093AF031092B0038091FD
:1012A000A0038C3098F491E0980F9093A003809362
:1012B000A10390E0FC01EE0FFF1FE80FF91FE458B7
:1012C000FC4F88EB9BE09283818308958FEF80939E
:1012D000A1030895CF93DF93CDB7DEB760970FB624
:1012E000F894DEBF0FBECDBF789484B5826084BD14
:1012F00084B5816084BD85B5826085BD85B581601A
:1013000085BD80916E00816080936E001092810097
:101310008091810082608093810080918100816052
:101320008093810080918000816080938000809113
:10133000B10084608093B1008091B000816080939F
:10134000B00080917A00846080937A0080917A0066
:10135000826080937A0080917A00816080937A0025
:1013600080917A00806880937A001092C100109278
:10137000100210920F02E091EF02F091F00282E071
:101380008083E091EB02F091EC021082E091ED029B
:10139000F091EE028FEC80831092F702E091F3025D
:1013A000F091F40286E08083E091F102F091F20284
:1013B000808180618083E091F102F091F20280816E
:1013C00088608083E091F102F091F2028081806870
:1013D0008083E091F102F091F20280818F7D808321
:1013E0006EE471E08FED92E00E9444056BE471E0E1
:1013F0008FED92E00E94440510925C0210925B0215
:1014000010925E0210925D020E94920183EB90E0C6
:10141000909386028093850284EB90E090938A02F9
:10142000809389021092A9038091AF03823018F053
:1014300098E09093A9038093AC0362E370E080E0AE
:1014400090E00E9432026091B00384EA93E00E942F
:10145000A80368EE73E080E090E00E94320260E34F
:1014600084EA93E00E9493040BE416E4C801019718
:10147000F1F760E384EA93E00E949304C8010197C6
:10148000F1F760E384EA93E00E94930483E592E03D
:101490000197F1F760E284EA93E00E94930460917F
:1014A000A903606240E084EA93E00E94AC0484E017
:1014B0008093AA0340E06CE084EA93E00E94AC04CD
:1014C0000E94F40482E08093AB0340E066E084EA8B
:1014D00093E00E94AC0440E062E084EA93E00E9462
:1014E000AC048BE39FE10197F1F788E08093B003B0
:1014F00060E084EA93E00E94A80380910F0290913B
:1015000010028230910509F454C144F4009779F037
:10151000019709F44BC181EB91E00BC08330910539
:1015200009F44AC10497B9F781EA91E002C081E663
:1015300091E090930101809300016091000170910E
:1015400001016115710521F08FED92E00E944405C3
:101550006BE471E08FED92E00E94440561E08DE064
:101560000E94D10162E084E00E94D10162E087E044
:101570000E94D10162E088E00E94D10120E1C22EE8
:1015800021E0D22EF12CE12C39E1A32EB12C0091D7
:10159000B1031091B2030E0D1F1DD6019D906D0178
:1015A000692D70E0D801ED91FC910280F381E02D6E
:1015B00042E050E0C8010995F801918A1086019037
:1015C000F081E02D0190F081E02DC801099588237C
:1015D00039F0D80118968C911897836018968C93DF
:1015E0000E946402F8016283738384839583E0918F
:1015F000B103F091B203EE0DFF1DB782A682F2E1B6
:10160000EF0EF11C26E3E216F10409F622242394DE
:1016100092E0392E0E946402F12CE12C8AE0C82E5F
:1016200082E0D82EA6014A5052405A010091B103DF
:101630001091B2030E0D1F1DD80118968C911897AA
:101640008B7F18968C931897ED91FC910190F08107
:10165000E02DC8010995982EF80180858695817046
:10166000981609F4ACC00E946402D80112966D93DA
:101670007D938D939C93159718968C91189783253D
:1016800018968C93E091B103F091B203EE0DFF1D1B
:10169000008500FDDCC002FB002700F9D6010C9399
:1016A0009085892F847090FDD4C0882309F466C08A
:1016B00010E018861F821A8619861C861B8647E052
:1016C00050E061EC71E0CE0107960E9428061A8274
:1016D00019821C821B821E821D826F817885611592
:1016E000710531F04B855C85CE0101960E9428067C
:1016F000B501CE0101960E94F2054C0142E150E095
:1017000069EC71E00E94CB05811103C0C4010E9405
:101710008705B801C4010E94F2050E945305CE015D
:1017200001960E949905CE0107960E94990540E016
:1017300062E084EA93E00E94AC048BE39FE10197AE
:10174000F1F761EC71E084EA93E00E944405C50181
:101750000E946A056CED71E084EA93E00E94440502
:1017600081E00E94C3046FED71E084EA93E00E947F
:101770004405F601808190E00E946A05FFEFCF1AD0
:10178000DF0A22E1E20EF11C36E3E316F10409F070
:1017900049CF40E050E0452B09F43CCF0E94DA02EB
:1017A000882309F437CF0E94000034CF81E791E00D
:1017B000C0CE81E891E0BDCE81E991E0BACE0E9431
:1017C0006402D80112964D905D906D907C901597B3
:1017D0009B01AC01241935094609570916968D91CC
:1017E0009C91B0E0A0E0281739074A075B0708F48E
:1017F00049CFD80118968C918170981609F442CF80
:101800000E946402F80162837383848395838085D8
:101810008225846080870E946402D80119962D91E8
:101820003D914D915C911C97621B730B840B950B42
:10183000F801658776878787908B0E946402D801BC
:1018400019966D937D938D939C931C971BCF00E00D
:1018500025CF882309F492CF10E018861F821A86BC
:1018600019861C861B8647E050E061EC71E0CE01D2
:1018700007960E9428061A8219821C821B821E82E9
:101880001D826F8178856115710531F04B855C850E
:10189000CE0101960E942806B501CE0101960E9454
:1018A000F2055C0143E150E066EE71E00E94CB0579
:1018B000811103C0C5010E948705B801C5010E94BE
:1018C000F2050E945305CE0101960E949905CE01B2
:1018D00007960E9499050E94F40450CFBB274A3016
:1018E00031F4992322F4BDE2909581959F4F0C9499
:1018F0007A0CBB27FB015527AA27880F991FAA1F1F
:10190000A41710F0A41B83955051B9F7A05DAA331A
:1019100008F0A95DA193009779F7B111B1931192E5
:10192000CB010C94930CDC01FC01672F71917723A0
:10193000E1F7329704C07C916D9370836291AE178A
:10194000BF07C8F308952F923F924F925F926F9214
:101950007F928F929F92AF92BF92CF92DF92EF923F
:10196000FF920F931F93CF93DF93CDB7DEB7CA1BC0
:10197000DB0B0FB6F894DEBF0FBECDBF09942A88EB
:10198000398848885F846E847D848C849B84AA8493
:10199000B984C884DF80EE80FD800C811B81AA8120
:1019A000B981CE0FD11D0FB6F894DEBF0FBECDBFEB
:1019B000ED010895EE0FFF1F0590F491E02D0994BD
:1019C0000F931F93CF93DF938230910510F482E041
:1019D00090E0E091B503F091B60330E020E0B0E094
:1019E000A0E0309799F42115310509F44AC0281B6D
:1019F000390B24303105D8F58A819B816115710539
:101A000089F1FB0193838283FE0111C040815181E2
:101A10000281138148175907E0F04817590799F4D4
:101A2000109761F012960C93129713961C933296AE
:101A3000CF01DF91CF911F910F9108950093B503CE
:101A40001093B603F4CF2115310551F04217530717
:101A500038F0A901DB019A01BD01DF01F801C1CF16
:101A6000EF01F9CF9093B6038093B503CDCFFE017C
:101A7000E20FF31F81939193225031093983288318
:101A8000D7CF2091B3033091B403232B41F420919D
:101A90000401309105013093B4032093B3032091E6
:101AA0000201309103012115310541F42DB73EB7F4
:101AB0004091060150910701241B350BE091B303BF
:101AC000F091B403E217F307A0F42E1B3F0B281785
:101AD000390778F0AC014E5F5F4F2417350748F0A7
:101AE0004E0F5F1F5093B4034093B30381939193C0
:101AF0009FCFF0E0E0E09CCFCF93DF930097E9F039
:101B0000FC01329713821282A091B503B091B60303
:101B1000ED0130E020E01097A1F420813181820FA7
:101B2000931F2091B3033091B4032817390709F0AC
:101B300061C0F093B403E093B303DF91CF910895B4
:101B4000EA01CE17DF07E8F54A815B819E01411566
:101B50005105B1F7E901FB83EA8349915991C40F1B
:101B6000D51FEC17FD0761F4808191810296840FE7
:101B7000951FE90199838883828193819B838A835E
:101B8000F0E0E0E012968D919C9113970097B9F5E3
:101B90002D913C911197CD010296820F931F2091B8
:101BA000B3033091B4032817390739F6309751F54C
:101BB0001092B6031092B503B093B403A093B3038D
:101BC000BCCFD383C28340815181840F951FC81736
:101BD000D90761F44E5F5F4F88819981480F591F83
:101BE000518340838A819B819383828321153105B0
:101BF00009F0B0CFF093B603E093B5039ECFFD019B
:101C0000DC01C0CF13821282D7CFB0E0A0E0EBE0BE
:101C1000FEE00C94A50C8C01009751F4CB010E94BE
:101C2000E00C8C01C801CDB7DEB7E0E10C94C10C2B
:101C3000FC01E60FF71F9C0122503109E217F30760
:101C400008F49DC0D901CD91DC911197C617D70733
:101C500098F0C530D10530F3CE0104978617970769
:101C600008F3C61BD70B2297C193D1936D937C9336
:101C7000CF010E947C0DD6CF5B01AC1ABD0A4C018E
:101C80008C0E9D1EA091B503B091B603512C412C32
:101C9000F12CE12C109731F58091B3039091B403AE
:101CA0008815990509F05CC04616570608F058C01B
:101CB0008091020190910301009741F48DB79EB786
:101CC0004091060150910701841B950BE817F90715
:101CD00008F055C0F093B403E093B303F9017183A6
:101CE0006083A0CF8D919C91119712966C90129762
:101CF00013967C901397A815B90559F56C0142E02D
:101D0000C40ED11CCA14DB0420F1AC014A195B09D2
:101D1000DA011296159780F06282738251834083B4
:101D2000D9016D937C93E114F10471F0D7011396FE
:101D3000FC93EE93129776CF22968C0F9D1FF9019C
:101D400091838083F301EFCFF093B603E093B50363
:101D500069CF4816590608F42C017D01D3019ACFAA
:101D6000CB010E94E00C7C01009749F0AE01B80164
:101D70000E94C70EC8010E947C0D870153CF10E05E
:101D800000E050CF81E090E0F8940C94D70EFB0176
:101D9000DC0102C001900D9241505040D8F70895E7
:101DA000FB01DC0101900D920020E1F70895F89409
:021DB000FFCF63
:101DB200FA010000B7038000000040001400540044
:101DC200040708000000000C01DF009004B500D8F1
:101DD20000C500B60000000000100370029D025D05
:101DE20003CE02AC02C002000000000605700290A1
:101DF200048F040000000081037D030D0A0050726D
:101E02006F6772616D207374617274696E672E2ED2
:101E120000533A2053657475702020202020202022
:101E220000533A2043616C6962726174696E672083
:101E320000533A2052656164696E67202020202099
:101E420000533A2054657374696E67202020202065
:101E520000533A204F757470757420202020202082
:101E620000533A204572726F7220202020202020D9
:101E720000627574746F6E5B005D207072657373BF
:101E82006564092073746174653A20005D3A0073D9
:101E9200746174653A005D2072656C656173656496
:101EA200092073746174653A2000202020202020CC
:0A1EB2002020202020202020200006
:00000001FF
