:100000000C9462000C948A000C948A000C948A0070
:100010000C948A000C948A000C948A000C948A0038
:100020000C948A000C948A000C948A000C94DE0CC8
:100030000C948A000C948A000C948A000C948A0018
:100040000C943C0C0C948A000C94AC0C0C94860C14
:100050000C948A000C948A000C948A000C948A00F8
:100060000C941D0B0C948A00000000002300260055
:10007000290000000000240027002A0000000000E2
:10008000250028002B0004040404040404040202D4
:100090000202020203030303030301020408102007
:1000A0004080010204081020010204081020000012
:1000B0000008000201000003040700000000000027
:1000C00000009A0D11241FBECFEFD8E0DEBFCDBFD8
:1000D00012E0A0E0B1E0E4E1FEE202C005900D9282
:1000E000AA3EB107D9F724E0AAEEB2E001C01D9202
:1000F000A13CB207E1F710E0C2E6D0E004C02197CE
:10010000FE010E94F313C136D107C9F70E943E0ECB
:100110000C9408170C940000E091AB04EC3088F5C7
:100120004091AC0428E830E0241B310947FD3395A9
:10013000220F331F220F331F8217930784F0409141
:10014000AD0428E532E0241B310947FD3395220F29
:10015000331F220F331F821793070CF49C01225088
:100160003109220F331F4FB7F8948E2F90E0FC0116
:10017000EE0FFF1FE80FF91FE358FB4F3283218377
:100180004FBF089520918803260F3327331F213254
:100190003105ECF42091AE03FC0190E080E02430C6
:1001A00069F082E00895A09188032191AC014A5939
:1001B0005C4FA40FB52FB11D2C930196861798F3B1
:1001C00080918803680F6093880380E0089581E040
:1001D0000895089508950895E0915D0380915C036A
:1001E000E81730F4F0E0E45CFC4F808190E0089583
:1001F0008FEF9FEF089590915D0380915C032FEF47
:100200003FEF981748F4E92FF0E0E45CFC4F2081C1
:1002100030E09F5F90935D03C901089580915C0376
:1002200090915D03891B990B0895CF92DF92EF9215
:10023000FF920F931F93CF93DF937C01CB018A0131
:1002400020913B03222389F0EB016B01C40ED51EE4
:10025000CC15DD0569F06991D701ED91FC91019014
:10026000F081E02DC7010995F3CF642F0E94C200F1
:10027000C801DF91CF911F910F91FF90EF90DF9018
:10028000CF900895CF93DF931F92CDB7DEB76983E8
:1002900020913B032223F9F020915E03203258F095
:1002A00021E030E0FC013383228390E080E00F9076
:1002B000DF91CF91089580915F03E82FF0E0E55E34
:1002C000FC4F998190838F5F80935F0380935E03DF
:1002D00081E090E0ECCF61E0CE0101960E94C20087
:1002E000F7CF833081F028F4813099F08230A9F083
:1002F00008958730A9F08830C9F08430B1F4809136
:1003000080008F7D03C0809180008F778093800074
:10031000089584B58F7784BD089584B58F7DFBCF14
:100320008091B0008F778093B00008958091B000E5
:100330008F7DF9CF1F93CF93DF93282F30E0F90102
:10034000E255FF4F8491F901E656FF4FD491F90130
:10035000EA57FF4FC491CC23A9F0162F81110E94B8
:100360007101EC2FF0E0EE0FFF1FE458FF4FA59155
:10037000B4918FB7F894EC91111108C0D095DE2399
:10038000DC938FBFDF91CF911F910895DE2BF8CFC3
:100390001092AE0381E08093B0031092AF0361E04E
:1003A00082E10E949A0161E083E10E949A01E9EBF7
:1003B000F0E080818E7F808380818D7F808388E4E0
:1003C0008093B80085E48093BC000895CF93DF93B9
:1003D00091E0909365038823B9F0C091B800D09163
:1003E000BA008091BC008A7B8093BC0060E082E10F
:1003F0000E949A0160E083E10E949A010E94C80174
:10040000D093BA00C093B800DF91CF910895CF93F5
:10041000DF9390E0FC01E656FF4F24918A579F4FEF
:10042000FC0184918823C9F090E0880F991FFC019A
:10043000EE58FF4FA591B491FC01E458FF4FC591D0
:10044000D49161110DC09FB7F8948C9120958223AF
:100450008C938881282328839FBFDF91CF910895B3
:10046000623051F49FB7F8943C91822F809583239A
:100470008C93E8812E2BEFCF8FB7F894EC912E2B35
:100480002C938FBFEACF3FB7F894809117039091D8
:100490001803A0911903B0911A0326B5A89B05C0B3
:1004A0002F3F19F00196A11DB11D3FBFBA2FA92FF3
:1004B000982F8827BC01CD01620F711D811D911DF0
:1004C00042E0660F771F881F991F4A95D1F708955C
:1004D0008F929F92AF92BF92CF92DF92EF92FF9254
:1004E0004B015C010E9443026B017C010E944302AC
:1004F0006C197D098E099F09683E7340810591053D
:10050000A8F321E0821A9108A108B10888EEC80E6C
:1005100083E0D81EE11CF11C81149104A104B104F4
:1005200029F7FF90EF90DF90CF90BF90AF909F9012
:100530008F9008952FB7F89460911303709114036E
:1005400080911503909116032FBF0895AF92BF922B
:10055000CF92DF92EF92FF920F931F93CF93DF938F
:100560006C017B018B01040F151FEB015E01AE18BE
:10057000BF08C017D10759F06991D601ED91FC91E0
:100580000190F081E02DC6010995892B79F7C5010D
:10059000DF91CF911F910F91FF90EF90DF90CF905F
:1005A000BF90AF900895FC01538D448D252F30E00E
:1005B000842F90E0821B930B541710F0CF96089570
:1005C00001970895FC01918D828D981761F0A28D9D
:1005D000AE0FBF2FB11D5D968C91928D9F5F9F7363
:1005E000928F90E008958FEF9FEF0895FC01918D19
:1005F000828D981731F0828DE80FF11D858D90E086
:1006000008958FEF9FEF0895FC01918D228D892F22
:1006100090E0805C9F4F821B91098F73992708950A
:1006200080EE93E00E94040321E0892B09F420E08E
:10063000822F089580E090E0892B29F00E9410031A
:1006400081110C9400000895FC01A48DA80FB92F0E
:10065000B11DA35ABF4F2C91848D90E001968F73EA
:100660009927848FA689B7892C93A089B1898C9109
:10067000837080648C93938D848D981306C0028858
:10068000F389E02D80818F7D80830895EF92FF9222
:100690000F931F93CF93DF93EC0181E0888F9B8DA5
:1006A0008C8D98131AC0E889F989808185FF15C05F
:1006B0009FB7F894EE89FF896083E889F989808182
:1006C0008370806480839FBF81E090E0DF91CF9151
:1006D0001F910F91FF90EF900895F62E0B8D10E073
:1006E0000F5F1F4F0F731127E02E8C8D8E110CC0E2
:1006F0000FB607FCFACFE889F989808185FFF5CF2D
:10070000CE010E942403F1CFEB8DEC0FFD2FF11DE4
:10071000E35AFF4FF0829FB7F8940B8FEA89FB8969
:1007200080818062CFCFCF93DF93EC01888D8823C7
:10073000B9F0AA89BB89E889F9898C9185FD03C044
:10074000808186FD0DC00FB607FCF7CF8C9185FF29
:10075000F2CF808185FFEDCFCE010E942403E9CF47
:10076000DF91CF9108950F931F93CF93DF93FC01F7
:1007700020812223F9F0EC010E949A0209811A815A
:100780002B813C81AB01BC01401B510B620B730BF5
:100790008D819E81B0E0A0E0481759076A077B076A
:1007A00048F0EF81F88509950E949A0269837A835F
:1007B0008B839C83DF91CF911F910F910895862F9A
:1007C000642F0C940702CF93DF93FC01218930E062
:1007D000F901E255FF4F8491F901E656FF4FD4919C
:1007E000F901EA57FF4FC491CC2379F081110E949F
:1007F0007101EC2FF0E0EE0FFF1FE859FF4FA591BC
:10080000B491EC91ED2381E009F480E08170DF91F7
:10081000CF910895CF92DF92EF92FF920F931F93A3
:10082000CF93DF93FC01C48121E020933B03C0936D
:100830000A0310925F0310925E038485682B84ED97
:1008400093E00E944201D0915E03D13208F092C041
:100850000E9443026B017C018091AE03811165C04F
:1008600082E08093AE0381E08093B0038FEF8093AA
:10087000AD031092D203D093D103ABE1B3E0E1EB2F
:10088000F3E080E0D81385C01092D3038091D303A6
:10089000CC0FC82BC093D3038091AF03813009F0F4
:1008A0007CC01092AF030E9443026B017C018091D7
:1008B000D3038093BB008091610390916203A09168
:1008C0006303B0916403892B8A2B8B2B99F00E94D0
:1008D0004302009161031091620320916303309100
:1008E00064036C197D098E099F09061717072807ED
:1008F0003907E0F18091BC0083FDD9CF85EC80936E
:10090000BC000E9443026B017C018091AE038230E7
:1009100009F445C08091AD038F3F61F18091AD0333
:10092000803241F18091AD0325C0809161039091A7
:100930006203A0916303B0916403892B8A2B8B2BF4
:1009400009F48ACF0E94430200916103109162036F
:1009500020916303309164036C197D098E099F090E
:10096000061717072807390708F076CF809160032C
:100970000E94E60110925F0310925E0310923B0307
:10098000DF91CF911F910F91FF90EF90DF90CF906B
:1009900008959D9191938F5F75CF85EEB0CF809133
:1009A000610390916203A0916303B0916403892B6A
:1009B0008A2B8B2B09F4A9CF0E944302009161037B
:1009C0001091620320916303309164036C197D09D7
:1009D0008E099F09061717072807390708F095CFD2
:1009E000C5CF089590E080E00895FC0101900020BB
:1009F000E9F73197AF01481B590BBC0180EE93E03A
:100A00000C94A602CF93DF93FC0144815581608151
:100A1000718180EE93E00E94A602EC018CE491E0EB
:100A20000E94F5048C0F9D1FDF91CF9108958F9246
:100A30009F92AF92BF920F931F93CF93DF93CDB747
:100A4000DEB7A1970FB6F894DEBF0FBECDBF19A2D7
:100A5000423008F44AE08E010F5D1F4F842E912C26
:100A6000B12CA12CA50194010E94C513E62FB90158
:100A7000CA01EA30F4F4E05DD801EE938D01232B36
:100A8000242B252B79F790E080E0109719F0CD0109
:100A90000E94F504A1960FB6F894DEBF0FBECDBF3D
:100AA000DF91CF911F910F91BF90AF909F908F904A
:100AB0000895E95CE1CFCF93DF93D0E0C0E00097E9
:100AC00019F00E94F504EC018CE491E00E94F50419
:100AD0008C0F9D1FDF91CF9108954F925F926F927F
:100AE0007F928F929F92AF92BF92CF92DF92EF92BE
:100AF000FF920F931F93CF936B017C01742EAC0177
:100B00009B010E940C15882399F08FE491E0CF910E
:100B10001F910F91FF90EF90DF90CF90BF90AF901B
:100B20009F908F907F906F905F904F900C94F50402
:100B300046015701E894B7F82FEF3FEF4FE75FE723
:100B4000C501B4010E940C1581110DC02FEF3FEFBC
:100B50004FE75FE7C501B4010E946A1218161CF442
:100B600083E591E0D4CF2FEF3FEF4FE75FE4C7017C
:100B7000B6010E94071518161CF487E591E0C7CF4F
:100B80002FEF3FEF4FE75FECC701B6010E946A12FB
:100B900087FDF3CF20E030E0A901C701B6010E9434
:100BA0006A1210E000E087FF0AC06DE280EE93E079
:100BB0000E9446038C01F7FAF094F7F8F094C0E035
:100BC00060E070E080E09FE37C1641F020E030E0E0
:100BD00040E251E40E946614CF5FF6CFA701960170
:100BE0000E94FA132B013C010E94D8144B015C01B6
:100BF0004AE00E9417057C01E00EF11ECC23C1F1F2
:100C0000C501B4010E946F129B01AC01C301B20186
:100C10000E94F9134B015C016EE280EE93E00E94AA
:100C20004603E80EF91EC15018F120E030E040E222
:100C300051E4C501B4010E94D0122B013C010E9475
:100C4000D8144B01B12CA12C4AE0C501B4010E947B
:100C50001705E80EF91EC501B4010E946F129B0131
:100C6000AC01C301B2010E94F9134B015C01DBCF5F
:100C7000C701CF911F910F91FF90EF90DF90CF9020
:100C8000BF90AF909F908F907F906F905F904F90AC
:100C900008950F931F93CF938C01C62F0E940A04CF
:100CA0006C2F6460C8010E940A046C2F6B7FC8011E
:100CB0000E940A0483EC90E00197F1F7CF911F9115
:100CC0000F9108950F931F93CF93DF938C01D62F2D
:100CD000C42F607F642B0E94490680E1D89FB00139
:100CE00011246C2BC801DF91CF911F910F910C94AF
:100CF000490641E00E94620681E090E0089585ED9A
:100D00008093BC008091610390916203A091630382
:100D1000B09164030796A11DB11D23E0B695A79578
:100D2000979587952A95D1F72091BC0024FD03C0A3
:100D30001092AE0308954091610350916203609157
:100D4000630370916403452B462B472B69F300978F
:100D5000A105B10541F02AE22A95F1F700C00197FB
:100D6000A109B109E1CF809160030C94E6010E94D2
:100D7000F3160F931F93CF93DF93EC018881998132
:100D8000009759F02A813B812617370730F081E020
:100D9000DF91CF911F910F9108958B016F5F7F4F6E
:100DA0000E943616009759F0998388831B830A8323
:100DB0002C813D81232B59F7FC011082E8CF80E084
:100DC000E7CFEF92FF920F931F93CF93DF934115DD
:100DD0005105B1F07B01EC010C811D81040F151F41
:100DE000B8010E94B906882361F0288139818C817D
:100DF0009D81B701820F931F0E9401171D830C83F1
:100E000081E0DF91CF911F910F91FF90EF900895B6
:100E1000CF93DF93EC0188819981009711F00E94B4
:100E2000AD15198218821D821C821B821A82DF91E5
:100E3000CF910895EF92FF920F931F93CF93DF937B
:100E4000CDB7DEB72D970FB6F894DEBF0FBECDBF7E
:100E50007C01CB01BA012AE08E010F5F1F4FA80170
:100E60000E941E12F80101900020E9F73197AF01AE
:100E7000401B510BB801C7010E94E106811103C05C
:100E8000C7010E940807C7012D960FB6F894DEBF70
:100E90000FBECDBFDF91CF911F910F91FF90EF90CB
:100EA0000895EF92FF920F931F93CF93DF93CDB7E7
:100EB000DEB728970FB6F894DEBF0FBECDBF7C011A
:100EC000CB014AE08E010F5F1F4FB8010E94131241
:100ED000F80101900020E9F73197AF01401B510B59
:100EE000B801C7010E94E106811103C0C7010E9439
:100EF0000807C70128960FB6F894DEBF0FBECDBF16
:100F0000DF91CF911F910F91FF90EF900895EF9295
:100F1000FF920F931F93CF93DF93EC0119821882F6
:100F20001B821A821D821C828617970719F1FB010A
:100F30000081118101151105E9F0E480F580B70108
:100F40000E94B906811109C0CE01DF91CF911F9196
:100F50000F91FF90EF900C940807FD82EC82B8018E
:100F600088819981DF91CF911F910F91FF90EF9030
:100F70000C940117DF91CF911F910F91FF90EF908B
:100F80000895EF92FF920F931F93CF93DF93EC019D
:100F90007B01198218821B821A821D821C82FB012E
:100FA00001900020E9F731978F01061B170BB8015C
:100FB0000E94B906811109C0CE01DF91CF911F9126
:100FC0000F91FF90EF900C9408071D830C83B701DD
:100FD00088819981DF91CF911F910F91FF90EF90C0
:100FE0000C940117FC0180819181009711F00C9401
:100FF000AD150895CF92DF92EF92FF92CF93DF93DA
:10100000CDB7DEB72C970FB6F894DEBF0FBECDBFBD
:10101000C090FD02D090FE02E090FF02F09000032D
:101020006BE571E0CE0101960E94C107BE016F5FC2
:101030007F4FCE0107960E948707B701A601CE0118
:1010400007960E941A070E940205CE0107960E9489
:10105000F207CE0101960E94F2078091FB02909167
:10106000FC028130910509F444C050F082309105B2
:1010700009F4A6C0039709F4DEC08CED95E0D8C052
:10108000C090FD02D090FE02E090FF02F0900003BD
:1010900025E0C216D104E104F10420F48CED95E0C2
:1010A0000E948C008FEFC81AD80AE80AF80AC0928A
:1010B000FD02D092FE02E092FF02F092000381E076
:1010C00090E022E3C216D104E104F104F0F580912E
:1010D0000B038F5F80930B032C960FB6F894DEBF43
:1010E0000FBECDBFDF91CF91FF90EF90DF90CF90FB
:1010F000089586E691E00E945B05C0900001D090C3
:101100000101E0900201F090030180EDC81687E034
:10111000D806E104F10430F18091FD029091FE02C5
:10112000A091FF02B09100030196A11DB11D809313
:10113000FD029093FE02A093FF02B0930003C297BA
:10114000A105B10520F282E090E09093FC0280932B
:10115000FB021092FD021092FE021092FF0210920A
:101160000003B5CF2AE0C20ED11CE11CF11CC092D5
:101170000001D0920101E0920201F0920301C60148
:101180000E948C006AE771E0CE0101960E94C107BF
:10119000BE016F5F7F4FCE0107960E948707B701A0
:1011A000A601CE0107960E941A070E940205CE01F1
:1011B00007960E94F207CE0101960E94F20787CFA0
:1011C0008BE891E00E945B05809100019091010104
:1011D000A0910201B0910301883E23E09207A1058E
:1011E000B105D9F48091FD029091FE02A091FF0219
:1011F000B09100030196A11DB11D8093FD02909353
:10120000FE02A093FF02B0930003C297A105B105AF
:1012100008F45DCF83E090E098CF0A97A109B10967
:101220008093000190930101A0930201B093030108
:101230000E948C004CCF84EA91E00E945B05809173
:10124000000190910101A0910201B09103018C3D38
:1012500025E09207A105B10509F45ECF0A96A11D0C
:10126000B11DDECFCF92DF92EF92FF92CF93DF934B
:10127000CDB7DEB72C970FB6F894DEBF0FBECDBF4B
:1012800080910103909102038130910509F48BC094
:1012900008F448C0029709F0D0C0C0900401D09073
:1012A0000501E0900601F0900701C6010E948C0044
:1012B00082E3C81AD108E108F108C0920401D09273
:1012C0000501E0920601F09207016EEB71E0CE019C
:1012D00001960E94C107BE016F5F7F4FCE01079646
:1012E0000E948707B701A601CE0107960E941A0740
:1012F0000E940205CE0107960E94F207CE010196D8
:101300000E94F2078091040190910501A0910601CD
:10131000B0910701893E9340A105B10590F583E0A6
:1013200090E086C08CED95E00E948C0081E090E01A
:101330009093020380930103C0900401D0900501B3
:10134000E0900601F09007016EEB71E0CE0101968E
:101350000E94C107BE016F5F7F4FCE0107960E94BA
:101360008707B701A601CE0107960E941A070E94BF
:101370000205CE0107960E94F207CE0101960E9457
:10138000F20780910B038F5F80930B032C960FB6AF
:10139000F894DEBF0FBECDBFDF91CF91FF90EF90ED
:1013A000DF90CF900895C0900401D0900501E090A7
:1013B0000601F0900701C6010E948C0022E3C20ED4
:1013C000D11CE11CF11CC0920401D0920501E092F5
:1013D0000601F09207016EEB71E0CE0101960E94CA
:1013E000C107BE016F5F7F4FCE0107960E9487073E
:1013F000B701A601CE0107960E941A070E940205B6
:10140000CE0107960E94F207CE0101960E94F207D4
:101410008091040190910501A0910601B09107010E
:10142000803D9740A105B10508F4ABCF82E090E084
:101430009093020380930103A4CF8CED95E00E946A
:101440008C009FCFCF92DF92EF92FF92CF93DF93EA
:10145000CDB7DEB72C970FB6F894DEBF0FBECDBF69
:10146000E0900703F09008036FEC71E0CE01019665
:101470000E94C107BE016F5F7F4FCE0107960E9499
:101480008707B701CE0107960E9451070E94020507
:10149000CE0107960E94F207CE0101960E94F20744
:1014A00080910703909108038130910549F160F024
:1014B0008230910509F459C0039709F48BC08CED73
:1014C00095E00E948C000AC08CED95E00E948C0093
:1014D00081E090E0909308038093070380910B03D1
:1014E0008F5F80930B032C960FB6F894DEBF0FBE70
:1014F000CDBFDF91CF91FF90EF90DF90CF90089517
:101500008CED95E0A0E0B0E080930303909304039A
:10151000A0930503B0930603C0900303D090040387
:10152000E0900503F090060381EDC81687E0D80629
:10153000E104F104B8F4C6010E948C0065E070E09B
:1015400080E090E00E9468028FEFC81AD80AE80A8B
:10155000F80AC0920303D0920403E0920503F092CC
:101560000603DACF82E090E0B5CF80ED97E0A0E00F
:10157000B0E08093030390930403A0930503B0931A
:101580000603C0900303D0900403E0900503F0909D
:10159000060389EEC81683E0D806E104F104B8F426
:1015A000C6010E948C0065E070E080E090E00E943F
:1015B000680281E0C81AD108E108F108C09203036B
:1015C000D0920403E0920503F0920603DACF83E0A1
:1015D00090E080CF88EE93E0A0E0B0E0809303033A
:1015E00090930403A0930503B0930603C0900303F4
:1015F000D0900403E0900503F09006038DEDC8162B
:1016000085E0D806E104F10408F059CFC6010E9434
:101610008C0065E070E080E090E00E9468028FEF4F
:10162000C81AD80AE80AF80AC0920303D092040341
:10163000E0920503F0920603D9CF1F920F920FB6E6
:101640000F9211242F933F934F935F936F937F9348
:101650008F939F93AF93BF93EF93FF938091B900C4
:10166000887F803609F44AC0F0F5883209F4A7C0B3
:1016700018F5803109F49BC0B8F4882309F4F9C047
:10168000883009F494C0FF91EF91BF91AF919F9181
:101690008F917F916F915F914F913F912F910F901B
:1016A0000FBE0F901F901895883109F488C08032C2
:1016B00051F78093AD0314C0803409F49DC040F409
:1016C0008033B9F38833F9F68093AD0385ECB0C06D
:1016D000803509F485C0883509F496C0883499F6B8
:1016E0000E947F06D0CF883909F48CC038F588373E
:1016F00029F050F4883611F0803729F683E0809382
:10170000AE031092AC0357C0883809F47BC080390F
:1017100019F0803809F0B7CF8091AC03803208F01F
:1017200071C0E091AC0381E08E0F8093AC03809197
:10173000BB00F0E0E457FC4F80833DC0803B39F0B4
:10174000E0F4803A09F479C0883A09F09CCF84E04B
:101750008093AE031092890310928803E091860370
:10176000F091870309958091880381110FC081E072
:10177000809388031092660309C0803C09F4A6CFC9
:10178000883C09F4A3CF883B09F07DCFE091890321
:1017900081E08E0F80938903F0E0EA59FC4F80814D
:1017A0008093BB00909189038091880329C0809128
:1017B000D3038093BB0085EC8093BC0064CF9091F1
:1017C000D2038091D103981758F5E091D20381E0BC
:1017D0008E0F8093D203F0E0EF54FC4F8081E9CF6D
:1017E000E091D20381E08E0F8093D2038091BB0001
:1017F000F0E0EF54FC4F80839091D2038091D103AD
:101800009817C8F285E8D8CFE091D20381E08E0F17
:101810008093D2038091BB00F0E0EF54FC4F8083B3
:101820008091B00381115CCF81E08093AF0384EAA3
:101830008093BC001092AE0326CF85EC8093BC0051
:101840001092AE038091AC03803230F4E091AC038F
:10185000F0E0E457FC4F10826091AC0370E0E0913F
:101860008A03F0918B038CE893E009951092AC0306
:101870000ACF1092AD0334CF1F920F920FB60F9282
:1018800011242F933F938F939F93AF93BF93809196
:10189000130390911403A0911503B0911603309196
:1018A000120323E0230F2D3758F50196A11DB11D1A
:1018B000209312038093130390931403A0931503B2
:1018C000B09316038091170390911803A091190308
:1018D000B0911A030196A11DB11D80931703909337
:1018E0001803A0931903B0931A03BF91AF919F916E
:1018F0008F913F912F910F900FBE0F901F901895D1
:1019000026E8230F0296A11DB11DD2CF1F920F9280
:101910000FB60F9211242F933F934F935F936F93C2
:101920007F938F939F93AF93BF93EF93FF9380EE3B
:1019300093E00E942403FF91EF91BF91AF919F919B
:101940008F917F916F915F914F913F912F910F9068
:101950000FBE0F901F9018951F920F920FB60F9207
:1019600011242F938F939F93EF93FF93E091F003B4
:10197000F091F1038081E091F603F091F70382FD8D
:101980001BC090818091F9038F5F8F732091FA03C0
:10199000821741F0E091F903F0E0E052FC4F958F9F
:1019A0008093F903FF91EF919F918F912F910F9069
:1019B0000FBE0F901F9018958081F4CF1F920F9249
:1019C0000FB60F9211242F933F934F935F936F9312
:1019D0007F938F939F93AF93BF93CF93DF93EF93B7
:1019E000FF9380910903C091A104D0E087FF24C038
:1019F0001092850010928400809109038F5F80937C
:101A0000090380910903082E000C990B8C179D0780
:101A100024F4809109038C30C4F18091840090916A
:101A20008500049680349C4908F47AC08091840033
:101A300090918500049676C080910903082E000CD1
:101A4000990B8C179D07C4F6E09109038E2FEE0FBA
:101A5000990BFC01EE0FFF1FE80FF91FE358FB4F36
:101A6000808186FFC9CFE09109038E2FEE0F990B7D
:101A7000FC01EE0FFF1FE80FF91FE358FB4F8081B9
:101A800060E08F730E949A01B7CF2091840030915B
:101A90008500E09109038E2FEE0F990BFC01EE0FEC
:101AA000FF1FE80FF91FE358FB4F81819281820FDE
:101AB000931F9093890080938800E09109038E2FF3
:101AC000EE0F990BFC01EE0FFF1FE80FF91FE35813
:101AD000FB4F808186FF11C0E09109038E2FEE0F2E
:101AE000990BFC01EE0FFF1FE80FF91FE358FB4FA6
:101AF000808161E08F730E949A01FF91EF91DF91E5
:101B0000CF91BF91AF919F918F917F916F915F9195
:101B10004F913F912F910F900FBE0F901F901895EE
:101B200080E49CE990938900809388008FEF8093F4
:101B30000903E3CF1092D7031092D60388EE93E007
:101B4000A0E0B0E08093D8039093D903A093DA0388
:101B5000B093DB0328E131E03093D5032093D40325
:101B60001092E3031092E2038093E4039093E50361
:101B7000A093E603B093E7038AE291E09093E10338
:101B80008093E00385EC90E09093ED038093EC0369
:101B900084EC90E09093EF038093EE0380EC90E070
:101BA0009093F1038093F00381EC90E09093F30322
:101BB0008093F20382EC90E09093F5038093F4031A
:101BC00086EC90E09093F7038093F6031092F9036C
:101BD0001092FA031092FB031092FC0386E390E04C
:101BE0000E941115FC019C012A5C3F4F6AE070E0E5
:101BF00048E451E01282138214821582778366834F
:101C0000108651834083118A7296E217F30791F789
:101C10009093BC048093BB041092B1041092B00462
:101C20008CE391E09093AF048093AE041092B704DC
:101C300087E28093B20480E18093B80482E08093CD
:101C4000B9041092BA048091A1048C3098F491E008
:101C5000980F9093A1048093AB0490E0FC01EE0FE9
:101C6000FF1FE80FF91FE358FB4F88EB9BE09283BF
:101C7000818308958FEF8093AB040895CF93DF9312
:101C8000CDB7DEB761970FB6F894DEBF0FBECDBFFC
:101C9000789484B5826084BD84B5816084BD85B547
:101CA000826085BD85B5816085BD80916E00816053
:101CB00080936E00109281008091810082608093F9
:101CC00081008091810081608093810080918000FB
:101CD0008160809380008091B10084608093B10026
:101CE0008091B00081608093B00080917A00846020
:101CF00080937A0080917A00826080937A0080914C
:101D00007A00816080937A0080917A008068809365
:101D10007A001092C10010920D0310920C03E09112
:101D2000F003F091F10382E08083E091EC03F09105
:101D3000ED031082E091EE03F091EF038FEC8083CE
:101D40001092F803E091F403F091F50386E08083AC
:101D5000E091F203F091F303808180618083E09150
:101D6000F203F091F303808188608083E091F203B5
:101D7000F091F303808180688083E091F203F09119
:101D8000F30380818F7D808388ED91E00E945B0565
:101D900010925D0310925C0310925F0310925E0339
:101DA0000E94C80189EE90E0909387038093860398
:101DB0008AEE90E090938B0380938A031092B30491
:101DC0008091B904823018F098E09093B304809326
:101DD000B60462E370E080E090E00E9468026091E7
:101DE000BA048EEA94E00E940A0468EE73E080E090
:101DF00090E00E94680260E38EEA94E00E94490647
:101E00000BE416E4C8010197F1F760E38EEA94E071
:101E10000E944906C8010197F1F760E38EEA94E059
:101E20000E94490683E592E00197F1F760E28EEAAD
:101E300094E00E9449066091B304606240E08EEA3B
:101E400094E00E94620684E08093B40440E06CE079
:101E50008EEA94E00E94620640E061E08EEA94E03F
:101E60000E9462068BE39FE10197F1F78091B7042E
:101E7000882331F040E060E88EEA94E00E94620638
:101E800082E08093B50440E066E08EEA94E00E9430
:101E9000620640E062E08EEA94E00E9462068BE314
:101EA0009FE10197F1F788E08093BA0460E08EEA41
:101EB00094E00E940A0480910C0390910D038230FB
:101EC000910509F4DAC144F4009779F0019709F417
:101ED000D1C18BE392E00BC08330910509F4D0C1EE
:101EE0000497B9F78BE292E002C08BEE91E09093F9
:101EF00009018093080180910801909109010E94D5
:101F00005B0561E08DE00E94070261E083E00E94D2
:101F1000070260E08EE00E94070260E08FE00E940E
:101F2000070262E086E00E94070262E085E00E940C
:101F3000070262E084E00E94070211E1C12E11E075
:101F4000D12EF12CE12C09E1A02EB12C0091BB0483
:101F50001091BC040E0D1F1DD6019D906D01692DC1
:101F600070E0D801ED91FC910280F381E02D42E018
:101F700050E0C8010995F801918A10860190F0811E
:101F8000E02D0190F081E02DC8010995882339F0FA
:101F9000D80118968C911897836018968C930E949C
:101FA0009A02F8016283738384839583E091BB0472
:101FB000F091BC04EE0DFF1DB782A682F2E1EF0E98
:101FC000F11C26E3E216F10409F680910C039091CE
:101FD0000D03892B09F057C184E090E090930D0325
:101FE00080930C038BE492E00E945B058091AB042C
:101FF0008C3008F051C061E083E00E9407028091BC
:10200000AB04282F30E0F901EE0FFF1FE20FF31FA2
:10201000E358FB4F9081907C936090831092AC04C6
:102020001092AD042CE0622F0E94E713829FB00152
:10203000112430E020E0AB01420F531FFA01EE0FF4
:10204000FF1FE40FF51FE358FB4F908196FD16C06C
:102050002F5F3F4F2C30310571F781110FC0109267
:10206000800082E0809381001092850010928400AD
:10207000B19A80916F00826080936F00E091AB0411
:102080008E2F90E0FC01EE0FFF1FE80FF91FE358C1
:10209000FB4F80818064808364E170E080E090E0A9
:1020A0000E9468028CED95E00E948C0068E873E164
:1020B00080E090E00E94680253E0252E312C4AEF28
:1020C000A42E47E0B42E0E949A0260930E037093F0
:1020D0000F03809310039093110338EFC32E32E067
:1020E000D32EF12CE12CA601485F52404A01009109
:1020F000BB041091BC040E0D1F1DD80118968C91C5
:1021000018978B7F18968C931897ED91FC910190FE
:10211000F081E02DC80109958D87F80180858695AD
:1021200081704D84481609F41FC10E949A02D8019B
:1021300012966D937D938D939C93159718968C9121
:10214000B2E08B27F8018087E091BB04F091BC04DA
:10215000EE0DFF1D008500FD55C102FB002700F9B3
:10216000D6010D936D01808580FD2FC082FF2DC0AB
:1021700010E068E872E0CE0107960E94C107BE0138
:10218000695F7F4FCE0101960E948707B401CE019F
:1021900001960E9451074C0141E150E061E972E073
:1021A0000E94E106811103C0C4010E940807B80122
:1021B000C4010E9451070E940205CE0101960E94AF
:1021C000F207CE0107960E94F207B2E1EB0EF11C76
:1021D000E6E3EE16F10409F086CF30920D0320926B
:1021E0000C0383EA92E00E945B0561EB72E0CE0192
:1021F00007960E94C107BE01695F7F4FCE0101961D
:102200000E94870770E060E0CE0101960E945107AE
:102210000E940205CE0101960E94F207CE010796A8
:102220000E94F2070E949A02F1E0F093A20424E1D6
:10223000422E512C5092A8044092A7046093A3040C
:102240007093A4048093A5049093A604B092AA046A
:10225000A092A904F0930A0180910A01882309F44D
:10226000D3C082EA94E00E94B30387EC92E00E941C
:102270005B05F2CF8BEF91E03ACE8BE092E037CE68
:102280008BE192E034CE84E090E090930D03809354
:102290000C038BE292E090930901809308010E9465
:1022A0005B050E949A0200910E0310910F0320918A
:1022B000100330911103601B710B820B930B4AE0EA
:1022C0000E94170586E892E00E94F504C090F6028D
:1022D000D090F7020D2C000CEE08FF084AE0C70171
:1022E000B601F7FE0DC06DE280EE93E00E9446035A
:1022F00066277727CB016C197D098E099F094AE073
:102300000E94170586E892E00E94F5046091EA02B7
:102310007091EB028091EC029091ED0242E00E94FC
:102320006D0586E892E00E94F5046091EE027091DE
:10233000EF028091F0029091F10242E00E946D055F
:1023400086E892E00E94F5046091F2027091F30237
:102350008091F4029091F50242E00E946D058CE4B8
:1023600091E00E94F50442CE0E949A02D801129692
:102370004D905D906D907C9015979B01AC01241958
:1023800035094609570916968D919C91B0E0A0E059
:10239000281739074A075B0708F4D6CED8011896E4
:1023A0008C9181704D84481609F4CECE0E949A0219
:1023B000D80112966D937D938D939C9315971896E3
:1023C0008C91B1E08B278460F80180870E949A028B
:1023D000D80119962D913D914D915C911C97621BEE
:1023E000730B840B950BF801658776878787908B35
:1023F0000E949A02D80119966D937D938D939C93B8
:102400001C97A2CE00E0ACCE80E0682E80E0782E53
:10241000672809F458CE0E941003882309F44FCE90
:102420000E94000049CEBB274A3031F4992322F4A0
:10243000BDE2909581959F4F0C944112BB27FA0104
:10244000A62F6217710581059105330B30FB66F0ED
:10245000AA27660F771F881F991FAA1FA21710F0BF
:10246000A21B63953850A9F7A05DAA3308F0A95DB7
:10247000A19336F7B111B1931082CA010C945A128C
:10248000BB27FB015527AA27880F991FAA1FA4174E
:1024900010F0A41B83955051B9F7A05DAA3308F042
:1024A000A95DA193009779F7B111B1931192CB0176
:1024B0000C945A12DC01FC01672F71917723E1F72C
:1024C000329704C07C916D9370836291AE17BF0701
:1024D000C8F308950E94AC1208F481E00895E894CE
:1024E00009C097FB3EF490958095709561957F4F5C
:1024F0008F4F9F4F9923A9F0F92F96E9BB2793950A
:10250000F695879577956795B795F111F8CFFAF419
:10251000BB0F11F460FF1BC06F5F7F4F8F4F9F4F4A
:1025200016C0882311F096E911C0772321F09EE8A8
:10253000872F762F05C0662371F096E8862F70E00E
:1025400060E02AF09A95660F771F881FDAF7880FE8
:102550009695879597F90895990F0008550FAA0B3E
:10256000E0E8FEEF16161706E807F907C0F01216A6
:102570001306E407F50798F0621B730B840B950BA9
:1025800039F40A2661F0232B242B252B21F40895FE
:102590000A2609F4A140A6958FEF811D811D08959B
:1025A0000E94E3120C9454130E94461338F00E94C8
:1025B0004D1320F0952311F00C943D130C9443130C
:1025C00011240C9488130E94651370F3959FC1F336
:1025D000950F50E0551F629FF001729FBB27F00DD1
:1025E000B11D639FAA27F00DB11DAA1F649F662726
:1025F000B00DA11D661F829F2227B00DA11D621F75
:10260000739FB00DA11D621F839FA00D611D221F2E
:10261000749F3327A00D611D231F849F600D211D12
:10262000822F762F6A2F11249F5750409AF0F1F095
:1026300088234AF0EE0FFF1FBB1F661F771F881FFE
:1026400091505040A9F79E3F510580F00C943D13E6
:102650000C9488135F3FE4F3983ED4F38695779506
:102660006795B795F795E7959F5FC1F7FE2B880FA4
:10267000911D9695879597F9089597F99F6780E83A
:1026800070E060E008959FEF80EC089500240A94C4
:102690001616170618060906089500240A9412163D
:1026A0001306140605060895092E0394000C11F470
:1026B000882352F0BB0F40F4BF2B11F460FF04C01D
:1026C0006F5F7F4F8F4F9F4F089557FD9058440F76
:1026D000551F59F05F3F71F04795880F97FB991F81
:1026E00061F09F3F79F0879508951216130614063E
:1026F000551FF2CF4695F1DF08C0161617061806CB
:10270000991FF1CF86957105610508940895E894A5
:10271000BB2766277727CB0197F908952F923F9221
:102720004F925F926F927F928F929F92AF92BF92E1
:10273000CF92DF92EF92FF920F931F93CF93DF938D
:10274000CDB7DEB7CA1BDB0B0FB6F894DEBF0FBEEA
:10275000CDBF09942A88398848885F846E847D8437
:102760008C849B84AA84B984C884DF80EE80FD8039
:102770000C811B81AA81B981CE0FD11D0FB6F894AF
:10278000DEBF0FBECDBFED010895A1E21A2EAA1B38
:10279000BB1BFD010DC0AA1FBB1FEE1FFF1FA21711
:1027A000B307E407F50720F0A21BB30BE40BF50B0E
:1027B000661F771F881F991F1A9469F76095709597
:1027C000809590959B01AC01BD01CF010895991BA7
:1027D00079E004C0991F961708F0961B881F7A9518
:1027E000C9F780950895EE0FFF1F0590F491E02D35
:1027F00009945058BB27AA270E9411140C94541313
:102800000E94461338F00E944D1320F039F49F3F88
:1028100019F426F40C9443130EF4E095E7FB0C94A2
:102820003D13E92F0E94651358F3BA176207730727
:102830008407950720F079F4A6F50C9487130EF41D
:10284000E0950B2EBA2FA02D0B01B90190010C01C0
:10285000CA01A0011124FF27591B99F0593F50F4D8
:10286000503E68F11A16F040A22F232F342F442730
:10287000585FF3CF469537952795A795F040539528
:10288000C9F77EF41F16BA0B620B730B840BBAF0F8
:102890009150A1F0FF0FBB1F661F771F881FC2F763
:1028A0000EC0BA0F621F731F841F48F48795779577
:1028B0006795B795F7959E3F08F0B0CF9395880F31
:1028C00008F09927EE0F9795879508950E947A143E
:1028D0000C9454130E944D1358F00E94461340F07C
:1028E00029F45F3F29F00C943D1351110C94881387
:1028F0000C9443130E94651368F39923B1F3552395
:1029000091F3951B550BBB27AA2762177307840702
:1029100038F09F5F5F4F220F331F441FAA1FA9F398
:1029200035D00E2E3AF0E0E832D091505040E69586
:10293000001CCAF72BD0FE2F29D0660F771F881FE7
:10294000BB1F261737074807AB07B0E809F0BB0BDA
:10295000802DBF01FF2793585F4F3AF09E3F5105EE
:1029600078F00C943D130C9488135F3FE4F3983E89
:10297000D4F3869577956795B795F7959F5FC9F7D7
:10298000880F911D9695879597F90895E1E0660F58
:10299000771F881FBB1F621773078407BA0720F0D1
:1029A000621B730B840BBA0BEE1F88F7E09508953A
:1029B0000E946D1388F09F5798F0B92F9927B7514F
:1029C000B0F0E1F0660F771F881F991F1AF0BA95D3
:1029D000C9F714C0B13091F00E948713B1E0089597
:1029E0000C948713672F782F8827B85F39F0B93F89
:1029F000CCF3869577956795B395D9F73EF4909586
:102A00008095709561957F4F8F4F9F4F08950E94DD
:102A1000AC1208F48FEF08950E94AC12880B990B4A
:102A200008950F931F93CF93DF938230910510F495
:102A300082E090E0E091BF04F091C00430E020E03B
:102A4000B0E0A0E0309799F42115310509F44AC0AF
:102A5000281B390B24303105D8F58A819B816115FB
:102A6000710589F1FB0193838283FE0111C04081CE
:102A700051810281138148175907E0F0481759071F
:102A800099F4109761F012960C93129713961C9379
:102A90003296CF01DF91CF911F910F91089500934E
:102AA000BF041093C004F4CF2115310551F0421733
:102AB000530738F0A901DB019A01BD01DF01F801DC
:102AC000C1CFEF01F9CF9093C0048093BF04CDCF65
:102AD000FE01E20FF31F8193919322503109398354
:102AE0002883D7CF2091BD043091BE04232B41F41D
:102AF00020910D0130910E013093BE042093BD044E
:102B000020910B0130910C012115310541F42DB7B5
:102B10003EB740910F0150911001241B350BE091FD
:102B2000BD04F091BE04E217F307A0F42E1B3F0B87
:102B30002817390778F0AC014E5F5F4F241735072F
:102B400048F04E0F5F1F5093BE044093BD04819325
:102B500091939FCFF0E0E0E09CCFCF93DF9300977D
:102B6000E9F0FC01329713821282A091BF04B09168
:102B7000C004ED0130E020E01097A1F42081318104
:102B8000820F931F2091BD043091BE04281739078E
:102B900009F061C0F093BE04E093BD04DF91CF91D2
:102BA0000895EA01CE17DF07E8F54A815B819E01AF
:102BB00041155105B1F7E901FB83EA834991599128
:102BC000C40FD51FEC17FD0761F480819181029637
:102BD000840F951FE90199838883828193819B8368
:102BE0008A83F0E0E0E012968D919C911397009714
:102BF000B9F52D913C911197CD010296820F931F4B
:102C00002091BD043091BE042817390739F630975A
:102C100051F51092C0041092BF04B093BE04A0936B
:102C2000BD04BCCFD383C28340815181840F951FE3
:102C3000C817D90761F44E5F5F4F88819981480FAB
:102C4000591F518340838A819B81938382832115FD
:102C5000310509F0B0CFF093C004E093BF049ECFDC
:102C6000FD01DC01C0CF13821282D7CFB0E0A0E01B
:102C7000ECE3F6E10C9490138C01009751F4CB0136
:102C80000E9411158C01C801CDB7DEB7E0E10C94AC
:102C9000AC13FC01E60FF71F9C0122503109E2172B
:102CA000F30708F49DC0D901CD91DC911197C617A7
:102CB000D70798F0C530D10530F3CE0104978617B9
:102CC000970708F3C61BD70B2297C193D1936D9337
:102CD0007C93CF010E94AD15D6CF5B01AC1ABD0A23
:102CE0004C018C0E9D1EA091BF04B091C004512CCC
:102CF000412CF12CE12C109731F58091BD0490917D
:102D0000BE048815990509F05CC04616570608F000
:102D100058C080910B0190910C01009741F48DB740
:102D20009EB740910F0150911001841B950BE8173D
:102D3000F90708F055C0F093BE04E093BD04F90113
:102D400071836083A0CF8D919C91119712966C90A6
:102D5000129713967C901397A815B90559F56C0135
:102D600042E0C40ED11CCA14DB0420F1AC014A19A4
:102D70005B09DA011296159780F0628273825183A3
:102D80004083D9016D937C93E114F10471F0D70174
:102D90001396FC93EE93129776CF22968C0F9D1F7D
:102DA000F90191838083F301EFCFF093C004E093A6
:102DB000BF0469CF4816590608F42C017D01D301E0
:102DC0009ACFCB010E9411157C01009749F0AE010A
:102DD000B8010E94F816C8010E94AD15870153CFB3
:102DE00010E000E050CF81E090E0F8940C940817D8
:102DF000FB01DC0102C001900D9241505040D8F718
:102E00000895FB01DC0101900D920020E1F7089587
:042E1000F894FFCF64
:102E1400DC050000DC050000DA02010000C10480CA
:102E2400000605040000000042011501F204EB0055
:102E34000E01FB00EC00000000004603A602D302D2
:102E440093030403E202F602000000007906A602DE
:102E5400F204F10400000000E303DF030D0A006E36
:102E6400616E00696E66006F766600776169742032
:102E740069732061740052656163686564206361ED
:102E8400736520416464696E670074687275737455
:102E94005F70726F675F61203D20005265616368F7
:102EA4006564206361736520537562747261637431
:102EB400696E670052656163686564206361736568
:102EC40020416464696E675F68616C76650074684C
:102ED400727573745F70726F675F62203D20005378
:102EE40074617465203D200050726F6772616D20BB
:102EF4007374617274696E672E2E00533A205365A1
:102F04007475702020202020202000533A20436133
:102F14006C6962726174696E672000533A2052656D
:102F24006164696E67202020202000533A20546594
:102F34007374696E67202020202000533A204F7557
:102F44007470757420202020202000533A2045728C
:102F5400726F72202020202020200074696D65206B
:102F6400286D73292C20666F72636520284E292CE6
:102F740020766F6C74616765202856292C20637550
:102F84007272656E7420286D41292C20706F7765EC
:102F94007220285729002C00627574746F6E3A20D1
:102FA40000207072657373656409207374617465BD
:102FB4003A200054657374696E67206D6F746F7284
:102FC4000054657374696E67206D6F746F727072EC
:102FD4006F6772616D3A00436F6465206E65787443
:102FE40020746F2074696D657200202020202020D9
:0A2FF40020202020202020202000B3
:00000001FF
